{"contracts/CandidateContract.sol":{"CandidateContract":{"abi":[{"anonymous":false,"inputs":[{"indexed":false,"internalType":"uint8","name":"version","type":"uint8"}],"name":"Initialized","type":"event"},{"inputs":[],"name":"CANDIDATE_ID","outputs":[{"internalType":"uint256","name":"","type":"uint256"}],"stateMutability":"view","type":"function"},{"inputs":[{"internalType":"address","name":"","type":"address"}],"name":"addressToId","outputs":[{"internalType":"uint256","name":"","type":"uint256"}],"stateMutability":"view","type":"function"},{"inputs":[{"components":[{"internalType":"uint256","name":"id","type":"uint256"},{"internalType":"string","name":"fname","type":"string"},{"internalType":"string","name":"lname","type":"string"},{"internalType":"uint256","name":"dob","type":"uint256"},{"internalType":"string","name":"country","type":"string"},{"internalType":"string","name":"primaryRole","type":"string"},{"internalType":"string","name":"yoe","type":"string"},{"internalType":"string","name":"bio","type":"string"},{"internalType":"string","name":"profileImageIPFSURL","type":"string"},{"internalType":"string[]","name":"experiences","type":"string[]"},{"internalType":"string[]","name":"skills","type":"string[]"},{"internalType":"string","name":"pronouns","type":"string"},{"internalType":"string","name":"resumeIPFSURL","type":"string"},{"internalType":"address","name":"ownerAddress","type":"address"},{"components":[{"internalType":"string","name":"website","type":"string"},{"internalType":"string","name":"linkedin","type":"string"},{"internalType":"string","name":"github","type":"string"},{"internalType":"string","name":"twitter","type":"string"}],"internalType":"struct CandidateContract.Links","name":"links","type":"tuple"}],"internalType":"struct CandidateContract.Candidate","name":"_updatedCandidate","type":"tuple"}],"name":"editRegisteredCandidate","outputs":[{"internalType":"uint256","name":"","type":"uint256"}],"stateMutability":"nonpayable","type":"function"},{"inputs":[{"internalType":"address","name":"_candidateAddress","type":"address"}],"name":"getCandidateByAddress","outputs":[{"components":[{"internalType":"uint256","name":"id","type":"uint256"},{"internalType":"string","name":"fname","type":"string"},{"internalType":"string","name":"lname","type":"string"},{"internalType":"uint256","name":"dob","type":"uint256"},{"internalType":"string","name":"country","type":"string"},{"internalType":"string","name":"primaryRole","type":"string"},{"internalType":"string","name":"yoe","type":"string"},{"internalType":"string","name":"bio","type":"string"},{"internalType":"string","name":"profileImageIPFSURL","type":"string"},{"internalType":"string[]","name":"experiences","type":"string[]"},{"internalType":"string[]","name":"skills","type":"string[]"},{"internalType":"string","name":"pronouns","type":"string"},{"internalType":"string","name":"resumeIPFSURL","type":"string"},{"internalType":"address","name":"ownerAddress","type":"address"},{"components":[{"internalType":"string","name":"website","type":"string"},{"internalType":"string","name":"linkedin","type":"string"},{"internalType":"string","name":"github","type":"string"},{"internalType":"string","name":"twitter","type":"string"}],"internalType":"struct CandidateContract.Links","name":"links","type":"tuple"}],"internalType":"struct CandidateContract.Candidate","name":"","type":"tuple"}],"stateMutability":"view","type":"function"},{"inputs":[{"internalType":"uint256","name":"_id","type":"uint256"}],"name":"getCandidateById","outputs":[{"components":[{"internalType":"uint256","name":"id","type":"uint256"},{"internalType":"string","name":"fname","type":"string"},{"internalType":"string","name":"lname","type":"string"},{"internalType":"uint256","name":"dob","type":"uint256"},{"internalType":"string","name":"country","type":"string"},{"internalType":"string","name":"primaryRole","type":"string"},{"internalType":"string","name":"yoe","type":"string"},{"internalType":"string","name":"bio","type":"string"},{"internalType":"string","name":"profileImageIPFSURL","type":"string"},{"internalType":"string[]","name":"experiences","type":"string[]"},{"internalType":"string[]","name":"skills","type":"string[]"},{"internalType":"string","name":"pronouns","type":"string"},{"internalType":"string","name":"resumeIPFSURL","type":"string"},{"internalType":"address","name":"ownerAddress","type":"address"},{"components":[{"internalType":"string","name":"website","type":"string"},{"internalType":"string","name":"linkedin","type":"string"},{"internalType":"string","name":"github","type":"string"},{"internalType":"string","name":"twitter","type":"string"}],"internalType":"struct CandidateContract.Links","name":"links","type":"tuple"}],"internalType":"struct CandidateContract.Candidate","name":"","type":"tuple"}],"stateMutability":"view","type":"function"},{"inputs":[],"name":"initialize","outputs":[],"stateMutability":"nonpayable","type":"function"},{"inputs":[{"components":[{"internalType":"uint256","name":"id","type":"uint256"},{"internalType":"string","name":"fname","type":"string"},{"internalType":"string","name":"lname","type":"string"},{"internalType":"uint256","name":"dob","type":"uint256"},{"internalType":"string","name":"country","type":"string"},{"internalType":"string","name":"primaryRole","type":"string"},{"internalType":"string","name":"yoe","type":"string"},{"internalType":"string","name":"bio","type":"string"},{"internalType":"string","name":"profileImageIPFSURL","type":"string"},{"internalType":"string[]","name":"experiences","type":"string[]"},{"internalType":"string[]","name":"skills","type":"string[]"},{"internalType":"string","name":"pronouns","type":"string"},{"internalType":"string","name":"resumeIPFSURL","type":"string"},{"internalType":"address","name":"ownerAddress","type":"address"},{"components":[{"internalType":"string","name":"website","type":"string"},{"internalType":"string","name":"linkedin","type":"string"},{"internalType":"string","name":"github","type":"string"},{"internalType":"string","name":"twitter","type":"string"}],"internalType":"struct CandidateContract.Links","name":"links","type":"tuple"}],"internalType":"struct CandidateContract.Candidate","name":"_newCandidate","type":"tuple"}],"name":"registerCandidate","outputs":[{"internalType":"uint256","name":"","type":"uint256"}],"stateMutability":"nonpayable","type":"function"},{"inputs":[],"name":"totalCandidates","outputs":[{"internalType":"uint256","name":"","type":"uint256"}],"stateMutability":"view","type":"function"}],"evm":{"bytecode":{"linkReferences":{},"object":"608060405234801561001057600080fd5b50613074806100206000396000f3fe608060405234801561001057600080fd5b50600436106100885760003560e01c8063a3a9ac651161005b578063a3a9ac6514610115578063ad25e82914610133578063cb0e0d7d14610163578063f0dc74931461019357610088565b80633866965c1461008d5780638129fc1c146100ab57806393f5db28146100b557806395f85022146100e5575b600080fd5b6100956101c3565b6040516100a291906120ea565b60405180910390f35b6100b36101d0565b005b6100cf60048036038101906100ca9190612775565b61030e565b6040516100dc91906120ea565b60405180910390f35b6100ff60048036038101906100fa91906127be565b6106db565b60405161010c9190612b5b565b60405180910390f35b61011d6110be565b60405161012a91906120ea565b60405180910390f35b61014d60048036038101906101489190612b7d565b6110c4565b60405161015a9190612b5b565b60405180910390f35b61017d60048036038101906101789190612b7d565b611b30565b60405161018a91906120ea565b60405180910390f35b6101ad60048036038101906101a89190612775565b611b48565b6040516101ba91906120ea565b60405180910390f35b6000603480549050905090565b60008060019054906101000a900460ff161590508080156102015750600160008054906101000a900460ff1660ff16105b8061022e575061021030611e85565b15801561022d5750600160008054906101000a900460ff1660ff16145b5b61026d576040517f08c379a000000000000000000000000000000000000000000000000000000000815260040161026490612c2d565b60405180910390fd5b60016000806101000a81548160ff021916908360ff16021790555080156102aa576001600060016101000a81548160ff0219169083151502179055505b6000603381905550801561030b5760008060016101000a81548160ff0219169083151502179055507f7f26b83ff96e1f2b6a682f133852f6798a09c465da95921460cefb384740249860016040516103029190612c9f565b60405180910390a15b50565b6000806035600061031d611ea8565b73ffffffffffffffffffffffffffffffffffffffff1673ffffffffffffffffffffffffffffffffffffffff1681526020019081526020016000205414610398576040517f08c379a000000000000000000000000000000000000000000000000000000000815260040161038f90612d2c565b60405180910390fd5b816101a0015173ffffffffffffffffffffffffffffffffffffffff166103bc611ea8565b73ffffffffffffffffffffffffffffffffffffffff1614610412576040517f08c379a000000000000000000000000000000000000000000000000000000000815260040161040990612dbe565b60405180910390fd5b6033600081548092919061042590612e0d565b91905055506033548260000181815250506034829080600181540180825580915050600190039060005260206000209060120201600090919091909150600082015181600001556020820151816001019080519060200190610488929190611eb0565b5060408201518160020190805190602001906104a5929190611eb0565b506060820151816003015560808201518160040190805190602001906104cc929190611eb0565b5060a08201518160050190805190602001906104e9929190611eb0565b5060c0820151816006019080519060200190610506929190611eb0565b5060e0820151816007019080519060200190610523929190611eb0565b50610100820151816008019080519060200190610541929190611eb0565b5061012082015181600901908051906020019061055f929190611f36565b5061014082015181600a01908051906020019061057d929190611f36565b5061016082015181600b01908051906020019061059b929190611eb0565b5061018082015181600c0190805190602001906105b9929190611eb0565b506101a082015181600d0160006101000a81548173ffffffffffffffffffffffffffffffffffffffff021916908373ffffffffffffffffffffffffffffffffffffffff1602179055506101c082015181600e016000820151816000019080519060200190610628929190611eb0565b506020820151816001019080519060200190610645929190611eb0565b506040820151816002019080519060200190610662929190611eb0565b50606082015181600301908051906020019061067f929190611eb0565b505050505060335460356000610693611ea8565b73ffffffffffffffffffffffffffffffffffffffff1673ffffffffffffffffffffffffffffffffffffffff168152602001908152602001600020819055506033549050919050565b6106e3611f96565b60346001836106f29190612e56565b8154811061070357610702612e8a565b5b9060005260206000209060120201604051806101e00160405290816000820154815260200160018201805461073790612ee8565b80601f016020809104026020016040519081016040528092919081815260200182805461076390612ee8565b80156107b05780601f10610785576101008083540402835291602001916107b0565b820191906000526020600020905b81548152906001019060200180831161079357829003601f168201915b505050505081526020016002820180546107c990612ee8565b80601f01602080910402602001604051908101604052809291908181526020018280546107f590612ee8565b80156108425780601f1061081757610100808354040283529160200191610842565b820191906000526020600020905b81548152906001019060200180831161082557829003601f168201915b505050505081526020016003820154815260200160048201805461086590612ee8565b80601f016020809104026020016040519081016040528092919081815260200182805461089190612ee8565b80156108de5780601f106108b3576101008083540402835291602001916108de565b820191906000526020600020905b8154815290600101906020018083116108c157829003601f168201915b505050505081526020016005820180546108f790612ee8565b80601f016020809104026020016040519081016040528092919081815260200182805461092390612ee8565b80156109705780601f1061094557610100808354040283529160200191610970565b820191906000526020600020905b81548152906001019060200180831161095357829003601f168201915b5050505050815260200160068201805461098990612ee8565b80601f01602080910402602001604051908101604052809291908181526020018280546109b590612ee8565b8015610a025780601f106109d757610100808354040283529160200191610a02565b820191906000526020600020905b8154815290600101906020018083116109e557829003601f168201915b50505050508152602001600782018054610a1b90612ee8565b80601f0160208091040260200160405190810160405280929190818152602001828054610a4790612ee8565b8015610a945780601f10610a6957610100808354040283529160200191610a94565b820191906000526020600020905b815481529060010190602001808311610a7757829003601f168201915b50505050508152602001600882018054610aad90612ee8565b80601f0160208091040260200160405190810160405280929190818152602001828054610ad990612ee8565b8015610b265780601f10610afb57610100808354040283529160200191610b26565b820191906000526020600020905b815481529060010190602001808311610b0957829003601f168201915b5050505050815260200160098201805480602002602001604051908101604052809291908181526020016000905b82821015610c00578382906000526020600020018054610b7390612ee8565b80601f0160208091040260200160405190810160405280929190818152602001828054610b9f90612ee8565b8015610bec5780601f10610bc157610100808354040283529160200191610bec565b820191906000526020600020905b815481529060010190602001808311610bcf57829003601f168201915b505050505081526020019060010190610b54565b505050508152602001600a8201805480602002602001604051908101604052809291908181526020016000905b82821015610cd9578382906000526020600020018054610c4c90612ee8565b80601f0160208091040260200160405190810160405280929190818152602001828054610c7890612ee8565b8015610cc55780601f10610c9a57610100808354040283529160200191610cc5565b820191906000526020600020905b815481529060010190602001808311610ca857829003601f168201915b505050505081526020019060010190610c2d565b505050508152602001600b82018054610cf190612ee8565b80601f0160208091040260200160405190810160405280929190818152602001828054610d1d90612ee8565b8015610d6a5780601f10610d3f57610100808354040283529160200191610d6a565b820191906000526020600020905b815481529060010190602001808311610d4d57829003601f168201915b50505050508152602001600c82018054610d8390612ee8565b80601f0160208091040260200160405190810160405280929190818152602001828054610daf90612ee8565b8015610dfc5780601f10610dd157610100808354040283529160200191610dfc565b820191906000526020600020905b815481529060010190602001808311610ddf57829003601f168201915b50505050508152602001600d820160009054906101000a900473ffffffffffffffffffffffffffffffffffffffff1673ffffffffffffffffffffffffffffffffffffffff1673ffffffffffffffffffffffffffffffffffffffff168152602001600e8201604051806080016040529081600082018054610e7b90612ee8565b80601f0160208091040260200160405190810160405280929190818152602001828054610ea790612ee8565b8015610ef45780601f10610ec957610100808354040283529160200191610ef4565b820191906000526020600020905b815481529060010190602001808311610ed757829003601f168201915b50505050508152602001600182018054610f0d90612ee8565b80601f0160208091040260200160405190810160405280929190818152602001828054610f3990612ee8565b8015610f865780601f10610f5b57610100808354040283529160200191610f86565b820191906000526020600020905b815481529060010190602001808311610f6957829003601f168201915b50505050508152602001600282018054610f9f90612ee8565b80601f0160208091040260200160405190810160405280929190818152602001828054610fcb90612ee8565b80156110185780601f10610fed57610100808354040283529160200191611018565b820191906000526020600020905b815481529060010190602001808311610ffb57829003601f168201915b5050505050815260200160038201805461103190612ee8565b80601f016020809104026020016040519081016040528092919081815260200182805461105d90612ee8565b80156110aa5780601f1061107f576101008083540402835291602001916110aa565b820191906000526020600020905b81548152906001019060200180831161108d57829003601f168201915b505050505081525050815250509050919050565b60335481565b6110cc611f96565b6000603560008473ffffffffffffffffffffffffffffffffffffffff1673ffffffffffffffffffffffffffffffffffffffff1681526020019081526020016000205490506000811415611154576040517f08c379a000000000000000000000000000000000000000000000000000000000815260040161114b90612f8c565b60405180910390fd5b60346001826111639190612e56565b8154811061117457611173612e8a565b5b9060005260206000209060120201604051806101e0016040529081600082015481526020016001820180546111a890612ee8565b80601f01602080910402602001604051908101604052809291908181526020018280546111d490612ee8565b80156112215780601f106111f657610100808354040283529160200191611221565b820191906000526020600020905b81548152906001019060200180831161120457829003601f168201915b5050505050815260200160028201805461123a90612ee8565b80601f016020809104026020016040519081016040528092919081815260200182805461126690612ee8565b80156112b35780601f10611288576101008083540402835291602001916112b3565b820191906000526020600020905b81548152906001019060200180831161129657829003601f168201915b50505050508152602001600382015481526020016004820180546112d690612ee8565b80601f016020809104026020016040519081016040528092919081815260200182805461130290612ee8565b801561134f5780601f106113245761010080835404028352916020019161134f565b820191906000526020600020905b81548152906001019060200180831161133257829003601f168201915b5050505050815260200160058201805461136890612ee8565b80601f016020809104026020016040519081016040528092919081815260200182805461139490612ee8565b80156113e15780601f106113b6576101008083540402835291602001916113e1565b820191906000526020600020905b8154815290600101906020018083116113c457829003601f168201915b505050505081526020016006820180546113fa90612ee8565b80601f016020809104026020016040519081016040528092919081815260200182805461142690612ee8565b80156114735780601f1061144857610100808354040283529160200191611473565b820191906000526020600020905b81548152906001019060200180831161145657829003601f168201915b5050505050815260200160078201805461148c90612ee8565b80601f01602080910402602001604051908101604052809291908181526020018280546114b890612ee8565b80156115055780601f106114da57610100808354040283529160200191611505565b820191906000526020600020905b8154815290600101906020018083116114e857829003601f168201915b5050505050815260200160088201805461151e90612ee8565b80601f016020809104026020016040519081016040528092919081815260200182805461154a90612ee8565b80156115975780601f1061156c57610100808354040283529160200191611597565b820191906000526020600020905b81548152906001019060200180831161157a57829003601f168201915b5050505050815260200160098201805480602002602001604051908101604052809291908181526020016000905b828210156116715783829060005260206000200180546115e490612ee8565b80601f016020809104026020016040519081016040528092919081815260200182805461161090612ee8565b801561165d5780601f106116325761010080835404028352916020019161165d565b820191906000526020600020905b81548152906001019060200180831161164057829003601f168201915b5050505050815260200190600101906115c5565b505050508152602001600a8201805480602002602001604051908101604052809291908181526020016000905b8282101561174a5783829060005260206000200180546116bd90612ee8565b80601f01602080910402602001604051908101604052809291908181526020018280546116e990612ee8565b80156117365780601f1061170b57610100808354040283529160200191611736565b820191906000526020600020905b81548152906001019060200180831161171957829003601f168201915b50505050508152602001906001019061169e565b505050508152602001600b8201805461176290612ee8565b80601f016020809104026020016040519081016040528092919081815260200182805461178e90612ee8565b80156117db5780601f106117b0576101008083540402835291602001916117db565b820191906000526020600020905b8154815290600101906020018083116117be57829003601f168201915b50505050508152602001600c820180546117f490612ee8565b80601f016020809104026020016040519081016040528092919081815260200182805461182090612ee8565b801561186d5780601f106118425761010080835404028352916020019161186d565b820191906000526020600020905b81548152906001019060200180831161185057829003601f168201915b50505050508152602001600d820160009054906101000a900473ffffffffffffffffffffffffffffffffffffffff1673ffffffffffffffffffffffffffffffffffffffff1673ffffffffffffffffffffffffffffffffffffffff168152602001600e82016040518060800160405290816000820180546118ec90612ee8565b80601f016020809104026020016040519081016040528092919081815260200182805461191890612ee8565b80156119655780601f1061193a57610100808354040283529160200191611965565b820191906000526020600020905b81548152906001019060200180831161194857829003601f168201915b5050505050815260200160018201805461197e90612ee8565b80601f01602080910402602001604051908101604052809291908181526020018280546119aa90612ee8565b80156119f75780601f106119cc576101008083540402835291602001916119f7565b820191906000526020600020905b8154815290600101906020018083116119da57829003601f168201915b50505050508152602001600282018054611a1090612ee8565b80601f0160208091040260200160405190810160405280929190818152602001828054611a3c90612ee8565b8015611a895780601f10611a5e57610100808354040283529160200191611a89565b820191906000526020600020905b815481529060010190602001808311611a6c57829003601f168201915b50505050508152602001600382018054611aa290612ee8565b80601f0160208091040260200160405190810160405280929190818152602001828054611ace90612ee8565b8015611b1b5780601f10611af057610100808354040283529160200191611b1b565b820191906000526020600020905b815481529060010190602001808311611afe57829003601f168201915b50505050508152505081525050915050919050565b60356020528060005260406000206000915090505481565b6000808260000151905060008114158015611ba857508060356000611b6b611ea8565b73ffffffffffffffffffffffffffffffffffffffff1673ffffffffffffffffffffffffffffffffffffffff16815260200190815260200160002054145b8015611beb5750826101a0015173ffffffffffffffffffffffffffffffffffffffff16611bd3611ea8565b73ffffffffffffffffffffffffffffffffffffffff16145b611c2a576040517f08c379a0000000000000000000000000000000000000000000000000000000008152600401611c219061301e565b60405180910390fd5b826034600183611c3a9190612e56565b81548110611c4b57611c4a612e8a565b5b9060005260206000209060120201600082015181600001556020820151816001019080519060200190611c7f929190611eb0565b506040820151816002019080519060200190611c9c929190611eb0565b50606082015181600301556080820151816004019080519060200190611cc3929190611eb0565b5060a0820151816005019080519060200190611ce0929190611eb0565b5060c0820151816006019080519060200190611cfd929190611eb0565b5060e0820151816007019080519060200190611d1a929190611eb0565b50610100820151816008019080519060200190611d38929190611eb0565b50610120820151816009019080519060200190611d56929190611f36565b5061014082015181600a019080519060200190611d74929190611f36565b5061016082015181600b019080519060200190611d92929190611eb0565b5061018082015181600c019080519060200190611db0929190611eb0565b506101a082015181600d0160006101000a81548173ffffffffffffffffffffffffffffffffffffffff021916908373ffffffffffffffffffffffffffffffffffffffff1602179055506101c082015181600e016000820151816000019080519060200190611e1f929190611eb0565b506020820151816001019080519060200190611e3c929190611eb0565b506040820151816002019080519060200190611e59929190611eb0565b506060820151816003019080519060200190611e76929190611eb0565b50505090505080915050919050565b6000808273ffffffffffffffffffffffffffffffffffffffff163b119050919050565b600033905090565b828054611ebc90612ee8565b90600052602060002090601f016020900481019282611ede5760008555611f25565b82601f10611ef757805160ff1916838001178555611f25565b82800160010185558215611f25579182015b82811115611f24578251825591602001919060010190611f09565b5b509050611f329190612028565b5090565b828054828255906000526020600020908101928215611f85579160200282015b82811115611f84578251829080519060200190611f74929190611eb0565b5091602001919060010190611f56565b5b509050611f929190612045565b5090565b604051806101e0016040528060008152602001606081526020016060815260200160008152602001606081526020016060815260200160608152602001606081526020016060815260200160608152602001606081526020016060815260200160608152602001600073ffffffffffffffffffffffffffffffffffffffff168152602001612022612069565b81525090565b5b80821115612041576000816000905550600101612029565b5090565b5b80821115612065576000818161205c9190612091565b50600101612046565b5090565b6040518060800160405280606081526020016060815260200160608152602001606081525090565b50805461209d90612ee8565b6000825580601f106120af57506120ce565b601f0160209004906000526020600020908101906120cd9190612028565b5b50565b6000819050919050565b6120e4816120d1565b82525050565b60006020820190506120ff60008301846120db565b92915050565b6000604051905090565b600080fd5b600080fd5b600080fd5b6000601f19601f8301169050919050565b7f4e487b7100000000000000000000000000000000000000000000000000000000600052604160045260246000fd5b6121678261211e565b810181811067ffffffffffffffff821117156121865761218561212f565b5b80604052505050565b6000612199612105565b90506121a5828261215e565b919050565b600080fd5b6121b8816120d1565b81146121c357600080fd5b50565b6000813590506121d5816121af565b92915050565b600080fd5b600080fd5b600067ffffffffffffffff821115612200576121ff61212f565b5b6122098261211e565b9050602081019050919050565b82818337600083830152505050565b6000612238612233846121e5565b61218f565b905082815260208101848484011115612254576122536121e0565b5b61225f848285612216565b509392505050565b600082601f83011261227c5761227b6121db565b5b813561228c848260208601612225565b91505092915050565b600067ffffffffffffffff8211156122b0576122af61212f565b5b602082029050602081019050919050565b600080fd5b60006122d96122d484612295565b61218f565b905080838252602082019050602084028301858111156122fc576122fb6122c1565b5b835b8181101561234357803567ffffffffffffffff811115612321576123206121db565b5b80860161232e8982612267565b855260208501945050506020810190506122fe565b5050509392505050565b600082601f830112612362576123616121db565b5b81356123728482602086016122c6565b91505092915050565b600073ffffffffffffffffffffffffffffffffffffffff82169050919050565b60006123a68261237b565b9050919050565b6123b68161239b565b81146123c157600080fd5b50565b6000813590506123d3816123ad565b92915050565b6000608082840312156123ef576123ee612119565b5b6123f9608061218f565b9050600082013567ffffffffffffffff811115612419576124186121aa565b5b61242584828501612267565b600083015250602082013567ffffffffffffffff811115612449576124486121aa565b5b61245584828501612267565b602083015250604082013567ffffffffffffffff811115612479576124786121aa565b5b61248584828501612267565b604083015250606082013567ffffffffffffffff8111156124a9576124a86121aa565b5b6124b584828501612267565b60608301525092915050565b60006101e082840312156124d8576124d7612119565b5b6124e36101e061218f565b905060006124f3848285016121c6565b600083015250602082013567ffffffffffffffff811115612517576125166121aa565b5b61252384828501612267565b602083015250604082013567ffffffffffffffff811115612547576125466121aa565b5b61255384828501612267565b6040830152506060612567848285016121c6565b606083015250608082013567ffffffffffffffff81111561258b5761258a6121aa565b5b61259784828501612267565b60808301525060a082013567ffffffffffffffff8111156125bb576125ba6121aa565b5b6125c784828501612267565b60a08301525060c082013567ffffffffffffffff8111156125eb576125ea6121aa565b5b6125f784828501612267565b60c08301525060e082013567ffffffffffffffff81111561261b5761261a6121aa565b5b61262784828501612267565b60e08301525061010082013567ffffffffffffffff81111561264c5761264b6121aa565b5b61265884828501612267565b6101008301525061012082013567ffffffffffffffff81111561267e5761267d6121aa565b5b61268a8482850161234d565b6101208301525061014082013567ffffffffffffffff8111156126b0576126af6121aa565b5b6126bc8482850161234d565b6101408301525061016082013567ffffffffffffffff8111156126e2576126e16121aa565b5b6126ee84828501612267565b6101608301525061018082013567ffffffffffffffff811115612714576127136121aa565b5b61272084828501612267565b610180830152506101a0612736848285016123c4565b6101a0830152506101c082013567ffffffffffffffff81111561275c5761275b6121aa565b5b612768848285016123d9565b6101c08301525092915050565b60006020828403121561278b5761278a61210f565b5b600082013567ffffffffffffffff8111156127a9576127a8612114565b5b6127b5848285016124c1565b91505092915050565b6000602082840312156127d4576127d361210f565b5b60006127e2848285016121c6565b91505092915050565b6127f4816120d1565b82525050565b600081519050919050565b600082825260208201905092915050565b60005b83811015612834578082015181840152602081019050612819565b83811115612843576000848401525b50505050565b6000612854826127fa565b61285e8185612805565b935061286e818560208601612816565b6128778161211e565b840191505092915050565b600081519050919050565b600082825260208201905092915050565b6000819050602082019050919050565b60006128ba8383612849565b905092915050565b6000602082019050919050565b60006128da82612882565b6128e4818561288d565b9350836020820285016128f68561289e565b8060005b85811015612932578484038952815161291385826128ae565b945061291e836128c2565b925060208a019950506001810190506128fa565b50829750879550505050505092915050565b61294d8161239b565b82525050565b600060808301600083015184820360008601526129708282612849565b9150506020830151848203602086015261298a8282612849565b915050604083015184820360408601526129a48282612849565b915050606083015184820360608601526129be8282612849565b9150508091505092915050565b60006101e0830160008301516129e460008601826127eb565b50602083015184820360208601526129fc8282612849565b91505060408301518482036040860152612a168282612849565b9150506060830151612a2b60608601826127eb565b5060808301518482036080860152612a438282612849565b91505060a083015184820360a0860152612a5d8282612849565b91505060c083015184820360c0860152612a778282612849565b91505060e083015184820360e0860152612a918282612849565b915050610100830151848203610100860152612aad8282612849565b915050610120830151848203610120860152612ac982826128cf565b915050610140830151848203610140860152612ae582826128cf565b915050610160830151848203610160860152612b018282612849565b915050610180830151848203610180860152612b1d8282612849565b9150506101a0830151612b346101a0860182612944565b506101c08301518482036101c0860152612b4e8282612953565b9150508091505092915050565b60006020820190508181036000830152612b7581846129cb565b905092915050565b600060208284031215612b9357612b9261210f565b5b6000612ba1848285016123c4565b91505092915050565b600082825260208201905092915050565b7f496e697469616c697a61626c653a20636f6e747261637420697320616c72656160008201527f647920696e697469616c697a6564000000000000000000000000000000000000602082015250565b6000612c17602e83612baa565b9150612c2282612bbb565b604082019050919050565b60006020820190508181036000830152612c4681612c0a565b9050919050565b6000819050919050565b600060ff82169050919050565b6000819050919050565b6000612c89612c84612c7f84612c4d565b612c64565b612c57565b9050919050565b612c9981612c6e565b82525050565b6000602082019050612cb46000830184612c90565b92915050565b7f43616e6469646174652069732072656769737465726564207573696e6720746860008201527f697320616464726573732e000000000000000000000000000000000000000000602082015250565b6000612d16602b83612baa565b9150612d2182612cba565b604082019050919050565b60006020820190508181036000830152612d4581612d09565b9050919050565b7f4f776e657241646472657373206e6f74206d61746368696e67206d73672e736560008201527f6e6465722e000000000000000000000000000000000000000000000000000000602082015250565b6000612da8602583612baa565b9150612db382612d4c565b604082019050919050565b60006020820190508181036000830152612dd781612d9b565b9050919050565b7f4e487b7100000000000000000000000000000000000000000000000000000000600052601160045260246000fd5b6000612e18826120d1565b91507fffffffffffffffffffffffffffffffffffffffffffffffffffffffffffffffff821415612e4b57612e4a612dde565b5b600182019050919050565b6000612e61826120d1565b9150612e6c836120d1565b925082821015612e7f57612e7e612dde565b5b828203905092915050565b7f4e487b7100000000000000000000000000000000000000000000000000000000600052603260045260246000fd5b7f4e487b7100000000000000000000000000000000000000000000000000000000600052602260045260246000fd5b60006002820490506001821680612f0057607f821691505b60208210811415612f1457612f13612eb9565b5b50919050565b7f43616e646964617465206e6f742072656769737465726564207573696e67207460008201527f68697320616464726573732e0000000000000000000000000000000000000000602082015250565b6000612f76602c83612baa565b9150612f8182612f1a565b604082019050919050565b60006020820190508181036000830152612fa581612f69565b9050919050565b7f596f7520617265206e6f74206f776e6572206f6620746869732063616e64696460008201527f61746520616464726573732e0000000000000000000000000000000000000000602082015250565b6000613008602c83612baa565b915061301382612fac565b604082019050919050565b6000602082019050818103600083015261303781612ffb565b905091905056fea2646970667358221220258315baa5050c45fdc3c4883303d52a18eb1c2697f2b4ed014828ae9989f0ea64736f6c634300080b0033","opcodes":"PUSH1 0x80 PUSH1 0x40 MSTORE CALLVALUE DUP1 ISZERO PUSH2 0x10 JUMPI PUSH1 0x0 DUP1 REVERT JUMPDEST POP PUSH2 0x3074 DUP1 PUSH2 0x20 PUSH1 0x0 CODECOPY PUSH1 0x0 RETURN INVALID PUSH1 0x80 PUSH1 0x40 MSTORE CALLVALUE DUP1 ISZERO PUSH2 0x10 JUMPI PUSH1 0x0 DUP1 REVERT JUMPDEST POP PUSH1 0x4 CALLDATASIZE LT PUSH2 0x88 JUMPI PUSH1 0x0 CALLDATALOAD PUSH1 0xE0 SHR DUP1 PUSH4 0xA3A9AC65 GT PUSH2 0x5B JUMPI DUP1 PUSH4 0xA3A9AC65 EQ PUSH2 0x115 JUMPI DUP1 PUSH4 0xAD25E829 EQ PUSH2 0x133 JUMPI DUP1 PUSH4 0xCB0E0D7D EQ PUSH2 0x163 JUMPI DUP1 PUSH4 0xF0DC7493 EQ PUSH2 0x193 JUMPI PUSH2 0x88 JUMP JUMPDEST DUP1 PUSH4 0x3866965C EQ PUSH2 0x8D JUMPI DUP1 PUSH4 0x8129FC1C EQ PUSH2 0xAB JUMPI DUP1 PUSH4 0x93F5DB28 EQ PUSH2 0xB5 JUMPI DUP1 PUSH4 0x95F85022 EQ PUSH2 0xE5 JUMPI JUMPDEST PUSH1 0x0 DUP1 REVERT JUMPDEST PUSH2 0x95 PUSH2 0x1C3 JUMP JUMPDEST PUSH1 0x40 MLOAD PUSH2 0xA2 SWAP2 SWAP1 PUSH2 0x20EA JUMP JUMPDEST PUSH1 0x40 MLOAD DUP1 SWAP2 SUB SWAP1 RETURN JUMPDEST PUSH2 0xB3 PUSH2 0x1D0 JUMP JUMPDEST STOP JUMPDEST PUSH2 0xCF PUSH1 0x4 DUP1 CALLDATASIZE SUB DUP2 ADD SWAP1 PUSH2 0xCA SWAP2 SWAP1 PUSH2 0x2775 JUMP JUMPDEST PUSH2 0x30E JUMP JUMPDEST PUSH1 0x40 MLOAD PUSH2 0xDC SWAP2 SWAP1 PUSH2 0x20EA JUMP JUMPDEST PUSH1 0x40 MLOAD DUP1 SWAP2 SUB SWAP1 RETURN JUMPDEST PUSH2 0xFF PUSH1 0x4 DUP1 CALLDATASIZE SUB DUP2 ADD SWAP1 PUSH2 0xFA SWAP2 SWAP1 PUSH2 0x27BE JUMP JUMPDEST PUSH2 0x6DB JUMP JUMPDEST PUSH1 0x40 MLOAD PUSH2 0x10C SWAP2 SWAP1 PUSH2 0x2B5B JUMP JUMPDEST PUSH1 0x40 MLOAD DUP1 SWAP2 SUB SWAP1 RETURN JUMPDEST PUSH2 0x11D PUSH2 0x10BE JUMP JUMPDEST PUSH1 0x40 MLOAD PUSH2 0x12A SWAP2 SWAP1 PUSH2 0x20EA JUMP JUMPDEST PUSH1 0x40 MLOAD DUP1 SWAP2 SUB SWAP1 RETURN JUMPDEST PUSH2 0x14D PUSH1 0x4 DUP1 CALLDATASIZE SUB DUP2 ADD SWAP1 PUSH2 0x148 SWAP2 SWAP1 PUSH2 0x2B7D JUMP JUMPDEST PUSH2 0x10C4 JUMP JUMPDEST PUSH1 0x40 MLOAD PUSH2 0x15A SWAP2 SWAP1 PUSH2 0x2B5B JUMP JUMPDEST PUSH1 0x40 MLOAD DUP1 SWAP2 SUB SWAP1 RETURN JUMPDEST PUSH2 0x17D PUSH1 0x4 DUP1 CALLDATASIZE SUB DUP2 ADD SWAP1 PUSH2 0x178 SWAP2 SWAP1 PUSH2 0x2B7D JUMP JUMPDEST PUSH2 0x1B30 JUMP JUMPDEST PUSH1 0x40 MLOAD PUSH2 0x18A SWAP2 SWAP1 PUSH2 0x20EA JUMP JUMPDEST PUSH1 0x40 MLOAD DUP1 SWAP2 SUB SWAP1 RETURN JUMPDEST PUSH2 0x1AD PUSH1 0x4 DUP1 CALLDATASIZE SUB DUP2 ADD SWAP1 PUSH2 0x1A8 SWAP2 SWAP1 PUSH2 0x2775 JUMP JUMPDEST PUSH2 0x1B48 JUMP JUMPDEST PUSH1 0x40 MLOAD PUSH2 0x1BA SWAP2 SWAP1 PUSH2 0x20EA JUMP JUMPDEST PUSH1 0x40 MLOAD DUP1 SWAP2 SUB SWAP1 RETURN JUMPDEST PUSH1 0x0 PUSH1 0x34 DUP1 SLOAD SWAP1 POP SWAP1 POP SWAP1 JUMP JUMPDEST PUSH1 0x0 DUP1 PUSH1 0x1 SWAP1 SLOAD SWAP1 PUSH2 0x100 EXP SWAP1 DIV PUSH1 0xFF AND ISZERO SWAP1 POP DUP1 DUP1 ISZERO PUSH2 0x201 JUMPI POP PUSH1 0x1 PUSH1 0x0 DUP1 SLOAD SWAP1 PUSH2 0x100 EXP SWAP1 DIV PUSH1 0xFF AND PUSH1 0xFF AND LT JUMPDEST DUP1 PUSH2 0x22E JUMPI POP PUSH2 0x210 ADDRESS PUSH2 0x1E85 JUMP JUMPDEST ISZERO DUP1 ISZERO PUSH2 0x22D JUMPI POP PUSH1 0x1 PUSH1 0x0 DUP1 SLOAD SWAP1 PUSH2 0x100 EXP SWAP1 DIV PUSH1 0xFF AND PUSH1 0xFF AND EQ JUMPDEST JUMPDEST PUSH2 0x26D JUMPI PUSH1 0x40 MLOAD PUSH32 0x8C379A000000000000000000000000000000000000000000000000000000000 DUP2 MSTORE PUSH1 0x4 ADD PUSH2 0x264 SWAP1 PUSH2 0x2C2D JUMP JUMPDEST PUSH1 0x40 MLOAD DUP1 SWAP2 SUB SWAP1 REVERT JUMPDEST PUSH1 0x1 PUSH1 0x0 DUP1 PUSH2 0x100 EXP DUP2 SLOAD DUP2 PUSH1 0xFF MUL NOT AND SWAP1 DUP4 PUSH1 0xFF AND MUL OR SWAP1 SSTORE POP DUP1 ISZERO PUSH2 0x2AA JUMPI PUSH1 0x1 PUSH1 0x0 PUSH1 0x1 PUSH2 0x100 EXP DUP2 SLOAD DUP2 PUSH1 0xFF MUL NOT AND SWAP1 DUP4 ISZERO ISZERO MUL OR SWAP1 SSTORE POP JUMPDEST PUSH1 0x0 PUSH1 0x33 DUP2 SWAP1 SSTORE POP DUP1 ISZERO PUSH2 0x30B JUMPI PUSH1 0x0 DUP1 PUSH1 0x1 PUSH2 0x100 EXP DUP2 SLOAD DUP2 PUSH1 0xFF MUL NOT AND SWAP1 DUP4 ISZERO ISZERO MUL OR SWAP1 SSTORE POP PUSH32 0x7F26B83FF96E1F2B6A682F133852F6798A09C465DA95921460CEFB3847402498 PUSH1 0x1 PUSH1 0x40 MLOAD PUSH2 0x302 SWAP2 SWAP1 PUSH2 0x2C9F JUMP JUMPDEST PUSH1 0x40 MLOAD DUP1 SWAP2 SUB SWAP1 LOG1 JUMPDEST POP JUMP JUMPDEST PUSH1 0x0 DUP1 PUSH1 0x35 PUSH1 0x0 PUSH2 0x31D PUSH2 0x1EA8 JUMP JUMPDEST PUSH20 0xFFFFFFFFFFFFFFFFFFFFFFFFFFFFFFFFFFFFFFFF AND PUSH20 0xFFFFFFFFFFFFFFFFFFFFFFFFFFFFFFFFFFFFFFFF AND DUP2 MSTORE PUSH1 0x20 ADD SWAP1 DUP2 MSTORE PUSH1 0x20 ADD PUSH1 0x0 KECCAK256 SLOAD EQ PUSH2 0x398 JUMPI PUSH1 0x40 MLOAD PUSH32 0x8C379A000000000000000000000000000000000000000000000000000000000 DUP2 MSTORE PUSH1 0x4 ADD PUSH2 0x38F SWAP1 PUSH2 0x2D2C JUMP JUMPDEST PUSH1 0x40 MLOAD DUP1 SWAP2 SUB SWAP1 REVERT JUMPDEST DUP2 PUSH2 0x1A0 ADD MLOAD PUSH20 0xFFFFFFFFFFFFFFFFFFFFFFFFFFFFFFFFFFFFFFFF AND PUSH2 0x3BC PUSH2 0x1EA8 JUMP JUMPDEST PUSH20 0xFFFFFFFFFFFFFFFFFFFFFFFFFFFFFFFFFFFFFFFF AND EQ PUSH2 0x412 JUMPI PUSH1 0x40 MLOAD PUSH32 0x8C379A000000000000000000000000000000000000000000000000000000000 DUP2 MSTORE PUSH1 0x4 ADD PUSH2 0x409 SWAP1 PUSH2 0x2DBE JUMP JUMPDEST PUSH1 0x40 MLOAD DUP1 SWAP2 SUB SWAP1 REVERT JUMPDEST PUSH1 0x33 PUSH1 0x0 DUP2 SLOAD DUP1 SWAP3 SWAP2 SWAP1 PUSH2 0x425 SWAP1 PUSH2 0x2E0D JUMP JUMPDEST SWAP2 SWAP1 POP SSTORE POP PUSH1 0x33 SLOAD DUP3 PUSH1 0x0 ADD DUP2 DUP2 MSTORE POP POP PUSH1 0x34 DUP3 SWAP1 DUP1 PUSH1 0x1 DUP2 SLOAD ADD DUP1 DUP3 SSTORE DUP1 SWAP2 POP POP PUSH1 0x1 SWAP1 SUB SWAP1 PUSH1 0x0 MSTORE PUSH1 0x20 PUSH1 0x0 KECCAK256 SWAP1 PUSH1 0x12 MUL ADD PUSH1 0x0 SWAP1 SWAP2 SWAP1 SWAP2 SWAP1 SWAP2 POP PUSH1 0x0 DUP3 ADD MLOAD DUP2 PUSH1 0x0 ADD SSTORE PUSH1 0x20 DUP3 ADD MLOAD DUP2 PUSH1 0x1 ADD SWAP1 DUP1 MLOAD SWAP1 PUSH1 0x20 ADD SWAP1 PUSH2 0x488 SWAP3 SWAP2 SWAP1 PUSH2 0x1EB0 JUMP JUMPDEST POP PUSH1 0x40 DUP3 ADD MLOAD DUP2 PUSH1 0x2 ADD SWAP1 DUP1 MLOAD SWAP1 PUSH1 0x20 ADD SWAP1 PUSH2 0x4A5 SWAP3 SWAP2 SWAP1 PUSH2 0x1EB0 JUMP JUMPDEST POP PUSH1 0x60 DUP3 ADD MLOAD DUP2 PUSH1 0x3 ADD SSTORE PUSH1 0x80 DUP3 ADD MLOAD DUP2 PUSH1 0x4 ADD SWAP1 DUP1 MLOAD SWAP1 PUSH1 0x20 ADD SWAP1 PUSH2 0x4CC SWAP3 SWAP2 SWAP1 PUSH2 0x1EB0 JUMP JUMPDEST POP PUSH1 0xA0 DUP3 ADD MLOAD DUP2 PUSH1 0x5 ADD SWAP1 DUP1 MLOAD SWAP1 PUSH1 0x20 ADD SWAP1 PUSH2 0x4E9 SWAP3 SWAP2 SWAP1 PUSH2 0x1EB0 JUMP JUMPDEST POP PUSH1 0xC0 DUP3 ADD MLOAD DUP2 PUSH1 0x6 ADD SWAP1 DUP1 MLOAD SWAP1 PUSH1 0x20 ADD SWAP1 PUSH2 0x506 SWAP3 SWAP2 SWAP1 PUSH2 0x1EB0 JUMP JUMPDEST POP PUSH1 0xE0 DUP3 ADD MLOAD DUP2 PUSH1 0x7 ADD SWAP1 DUP1 MLOAD SWAP1 PUSH1 0x20 ADD SWAP1 PUSH2 0x523 SWAP3 SWAP2 SWAP1 PUSH2 0x1EB0 JUMP JUMPDEST POP PUSH2 0x100 DUP3 ADD MLOAD DUP2 PUSH1 0x8 ADD SWAP1 DUP1 MLOAD SWAP1 PUSH1 0x20 ADD SWAP1 PUSH2 0x541 SWAP3 SWAP2 SWAP1 PUSH2 0x1EB0 JUMP JUMPDEST POP PUSH2 0x120 DUP3 ADD MLOAD DUP2 PUSH1 0x9 ADD SWAP1 DUP1 MLOAD SWAP1 PUSH1 0x20 ADD SWAP1 PUSH2 0x55F SWAP3 SWAP2 SWAP1 PUSH2 0x1F36 JUMP JUMPDEST POP PUSH2 0x140 DUP3 ADD MLOAD DUP2 PUSH1 0xA ADD SWAP1 DUP1 MLOAD SWAP1 PUSH1 0x20 ADD SWAP1 PUSH2 0x57D SWAP3 SWAP2 SWAP1 PUSH2 0x1F36 JUMP JUMPDEST POP PUSH2 0x160 DUP3 ADD MLOAD DUP2 PUSH1 0xB ADD SWAP1 DUP1 MLOAD SWAP1 PUSH1 0x20 ADD SWAP1 PUSH2 0x59B SWAP3 SWAP2 SWAP1 PUSH2 0x1EB0 JUMP JUMPDEST POP PUSH2 0x180 DUP3 ADD MLOAD DUP2 PUSH1 0xC ADD SWAP1 DUP1 MLOAD SWAP1 PUSH1 0x20 ADD SWAP1 PUSH2 0x5B9 SWAP3 SWAP2 SWAP1 PUSH2 0x1EB0 JUMP JUMPDEST POP PUSH2 0x1A0 DUP3 ADD MLOAD DUP2 PUSH1 0xD ADD PUSH1 0x0 PUSH2 0x100 EXP DUP2 SLOAD DUP2 PUSH20 0xFFFFFFFFFFFFFFFFFFFFFFFFFFFFFFFFFFFFFFFF MUL NOT AND SWAP1 DUP4 PUSH20 0xFFFFFFFFFFFFFFFFFFFFFFFFFFFFFFFFFFFFFFFF AND MUL OR SWAP1 SSTORE POP PUSH2 0x1C0 DUP3 ADD MLOAD DUP2 PUSH1 0xE ADD PUSH1 0x0 DUP3 ADD MLOAD DUP2 PUSH1 0x0 ADD SWAP1 DUP1 MLOAD SWAP1 PUSH1 0x20 ADD SWAP1 PUSH2 0x628 SWAP3 SWAP2 SWAP1 PUSH2 0x1EB0 JUMP JUMPDEST POP PUSH1 0x20 DUP3 ADD MLOAD DUP2 PUSH1 0x1 ADD SWAP1 DUP1 MLOAD SWAP1 PUSH1 0x20 ADD SWAP1 PUSH2 0x645 SWAP3 SWAP2 SWAP1 PUSH2 0x1EB0 JUMP JUMPDEST POP PUSH1 0x40 DUP3 ADD MLOAD DUP2 PUSH1 0x2 ADD SWAP1 DUP1 MLOAD SWAP1 PUSH1 0x20 ADD SWAP1 PUSH2 0x662 SWAP3 SWAP2 SWAP1 PUSH2 0x1EB0 JUMP JUMPDEST POP PUSH1 0x60 DUP3 ADD MLOAD DUP2 PUSH1 0x3 ADD SWAP1 DUP1 MLOAD SWAP1 PUSH1 0x20 ADD SWAP1 PUSH2 0x67F SWAP3 SWAP2 SWAP1 PUSH2 0x1EB0 JUMP JUMPDEST POP POP POP POP POP PUSH1 0x33 SLOAD PUSH1 0x35 PUSH1 0x0 PUSH2 0x693 PUSH2 0x1EA8 JUMP JUMPDEST PUSH20 0xFFFFFFFFFFFFFFFFFFFFFFFFFFFFFFFFFFFFFFFF AND PUSH20 0xFFFFFFFFFFFFFFFFFFFFFFFFFFFFFFFFFFFFFFFF AND DUP2 MSTORE PUSH1 0x20 ADD SWAP1 DUP2 MSTORE PUSH1 0x20 ADD PUSH1 0x0 KECCAK256 DUP2 SWAP1 SSTORE POP PUSH1 0x33 SLOAD SWAP1 POP SWAP2 SWAP1 POP JUMP JUMPDEST PUSH2 0x6E3 PUSH2 0x1F96 JUMP JUMPDEST PUSH1 0x34 PUSH1 0x1 DUP4 PUSH2 0x6F2 SWAP2 SWAP1 PUSH2 0x2E56 JUMP JUMPDEST DUP2 SLOAD DUP2 LT PUSH2 0x703 JUMPI PUSH2 0x702 PUSH2 0x2E8A JUMP JUMPDEST JUMPDEST SWAP1 PUSH1 0x0 MSTORE PUSH1 0x20 PUSH1 0x0 KECCAK256 SWAP1 PUSH1 0x12 MUL ADD PUSH1 0x40 MLOAD DUP1 PUSH2 0x1E0 ADD PUSH1 0x40 MSTORE SWAP1 DUP2 PUSH1 0x0 DUP3 ADD SLOAD DUP2 MSTORE PUSH1 0x20 ADD PUSH1 0x1 DUP3 ADD DUP1 SLOAD PUSH2 0x737 SWAP1 PUSH2 0x2EE8 JUMP JUMPDEST DUP1 PUSH1 0x1F ADD PUSH1 0x20 DUP1 SWAP2 DIV MUL PUSH1 0x20 ADD PUSH1 0x40 MLOAD SWAP1 DUP2 ADD PUSH1 0x40 MSTORE DUP1 SWAP3 SWAP2 SWAP1 DUP2 DUP2 MSTORE PUSH1 0x20 ADD DUP3 DUP1 SLOAD PUSH2 0x763 SWAP1 PUSH2 0x2EE8 JUMP JUMPDEST DUP1 ISZERO PUSH2 0x7B0 JUMPI DUP1 PUSH1 0x1F LT PUSH2 0x785 JUMPI PUSH2 0x100 DUP1 DUP4 SLOAD DIV MUL DUP4 MSTORE SWAP2 PUSH1 0x20 ADD SWAP2 PUSH2 0x7B0 JUMP JUMPDEST DUP3 ADD SWAP2 SWAP1 PUSH1 0x0 MSTORE PUSH1 0x20 PUSH1 0x0 KECCAK256 SWAP1 JUMPDEST DUP2 SLOAD DUP2 MSTORE SWAP1 PUSH1 0x1 ADD SWAP1 PUSH1 0x20 ADD DUP1 DUP4 GT PUSH2 0x793 JUMPI DUP3 SWAP1 SUB PUSH1 0x1F AND DUP3 ADD SWAP2 JUMPDEST POP POP POP POP POP DUP2 MSTORE PUSH1 0x20 ADD PUSH1 0x2 DUP3 ADD DUP1 SLOAD PUSH2 0x7C9 SWAP1 PUSH2 0x2EE8 JUMP JUMPDEST DUP1 PUSH1 0x1F ADD PUSH1 0x20 DUP1 SWAP2 DIV MUL PUSH1 0x20 ADD PUSH1 0x40 MLOAD SWAP1 DUP2 ADD PUSH1 0x40 MSTORE DUP1 SWAP3 SWAP2 SWAP1 DUP2 DUP2 MSTORE PUSH1 0x20 ADD DUP3 DUP1 SLOAD PUSH2 0x7F5 SWAP1 PUSH2 0x2EE8 JUMP JUMPDEST DUP1 ISZERO PUSH2 0x842 JUMPI DUP1 PUSH1 0x1F LT PUSH2 0x817 JUMPI PUSH2 0x100 DUP1 DUP4 SLOAD DIV MUL DUP4 MSTORE SWAP2 PUSH1 0x20 ADD SWAP2 PUSH2 0x842 JUMP JUMPDEST DUP3 ADD SWAP2 SWAP1 PUSH1 0x0 MSTORE PUSH1 0x20 PUSH1 0x0 KECCAK256 SWAP1 JUMPDEST DUP2 SLOAD DUP2 MSTORE SWAP1 PUSH1 0x1 ADD SWAP1 PUSH1 0x20 ADD DUP1 DUP4 GT PUSH2 0x825 JUMPI DUP3 SWAP1 SUB PUSH1 0x1F AND DUP3 ADD SWAP2 JUMPDEST POP POP POP POP POP DUP2 MSTORE PUSH1 0x20 ADD PUSH1 0x3 DUP3 ADD SLOAD DUP2 MSTORE PUSH1 0x20 ADD PUSH1 0x4 DUP3 ADD DUP1 SLOAD PUSH2 0x865 SWAP1 PUSH2 0x2EE8 JUMP JUMPDEST DUP1 PUSH1 0x1F ADD PUSH1 0x20 DUP1 SWAP2 DIV MUL PUSH1 0x20 ADD PUSH1 0x40 MLOAD SWAP1 DUP2 ADD PUSH1 0x40 MSTORE DUP1 SWAP3 SWAP2 SWAP1 DUP2 DUP2 MSTORE PUSH1 0x20 ADD DUP3 DUP1 SLOAD PUSH2 0x891 SWAP1 PUSH2 0x2EE8 JUMP JUMPDEST DUP1 ISZERO PUSH2 0x8DE JUMPI DUP1 PUSH1 0x1F LT PUSH2 0x8B3 JUMPI PUSH2 0x100 DUP1 DUP4 SLOAD DIV MUL DUP4 MSTORE SWAP2 PUSH1 0x20 ADD SWAP2 PUSH2 0x8DE JUMP JUMPDEST DUP3 ADD SWAP2 SWAP1 PUSH1 0x0 MSTORE PUSH1 0x20 PUSH1 0x0 KECCAK256 SWAP1 JUMPDEST DUP2 SLOAD DUP2 MSTORE SWAP1 PUSH1 0x1 ADD SWAP1 PUSH1 0x20 ADD DUP1 DUP4 GT PUSH2 0x8C1 JUMPI DUP3 SWAP1 SUB PUSH1 0x1F AND DUP3 ADD SWAP2 JUMPDEST POP POP POP POP POP DUP2 MSTORE PUSH1 0x20 ADD PUSH1 0x5 DUP3 ADD DUP1 SLOAD PUSH2 0x8F7 SWAP1 PUSH2 0x2EE8 JUMP JUMPDEST DUP1 PUSH1 0x1F ADD PUSH1 0x20 DUP1 SWAP2 DIV MUL PUSH1 0x20 ADD PUSH1 0x40 MLOAD SWAP1 DUP2 ADD PUSH1 0x40 MSTORE DUP1 SWAP3 SWAP2 SWAP1 DUP2 DUP2 MSTORE PUSH1 0x20 ADD DUP3 DUP1 SLOAD PUSH2 0x923 SWAP1 PUSH2 0x2EE8 JUMP JUMPDEST DUP1 ISZERO PUSH2 0x970 JUMPI DUP1 PUSH1 0x1F LT PUSH2 0x945 JUMPI PUSH2 0x100 DUP1 DUP4 SLOAD DIV MUL DUP4 MSTORE SWAP2 PUSH1 0x20 ADD SWAP2 PUSH2 0x970 JUMP JUMPDEST DUP3 ADD SWAP2 SWAP1 PUSH1 0x0 MSTORE PUSH1 0x20 PUSH1 0x0 KECCAK256 SWAP1 JUMPDEST DUP2 SLOAD DUP2 MSTORE SWAP1 PUSH1 0x1 ADD SWAP1 PUSH1 0x20 ADD DUP1 DUP4 GT PUSH2 0x953 JUMPI DUP3 SWAP1 SUB PUSH1 0x1F AND DUP3 ADD SWAP2 JUMPDEST POP POP POP POP POP DUP2 MSTORE PUSH1 0x20 ADD PUSH1 0x6 DUP3 ADD DUP1 SLOAD PUSH2 0x989 SWAP1 PUSH2 0x2EE8 JUMP JUMPDEST DUP1 PUSH1 0x1F ADD PUSH1 0x20 DUP1 SWAP2 DIV MUL PUSH1 0x20 ADD PUSH1 0x40 MLOAD SWAP1 DUP2 ADD PUSH1 0x40 MSTORE DUP1 SWAP3 SWAP2 SWAP1 DUP2 DUP2 MSTORE PUSH1 0x20 ADD DUP3 DUP1 SLOAD PUSH2 0x9B5 SWAP1 PUSH2 0x2EE8 JUMP JUMPDEST DUP1 ISZERO PUSH2 0xA02 JUMPI DUP1 PUSH1 0x1F LT PUSH2 0x9D7 JUMPI PUSH2 0x100 DUP1 DUP4 SLOAD DIV MUL DUP4 MSTORE SWAP2 PUSH1 0x20 ADD SWAP2 PUSH2 0xA02 JUMP JUMPDEST DUP3 ADD SWAP2 SWAP1 PUSH1 0x0 MSTORE PUSH1 0x20 PUSH1 0x0 KECCAK256 SWAP1 JUMPDEST DUP2 SLOAD DUP2 MSTORE SWAP1 PUSH1 0x1 ADD SWAP1 PUSH1 0x20 ADD DUP1 DUP4 GT PUSH2 0x9E5 JUMPI DUP3 SWAP1 SUB PUSH1 0x1F AND DUP3 ADD SWAP2 JUMPDEST POP POP POP POP POP DUP2 MSTORE PUSH1 0x20 ADD PUSH1 0x7 DUP3 ADD DUP1 SLOAD PUSH2 0xA1B SWAP1 PUSH2 0x2EE8 JUMP JUMPDEST DUP1 PUSH1 0x1F ADD PUSH1 0x20 DUP1 SWAP2 DIV MUL PUSH1 0x20 ADD PUSH1 0x40 MLOAD SWAP1 DUP2 ADD PUSH1 0x40 MSTORE DUP1 SWAP3 SWAP2 SWAP1 DUP2 DUP2 MSTORE PUSH1 0x20 ADD DUP3 DUP1 SLOAD PUSH2 0xA47 SWAP1 PUSH2 0x2EE8 JUMP JUMPDEST DUP1 ISZERO PUSH2 0xA94 JUMPI DUP1 PUSH1 0x1F LT PUSH2 0xA69 JUMPI PUSH2 0x100 DUP1 DUP4 SLOAD DIV MUL DUP4 MSTORE SWAP2 PUSH1 0x20 ADD SWAP2 PUSH2 0xA94 JUMP JUMPDEST DUP3 ADD SWAP2 SWAP1 PUSH1 0x0 MSTORE PUSH1 0x20 PUSH1 0x0 KECCAK256 SWAP1 JUMPDEST DUP2 SLOAD DUP2 MSTORE SWAP1 PUSH1 0x1 ADD SWAP1 PUSH1 0x20 ADD DUP1 DUP4 GT PUSH2 0xA77 JUMPI DUP3 SWAP1 SUB PUSH1 0x1F AND DUP3 ADD SWAP2 JUMPDEST POP POP POP POP POP DUP2 MSTORE PUSH1 0x20 ADD PUSH1 0x8 DUP3 ADD DUP1 SLOAD PUSH2 0xAAD SWAP1 PUSH2 0x2EE8 JUMP JUMPDEST DUP1 PUSH1 0x1F ADD PUSH1 0x20 DUP1 SWAP2 DIV MUL PUSH1 0x20 ADD PUSH1 0x40 MLOAD SWAP1 DUP2 ADD PUSH1 0x40 MSTORE DUP1 SWAP3 SWAP2 SWAP1 DUP2 DUP2 MSTORE PUSH1 0x20 ADD DUP3 DUP1 SLOAD PUSH2 0xAD9 SWAP1 PUSH2 0x2EE8 JUMP JUMPDEST DUP1 ISZERO PUSH2 0xB26 JUMPI DUP1 PUSH1 0x1F LT PUSH2 0xAFB JUMPI PUSH2 0x100 DUP1 DUP4 SLOAD DIV MUL DUP4 MSTORE SWAP2 PUSH1 0x20 ADD SWAP2 PUSH2 0xB26 JUMP JUMPDEST DUP3 ADD SWAP2 SWAP1 PUSH1 0x0 MSTORE PUSH1 0x20 PUSH1 0x0 KECCAK256 SWAP1 JUMPDEST DUP2 SLOAD DUP2 MSTORE SWAP1 PUSH1 0x1 ADD SWAP1 PUSH1 0x20 ADD DUP1 DUP4 GT PUSH2 0xB09 JUMPI DUP3 SWAP1 SUB PUSH1 0x1F AND DUP3 ADD SWAP2 JUMPDEST POP POP POP POP POP DUP2 MSTORE PUSH1 0x20 ADD PUSH1 0x9 DUP3 ADD DUP1 SLOAD DUP1 PUSH1 0x20 MUL PUSH1 0x20 ADD PUSH1 0x40 MLOAD SWAP1 DUP2 ADD PUSH1 0x40 MSTORE DUP1 SWAP3 SWAP2 SWAP1 DUP2 DUP2 MSTORE PUSH1 0x20 ADD PUSH1 0x0 SWAP1 JUMPDEST DUP3 DUP3 LT ISZERO PUSH2 0xC00 JUMPI DUP4 DUP3 SWAP1 PUSH1 0x0 MSTORE PUSH1 0x20 PUSH1 0x0 KECCAK256 ADD DUP1 SLOAD PUSH2 0xB73 SWAP1 PUSH2 0x2EE8 JUMP JUMPDEST DUP1 PUSH1 0x1F ADD PUSH1 0x20 DUP1 SWAP2 DIV MUL PUSH1 0x20 ADD PUSH1 0x40 MLOAD SWAP1 DUP2 ADD PUSH1 0x40 MSTORE DUP1 SWAP3 SWAP2 SWAP1 DUP2 DUP2 MSTORE PUSH1 0x20 ADD DUP3 DUP1 SLOAD PUSH2 0xB9F SWAP1 PUSH2 0x2EE8 JUMP JUMPDEST DUP1 ISZERO PUSH2 0xBEC JUMPI DUP1 PUSH1 0x1F LT PUSH2 0xBC1 JUMPI PUSH2 0x100 DUP1 DUP4 SLOAD DIV MUL DUP4 MSTORE SWAP2 PUSH1 0x20 ADD SWAP2 PUSH2 0xBEC JUMP JUMPDEST DUP3 ADD SWAP2 SWAP1 PUSH1 0x0 MSTORE PUSH1 0x20 PUSH1 0x0 KECCAK256 SWAP1 JUMPDEST DUP2 SLOAD DUP2 MSTORE SWAP1 PUSH1 0x1 ADD SWAP1 PUSH1 0x20 ADD DUP1 DUP4 GT PUSH2 0xBCF JUMPI DUP3 SWAP1 SUB PUSH1 0x1F AND DUP3 ADD SWAP2 JUMPDEST POP POP POP POP POP DUP2 MSTORE PUSH1 0x20 ADD SWAP1 PUSH1 0x1 ADD SWAP1 PUSH2 0xB54 JUMP JUMPDEST POP POP POP POP DUP2 MSTORE PUSH1 0x20 ADD PUSH1 0xA DUP3 ADD DUP1 SLOAD DUP1 PUSH1 0x20 MUL PUSH1 0x20 ADD PUSH1 0x40 MLOAD SWAP1 DUP2 ADD PUSH1 0x40 MSTORE DUP1 SWAP3 SWAP2 SWAP1 DUP2 DUP2 MSTORE PUSH1 0x20 ADD PUSH1 0x0 SWAP1 JUMPDEST DUP3 DUP3 LT ISZERO PUSH2 0xCD9 JUMPI DUP4 DUP3 SWAP1 PUSH1 0x0 MSTORE PUSH1 0x20 PUSH1 0x0 KECCAK256 ADD DUP1 SLOAD PUSH2 0xC4C SWAP1 PUSH2 0x2EE8 JUMP JUMPDEST DUP1 PUSH1 0x1F ADD PUSH1 0x20 DUP1 SWAP2 DIV MUL PUSH1 0x20 ADD PUSH1 0x40 MLOAD SWAP1 DUP2 ADD PUSH1 0x40 MSTORE DUP1 SWAP3 SWAP2 SWAP1 DUP2 DUP2 MSTORE PUSH1 0x20 ADD DUP3 DUP1 SLOAD PUSH2 0xC78 SWAP1 PUSH2 0x2EE8 JUMP JUMPDEST DUP1 ISZERO PUSH2 0xCC5 JUMPI DUP1 PUSH1 0x1F LT PUSH2 0xC9A JUMPI PUSH2 0x100 DUP1 DUP4 SLOAD DIV MUL DUP4 MSTORE SWAP2 PUSH1 0x20 ADD SWAP2 PUSH2 0xCC5 JUMP JUMPDEST DUP3 ADD SWAP2 SWAP1 PUSH1 0x0 MSTORE PUSH1 0x20 PUSH1 0x0 KECCAK256 SWAP1 JUMPDEST DUP2 SLOAD DUP2 MSTORE SWAP1 PUSH1 0x1 ADD SWAP1 PUSH1 0x20 ADD DUP1 DUP4 GT PUSH2 0xCA8 JUMPI DUP3 SWAP1 SUB PUSH1 0x1F AND DUP3 ADD SWAP2 JUMPDEST POP POP POP POP POP DUP2 MSTORE PUSH1 0x20 ADD SWAP1 PUSH1 0x1 ADD SWAP1 PUSH2 0xC2D JUMP JUMPDEST POP POP POP POP DUP2 MSTORE PUSH1 0x20 ADD PUSH1 0xB DUP3 ADD DUP1 SLOAD PUSH2 0xCF1 SWAP1 PUSH2 0x2EE8 JUMP JUMPDEST DUP1 PUSH1 0x1F ADD PUSH1 0x20 DUP1 SWAP2 DIV MUL PUSH1 0x20 ADD PUSH1 0x40 MLOAD SWAP1 DUP2 ADD PUSH1 0x40 MSTORE DUP1 SWAP3 SWAP2 SWAP1 DUP2 DUP2 MSTORE PUSH1 0x20 ADD DUP3 DUP1 SLOAD PUSH2 0xD1D SWAP1 PUSH2 0x2EE8 JUMP JUMPDEST DUP1 ISZERO PUSH2 0xD6A JUMPI DUP1 PUSH1 0x1F LT PUSH2 0xD3F JUMPI PUSH2 0x100 DUP1 DUP4 SLOAD DIV MUL DUP4 MSTORE SWAP2 PUSH1 0x20 ADD SWAP2 PUSH2 0xD6A JUMP JUMPDEST DUP3 ADD SWAP2 SWAP1 PUSH1 0x0 MSTORE PUSH1 0x20 PUSH1 0x0 KECCAK256 SWAP1 JUMPDEST DUP2 SLOAD DUP2 MSTORE SWAP1 PUSH1 0x1 ADD SWAP1 PUSH1 0x20 ADD DUP1 DUP4 GT PUSH2 0xD4D JUMPI DUP3 SWAP1 SUB PUSH1 0x1F AND DUP3 ADD SWAP2 JUMPDEST POP POP POP POP POP DUP2 MSTORE PUSH1 0x20 ADD PUSH1 0xC DUP3 ADD DUP1 SLOAD PUSH2 0xD83 SWAP1 PUSH2 0x2EE8 JUMP JUMPDEST DUP1 PUSH1 0x1F ADD PUSH1 0x20 DUP1 SWAP2 DIV MUL PUSH1 0x20 ADD PUSH1 0x40 MLOAD SWAP1 DUP2 ADD PUSH1 0x40 MSTORE DUP1 SWAP3 SWAP2 SWAP1 DUP2 DUP2 MSTORE PUSH1 0x20 ADD DUP3 DUP1 SLOAD PUSH2 0xDAF SWAP1 PUSH2 0x2EE8 JUMP JUMPDEST DUP1 ISZERO PUSH2 0xDFC JUMPI DUP1 PUSH1 0x1F LT PUSH2 0xDD1 JUMPI PUSH2 0x100 DUP1 DUP4 SLOAD DIV MUL DUP4 MSTORE SWAP2 PUSH1 0x20 ADD SWAP2 PUSH2 0xDFC JUMP JUMPDEST DUP3 ADD SWAP2 SWAP1 PUSH1 0x0 MSTORE PUSH1 0x20 PUSH1 0x0 KECCAK256 SWAP1 JUMPDEST DUP2 SLOAD DUP2 MSTORE SWAP1 PUSH1 0x1 ADD SWAP1 PUSH1 0x20 ADD DUP1 DUP4 GT PUSH2 0xDDF JUMPI DUP3 SWAP1 SUB PUSH1 0x1F AND DUP3 ADD SWAP2 JUMPDEST POP POP POP POP POP DUP2 MSTORE PUSH1 0x20 ADD PUSH1 0xD DUP3 ADD PUSH1 0x0 SWAP1 SLOAD SWAP1 PUSH2 0x100 EXP SWAP1 DIV PUSH20 0xFFFFFFFFFFFFFFFFFFFFFFFFFFFFFFFFFFFFFFFF AND PUSH20 0xFFFFFFFFFFFFFFFFFFFFFFFFFFFFFFFFFFFFFFFF AND PUSH20 0xFFFFFFFFFFFFFFFFFFFFFFFFFFFFFFFFFFFFFFFF AND DUP2 MSTORE PUSH1 0x20 ADD PUSH1 0xE DUP3 ADD PUSH1 0x40 MLOAD DUP1 PUSH1 0x80 ADD PUSH1 0x40 MSTORE SWAP1 DUP2 PUSH1 0x0 DUP3 ADD DUP1 SLOAD PUSH2 0xE7B SWAP1 PUSH2 0x2EE8 JUMP JUMPDEST DUP1 PUSH1 0x1F ADD PUSH1 0x20 DUP1 SWAP2 DIV MUL PUSH1 0x20 ADD PUSH1 0x40 MLOAD SWAP1 DUP2 ADD PUSH1 0x40 MSTORE DUP1 SWAP3 SWAP2 SWAP1 DUP2 DUP2 MSTORE PUSH1 0x20 ADD DUP3 DUP1 SLOAD PUSH2 0xEA7 SWAP1 PUSH2 0x2EE8 JUMP JUMPDEST DUP1 ISZERO PUSH2 0xEF4 JUMPI DUP1 PUSH1 0x1F LT PUSH2 0xEC9 JUMPI PUSH2 0x100 DUP1 DUP4 SLOAD DIV MUL DUP4 MSTORE SWAP2 PUSH1 0x20 ADD SWAP2 PUSH2 0xEF4 JUMP JUMPDEST DUP3 ADD SWAP2 SWAP1 PUSH1 0x0 MSTORE PUSH1 0x20 PUSH1 0x0 KECCAK256 SWAP1 JUMPDEST DUP2 SLOAD DUP2 MSTORE SWAP1 PUSH1 0x1 ADD SWAP1 PUSH1 0x20 ADD DUP1 DUP4 GT PUSH2 0xED7 JUMPI DUP3 SWAP1 SUB PUSH1 0x1F AND DUP3 ADD SWAP2 JUMPDEST POP POP POP POP POP DUP2 MSTORE PUSH1 0x20 ADD PUSH1 0x1 DUP3 ADD DUP1 SLOAD PUSH2 0xF0D SWAP1 PUSH2 0x2EE8 JUMP JUMPDEST DUP1 PUSH1 0x1F ADD PUSH1 0x20 DUP1 SWAP2 DIV MUL PUSH1 0x20 ADD PUSH1 0x40 MLOAD SWAP1 DUP2 ADD PUSH1 0x40 MSTORE DUP1 SWAP3 SWAP2 SWAP1 DUP2 DUP2 MSTORE PUSH1 0x20 ADD DUP3 DUP1 SLOAD PUSH2 0xF39 SWAP1 PUSH2 0x2EE8 JUMP JUMPDEST DUP1 ISZERO PUSH2 0xF86 JUMPI DUP1 PUSH1 0x1F LT PUSH2 0xF5B JUMPI PUSH2 0x100 DUP1 DUP4 SLOAD DIV MUL DUP4 MSTORE SWAP2 PUSH1 0x20 ADD SWAP2 PUSH2 0xF86 JUMP JUMPDEST DUP3 ADD SWAP2 SWAP1 PUSH1 0x0 MSTORE PUSH1 0x20 PUSH1 0x0 KECCAK256 SWAP1 JUMPDEST DUP2 SLOAD DUP2 MSTORE SWAP1 PUSH1 0x1 ADD SWAP1 PUSH1 0x20 ADD DUP1 DUP4 GT PUSH2 0xF69 JUMPI DUP3 SWAP1 SUB PUSH1 0x1F AND DUP3 ADD SWAP2 JUMPDEST POP POP POP POP POP DUP2 MSTORE PUSH1 0x20 ADD PUSH1 0x2 DUP3 ADD DUP1 SLOAD PUSH2 0xF9F SWAP1 PUSH2 0x2EE8 JUMP JUMPDEST DUP1 PUSH1 0x1F ADD PUSH1 0x20 DUP1 SWAP2 DIV MUL PUSH1 0x20 ADD PUSH1 0x40 MLOAD SWAP1 DUP2 ADD PUSH1 0x40 MSTORE DUP1 SWAP3 SWAP2 SWAP1 DUP2 DUP2 MSTORE PUSH1 0x20 ADD DUP3 DUP1 SLOAD PUSH2 0xFCB SWAP1 PUSH2 0x2EE8 JUMP JUMPDEST DUP1 ISZERO PUSH2 0x1018 JUMPI DUP1 PUSH1 0x1F LT PUSH2 0xFED JUMPI PUSH2 0x100 DUP1 DUP4 SLOAD DIV MUL DUP4 MSTORE SWAP2 PUSH1 0x20 ADD SWAP2 PUSH2 0x1018 JUMP JUMPDEST DUP3 ADD SWAP2 SWAP1 PUSH1 0x0 MSTORE PUSH1 0x20 PUSH1 0x0 KECCAK256 SWAP1 JUMPDEST DUP2 SLOAD DUP2 MSTORE SWAP1 PUSH1 0x1 ADD SWAP1 PUSH1 0x20 ADD DUP1 DUP4 GT PUSH2 0xFFB JUMPI DUP3 SWAP1 SUB PUSH1 0x1F AND DUP3 ADD SWAP2 JUMPDEST POP POP POP POP POP DUP2 MSTORE PUSH1 0x20 ADD PUSH1 0x3 DUP3 ADD DUP1 SLOAD PUSH2 0x1031 SWAP1 PUSH2 0x2EE8 JUMP JUMPDEST DUP1 PUSH1 0x1F ADD PUSH1 0x20 DUP1 SWAP2 DIV MUL PUSH1 0x20 ADD PUSH1 0x40 MLOAD SWAP1 DUP2 ADD PUSH1 0x40 MSTORE DUP1 SWAP3 SWAP2 SWAP1 DUP2 DUP2 MSTORE PUSH1 0x20 ADD DUP3 DUP1 SLOAD PUSH2 0x105D SWAP1 PUSH2 0x2EE8 JUMP JUMPDEST DUP1 ISZERO PUSH2 0x10AA JUMPI DUP1 PUSH1 0x1F LT PUSH2 0x107F JUMPI PUSH2 0x100 DUP1 DUP4 SLOAD DIV MUL DUP4 MSTORE SWAP2 PUSH1 0x20 ADD SWAP2 PUSH2 0x10AA JUMP JUMPDEST DUP3 ADD SWAP2 SWAP1 PUSH1 0x0 MSTORE PUSH1 0x20 PUSH1 0x0 KECCAK256 SWAP1 JUMPDEST DUP2 SLOAD DUP2 MSTORE SWAP1 PUSH1 0x1 ADD SWAP1 PUSH1 0x20 ADD DUP1 DUP4 GT PUSH2 0x108D JUMPI DUP3 SWAP1 SUB PUSH1 0x1F AND DUP3 ADD SWAP2 JUMPDEST POP POP POP POP POP DUP2 MSTORE POP POP DUP2 MSTORE POP POP SWAP1 POP SWAP2 SWAP1 POP JUMP JUMPDEST PUSH1 0x33 SLOAD DUP2 JUMP JUMPDEST PUSH2 0x10CC PUSH2 0x1F96 JUMP JUMPDEST PUSH1 0x0 PUSH1 0x35 PUSH1 0x0 DUP5 PUSH20 0xFFFFFFFFFFFFFFFFFFFFFFFFFFFFFFFFFFFFFFFF AND PUSH20 0xFFFFFFFFFFFFFFFFFFFFFFFFFFFFFFFFFFFFFFFF AND DUP2 MSTORE PUSH1 0x20 ADD SWAP1 DUP2 MSTORE PUSH1 0x20 ADD PUSH1 0x0 KECCAK256 SLOAD SWAP1 POP PUSH1 0x0 DUP2 EQ ISZERO PUSH2 0x1154 JUMPI PUSH1 0x40 MLOAD PUSH32 0x8C379A000000000000000000000000000000000000000000000000000000000 DUP2 MSTORE PUSH1 0x4 ADD PUSH2 0x114B SWAP1 PUSH2 0x2F8C JUMP JUMPDEST PUSH1 0x40 MLOAD DUP1 SWAP2 SUB SWAP1 REVERT JUMPDEST PUSH1 0x34 PUSH1 0x1 DUP3 PUSH2 0x1163 SWAP2 SWAP1 PUSH2 0x2E56 JUMP JUMPDEST DUP2 SLOAD DUP2 LT PUSH2 0x1174 JUMPI PUSH2 0x1173 PUSH2 0x2E8A JUMP JUMPDEST JUMPDEST SWAP1 PUSH1 0x0 MSTORE PUSH1 0x20 PUSH1 0x0 KECCAK256 SWAP1 PUSH1 0x12 MUL ADD PUSH1 0x40 MLOAD DUP1 PUSH2 0x1E0 ADD PUSH1 0x40 MSTORE SWAP1 DUP2 PUSH1 0x0 DUP3 ADD SLOAD DUP2 MSTORE PUSH1 0x20 ADD PUSH1 0x1 DUP3 ADD DUP1 SLOAD PUSH2 0x11A8 SWAP1 PUSH2 0x2EE8 JUMP JUMPDEST DUP1 PUSH1 0x1F ADD PUSH1 0x20 DUP1 SWAP2 DIV MUL PUSH1 0x20 ADD PUSH1 0x40 MLOAD SWAP1 DUP2 ADD PUSH1 0x40 MSTORE DUP1 SWAP3 SWAP2 SWAP1 DUP2 DUP2 MSTORE PUSH1 0x20 ADD DUP3 DUP1 SLOAD PUSH2 0x11D4 SWAP1 PUSH2 0x2EE8 JUMP JUMPDEST DUP1 ISZERO PUSH2 0x1221 JUMPI DUP1 PUSH1 0x1F LT PUSH2 0x11F6 JUMPI PUSH2 0x100 DUP1 DUP4 SLOAD DIV MUL DUP4 MSTORE SWAP2 PUSH1 0x20 ADD SWAP2 PUSH2 0x1221 JUMP JUMPDEST DUP3 ADD SWAP2 SWAP1 PUSH1 0x0 MSTORE PUSH1 0x20 PUSH1 0x0 KECCAK256 SWAP1 JUMPDEST DUP2 SLOAD DUP2 MSTORE SWAP1 PUSH1 0x1 ADD SWAP1 PUSH1 0x20 ADD DUP1 DUP4 GT PUSH2 0x1204 JUMPI DUP3 SWAP1 SUB PUSH1 0x1F AND DUP3 ADD SWAP2 JUMPDEST POP POP POP POP POP DUP2 MSTORE PUSH1 0x20 ADD PUSH1 0x2 DUP3 ADD DUP1 SLOAD PUSH2 0x123A SWAP1 PUSH2 0x2EE8 JUMP JUMPDEST DUP1 PUSH1 0x1F ADD PUSH1 0x20 DUP1 SWAP2 DIV MUL PUSH1 0x20 ADD PUSH1 0x40 MLOAD SWAP1 DUP2 ADD PUSH1 0x40 MSTORE DUP1 SWAP3 SWAP2 SWAP1 DUP2 DUP2 MSTORE PUSH1 0x20 ADD DUP3 DUP1 SLOAD PUSH2 0x1266 SWAP1 PUSH2 0x2EE8 JUMP JUMPDEST DUP1 ISZERO PUSH2 0x12B3 JUMPI DUP1 PUSH1 0x1F LT PUSH2 0x1288 JUMPI PUSH2 0x100 DUP1 DUP4 SLOAD DIV MUL DUP4 MSTORE SWAP2 PUSH1 0x20 ADD SWAP2 PUSH2 0x12B3 JUMP JUMPDEST DUP3 ADD SWAP2 SWAP1 PUSH1 0x0 MSTORE PUSH1 0x20 PUSH1 0x0 KECCAK256 SWAP1 JUMPDEST DUP2 SLOAD DUP2 MSTORE SWAP1 PUSH1 0x1 ADD SWAP1 PUSH1 0x20 ADD DUP1 DUP4 GT PUSH2 0x1296 JUMPI DUP3 SWAP1 SUB PUSH1 0x1F AND DUP3 ADD SWAP2 JUMPDEST POP POP POP POP POP DUP2 MSTORE PUSH1 0x20 ADD PUSH1 0x3 DUP3 ADD SLOAD DUP2 MSTORE PUSH1 0x20 ADD PUSH1 0x4 DUP3 ADD DUP1 SLOAD PUSH2 0x12D6 SWAP1 PUSH2 0x2EE8 JUMP JUMPDEST DUP1 PUSH1 0x1F ADD PUSH1 0x20 DUP1 SWAP2 DIV MUL PUSH1 0x20 ADD PUSH1 0x40 MLOAD SWAP1 DUP2 ADD PUSH1 0x40 MSTORE DUP1 SWAP3 SWAP2 SWAP1 DUP2 DUP2 MSTORE PUSH1 0x20 ADD DUP3 DUP1 SLOAD PUSH2 0x1302 SWAP1 PUSH2 0x2EE8 JUMP JUMPDEST DUP1 ISZERO PUSH2 0x134F JUMPI DUP1 PUSH1 0x1F LT PUSH2 0x1324 JUMPI PUSH2 0x100 DUP1 DUP4 SLOAD DIV MUL DUP4 MSTORE SWAP2 PUSH1 0x20 ADD SWAP2 PUSH2 0x134F JUMP JUMPDEST DUP3 ADD SWAP2 SWAP1 PUSH1 0x0 MSTORE PUSH1 0x20 PUSH1 0x0 KECCAK256 SWAP1 JUMPDEST DUP2 SLOAD DUP2 MSTORE SWAP1 PUSH1 0x1 ADD SWAP1 PUSH1 0x20 ADD DUP1 DUP4 GT PUSH2 0x1332 JUMPI DUP3 SWAP1 SUB PUSH1 0x1F AND DUP3 ADD SWAP2 JUMPDEST POP POP POP POP POP DUP2 MSTORE PUSH1 0x20 ADD PUSH1 0x5 DUP3 ADD DUP1 SLOAD PUSH2 0x1368 SWAP1 PUSH2 0x2EE8 JUMP JUMPDEST DUP1 PUSH1 0x1F ADD PUSH1 0x20 DUP1 SWAP2 DIV MUL PUSH1 0x20 ADD PUSH1 0x40 MLOAD SWAP1 DUP2 ADD PUSH1 0x40 MSTORE DUP1 SWAP3 SWAP2 SWAP1 DUP2 DUP2 MSTORE PUSH1 0x20 ADD DUP3 DUP1 SLOAD PUSH2 0x1394 SWAP1 PUSH2 0x2EE8 JUMP JUMPDEST DUP1 ISZERO PUSH2 0x13E1 JUMPI DUP1 PUSH1 0x1F LT PUSH2 0x13B6 JUMPI PUSH2 0x100 DUP1 DUP4 SLOAD DIV MUL DUP4 MSTORE SWAP2 PUSH1 0x20 ADD SWAP2 PUSH2 0x13E1 JUMP JUMPDEST DUP3 ADD SWAP2 SWAP1 PUSH1 0x0 MSTORE PUSH1 0x20 PUSH1 0x0 KECCAK256 SWAP1 JUMPDEST DUP2 SLOAD DUP2 MSTORE SWAP1 PUSH1 0x1 ADD SWAP1 PUSH1 0x20 ADD DUP1 DUP4 GT PUSH2 0x13C4 JUMPI DUP3 SWAP1 SUB PUSH1 0x1F AND DUP3 ADD SWAP2 JUMPDEST POP POP POP POP POP DUP2 MSTORE PUSH1 0x20 ADD PUSH1 0x6 DUP3 ADD DUP1 SLOAD PUSH2 0x13FA SWAP1 PUSH2 0x2EE8 JUMP JUMPDEST DUP1 PUSH1 0x1F ADD PUSH1 0x20 DUP1 SWAP2 DIV MUL PUSH1 0x20 ADD PUSH1 0x40 MLOAD SWAP1 DUP2 ADD PUSH1 0x40 MSTORE DUP1 SWAP3 SWAP2 SWAP1 DUP2 DUP2 MSTORE PUSH1 0x20 ADD DUP3 DUP1 SLOAD PUSH2 0x1426 SWAP1 PUSH2 0x2EE8 JUMP JUMPDEST DUP1 ISZERO PUSH2 0x1473 JUMPI DUP1 PUSH1 0x1F LT PUSH2 0x1448 JUMPI PUSH2 0x100 DUP1 DUP4 SLOAD DIV MUL DUP4 MSTORE SWAP2 PUSH1 0x20 ADD SWAP2 PUSH2 0x1473 JUMP JUMPDEST DUP3 ADD SWAP2 SWAP1 PUSH1 0x0 MSTORE PUSH1 0x20 PUSH1 0x0 KECCAK256 SWAP1 JUMPDEST DUP2 SLOAD DUP2 MSTORE SWAP1 PUSH1 0x1 ADD SWAP1 PUSH1 0x20 ADD DUP1 DUP4 GT PUSH2 0x1456 JUMPI DUP3 SWAP1 SUB PUSH1 0x1F AND DUP3 ADD SWAP2 JUMPDEST POP POP POP POP POP DUP2 MSTORE PUSH1 0x20 ADD PUSH1 0x7 DUP3 ADD DUP1 SLOAD PUSH2 0x148C SWAP1 PUSH2 0x2EE8 JUMP JUMPDEST DUP1 PUSH1 0x1F ADD PUSH1 0x20 DUP1 SWAP2 DIV MUL PUSH1 0x20 ADD PUSH1 0x40 MLOAD SWAP1 DUP2 ADD PUSH1 0x40 MSTORE DUP1 SWAP3 SWAP2 SWAP1 DUP2 DUP2 MSTORE PUSH1 0x20 ADD DUP3 DUP1 SLOAD PUSH2 0x14B8 SWAP1 PUSH2 0x2EE8 JUMP JUMPDEST DUP1 ISZERO PUSH2 0x1505 JUMPI DUP1 PUSH1 0x1F LT PUSH2 0x14DA JUMPI PUSH2 0x100 DUP1 DUP4 SLOAD DIV MUL DUP4 MSTORE SWAP2 PUSH1 0x20 ADD SWAP2 PUSH2 0x1505 JUMP JUMPDEST DUP3 ADD SWAP2 SWAP1 PUSH1 0x0 MSTORE PUSH1 0x20 PUSH1 0x0 KECCAK256 SWAP1 JUMPDEST DUP2 SLOAD DUP2 MSTORE SWAP1 PUSH1 0x1 ADD SWAP1 PUSH1 0x20 ADD DUP1 DUP4 GT PUSH2 0x14E8 JUMPI DUP3 SWAP1 SUB PUSH1 0x1F AND DUP3 ADD SWAP2 JUMPDEST POP POP POP POP POP DUP2 MSTORE PUSH1 0x20 ADD PUSH1 0x8 DUP3 ADD DUP1 SLOAD PUSH2 0x151E SWAP1 PUSH2 0x2EE8 JUMP JUMPDEST DUP1 PUSH1 0x1F ADD PUSH1 0x20 DUP1 SWAP2 DIV MUL PUSH1 0x20 ADD PUSH1 0x40 MLOAD SWAP1 DUP2 ADD PUSH1 0x40 MSTORE DUP1 SWAP3 SWAP2 SWAP1 DUP2 DUP2 MSTORE PUSH1 0x20 ADD DUP3 DUP1 SLOAD PUSH2 0x154A SWAP1 PUSH2 0x2EE8 JUMP JUMPDEST DUP1 ISZERO PUSH2 0x1597 JUMPI DUP1 PUSH1 0x1F LT PUSH2 0x156C JUMPI PUSH2 0x100 DUP1 DUP4 SLOAD DIV MUL DUP4 MSTORE SWAP2 PUSH1 0x20 ADD SWAP2 PUSH2 0x1597 JUMP JUMPDEST DUP3 ADD SWAP2 SWAP1 PUSH1 0x0 MSTORE PUSH1 0x20 PUSH1 0x0 KECCAK256 SWAP1 JUMPDEST DUP2 SLOAD DUP2 MSTORE SWAP1 PUSH1 0x1 ADD SWAP1 PUSH1 0x20 ADD DUP1 DUP4 GT PUSH2 0x157A JUMPI DUP3 SWAP1 SUB PUSH1 0x1F AND DUP3 ADD SWAP2 JUMPDEST POP POP POP POP POP DUP2 MSTORE PUSH1 0x20 ADD PUSH1 0x9 DUP3 ADD DUP1 SLOAD DUP1 PUSH1 0x20 MUL PUSH1 0x20 ADD PUSH1 0x40 MLOAD SWAP1 DUP2 ADD PUSH1 0x40 MSTORE DUP1 SWAP3 SWAP2 SWAP1 DUP2 DUP2 MSTORE PUSH1 0x20 ADD PUSH1 0x0 SWAP1 JUMPDEST DUP3 DUP3 LT ISZERO PUSH2 0x1671 JUMPI DUP4 DUP3 SWAP1 PUSH1 0x0 MSTORE PUSH1 0x20 PUSH1 0x0 KECCAK256 ADD DUP1 SLOAD PUSH2 0x15E4 SWAP1 PUSH2 0x2EE8 JUMP JUMPDEST DUP1 PUSH1 0x1F ADD PUSH1 0x20 DUP1 SWAP2 DIV MUL PUSH1 0x20 ADD PUSH1 0x40 MLOAD SWAP1 DUP2 ADD PUSH1 0x40 MSTORE DUP1 SWAP3 SWAP2 SWAP1 DUP2 DUP2 MSTORE PUSH1 0x20 ADD DUP3 DUP1 SLOAD PUSH2 0x1610 SWAP1 PUSH2 0x2EE8 JUMP JUMPDEST DUP1 ISZERO PUSH2 0x165D JUMPI DUP1 PUSH1 0x1F LT PUSH2 0x1632 JUMPI PUSH2 0x100 DUP1 DUP4 SLOAD DIV MUL DUP4 MSTORE SWAP2 PUSH1 0x20 ADD SWAP2 PUSH2 0x165D JUMP JUMPDEST DUP3 ADD SWAP2 SWAP1 PUSH1 0x0 MSTORE PUSH1 0x20 PUSH1 0x0 KECCAK256 SWAP1 JUMPDEST DUP2 SLOAD DUP2 MSTORE SWAP1 PUSH1 0x1 ADD SWAP1 PUSH1 0x20 ADD DUP1 DUP4 GT PUSH2 0x1640 JUMPI DUP3 SWAP1 SUB PUSH1 0x1F AND DUP3 ADD SWAP2 JUMPDEST POP POP POP POP POP DUP2 MSTORE PUSH1 0x20 ADD SWAP1 PUSH1 0x1 ADD SWAP1 PUSH2 0x15C5 JUMP JUMPDEST POP POP POP POP DUP2 MSTORE PUSH1 0x20 ADD PUSH1 0xA DUP3 ADD DUP1 SLOAD DUP1 PUSH1 0x20 MUL PUSH1 0x20 ADD PUSH1 0x40 MLOAD SWAP1 DUP2 ADD PUSH1 0x40 MSTORE DUP1 SWAP3 SWAP2 SWAP1 DUP2 DUP2 MSTORE PUSH1 0x20 ADD PUSH1 0x0 SWAP1 JUMPDEST DUP3 DUP3 LT ISZERO PUSH2 0x174A JUMPI DUP4 DUP3 SWAP1 PUSH1 0x0 MSTORE PUSH1 0x20 PUSH1 0x0 KECCAK256 ADD DUP1 SLOAD PUSH2 0x16BD SWAP1 PUSH2 0x2EE8 JUMP JUMPDEST DUP1 PUSH1 0x1F ADD PUSH1 0x20 DUP1 SWAP2 DIV MUL PUSH1 0x20 ADD PUSH1 0x40 MLOAD SWAP1 DUP2 ADD PUSH1 0x40 MSTORE DUP1 SWAP3 SWAP2 SWAP1 DUP2 DUP2 MSTORE PUSH1 0x20 ADD DUP3 DUP1 SLOAD PUSH2 0x16E9 SWAP1 PUSH2 0x2EE8 JUMP JUMPDEST DUP1 ISZERO PUSH2 0x1736 JUMPI DUP1 PUSH1 0x1F LT PUSH2 0x170B JUMPI PUSH2 0x100 DUP1 DUP4 SLOAD DIV MUL DUP4 MSTORE SWAP2 PUSH1 0x20 ADD SWAP2 PUSH2 0x1736 JUMP JUMPDEST DUP3 ADD SWAP2 SWAP1 PUSH1 0x0 MSTORE PUSH1 0x20 PUSH1 0x0 KECCAK256 SWAP1 JUMPDEST DUP2 SLOAD DUP2 MSTORE SWAP1 PUSH1 0x1 ADD SWAP1 PUSH1 0x20 ADD DUP1 DUP4 GT PUSH2 0x1719 JUMPI DUP3 SWAP1 SUB PUSH1 0x1F AND DUP3 ADD SWAP2 JUMPDEST POP POP POP POP POP DUP2 MSTORE PUSH1 0x20 ADD SWAP1 PUSH1 0x1 ADD SWAP1 PUSH2 0x169E JUMP JUMPDEST POP POP POP POP DUP2 MSTORE PUSH1 0x20 ADD PUSH1 0xB DUP3 ADD DUP1 SLOAD PUSH2 0x1762 SWAP1 PUSH2 0x2EE8 JUMP JUMPDEST DUP1 PUSH1 0x1F ADD PUSH1 0x20 DUP1 SWAP2 DIV MUL PUSH1 0x20 ADD PUSH1 0x40 MLOAD SWAP1 DUP2 ADD PUSH1 0x40 MSTORE DUP1 SWAP3 SWAP2 SWAP1 DUP2 DUP2 MSTORE PUSH1 0x20 ADD DUP3 DUP1 SLOAD PUSH2 0x178E SWAP1 PUSH2 0x2EE8 JUMP JUMPDEST DUP1 ISZERO PUSH2 0x17DB JUMPI DUP1 PUSH1 0x1F LT PUSH2 0x17B0 JUMPI PUSH2 0x100 DUP1 DUP4 SLOAD DIV MUL DUP4 MSTORE SWAP2 PUSH1 0x20 ADD SWAP2 PUSH2 0x17DB JUMP JUMPDEST DUP3 ADD SWAP2 SWAP1 PUSH1 0x0 MSTORE PUSH1 0x20 PUSH1 0x0 KECCAK256 SWAP1 JUMPDEST DUP2 SLOAD DUP2 MSTORE SWAP1 PUSH1 0x1 ADD SWAP1 PUSH1 0x20 ADD DUP1 DUP4 GT PUSH2 0x17BE JUMPI DUP3 SWAP1 SUB PUSH1 0x1F AND DUP3 ADD SWAP2 JUMPDEST POP POP POP POP POP DUP2 MSTORE PUSH1 0x20 ADD PUSH1 0xC DUP3 ADD DUP1 SLOAD PUSH2 0x17F4 SWAP1 PUSH2 0x2EE8 JUMP JUMPDEST DUP1 PUSH1 0x1F ADD PUSH1 0x20 DUP1 SWAP2 DIV MUL PUSH1 0x20 ADD PUSH1 0x40 MLOAD SWAP1 DUP2 ADD PUSH1 0x40 MSTORE DUP1 SWAP3 SWAP2 SWAP1 DUP2 DUP2 MSTORE PUSH1 0x20 ADD DUP3 DUP1 SLOAD PUSH2 0x1820 SWAP1 PUSH2 0x2EE8 JUMP JUMPDEST DUP1 ISZERO PUSH2 0x186D JUMPI DUP1 PUSH1 0x1F LT PUSH2 0x1842 JUMPI PUSH2 0x100 DUP1 DUP4 SLOAD DIV MUL DUP4 MSTORE SWAP2 PUSH1 0x20 ADD SWAP2 PUSH2 0x186D JUMP JUMPDEST DUP3 ADD SWAP2 SWAP1 PUSH1 0x0 MSTORE PUSH1 0x20 PUSH1 0x0 KECCAK256 SWAP1 JUMPDEST DUP2 SLOAD DUP2 MSTORE SWAP1 PUSH1 0x1 ADD SWAP1 PUSH1 0x20 ADD DUP1 DUP4 GT PUSH2 0x1850 JUMPI DUP3 SWAP1 SUB PUSH1 0x1F AND DUP3 ADD SWAP2 JUMPDEST POP POP POP POP POP DUP2 MSTORE PUSH1 0x20 ADD PUSH1 0xD DUP3 ADD PUSH1 0x0 SWAP1 SLOAD SWAP1 PUSH2 0x100 EXP SWAP1 DIV PUSH20 0xFFFFFFFFFFFFFFFFFFFFFFFFFFFFFFFFFFFFFFFF AND PUSH20 0xFFFFFFFFFFFFFFFFFFFFFFFFFFFFFFFFFFFFFFFF AND PUSH20 0xFFFFFFFFFFFFFFFFFFFFFFFFFFFFFFFFFFFFFFFF AND DUP2 MSTORE PUSH1 0x20 ADD PUSH1 0xE DUP3 ADD PUSH1 0x40 MLOAD DUP1 PUSH1 0x80 ADD PUSH1 0x40 MSTORE SWAP1 DUP2 PUSH1 0x0 DUP3 ADD DUP1 SLOAD PUSH2 0x18EC SWAP1 PUSH2 0x2EE8 JUMP JUMPDEST DUP1 PUSH1 0x1F ADD PUSH1 0x20 DUP1 SWAP2 DIV MUL PUSH1 0x20 ADD PUSH1 0x40 MLOAD SWAP1 DUP2 ADD PUSH1 0x40 MSTORE DUP1 SWAP3 SWAP2 SWAP1 DUP2 DUP2 MSTORE PUSH1 0x20 ADD DUP3 DUP1 SLOAD PUSH2 0x1918 SWAP1 PUSH2 0x2EE8 JUMP JUMPDEST DUP1 ISZERO PUSH2 0x1965 JUMPI DUP1 PUSH1 0x1F LT PUSH2 0x193A JUMPI PUSH2 0x100 DUP1 DUP4 SLOAD DIV MUL DUP4 MSTORE SWAP2 PUSH1 0x20 ADD SWAP2 PUSH2 0x1965 JUMP JUMPDEST DUP3 ADD SWAP2 SWAP1 PUSH1 0x0 MSTORE PUSH1 0x20 PUSH1 0x0 KECCAK256 SWAP1 JUMPDEST DUP2 SLOAD DUP2 MSTORE SWAP1 PUSH1 0x1 ADD SWAP1 PUSH1 0x20 ADD DUP1 DUP4 GT PUSH2 0x1948 JUMPI DUP3 SWAP1 SUB PUSH1 0x1F AND DUP3 ADD SWAP2 JUMPDEST POP POP POP POP POP DUP2 MSTORE PUSH1 0x20 ADD PUSH1 0x1 DUP3 ADD DUP1 SLOAD PUSH2 0x197E SWAP1 PUSH2 0x2EE8 JUMP JUMPDEST DUP1 PUSH1 0x1F ADD PUSH1 0x20 DUP1 SWAP2 DIV MUL PUSH1 0x20 ADD PUSH1 0x40 MLOAD SWAP1 DUP2 ADD PUSH1 0x40 MSTORE DUP1 SWAP3 SWAP2 SWAP1 DUP2 DUP2 MSTORE PUSH1 0x20 ADD DUP3 DUP1 SLOAD PUSH2 0x19AA SWAP1 PUSH2 0x2EE8 JUMP JUMPDEST DUP1 ISZERO PUSH2 0x19F7 JUMPI DUP1 PUSH1 0x1F LT PUSH2 0x19CC JUMPI PUSH2 0x100 DUP1 DUP4 SLOAD DIV MUL DUP4 MSTORE SWAP2 PUSH1 0x20 ADD SWAP2 PUSH2 0x19F7 JUMP JUMPDEST DUP3 ADD SWAP2 SWAP1 PUSH1 0x0 MSTORE PUSH1 0x20 PUSH1 0x0 KECCAK256 SWAP1 JUMPDEST DUP2 SLOAD DUP2 MSTORE SWAP1 PUSH1 0x1 ADD SWAP1 PUSH1 0x20 ADD DUP1 DUP4 GT PUSH2 0x19DA JUMPI DUP3 SWAP1 SUB PUSH1 0x1F AND DUP3 ADD SWAP2 JUMPDEST POP POP POP POP POP DUP2 MSTORE PUSH1 0x20 ADD PUSH1 0x2 DUP3 ADD DUP1 SLOAD PUSH2 0x1A10 SWAP1 PUSH2 0x2EE8 JUMP JUMPDEST DUP1 PUSH1 0x1F ADD PUSH1 0x20 DUP1 SWAP2 DIV MUL PUSH1 0x20 ADD PUSH1 0x40 MLOAD SWAP1 DUP2 ADD PUSH1 0x40 MSTORE DUP1 SWAP3 SWAP2 SWAP1 DUP2 DUP2 MSTORE PUSH1 0x20 ADD DUP3 DUP1 SLOAD PUSH2 0x1A3C SWAP1 PUSH2 0x2EE8 JUMP JUMPDEST DUP1 ISZERO PUSH2 0x1A89 JUMPI DUP1 PUSH1 0x1F LT PUSH2 0x1A5E JUMPI PUSH2 0x100 DUP1 DUP4 SLOAD DIV MUL DUP4 MSTORE SWAP2 PUSH1 0x20 ADD SWAP2 PUSH2 0x1A89 JUMP JUMPDEST DUP3 ADD SWAP2 SWAP1 PUSH1 0x0 MSTORE PUSH1 0x20 PUSH1 0x0 KECCAK256 SWAP1 JUMPDEST DUP2 SLOAD DUP2 MSTORE SWAP1 PUSH1 0x1 ADD SWAP1 PUSH1 0x20 ADD DUP1 DUP4 GT PUSH2 0x1A6C JUMPI DUP3 SWAP1 SUB PUSH1 0x1F AND DUP3 ADD SWAP2 JUMPDEST POP POP POP POP POP DUP2 MSTORE PUSH1 0x20 ADD PUSH1 0x3 DUP3 ADD DUP1 SLOAD PUSH2 0x1AA2 SWAP1 PUSH2 0x2EE8 JUMP JUMPDEST DUP1 PUSH1 0x1F ADD PUSH1 0x20 DUP1 SWAP2 DIV MUL PUSH1 0x20 ADD PUSH1 0x40 MLOAD SWAP1 DUP2 ADD PUSH1 0x40 MSTORE DUP1 SWAP3 SWAP2 SWAP1 DUP2 DUP2 MSTORE PUSH1 0x20 ADD DUP3 DUP1 SLOAD PUSH2 0x1ACE SWAP1 PUSH2 0x2EE8 JUMP JUMPDEST DUP1 ISZERO PUSH2 0x1B1B JUMPI DUP1 PUSH1 0x1F LT PUSH2 0x1AF0 JUMPI PUSH2 0x100 DUP1 DUP4 SLOAD DIV MUL DUP4 MSTORE SWAP2 PUSH1 0x20 ADD SWAP2 PUSH2 0x1B1B JUMP JUMPDEST DUP3 ADD SWAP2 SWAP1 PUSH1 0x0 MSTORE PUSH1 0x20 PUSH1 0x0 KECCAK256 SWAP1 JUMPDEST DUP2 SLOAD DUP2 MSTORE SWAP1 PUSH1 0x1 ADD SWAP1 PUSH1 0x20 ADD DUP1 DUP4 GT PUSH2 0x1AFE JUMPI DUP3 SWAP1 SUB PUSH1 0x1F AND DUP3 ADD SWAP2 JUMPDEST POP POP POP POP POP DUP2 MSTORE POP POP DUP2 MSTORE POP POP SWAP2 POP POP SWAP2 SWAP1 POP JUMP JUMPDEST PUSH1 0x35 PUSH1 0x20 MSTORE DUP1 PUSH1 0x0 MSTORE PUSH1 0x40 PUSH1 0x0 KECCAK256 PUSH1 0x0 SWAP2 POP SWAP1 POP SLOAD DUP2 JUMP JUMPDEST PUSH1 0x0 DUP1 DUP3 PUSH1 0x0 ADD MLOAD SWAP1 POP PUSH1 0x0 DUP2 EQ ISZERO DUP1 ISZERO PUSH2 0x1BA8 JUMPI POP DUP1 PUSH1 0x35 PUSH1 0x0 PUSH2 0x1B6B PUSH2 0x1EA8 JUMP JUMPDEST PUSH20 0xFFFFFFFFFFFFFFFFFFFFFFFFFFFFFFFFFFFFFFFF AND PUSH20 0xFFFFFFFFFFFFFFFFFFFFFFFFFFFFFFFFFFFFFFFF AND DUP2 MSTORE PUSH1 0x20 ADD SWAP1 DUP2 MSTORE PUSH1 0x20 ADD PUSH1 0x0 KECCAK256 SLOAD EQ JUMPDEST DUP1 ISZERO PUSH2 0x1BEB JUMPI POP DUP3 PUSH2 0x1A0 ADD MLOAD PUSH20 0xFFFFFFFFFFFFFFFFFFFFFFFFFFFFFFFFFFFFFFFF AND PUSH2 0x1BD3 PUSH2 0x1EA8 JUMP JUMPDEST PUSH20 0xFFFFFFFFFFFFFFFFFFFFFFFFFFFFFFFFFFFFFFFF AND EQ JUMPDEST PUSH2 0x1C2A JUMPI PUSH1 0x40 MLOAD PUSH32 0x8C379A000000000000000000000000000000000000000000000000000000000 DUP2 MSTORE PUSH1 0x4 ADD PUSH2 0x1C21 SWAP1 PUSH2 0x301E JUMP JUMPDEST PUSH1 0x40 MLOAD DUP1 SWAP2 SUB SWAP1 REVERT JUMPDEST DUP3 PUSH1 0x34 PUSH1 0x1 DUP4 PUSH2 0x1C3A SWAP2 SWAP1 PUSH2 0x2E56 JUMP JUMPDEST DUP2 SLOAD DUP2 LT PUSH2 0x1C4B JUMPI PUSH2 0x1C4A PUSH2 0x2E8A JUMP JUMPDEST JUMPDEST SWAP1 PUSH1 0x0 MSTORE PUSH1 0x20 PUSH1 0x0 KECCAK256 SWAP1 PUSH1 0x12 MUL ADD PUSH1 0x0 DUP3 ADD MLOAD DUP2 PUSH1 0x0 ADD SSTORE PUSH1 0x20 DUP3 ADD MLOAD DUP2 PUSH1 0x1 ADD SWAP1 DUP1 MLOAD SWAP1 PUSH1 0x20 ADD SWAP1 PUSH2 0x1C7F SWAP3 SWAP2 SWAP1 PUSH2 0x1EB0 JUMP JUMPDEST POP PUSH1 0x40 DUP3 ADD MLOAD DUP2 PUSH1 0x2 ADD SWAP1 DUP1 MLOAD SWAP1 PUSH1 0x20 ADD SWAP1 PUSH2 0x1C9C SWAP3 SWAP2 SWAP1 PUSH2 0x1EB0 JUMP JUMPDEST POP PUSH1 0x60 DUP3 ADD MLOAD DUP2 PUSH1 0x3 ADD SSTORE PUSH1 0x80 DUP3 ADD MLOAD DUP2 PUSH1 0x4 ADD SWAP1 DUP1 MLOAD SWAP1 PUSH1 0x20 ADD SWAP1 PUSH2 0x1CC3 SWAP3 SWAP2 SWAP1 PUSH2 0x1EB0 JUMP JUMPDEST POP PUSH1 0xA0 DUP3 ADD MLOAD DUP2 PUSH1 0x5 ADD SWAP1 DUP1 MLOAD SWAP1 PUSH1 0x20 ADD SWAP1 PUSH2 0x1CE0 SWAP3 SWAP2 SWAP1 PUSH2 0x1EB0 JUMP JUMPDEST POP PUSH1 0xC0 DUP3 ADD MLOAD DUP2 PUSH1 0x6 ADD SWAP1 DUP1 MLOAD SWAP1 PUSH1 0x20 ADD SWAP1 PUSH2 0x1CFD SWAP3 SWAP2 SWAP1 PUSH2 0x1EB0 JUMP JUMPDEST POP PUSH1 0xE0 DUP3 ADD MLOAD DUP2 PUSH1 0x7 ADD SWAP1 DUP1 MLOAD SWAP1 PUSH1 0x20 ADD SWAP1 PUSH2 0x1D1A SWAP3 SWAP2 SWAP1 PUSH2 0x1EB0 JUMP JUMPDEST POP PUSH2 0x100 DUP3 ADD MLOAD DUP2 PUSH1 0x8 ADD SWAP1 DUP1 MLOAD SWAP1 PUSH1 0x20 ADD SWAP1 PUSH2 0x1D38 SWAP3 SWAP2 SWAP1 PUSH2 0x1EB0 JUMP JUMPDEST POP PUSH2 0x120 DUP3 ADD MLOAD DUP2 PUSH1 0x9 ADD SWAP1 DUP1 MLOAD SWAP1 PUSH1 0x20 ADD SWAP1 PUSH2 0x1D56 SWAP3 SWAP2 SWAP1 PUSH2 0x1F36 JUMP JUMPDEST POP PUSH2 0x140 DUP3 ADD MLOAD DUP2 PUSH1 0xA ADD SWAP1 DUP1 MLOAD SWAP1 PUSH1 0x20 ADD SWAP1 PUSH2 0x1D74 SWAP3 SWAP2 SWAP1 PUSH2 0x1F36 JUMP JUMPDEST POP PUSH2 0x160 DUP3 ADD MLOAD DUP2 PUSH1 0xB ADD SWAP1 DUP1 MLOAD SWAP1 PUSH1 0x20 ADD SWAP1 PUSH2 0x1D92 SWAP3 SWAP2 SWAP1 PUSH2 0x1EB0 JUMP JUMPDEST POP PUSH2 0x180 DUP3 ADD MLOAD DUP2 PUSH1 0xC ADD SWAP1 DUP1 MLOAD SWAP1 PUSH1 0x20 ADD SWAP1 PUSH2 0x1DB0 SWAP3 SWAP2 SWAP1 PUSH2 0x1EB0 JUMP JUMPDEST POP PUSH2 0x1A0 DUP3 ADD MLOAD DUP2 PUSH1 0xD ADD PUSH1 0x0 PUSH2 0x100 EXP DUP2 SLOAD DUP2 PUSH20 0xFFFFFFFFFFFFFFFFFFFFFFFFFFFFFFFFFFFFFFFF MUL NOT AND SWAP1 DUP4 PUSH20 0xFFFFFFFFFFFFFFFFFFFFFFFFFFFFFFFFFFFFFFFF AND MUL OR SWAP1 SSTORE POP PUSH2 0x1C0 DUP3 ADD MLOAD DUP2 PUSH1 0xE ADD PUSH1 0x0 DUP3 ADD MLOAD DUP2 PUSH1 0x0 ADD SWAP1 DUP1 MLOAD SWAP1 PUSH1 0x20 ADD SWAP1 PUSH2 0x1E1F SWAP3 SWAP2 SWAP1 PUSH2 0x1EB0 JUMP JUMPDEST POP PUSH1 0x20 DUP3 ADD MLOAD DUP2 PUSH1 0x1 ADD SWAP1 DUP1 MLOAD SWAP1 PUSH1 0x20 ADD SWAP1 PUSH2 0x1E3C SWAP3 SWAP2 SWAP1 PUSH2 0x1EB0 JUMP JUMPDEST POP PUSH1 0x40 DUP3 ADD MLOAD DUP2 PUSH1 0x2 ADD SWAP1 DUP1 MLOAD SWAP1 PUSH1 0x20 ADD SWAP1 PUSH2 0x1E59 SWAP3 SWAP2 SWAP1 PUSH2 0x1EB0 JUMP JUMPDEST POP PUSH1 0x60 DUP3 ADD MLOAD DUP2 PUSH1 0x3 ADD SWAP1 DUP1 MLOAD SWAP1 PUSH1 0x20 ADD SWAP1 PUSH2 0x1E76 SWAP3 SWAP2 SWAP1 PUSH2 0x1EB0 JUMP JUMPDEST POP POP POP SWAP1 POP POP DUP1 SWAP2 POP POP SWAP2 SWAP1 POP JUMP JUMPDEST PUSH1 0x0 DUP1 DUP3 PUSH20 0xFFFFFFFFFFFFFFFFFFFFFFFFFFFFFFFFFFFFFFFF AND EXTCODESIZE GT SWAP1 POP SWAP2 SWAP1 POP JUMP JUMPDEST PUSH1 0x0 CALLER SWAP1 POP SWAP1 JUMP JUMPDEST DUP3 DUP1 SLOAD PUSH2 0x1EBC SWAP1 PUSH2 0x2EE8 JUMP JUMPDEST SWAP1 PUSH1 0x0 MSTORE PUSH1 0x20 PUSH1 0x0 KECCAK256 SWAP1 PUSH1 0x1F ADD PUSH1 0x20 SWAP1 DIV DUP2 ADD SWAP3 DUP3 PUSH2 0x1EDE JUMPI PUSH1 0x0 DUP6 SSTORE PUSH2 0x1F25 JUMP JUMPDEST DUP3 PUSH1 0x1F LT PUSH2 0x1EF7 JUMPI DUP1 MLOAD PUSH1 0xFF NOT AND DUP4 DUP1 ADD OR DUP6 SSTORE PUSH2 0x1F25 JUMP JUMPDEST DUP3 DUP1 ADD PUSH1 0x1 ADD DUP6 SSTORE DUP3 ISZERO PUSH2 0x1F25 JUMPI SWAP2 DUP3 ADD JUMPDEST DUP3 DUP2 GT ISZERO PUSH2 0x1F24 JUMPI DUP3 MLOAD DUP3 SSTORE SWAP2 PUSH1 0x20 ADD SWAP2 SWAP1 PUSH1 0x1 ADD SWAP1 PUSH2 0x1F09 JUMP JUMPDEST JUMPDEST POP SWAP1 POP PUSH2 0x1F32 SWAP2 SWAP1 PUSH2 0x2028 JUMP JUMPDEST POP SWAP1 JUMP JUMPDEST DUP3 DUP1 SLOAD DUP3 DUP3 SSTORE SWAP1 PUSH1 0x0 MSTORE PUSH1 0x20 PUSH1 0x0 KECCAK256 SWAP1 DUP2 ADD SWAP3 DUP3 ISZERO PUSH2 0x1F85 JUMPI SWAP2 PUSH1 0x20 MUL DUP3 ADD JUMPDEST DUP3 DUP2 GT ISZERO PUSH2 0x1F84 JUMPI DUP3 MLOAD DUP3 SWAP1 DUP1 MLOAD SWAP1 PUSH1 0x20 ADD SWAP1 PUSH2 0x1F74 SWAP3 SWAP2 SWAP1 PUSH2 0x1EB0 JUMP JUMPDEST POP SWAP2 PUSH1 0x20 ADD SWAP2 SWAP1 PUSH1 0x1 ADD SWAP1 PUSH2 0x1F56 JUMP JUMPDEST JUMPDEST POP SWAP1 POP PUSH2 0x1F92 SWAP2 SWAP1 PUSH2 0x2045 JUMP JUMPDEST POP SWAP1 JUMP JUMPDEST PUSH1 0x40 MLOAD DUP1 PUSH2 0x1E0 ADD PUSH1 0x40 MSTORE DUP1 PUSH1 0x0 DUP2 MSTORE PUSH1 0x20 ADD PUSH1 0x60 DUP2 MSTORE PUSH1 0x20 ADD PUSH1 0x60 DUP2 MSTORE PUSH1 0x20 ADD PUSH1 0x0 DUP2 MSTORE PUSH1 0x20 ADD PUSH1 0x60 DUP2 MSTORE PUSH1 0x20 ADD PUSH1 0x60 DUP2 MSTORE PUSH1 0x20 ADD PUSH1 0x60 DUP2 MSTORE PUSH1 0x20 ADD PUSH1 0x60 DUP2 MSTORE PUSH1 0x20 ADD PUSH1 0x60 DUP2 MSTORE PUSH1 0x20 ADD PUSH1 0x60 DUP2 MSTORE PUSH1 0x20 ADD PUSH1 0x60 DUP2 MSTORE PUSH1 0x20 ADD PUSH1 0x60 DUP2 MSTORE PUSH1 0x20 ADD PUSH1 0x60 DUP2 MSTORE PUSH1 0x20 ADD PUSH1 0x0 PUSH20 0xFFFFFFFFFFFFFFFFFFFFFFFFFFFFFFFFFFFFFFFF AND DUP2 MSTORE PUSH1 0x20 ADD PUSH2 0x2022 PUSH2 0x2069 JUMP JUMPDEST DUP2 MSTORE POP SWAP1 JUMP JUMPDEST JUMPDEST DUP1 DUP3 GT ISZERO PUSH2 0x2041 JUMPI PUSH1 0x0 DUP2 PUSH1 0x0 SWAP1 SSTORE POP PUSH1 0x1 ADD PUSH2 0x2029 JUMP JUMPDEST POP SWAP1 JUMP JUMPDEST JUMPDEST DUP1 DUP3 GT ISZERO PUSH2 0x2065 JUMPI PUSH1 0x0 DUP2 DUP2 PUSH2 0x205C SWAP2 SWAP1 PUSH2 0x2091 JUMP JUMPDEST POP PUSH1 0x1 ADD PUSH2 0x2046 JUMP JUMPDEST POP SWAP1 JUMP JUMPDEST PUSH1 0x40 MLOAD DUP1 PUSH1 0x80 ADD PUSH1 0x40 MSTORE DUP1 PUSH1 0x60 DUP2 MSTORE PUSH1 0x20 ADD PUSH1 0x60 DUP2 MSTORE PUSH1 0x20 ADD PUSH1 0x60 DUP2 MSTORE PUSH1 0x20 ADD PUSH1 0x60 DUP2 MSTORE POP SWAP1 JUMP JUMPDEST POP DUP1 SLOAD PUSH2 0x209D SWAP1 PUSH2 0x2EE8 JUMP JUMPDEST PUSH1 0x0 DUP3 SSTORE DUP1 PUSH1 0x1F LT PUSH2 0x20AF JUMPI POP PUSH2 0x20CE JUMP JUMPDEST PUSH1 0x1F ADD PUSH1 0x20 SWAP1 DIV SWAP1 PUSH1 0x0 MSTORE PUSH1 0x20 PUSH1 0x0 KECCAK256 SWAP1 DUP2 ADD SWAP1 PUSH2 0x20CD SWAP2 SWAP1 PUSH2 0x2028 JUMP JUMPDEST JUMPDEST POP JUMP JUMPDEST PUSH1 0x0 DUP2 SWAP1 POP SWAP2 SWAP1 POP JUMP JUMPDEST PUSH2 0x20E4 DUP2 PUSH2 0x20D1 JUMP JUMPDEST DUP3 MSTORE POP POP JUMP JUMPDEST PUSH1 0x0 PUSH1 0x20 DUP3 ADD SWAP1 POP PUSH2 0x20FF PUSH1 0x0 DUP4 ADD DUP5 PUSH2 0x20DB JUMP JUMPDEST SWAP3 SWAP2 POP POP JUMP JUMPDEST PUSH1 0x0 PUSH1 0x40 MLOAD SWAP1 POP SWAP1 JUMP JUMPDEST PUSH1 0x0 DUP1 REVERT JUMPDEST PUSH1 0x0 DUP1 REVERT JUMPDEST PUSH1 0x0 DUP1 REVERT JUMPDEST PUSH1 0x0 PUSH1 0x1F NOT PUSH1 0x1F DUP4 ADD AND SWAP1 POP SWAP2 SWAP1 POP JUMP JUMPDEST PUSH32 0x4E487B7100000000000000000000000000000000000000000000000000000000 PUSH1 0x0 MSTORE PUSH1 0x41 PUSH1 0x4 MSTORE PUSH1 0x24 PUSH1 0x0 REVERT JUMPDEST PUSH2 0x2167 DUP3 PUSH2 0x211E JUMP JUMPDEST DUP2 ADD DUP2 DUP2 LT PUSH8 0xFFFFFFFFFFFFFFFF DUP3 GT OR ISZERO PUSH2 0x2186 JUMPI PUSH2 0x2185 PUSH2 0x212F JUMP JUMPDEST JUMPDEST DUP1 PUSH1 0x40 MSTORE POP POP POP JUMP JUMPDEST PUSH1 0x0 PUSH2 0x2199 PUSH2 0x2105 JUMP JUMPDEST SWAP1 POP PUSH2 0x21A5 DUP3 DUP3 PUSH2 0x215E JUMP JUMPDEST SWAP2 SWAP1 POP JUMP JUMPDEST PUSH1 0x0 DUP1 REVERT JUMPDEST PUSH2 0x21B8 DUP2 PUSH2 0x20D1 JUMP JUMPDEST DUP2 EQ PUSH2 0x21C3 JUMPI PUSH1 0x0 DUP1 REVERT JUMPDEST POP JUMP JUMPDEST PUSH1 0x0 DUP2 CALLDATALOAD SWAP1 POP PUSH2 0x21D5 DUP2 PUSH2 0x21AF JUMP JUMPDEST SWAP3 SWAP2 POP POP JUMP JUMPDEST PUSH1 0x0 DUP1 REVERT JUMPDEST PUSH1 0x0 DUP1 REVERT JUMPDEST PUSH1 0x0 PUSH8 0xFFFFFFFFFFFFFFFF DUP3 GT ISZERO PUSH2 0x2200 JUMPI PUSH2 0x21FF PUSH2 0x212F JUMP JUMPDEST JUMPDEST PUSH2 0x2209 DUP3 PUSH2 0x211E JUMP JUMPDEST SWAP1 POP PUSH1 0x20 DUP2 ADD SWAP1 POP SWAP2 SWAP1 POP JUMP JUMPDEST DUP3 DUP2 DUP4 CALLDATACOPY PUSH1 0x0 DUP4 DUP4 ADD MSTORE POP POP POP JUMP JUMPDEST PUSH1 0x0 PUSH2 0x2238 PUSH2 0x2233 DUP5 PUSH2 0x21E5 JUMP JUMPDEST PUSH2 0x218F JUMP JUMPDEST SWAP1 POP DUP3 DUP2 MSTORE PUSH1 0x20 DUP2 ADD DUP5 DUP5 DUP5 ADD GT ISZERO PUSH2 0x2254 JUMPI PUSH2 0x2253 PUSH2 0x21E0 JUMP JUMPDEST JUMPDEST PUSH2 0x225F DUP5 DUP3 DUP6 PUSH2 0x2216 JUMP JUMPDEST POP SWAP4 SWAP3 POP POP POP JUMP JUMPDEST PUSH1 0x0 DUP3 PUSH1 0x1F DUP4 ADD SLT PUSH2 0x227C JUMPI PUSH2 0x227B PUSH2 0x21DB JUMP JUMPDEST JUMPDEST DUP2 CALLDATALOAD PUSH2 0x228C DUP5 DUP3 PUSH1 0x20 DUP7 ADD PUSH2 0x2225 JUMP JUMPDEST SWAP2 POP POP SWAP3 SWAP2 POP POP JUMP JUMPDEST PUSH1 0x0 PUSH8 0xFFFFFFFFFFFFFFFF DUP3 GT ISZERO PUSH2 0x22B0 JUMPI PUSH2 0x22AF PUSH2 0x212F JUMP JUMPDEST JUMPDEST PUSH1 0x20 DUP3 MUL SWAP1 POP PUSH1 0x20 DUP2 ADD SWAP1 POP SWAP2 SWAP1 POP JUMP JUMPDEST PUSH1 0x0 DUP1 REVERT JUMPDEST PUSH1 0x0 PUSH2 0x22D9 PUSH2 0x22D4 DUP5 PUSH2 0x2295 JUMP JUMPDEST PUSH2 0x218F JUMP JUMPDEST SWAP1 POP DUP1 DUP4 DUP3 MSTORE PUSH1 0x20 DUP3 ADD SWAP1 POP PUSH1 0x20 DUP5 MUL DUP4 ADD DUP6 DUP2 GT ISZERO PUSH2 0x22FC JUMPI PUSH2 0x22FB PUSH2 0x22C1 JUMP JUMPDEST JUMPDEST DUP4 JUMPDEST DUP2 DUP2 LT ISZERO PUSH2 0x2343 JUMPI DUP1 CALLDATALOAD PUSH8 0xFFFFFFFFFFFFFFFF DUP2 GT ISZERO PUSH2 0x2321 JUMPI PUSH2 0x2320 PUSH2 0x21DB JUMP JUMPDEST JUMPDEST DUP1 DUP7 ADD PUSH2 0x232E DUP10 DUP3 PUSH2 0x2267 JUMP JUMPDEST DUP6 MSTORE PUSH1 0x20 DUP6 ADD SWAP5 POP POP POP PUSH1 0x20 DUP2 ADD SWAP1 POP PUSH2 0x22FE JUMP JUMPDEST POP POP POP SWAP4 SWAP3 POP POP POP JUMP JUMPDEST PUSH1 0x0 DUP3 PUSH1 0x1F DUP4 ADD SLT PUSH2 0x2362 JUMPI PUSH2 0x2361 PUSH2 0x21DB JUMP JUMPDEST JUMPDEST DUP2 CALLDATALOAD PUSH2 0x2372 DUP5 DUP3 PUSH1 0x20 DUP7 ADD PUSH2 0x22C6 JUMP JUMPDEST SWAP2 POP POP SWAP3 SWAP2 POP POP JUMP JUMPDEST PUSH1 0x0 PUSH20 0xFFFFFFFFFFFFFFFFFFFFFFFFFFFFFFFFFFFFFFFF DUP3 AND SWAP1 POP SWAP2 SWAP1 POP JUMP JUMPDEST PUSH1 0x0 PUSH2 0x23A6 DUP3 PUSH2 0x237B JUMP JUMPDEST SWAP1 POP SWAP2 SWAP1 POP JUMP JUMPDEST PUSH2 0x23B6 DUP2 PUSH2 0x239B JUMP JUMPDEST DUP2 EQ PUSH2 0x23C1 JUMPI PUSH1 0x0 DUP1 REVERT JUMPDEST POP JUMP JUMPDEST PUSH1 0x0 DUP2 CALLDATALOAD SWAP1 POP PUSH2 0x23D3 DUP2 PUSH2 0x23AD JUMP JUMPDEST SWAP3 SWAP2 POP POP JUMP JUMPDEST PUSH1 0x0 PUSH1 0x80 DUP3 DUP5 SUB SLT ISZERO PUSH2 0x23EF JUMPI PUSH2 0x23EE PUSH2 0x2119 JUMP JUMPDEST JUMPDEST PUSH2 0x23F9 PUSH1 0x80 PUSH2 0x218F JUMP JUMPDEST SWAP1 POP PUSH1 0x0 DUP3 ADD CALLDATALOAD PUSH8 0xFFFFFFFFFFFFFFFF DUP2 GT ISZERO PUSH2 0x2419 JUMPI PUSH2 0x2418 PUSH2 0x21AA JUMP JUMPDEST JUMPDEST PUSH2 0x2425 DUP5 DUP3 DUP6 ADD PUSH2 0x2267 JUMP JUMPDEST PUSH1 0x0 DUP4 ADD MSTORE POP PUSH1 0x20 DUP3 ADD CALLDATALOAD PUSH8 0xFFFFFFFFFFFFFFFF DUP2 GT ISZERO PUSH2 0x2449 JUMPI PUSH2 0x2448 PUSH2 0x21AA JUMP JUMPDEST JUMPDEST PUSH2 0x2455 DUP5 DUP3 DUP6 ADD PUSH2 0x2267 JUMP JUMPDEST PUSH1 0x20 DUP4 ADD MSTORE POP PUSH1 0x40 DUP3 ADD CALLDATALOAD PUSH8 0xFFFFFFFFFFFFFFFF DUP2 GT ISZERO PUSH2 0x2479 JUMPI PUSH2 0x2478 PUSH2 0x21AA JUMP JUMPDEST JUMPDEST PUSH2 0x2485 DUP5 DUP3 DUP6 ADD PUSH2 0x2267 JUMP JUMPDEST PUSH1 0x40 DUP4 ADD MSTORE POP PUSH1 0x60 DUP3 ADD CALLDATALOAD PUSH8 0xFFFFFFFFFFFFFFFF DUP2 GT ISZERO PUSH2 0x24A9 JUMPI PUSH2 0x24A8 PUSH2 0x21AA JUMP JUMPDEST JUMPDEST PUSH2 0x24B5 DUP5 DUP3 DUP6 ADD PUSH2 0x2267 JUMP JUMPDEST PUSH1 0x60 DUP4 ADD MSTORE POP SWAP3 SWAP2 POP POP JUMP JUMPDEST PUSH1 0x0 PUSH2 0x1E0 DUP3 DUP5 SUB SLT ISZERO PUSH2 0x24D8 JUMPI PUSH2 0x24D7 PUSH2 0x2119 JUMP JUMPDEST JUMPDEST PUSH2 0x24E3 PUSH2 0x1E0 PUSH2 0x218F JUMP JUMPDEST SWAP1 POP PUSH1 0x0 PUSH2 0x24F3 DUP5 DUP3 DUP6 ADD PUSH2 0x21C6 JUMP JUMPDEST PUSH1 0x0 DUP4 ADD MSTORE POP PUSH1 0x20 DUP3 ADD CALLDATALOAD PUSH8 0xFFFFFFFFFFFFFFFF DUP2 GT ISZERO PUSH2 0x2517 JUMPI PUSH2 0x2516 PUSH2 0x21AA JUMP JUMPDEST JUMPDEST PUSH2 0x2523 DUP5 DUP3 DUP6 ADD PUSH2 0x2267 JUMP JUMPDEST PUSH1 0x20 DUP4 ADD MSTORE POP PUSH1 0x40 DUP3 ADD CALLDATALOAD PUSH8 0xFFFFFFFFFFFFFFFF DUP2 GT ISZERO PUSH2 0x2547 JUMPI PUSH2 0x2546 PUSH2 0x21AA JUMP JUMPDEST JUMPDEST PUSH2 0x2553 DUP5 DUP3 DUP6 ADD PUSH2 0x2267 JUMP JUMPDEST PUSH1 0x40 DUP4 ADD MSTORE POP PUSH1 0x60 PUSH2 0x2567 DUP5 DUP3 DUP6 ADD PUSH2 0x21C6 JUMP JUMPDEST PUSH1 0x60 DUP4 ADD MSTORE POP PUSH1 0x80 DUP3 ADD CALLDATALOAD PUSH8 0xFFFFFFFFFFFFFFFF DUP2 GT ISZERO PUSH2 0x258B JUMPI PUSH2 0x258A PUSH2 0x21AA JUMP JUMPDEST JUMPDEST PUSH2 0x2597 DUP5 DUP3 DUP6 ADD PUSH2 0x2267 JUMP JUMPDEST PUSH1 0x80 DUP4 ADD MSTORE POP PUSH1 0xA0 DUP3 ADD CALLDATALOAD PUSH8 0xFFFFFFFFFFFFFFFF DUP2 GT ISZERO PUSH2 0x25BB JUMPI PUSH2 0x25BA PUSH2 0x21AA JUMP JUMPDEST JUMPDEST PUSH2 0x25C7 DUP5 DUP3 DUP6 ADD PUSH2 0x2267 JUMP JUMPDEST PUSH1 0xA0 DUP4 ADD MSTORE POP PUSH1 0xC0 DUP3 ADD CALLDATALOAD PUSH8 0xFFFFFFFFFFFFFFFF DUP2 GT ISZERO PUSH2 0x25EB JUMPI PUSH2 0x25EA PUSH2 0x21AA JUMP JUMPDEST JUMPDEST PUSH2 0x25F7 DUP5 DUP3 DUP6 ADD PUSH2 0x2267 JUMP JUMPDEST PUSH1 0xC0 DUP4 ADD MSTORE POP PUSH1 0xE0 DUP3 ADD CALLDATALOAD PUSH8 0xFFFFFFFFFFFFFFFF DUP2 GT ISZERO PUSH2 0x261B JUMPI PUSH2 0x261A PUSH2 0x21AA JUMP JUMPDEST JUMPDEST PUSH2 0x2627 DUP5 DUP3 DUP6 ADD PUSH2 0x2267 JUMP JUMPDEST PUSH1 0xE0 DUP4 ADD MSTORE POP PUSH2 0x100 DUP3 ADD CALLDATALOAD PUSH8 0xFFFFFFFFFFFFFFFF DUP2 GT ISZERO PUSH2 0x264C JUMPI PUSH2 0x264B PUSH2 0x21AA JUMP JUMPDEST JUMPDEST PUSH2 0x2658 DUP5 DUP3 DUP6 ADD PUSH2 0x2267 JUMP JUMPDEST PUSH2 0x100 DUP4 ADD MSTORE POP PUSH2 0x120 DUP3 ADD CALLDATALOAD PUSH8 0xFFFFFFFFFFFFFFFF DUP2 GT ISZERO PUSH2 0x267E JUMPI PUSH2 0x267D PUSH2 0x21AA JUMP JUMPDEST JUMPDEST PUSH2 0x268A DUP5 DUP3 DUP6 ADD PUSH2 0x234D JUMP JUMPDEST PUSH2 0x120 DUP4 ADD MSTORE POP PUSH2 0x140 DUP3 ADD CALLDATALOAD PUSH8 0xFFFFFFFFFFFFFFFF DUP2 GT ISZERO PUSH2 0x26B0 JUMPI PUSH2 0x26AF PUSH2 0x21AA JUMP JUMPDEST JUMPDEST PUSH2 0x26BC DUP5 DUP3 DUP6 ADD PUSH2 0x234D JUMP JUMPDEST PUSH2 0x140 DUP4 ADD MSTORE POP PUSH2 0x160 DUP3 ADD CALLDATALOAD PUSH8 0xFFFFFFFFFFFFFFFF DUP2 GT ISZERO PUSH2 0x26E2 JUMPI PUSH2 0x26E1 PUSH2 0x21AA JUMP JUMPDEST JUMPDEST PUSH2 0x26EE DUP5 DUP3 DUP6 ADD PUSH2 0x2267 JUMP JUMPDEST PUSH2 0x160 DUP4 ADD MSTORE POP PUSH2 0x180 DUP3 ADD CALLDATALOAD PUSH8 0xFFFFFFFFFFFFFFFF DUP2 GT ISZERO PUSH2 0x2714 JUMPI PUSH2 0x2713 PUSH2 0x21AA JUMP JUMPDEST JUMPDEST PUSH2 0x2720 DUP5 DUP3 DUP6 ADD PUSH2 0x2267 JUMP JUMPDEST PUSH2 0x180 DUP4 ADD MSTORE POP PUSH2 0x1A0 PUSH2 0x2736 DUP5 DUP3 DUP6 ADD PUSH2 0x23C4 JUMP JUMPDEST PUSH2 0x1A0 DUP4 ADD MSTORE POP PUSH2 0x1C0 DUP3 ADD CALLDATALOAD PUSH8 0xFFFFFFFFFFFFFFFF DUP2 GT ISZERO PUSH2 0x275C JUMPI PUSH2 0x275B PUSH2 0x21AA JUMP JUMPDEST JUMPDEST PUSH2 0x2768 DUP5 DUP3 DUP6 ADD PUSH2 0x23D9 JUMP JUMPDEST PUSH2 0x1C0 DUP4 ADD MSTORE POP SWAP3 SWAP2 POP POP JUMP JUMPDEST PUSH1 0x0 PUSH1 0x20 DUP3 DUP5 SUB SLT ISZERO PUSH2 0x278B JUMPI PUSH2 0x278A PUSH2 0x210F JUMP JUMPDEST JUMPDEST PUSH1 0x0 DUP3 ADD CALLDATALOAD PUSH8 0xFFFFFFFFFFFFFFFF DUP2 GT ISZERO PUSH2 0x27A9 JUMPI PUSH2 0x27A8 PUSH2 0x2114 JUMP JUMPDEST JUMPDEST PUSH2 0x27B5 DUP5 DUP3 DUP6 ADD PUSH2 0x24C1 JUMP JUMPDEST SWAP2 POP POP SWAP3 SWAP2 POP POP JUMP JUMPDEST PUSH1 0x0 PUSH1 0x20 DUP3 DUP5 SUB SLT ISZERO PUSH2 0x27D4 JUMPI PUSH2 0x27D3 PUSH2 0x210F JUMP JUMPDEST JUMPDEST PUSH1 0x0 PUSH2 0x27E2 DUP5 DUP3 DUP6 ADD PUSH2 0x21C6 JUMP JUMPDEST SWAP2 POP POP SWAP3 SWAP2 POP POP JUMP JUMPDEST PUSH2 0x27F4 DUP2 PUSH2 0x20D1 JUMP JUMPDEST DUP3 MSTORE POP POP JUMP JUMPDEST PUSH1 0x0 DUP2 MLOAD SWAP1 POP SWAP2 SWAP1 POP JUMP JUMPDEST PUSH1 0x0 DUP3 DUP3 MSTORE PUSH1 0x20 DUP3 ADD SWAP1 POP SWAP3 SWAP2 POP POP JUMP JUMPDEST PUSH1 0x0 JUMPDEST DUP4 DUP2 LT ISZERO PUSH2 0x2834 JUMPI DUP1 DUP3 ADD MLOAD DUP2 DUP5 ADD MSTORE PUSH1 0x20 DUP2 ADD SWAP1 POP PUSH2 0x2819 JUMP JUMPDEST DUP4 DUP2 GT ISZERO PUSH2 0x2843 JUMPI PUSH1 0x0 DUP5 DUP5 ADD MSTORE JUMPDEST POP POP POP POP JUMP JUMPDEST PUSH1 0x0 PUSH2 0x2854 DUP3 PUSH2 0x27FA JUMP JUMPDEST PUSH2 0x285E DUP2 DUP6 PUSH2 0x2805 JUMP JUMPDEST SWAP4 POP PUSH2 0x286E DUP2 DUP6 PUSH1 0x20 DUP7 ADD PUSH2 0x2816 JUMP JUMPDEST PUSH2 0x2877 DUP2 PUSH2 0x211E JUMP JUMPDEST DUP5 ADD SWAP2 POP POP SWAP3 SWAP2 POP POP JUMP JUMPDEST PUSH1 0x0 DUP2 MLOAD SWAP1 POP SWAP2 SWAP1 POP JUMP JUMPDEST PUSH1 0x0 DUP3 DUP3 MSTORE PUSH1 0x20 DUP3 ADD SWAP1 POP SWAP3 SWAP2 POP POP JUMP JUMPDEST PUSH1 0x0 DUP2 SWAP1 POP PUSH1 0x20 DUP3 ADD SWAP1 POP SWAP2 SWAP1 POP JUMP JUMPDEST PUSH1 0x0 PUSH2 0x28BA DUP4 DUP4 PUSH2 0x2849 JUMP JUMPDEST SWAP1 POP SWAP3 SWAP2 POP POP JUMP JUMPDEST PUSH1 0x0 PUSH1 0x20 DUP3 ADD SWAP1 POP SWAP2 SWAP1 POP JUMP JUMPDEST PUSH1 0x0 PUSH2 0x28DA DUP3 PUSH2 0x2882 JUMP JUMPDEST PUSH2 0x28E4 DUP2 DUP6 PUSH2 0x288D JUMP JUMPDEST SWAP4 POP DUP4 PUSH1 0x20 DUP3 MUL DUP6 ADD PUSH2 0x28F6 DUP6 PUSH2 0x289E JUMP JUMPDEST DUP1 PUSH1 0x0 JUMPDEST DUP6 DUP2 LT ISZERO PUSH2 0x2932 JUMPI DUP5 DUP5 SUB DUP10 MSTORE DUP2 MLOAD PUSH2 0x2913 DUP6 DUP3 PUSH2 0x28AE JUMP JUMPDEST SWAP5 POP PUSH2 0x291E DUP4 PUSH2 0x28C2 JUMP JUMPDEST SWAP3 POP PUSH1 0x20 DUP11 ADD SWAP10 POP POP PUSH1 0x1 DUP2 ADD SWAP1 POP PUSH2 0x28FA JUMP JUMPDEST POP DUP3 SWAP8 POP DUP8 SWAP6 POP POP POP POP POP POP SWAP3 SWAP2 POP POP JUMP JUMPDEST PUSH2 0x294D DUP2 PUSH2 0x239B JUMP JUMPDEST DUP3 MSTORE POP POP JUMP JUMPDEST PUSH1 0x0 PUSH1 0x80 DUP4 ADD PUSH1 0x0 DUP4 ADD MLOAD DUP5 DUP3 SUB PUSH1 0x0 DUP7 ADD MSTORE PUSH2 0x2970 DUP3 DUP3 PUSH2 0x2849 JUMP JUMPDEST SWAP2 POP POP PUSH1 0x20 DUP4 ADD MLOAD DUP5 DUP3 SUB PUSH1 0x20 DUP7 ADD MSTORE PUSH2 0x298A DUP3 DUP3 PUSH2 0x2849 JUMP JUMPDEST SWAP2 POP POP PUSH1 0x40 DUP4 ADD MLOAD DUP5 DUP3 SUB PUSH1 0x40 DUP7 ADD MSTORE PUSH2 0x29A4 DUP3 DUP3 PUSH2 0x2849 JUMP JUMPDEST SWAP2 POP POP PUSH1 0x60 DUP4 ADD MLOAD DUP5 DUP3 SUB PUSH1 0x60 DUP7 ADD MSTORE PUSH2 0x29BE DUP3 DUP3 PUSH2 0x2849 JUMP JUMPDEST SWAP2 POP POP DUP1 SWAP2 POP POP SWAP3 SWAP2 POP POP JUMP JUMPDEST PUSH1 0x0 PUSH2 0x1E0 DUP4 ADD PUSH1 0x0 DUP4 ADD MLOAD PUSH2 0x29E4 PUSH1 0x0 DUP7 ADD DUP3 PUSH2 0x27EB JUMP JUMPDEST POP PUSH1 0x20 DUP4 ADD MLOAD DUP5 DUP3 SUB PUSH1 0x20 DUP7 ADD MSTORE PUSH2 0x29FC DUP3 DUP3 PUSH2 0x2849 JUMP JUMPDEST SWAP2 POP POP PUSH1 0x40 DUP4 ADD MLOAD DUP5 DUP3 SUB PUSH1 0x40 DUP7 ADD MSTORE PUSH2 0x2A16 DUP3 DUP3 PUSH2 0x2849 JUMP JUMPDEST SWAP2 POP POP PUSH1 0x60 DUP4 ADD MLOAD PUSH2 0x2A2B PUSH1 0x60 DUP7 ADD DUP3 PUSH2 0x27EB JUMP JUMPDEST POP PUSH1 0x80 DUP4 ADD MLOAD DUP5 DUP3 SUB PUSH1 0x80 DUP7 ADD MSTORE PUSH2 0x2A43 DUP3 DUP3 PUSH2 0x2849 JUMP JUMPDEST SWAP2 POP POP PUSH1 0xA0 DUP4 ADD MLOAD DUP5 DUP3 SUB PUSH1 0xA0 DUP7 ADD MSTORE PUSH2 0x2A5D DUP3 DUP3 PUSH2 0x2849 JUMP JUMPDEST SWAP2 POP POP PUSH1 0xC0 DUP4 ADD MLOAD DUP5 DUP3 SUB PUSH1 0xC0 DUP7 ADD MSTORE PUSH2 0x2A77 DUP3 DUP3 PUSH2 0x2849 JUMP JUMPDEST SWAP2 POP POP PUSH1 0xE0 DUP4 ADD MLOAD DUP5 DUP3 SUB PUSH1 0xE0 DUP7 ADD MSTORE PUSH2 0x2A91 DUP3 DUP3 PUSH2 0x2849 JUMP JUMPDEST SWAP2 POP POP PUSH2 0x100 DUP4 ADD MLOAD DUP5 DUP3 SUB PUSH2 0x100 DUP7 ADD MSTORE PUSH2 0x2AAD DUP3 DUP3 PUSH2 0x2849 JUMP JUMPDEST SWAP2 POP POP PUSH2 0x120 DUP4 ADD MLOAD DUP5 DUP3 SUB PUSH2 0x120 DUP7 ADD MSTORE PUSH2 0x2AC9 DUP3 DUP3 PUSH2 0x28CF JUMP JUMPDEST SWAP2 POP POP PUSH2 0x140 DUP4 ADD MLOAD DUP5 DUP3 SUB PUSH2 0x140 DUP7 ADD MSTORE PUSH2 0x2AE5 DUP3 DUP3 PUSH2 0x28CF JUMP JUMPDEST SWAP2 POP POP PUSH2 0x160 DUP4 ADD MLOAD DUP5 DUP3 SUB PUSH2 0x160 DUP7 ADD MSTORE PUSH2 0x2B01 DUP3 DUP3 PUSH2 0x2849 JUMP JUMPDEST SWAP2 POP POP PUSH2 0x180 DUP4 ADD MLOAD DUP5 DUP3 SUB PUSH2 0x180 DUP7 ADD MSTORE PUSH2 0x2B1D DUP3 DUP3 PUSH2 0x2849 JUMP JUMPDEST SWAP2 POP POP PUSH2 0x1A0 DUP4 ADD MLOAD PUSH2 0x2B34 PUSH2 0x1A0 DUP7 ADD DUP3 PUSH2 0x2944 JUMP JUMPDEST POP PUSH2 0x1C0 DUP4 ADD MLOAD DUP5 DUP3 SUB PUSH2 0x1C0 DUP7 ADD MSTORE PUSH2 0x2B4E DUP3 DUP3 PUSH2 0x2953 JUMP JUMPDEST SWAP2 POP POP DUP1 SWAP2 POP POP SWAP3 SWAP2 POP POP JUMP JUMPDEST PUSH1 0x0 PUSH1 0x20 DUP3 ADD SWAP1 POP DUP2 DUP2 SUB PUSH1 0x0 DUP4 ADD MSTORE PUSH2 0x2B75 DUP2 DUP5 PUSH2 0x29CB JUMP JUMPDEST SWAP1 POP SWAP3 SWAP2 POP POP JUMP JUMPDEST PUSH1 0x0 PUSH1 0x20 DUP3 DUP5 SUB SLT ISZERO PUSH2 0x2B93 JUMPI PUSH2 0x2B92 PUSH2 0x210F JUMP JUMPDEST JUMPDEST PUSH1 0x0 PUSH2 0x2BA1 DUP5 DUP3 DUP6 ADD PUSH2 0x23C4 JUMP JUMPDEST SWAP2 POP POP SWAP3 SWAP2 POP POP JUMP JUMPDEST PUSH1 0x0 DUP3 DUP3 MSTORE PUSH1 0x20 DUP3 ADD SWAP1 POP SWAP3 SWAP2 POP POP JUMP JUMPDEST PUSH32 0x496E697469616C697A61626C653A20636F6E747261637420697320616C726561 PUSH1 0x0 DUP3 ADD MSTORE PUSH32 0x647920696E697469616C697A6564000000000000000000000000000000000000 PUSH1 0x20 DUP3 ADD MSTORE POP JUMP JUMPDEST PUSH1 0x0 PUSH2 0x2C17 PUSH1 0x2E DUP4 PUSH2 0x2BAA JUMP JUMPDEST SWAP2 POP PUSH2 0x2C22 DUP3 PUSH2 0x2BBB JUMP JUMPDEST PUSH1 0x40 DUP3 ADD SWAP1 POP SWAP2 SWAP1 POP JUMP JUMPDEST PUSH1 0x0 PUSH1 0x20 DUP3 ADD SWAP1 POP DUP2 DUP2 SUB PUSH1 0x0 DUP4 ADD MSTORE PUSH2 0x2C46 DUP2 PUSH2 0x2C0A JUMP JUMPDEST SWAP1 POP SWAP2 SWAP1 POP JUMP JUMPDEST PUSH1 0x0 DUP2 SWAP1 POP SWAP2 SWAP1 POP JUMP JUMPDEST PUSH1 0x0 PUSH1 0xFF DUP3 AND SWAP1 POP SWAP2 SWAP1 POP JUMP JUMPDEST PUSH1 0x0 DUP2 SWAP1 POP SWAP2 SWAP1 POP JUMP JUMPDEST PUSH1 0x0 PUSH2 0x2C89 PUSH2 0x2C84 PUSH2 0x2C7F DUP5 PUSH2 0x2C4D JUMP JUMPDEST PUSH2 0x2C64 JUMP JUMPDEST PUSH2 0x2C57 JUMP JUMPDEST SWAP1 POP SWAP2 SWAP1 POP JUMP JUMPDEST PUSH2 0x2C99 DUP2 PUSH2 0x2C6E JUMP JUMPDEST DUP3 MSTORE POP POP JUMP JUMPDEST PUSH1 0x0 PUSH1 0x20 DUP3 ADD SWAP1 POP PUSH2 0x2CB4 PUSH1 0x0 DUP4 ADD DUP5 PUSH2 0x2C90 JUMP JUMPDEST SWAP3 SWAP2 POP POP JUMP JUMPDEST PUSH32 0x43616E6469646174652069732072656769737465726564207573696E67207468 PUSH1 0x0 DUP3 ADD MSTORE PUSH32 0x697320616464726573732E000000000000000000000000000000000000000000 PUSH1 0x20 DUP3 ADD MSTORE POP JUMP JUMPDEST PUSH1 0x0 PUSH2 0x2D16 PUSH1 0x2B DUP4 PUSH2 0x2BAA JUMP JUMPDEST SWAP2 POP PUSH2 0x2D21 DUP3 PUSH2 0x2CBA JUMP JUMPDEST PUSH1 0x40 DUP3 ADD SWAP1 POP SWAP2 SWAP1 POP JUMP JUMPDEST PUSH1 0x0 PUSH1 0x20 DUP3 ADD SWAP1 POP DUP2 DUP2 SUB PUSH1 0x0 DUP4 ADD MSTORE PUSH2 0x2D45 DUP2 PUSH2 0x2D09 JUMP JUMPDEST SWAP1 POP SWAP2 SWAP1 POP JUMP JUMPDEST PUSH32 0x4F776E657241646472657373206E6F74206D61746368696E67206D73672E7365 PUSH1 0x0 DUP3 ADD MSTORE PUSH32 0x6E6465722E000000000000000000000000000000000000000000000000000000 PUSH1 0x20 DUP3 ADD MSTORE POP JUMP JUMPDEST PUSH1 0x0 PUSH2 0x2DA8 PUSH1 0x25 DUP4 PUSH2 0x2BAA JUMP JUMPDEST SWAP2 POP PUSH2 0x2DB3 DUP3 PUSH2 0x2D4C JUMP JUMPDEST PUSH1 0x40 DUP3 ADD SWAP1 POP SWAP2 SWAP1 POP JUMP JUMPDEST PUSH1 0x0 PUSH1 0x20 DUP3 ADD SWAP1 POP DUP2 DUP2 SUB PUSH1 0x0 DUP4 ADD MSTORE PUSH2 0x2DD7 DUP2 PUSH2 0x2D9B JUMP JUMPDEST SWAP1 POP SWAP2 SWAP1 POP JUMP JUMPDEST PUSH32 0x4E487B7100000000000000000000000000000000000000000000000000000000 PUSH1 0x0 MSTORE PUSH1 0x11 PUSH1 0x4 MSTORE PUSH1 0x24 PUSH1 0x0 REVERT JUMPDEST PUSH1 0x0 PUSH2 0x2E18 DUP3 PUSH2 0x20D1 JUMP JUMPDEST SWAP2 POP PUSH32 0xFFFFFFFFFFFFFFFFFFFFFFFFFFFFFFFFFFFFFFFFFFFFFFFFFFFFFFFFFFFFFFFF DUP3 EQ ISZERO PUSH2 0x2E4B JUMPI PUSH2 0x2E4A PUSH2 0x2DDE JUMP JUMPDEST JUMPDEST PUSH1 0x1 DUP3 ADD SWAP1 POP SWAP2 SWAP1 POP JUMP JUMPDEST PUSH1 0x0 PUSH2 0x2E61 DUP3 PUSH2 0x20D1 JUMP JUMPDEST SWAP2 POP PUSH2 0x2E6C DUP4 PUSH2 0x20D1 JUMP JUMPDEST SWAP3 POP DUP3 DUP3 LT ISZERO PUSH2 0x2E7F JUMPI PUSH2 0x2E7E PUSH2 0x2DDE JUMP JUMPDEST JUMPDEST DUP3 DUP3 SUB SWAP1 POP SWAP3 SWAP2 POP POP JUMP JUMPDEST PUSH32 0x4E487B7100000000000000000000000000000000000000000000000000000000 PUSH1 0x0 MSTORE PUSH1 0x32 PUSH1 0x4 MSTORE PUSH1 0x24 PUSH1 0x0 REVERT JUMPDEST PUSH32 0x4E487B7100000000000000000000000000000000000000000000000000000000 PUSH1 0x0 MSTORE PUSH1 0x22 PUSH1 0x4 MSTORE PUSH1 0x24 PUSH1 0x0 REVERT JUMPDEST PUSH1 0x0 PUSH1 0x2 DUP3 DIV SWAP1 POP PUSH1 0x1 DUP3 AND DUP1 PUSH2 0x2F00 JUMPI PUSH1 0x7F DUP3 AND SWAP2 POP JUMPDEST PUSH1 0x20 DUP3 LT DUP2 EQ ISZERO PUSH2 0x2F14 JUMPI PUSH2 0x2F13 PUSH2 0x2EB9 JUMP JUMPDEST JUMPDEST POP SWAP2 SWAP1 POP JUMP JUMPDEST PUSH32 0x43616E646964617465206E6F742072656769737465726564207573696E672074 PUSH1 0x0 DUP3 ADD MSTORE PUSH32 0x68697320616464726573732E0000000000000000000000000000000000000000 PUSH1 0x20 DUP3 ADD MSTORE POP JUMP JUMPDEST PUSH1 0x0 PUSH2 0x2F76 PUSH1 0x2C DUP4 PUSH2 0x2BAA JUMP JUMPDEST SWAP2 POP PUSH2 0x2F81 DUP3 PUSH2 0x2F1A JUMP JUMPDEST PUSH1 0x40 DUP3 ADD SWAP1 POP SWAP2 SWAP1 POP JUMP JUMPDEST PUSH1 0x0 PUSH1 0x20 DUP3 ADD SWAP1 POP DUP2 DUP2 SUB PUSH1 0x0 DUP4 ADD MSTORE PUSH2 0x2FA5 DUP2 PUSH2 0x2F69 JUMP JUMPDEST SWAP1 POP SWAP2 SWAP1 POP JUMP JUMPDEST PUSH32 0x596F7520617265206E6F74206F776E6572206F6620746869732063616E646964 PUSH1 0x0 DUP3 ADD MSTORE PUSH32 0x61746520616464726573732E0000000000000000000000000000000000000000 PUSH1 0x20 DUP3 ADD MSTORE POP JUMP JUMPDEST PUSH1 0x0 PUSH2 0x3008 PUSH1 0x2C DUP4 PUSH2 0x2BAA JUMP JUMPDEST SWAP2 POP PUSH2 0x3013 DUP3 PUSH2 0x2FAC JUMP JUMPDEST PUSH1 0x40 DUP3 ADD SWAP1 POP SWAP2 SWAP1 POP JUMP JUMPDEST PUSH1 0x0 PUSH1 0x20 DUP3 ADD SWAP1 POP DUP2 DUP2 SUB PUSH1 0x0 DUP4 ADD MSTORE PUSH2 0x3037 DUP2 PUSH2 0x2FFB JUMP JUMPDEST SWAP1 POP SWAP2 SWAP1 POP JUMP INVALID LOG2 PUSH5 0x6970667358 0x22 SLT KECCAK256 0x25 DUP4 ISZERO 0xBA 0xA5 SDIV 0xC GASLIMIT REVERT 0xC3 0xC4 DUP9 CALLER SUB 0xD5 0x2A XOR 0xEB SHR 0x26 SWAP8 CALLCODE 0xB4 0xED ADD BASEFEE 0x28 0xAE SWAP10 DUP10 CREATE 0xEA PUSH5 0x736F6C6343 STOP ADDMOD SIGNEXTEND STOP CALLER "},"methodIdentifiers":{"CANDIDATE_ID()":"a3a9ac65","addressToId(address)":"cb0e0d7d","editRegisteredCandidate((uint256,string,string,uint256,string,string,string,string,string,string[],string[],string,string,address,(string,string,string,string)))":"f0dc7493","getCandidateByAddress(address)":"ad25e829","getCandidateById(uint256)":"95f85022","initialize()":"8129fc1c","registerCandidate((uint256,string,string,uint256,string,string,string,string,string,string[],string[],string,string,address,(string,string,string,string)))":"93f5db28","totalCandidates()":"3866965c"}},"storageLayout":{"storage":[{"astId":138,"contract":"contracts/CandidateContract.sol:CandidateContract","label":"_initialized","offset":0,"slot":"0","type":"t_uint8"},{"astId":141,"contract":"contracts/CandidateContract.sol:CandidateContract","label":"_initializing","offset":1,"slot":"0","type":"t_bool"},{"astId":625,"contract":"contracts/CandidateContract.sol:CandidateContract","label":"__gap","offset":0,"slot":"1","type":"t_array(t_uint256)50_storage"},{"astId":753,"contract":"contracts/CandidateContract.sol:CandidateContract","label":"CANDIDATE_ID","offset":0,"slot":"51","type":"t_uint256"},{"astId":757,"contract":"contracts/CandidateContract.sol:CandidateContract","label":"candidates","offset":0,"slot":"52","type":"t_array(t_struct(Candidate)751_storage)dyn_storage"},{"astId":761,"contract":"contracts/CandidateContract.sol:CandidateContract","label":"addressToId","offset":0,"slot":"53","type":"t_mapping(t_address,t_uint256)"}],"types":{"t_address":{"encoding":"inplace","label":"address","numberOfBytes":"20"},"t_array(t_string_storage)dyn_storage":{"base":"t_string_storage","encoding":"dynamic_array","label":"string[]","numberOfBytes":"32"},"t_array(t_struct(Candidate)751_storage)dyn_storage":{"base":"t_struct(Candidate)751_storage","encoding":"dynamic_array","label":"struct CandidateContract.Candidate[]","numberOfBytes":"32"},"t_array(t_uint256)50_storage":{"base":"t_uint256","encoding":"inplace","label":"uint256[50]","numberOfBytes":"1600"},"t_bool":{"encoding":"inplace","label":"bool","numberOfBytes":"1"},"t_mapping(t_address,t_uint256)":{"encoding":"mapping","key":"t_address","label":"mapping(address => uint256)","numberOfBytes":"32","value":"t_uint256"},"t_string_storage":{"encoding":"bytes","label":"string","numberOfBytes":"32"},"t_struct(Candidate)751_storage":{"encoding":"inplace","label":"struct CandidateContract.Candidate","members":[{"astId":719,"contract":"contracts/CandidateContract.sol:CandidateContract","label":"id","offset":0,"slot":"0","type":"t_uint256"},{"astId":721,"contract":"contracts/CandidateContract.sol:CandidateContract","label":"fname","offset":0,"slot":"1","type":"t_string_storage"},{"astId":723,"contract":"contracts/CandidateContract.sol:CandidateContract","label":"lname","offset":0,"slot":"2","type":"t_string_storage"},{"astId":725,"contract":"contracts/CandidateContract.sol:CandidateContract","label":"dob","offset":0,"slot":"3","type":"t_uint256"},{"astId":727,"contract":"contracts/CandidateContract.sol:CandidateContract","label":"country","offset":0,"slot":"4","type":"t_string_storage"},{"astId":729,"contract":"contracts/CandidateContract.sol:CandidateContract","label":"primaryRole","offset":0,"slot":"5","type":"t_string_storage"},{"astId":731,"contract":"contracts/CandidateContract.sol:CandidateContract","label":"yoe","offset":0,"slot":"6","type":"t_string_storage"},{"astId":733,"contract":"contracts/CandidateContract.sol:CandidateContract","label":"bio","offset":0,"slot":"7","type":"t_string_storage"},{"astId":735,"contract":"contracts/CandidateContract.sol:CandidateContract","label":"profileImageIPFSURL","offset":0,"slot":"8","type":"t_string_storage"},{"astId":738,"contract":"contracts/CandidateContract.sol:CandidateContract","label":"experiences","offset":0,"slot":"9","type":"t_array(t_string_storage)dyn_storage"},{"astId":741,"contract":"contracts/CandidateContract.sol:CandidateContract","label":"skills","offset":0,"slot":"10","type":"t_array(t_string_storage)dyn_storage"},{"astId":743,"contract":"contracts/CandidateContract.sol:CandidateContract","label":"pronouns","offset":0,"slot":"11","type":"t_string_storage"},{"astId":745,"contract":"contracts/CandidateContract.sol:CandidateContract","label":"resumeIPFSURL","offset":0,"slot":"12","type":"t_string_storage"},{"astId":747,"contract":"contracts/CandidateContract.sol:CandidateContract","label":"ownerAddress","offset":0,"slot":"13","type":"t_address"},{"astId":750,"contract":"contracts/CandidateContract.sol:CandidateContract","label":"links","offset":0,"slot":"14","type":"t_struct(Links)717_storage"}],"numberOfBytes":"576"},"t_struct(Links)717_storage":{"encoding":"inplace","label":"struct CandidateContract.Links","members":[{"astId":710,"contract":"contracts/CandidateContract.sol:CandidateContract","label":"website","offset":0,"slot":"0","type":"t_string_storage"},{"astId":712,"contract":"contracts/CandidateContract.sol:CandidateContract","label":"linkedin","offset":0,"slot":"1","type":"t_string_storage"},{"astId":714,"contract":"contracts/CandidateContract.sol:CandidateContract","label":"github","offset":0,"slot":"2","type":"t_string_storage"},{"astId":716,"contract":"contracts/CandidateContract.sol:CandidateContract","label":"twitter","offset":0,"slot":"3","type":"t_string_storage"}],"numberOfBytes":"128"},"t_uint256":{"encoding":"inplace","label":"uint256","numberOfBytes":"32"},"t_uint8":{"encoding":"inplace","label":"uint8","numberOfBytes":"1"}}}}}}