{
  "_format": "hh-sol-artifact-1",
  "contractName": "MilestoneContract",
  "sourceName": "contracts/MilestoneContract.sol",
  "abi": [
    {
      "inputs": [
        {
          "internalType": "uint256",
          "name": "_projectId",
          "type": "uint256"
        }
      ],
      "name": "acceptProject",
      "outputs": [],
      "stateMutability": "nonpayable",
      "type": "function"
    },
    {
      "inputs": [
        {
          "internalType": "uint256",
          "name": "projectId",
          "type": "uint256"
        },
        {
          "internalType": "uint256",
          "name": "amount",
          "type": "uint256"
        },
        {
          "internalType": "uint256",
          "name": "dueDate",
          "type": "uint256"
        }
      ],
      "name": "addMilestone",
      "outputs": [],
      "stateMutability": "nonpayable",
      "type": "function"
    },
    {
      "inputs": [
        {
          "internalType": "uint256",
          "name": "projectId",
          "type": "uint256"
        },
        {
          "internalType": "uint256",
          "name": "milestoneIndex",
          "type": "uint256"
        }
      ],
      "name": "cancelMilestone",
      "outputs": [],
      "stateMutability": "nonpayable",
      "type": "function"
    },
    {
      "inputs": [
        {
          "internalType": "uint256",
          "name": "projectId",
          "type": "uint256"
        }
      ],
      "name": "cancelProject",
      "outputs": [],
      "stateMutability": "nonpayable",
      "type": "function"
    },
    {
      "inputs": [
        {
          "internalType": "uint256",
          "name": "projectId",
          "type": "uint256"
        },
        {
          "internalType": "address",
          "name": "freelancer",
          "type": "address"
        },
        {
          "internalType": "uint256",
          "name": "totalAmount",
          "type": "uint256"
        }
      ],
      "name": "createProject",
      "outputs": [],
      "stateMutability": "payable",
      "type": "function"
    },
    {
      "inputs": [
        {
          "internalType": "uint256",
          "name": "",
          "type": "uint256"
        }
      ],
      "name": "projects",
      "outputs": [
        {
          "internalType": "address",
          "name": "client",
          "type": "address"
        },
        {
          "internalType": "address",
          "name": "freelancer",
          "type": "address"
        },
        {
          "internalType": "uint256",
          "name": "totalAmount",
          "type": "uint256"
        },
        {
          "internalType": "bool",
          "name": "isCancelled",
          "type": "bool"
        },
        {
          "internalType": "bool",
          "name": "isDisputed",
          "type": "bool"
        },
        {
          "internalType": "uint256",
          "name": "disputedAmount",
          "type": "uint256"
        }
      ],
      "stateMutability": "view",
      "type": "function"
    },
    {
      "inputs": [
        {
          "internalType": "uint256",
          "name": "projectId",
          "type": "uint256"
        },
        {
          "internalType": "uint256",
          "name": "milestoneIndex",
          "type": "uint256"
        }
      ],
      "name": "releaseMilestone",
      "outputs": [],
      "stateMutability": "nonpayable",
      "type": "function"
    }
  ],
  "bytecode": "0x608060405234801561001057600080fd5b506119e3806100206000396000f3fe6080604052600436106100705760003560e01c8063d279830c1161004e578063d279830c14610109578063dbaf091014610132578063e1e7cf841461015b578063fd1d5ea91461017757610070565b8063107046bd1461007557806324941147146100b757806342967a62146100e0575b600080fd5b34801561008157600080fd5b5061009c60048036038101906100979190610f8b565b6101a0565b6040516100ae96959493929190611023565b60405180910390f35b3480156100c357600080fd5b506100de60048036038101906100d99190610f8b565b610236565b005b3480156100ec57600080fd5b5061010760048036038101906101029190611084565b61057e565b005b34801561011557600080fd5b50610130600480360381019061012b91906110c4565b61083e565b005b34801561013e57600080fd5b5061015960048036038101906101549190611084565b6109e5565b005b61017560048036038101906101709190611143565b610c70565b005b34801561018357600080fd5b5061019e60048036038101906101999190610f8b565b610e60565b005b60006020528060005260406000206000915090508060000160009054906101000a900473ffffffffffffffffffffffffffffffffffffffff16908060010160009054906101000a900473ffffffffffffffffffffffffffffffffffffffff16908060020154908060040160009054906101000a900460ff16908060040160019054906101000a900460ff16908060050154905086565b600080600083815260200190815260200160002090503373ffffffffffffffffffffffffffffffffffffffff168160000160009054906101000a900473ffffffffffffffffffffffffffffffffffffffff1673ffffffffffffffffffffffffffffffffffffffff16146102de576040517f08c379a00000000000000000000000000000000000000000000000000000000081526004016102d5906111f3565b60405180910390fd5b8060040160009054906101000a900460ff1615610330576040517f08c379a00000000000000000000000000000000000000000000000000000000081526004016103279061125f565b60405180910390fd5b8060040160019054906101000a900460ff1615610382576040517f08c379a0000000000000000000000000000000000000000000000000000000008152600401610379906112cb565b60405180910390fd5b600073ffffffffffffffffffffffffffffffffffffffff168160010160009054906101000a900473ffffffffffffffffffffffffffffffffffffffff1673ffffffffffffffffffffffffffffffffffffffff16141561044f578060000160009054906101000a900473ffffffffffffffffffffffffffffffffffffffff1673ffffffffffffffffffffffffffffffffffffffff166108fc82600201549081150290604051600060405180830381858888f19350505050158015610449573d6000803e3d6000fd5b5061057a565b6000805b826003018054905081101561050c5760006002811115610476576104756112eb565b5b83600301828154811061048c5761048b61131a565b5b906000526020600020906003020160020160009054906101000a900460ff1660028111156104bd576104bc6112eb565b5b14156104f9578260030181815481106104d9576104d861131a565b5b906000526020600020906003020160000154826104f69190611378565b91505b8080610504906113ce565b915050610453565b508160000160009054906101000a900473ffffffffffffffffffffffffffffffffffffffff1673ffffffffffffffffffffffffffffffffffffffff166108fc829081150290604051600060405180830381858888f19350505050158015610577573d6000803e3d6000fd5b50505b5050565b600080600084815260200190815260200160002090503373ffffffffffffffffffffffffffffffffffffffff168160000160009054906101000a900473ffffffffffffffffffffffffffffffffffffffff1673ffffffffffffffffffffffffffffffffffffffff1614610626576040517f08c379a000000000000000000000000000000000000000000000000000000000815260040161061d90611489565b60405180910390fd5b8060030180549050821061066f576040517f08c379a0000000000000000000000000000000000000000000000000000000008152600401610666906114f5565b60405180910390fd5b60008160030183815481106106875761068661131a565b5b90600052602060002090600302019050600060028111156106ab576106aa6112eb565b5b8160020160009054906101000a900460ff1660028111156106cf576106ce6112eb565b5b1461070f576040517f08c379a000000000000000000000000000000000000000000000000000000000815260040161070690611587565b60405180910390fd5b600081600101544261072191906115a7565b9050610e1081116107cd578260000160009054906101000a900473ffffffffffffffffffffffffffffffffffffffff1673ffffffffffffffffffffffffffffffffffffffff166108fc83600001549081150290604051600060405180830381858888f1935050505015801561079a573d6000803e3d6000fd5b5060028260020160006101000a81548160ff021916908360028111156107c3576107c26112eb565b5b0217905550610837565b60028260020160006101000a81548160ff021916908360028111156107f5576107f46112eb565b5b021790555060018360040160016101000a81548160ff021916908315150217905550816000015483600501600082825461082f9190611378565b925050819055505b5050505050565b600080600085815260200190815260200160002090503373ffffffffffffffffffffffffffffffffffffffff168160000160009054906101000a900473ffffffffffffffffffffffffffffffffffffffff1673ffffffffffffffffffffffffffffffffffffffff16146108e6576040517f08c379a00000000000000000000000000000000000000000000000000000000081526004016108dd90611627565b60405180910390fd5b8060040160009054906101000a900460ff1615610938576040517f08c379a000000000000000000000000000000000000000000000000000000000815260040161092f90611693565b60405180910390fd5b6000604051806060016040528085815260200184815260200160006002811115610965576109646112eb565b5b815250905081600301819080600181540180825580915050600190039060005260206000209060030201600090919091909150600082015181600001556020820151816001015560408201518160020160006101000a81548160ff021916908360028111156109d7576109d66112eb565b5b021790555050505050505050565b600080600084815260200190815260200160002090503373ffffffffffffffffffffffffffffffffffffffff168160010160009054906101000a900473ffffffffffffffffffffffffffffffffffffffff1673ffffffffffffffffffffffffffffffffffffffff1614610a8d576040517f08c379a0000000000000000000000000000000000000000000000000000000008152600401610a8490611725565b60405180910390fd5b80600301805490508210610ad6576040517f08c379a0000000000000000000000000000000000000000000000000000000008152600401610acd906114f5565b60405180910390fd5b6000816003018381548110610aee57610aed61131a565b5b9060005260206000209060030201905060006002811115610b1257610b116112eb565b5b8160020160009054906101000a900460ff166002811115610b3657610b356112eb565b5b14610b76576040517f08c379a0000000000000000000000000000000000000000000000000000000008152600401610b6d90611587565b60405180910390fd5b6000816001015442610b8891906115a7565b905060008111610bcd576040517f08c379a0000000000000000000000000000000000000000000000000000000008152600401610bc490611791565b60405180910390fd5b8260010160009054906101000a900473ffffffffffffffffffffffffffffffffffffffff1673ffffffffffffffffffffffffffffffffffffffff166108fc83600001549081150290604051600060405180830381858888f19350505050158015610c3b573d6000803e3d6000fd5b5060018260020160006101000a81548160ff02191690836002811115610c6457610c636112eb565b5b02179055505050505050565b803414610cb2576040517f08c379a0000000000000000000000000000000000000000000000000000000008152600401610ca990611823565b60405180910390fd5b600073ffffffffffffffffffffffffffffffffffffffff168273ffffffffffffffffffffffffffffffffffffffff161415610d22576040517f08c379a0000000000000000000000000000000000000000000000000000000008152600401610d199061188f565b60405180910390fd5b60008060008581526020019081526020016000209050600073ffffffffffffffffffffffffffffffffffffffff168160000160009054906101000a900473ffffffffffffffffffffffffffffffffffffffff1673ffffffffffffffffffffffffffffffffffffffff1614610dcb576040517f08c379a0000000000000000000000000000000000000000000000000000000008152600401610dc2906118fb565b60405180910390fd5b338160000160006101000a81548173ffffffffffffffffffffffffffffffffffffffff021916908373ffffffffffffffffffffffffffffffffffffffff160217905550828160010160006101000a81548173ffffffffffffffffffffffffffffffffffffffff021916908373ffffffffffffffffffffffffffffffffffffffff16021790555081816002018190555050505050565b60008060008381526020019081526020016000209050600073ffffffffffffffffffffffffffffffffffffffff168160010160009054906101000a900473ffffffffffffffffffffffffffffffffffffffff1673ffffffffffffffffffffffffffffffffffffffff1614610f09576040517f08c379a0000000000000000000000000000000000000000000000000000000008152600401610f009061198d565b60405180910390fd5b338160010160006101000a81548173ffffffffffffffffffffffffffffffffffffffff021916908373ffffffffffffffffffffffffffffffffffffffff1602179055505050565b600080fd5b6000819050919050565b610f6881610f55565b8114610f7357600080fd5b50565b600081359050610f8581610f5f565b92915050565b600060208284031215610fa157610fa0610f50565b5b6000610faf84828501610f76565b91505092915050565b600073ffffffffffffffffffffffffffffffffffffffff82169050919050565b6000610fe382610fb8565b9050919050565b610ff381610fd8565b82525050565b61100281610f55565b82525050565b60008115159050919050565b61101d81611008565b82525050565b600060c0820190506110386000830189610fea565b6110456020830188610fea565b6110526040830187610ff9565b61105f6060830186611014565b61106c6080830185611014565b61107960a0830184610ff9565b979650505050505050565b6000806040838503121561109b5761109a610f50565b5b60006110a985828601610f76565b92505060206110ba85828601610f76565b9150509250929050565b6000806000606084860312156110dd576110dc610f50565b5b60006110eb86828701610f76565b93505060206110fc86828701610f76565b925050604061110d86828701610f76565b9150509250925092565b61112081610fd8565b811461112b57600080fd5b50565b60008135905061113d81611117565b92915050565b60008060006060848603121561115c5761115b610f50565b5b600061116a86828701610f76565b935050602061117b8682870161112e565b925050604061118c86828701610f76565b9150509250925092565b600082825260208201905092915050565b7f4f6e6c7920636c69656e74732063616e2063616e63656c2070726f6a65637473600082015250565b60006111dd602083611196565b91506111e8826111a7565b602082019050919050565b6000602082019050818103600083015261120c816111d0565b9050919050565b7f50726f6a65637420697320616c72656164792063616e63656c6c656400000000600082015250565b6000611249601c83611196565b915061125482611213565b602082019050919050565b600060208201905081810360008301526112788161123c565b9050919050565b7f506c6561736520636f6e746163742064697370757465207465616d0000000000600082015250565b60006112b5601b83611196565b91506112c08261127f565b602082019050919050565b600060208201905081810360008301526112e4816112a8565b9050919050565b7f4e487b7100000000000000000000000000000000000000000000000000000000600052602160045260246000fd5b7f4e487b7100000000000000000000000000000000000000000000000000000000600052603260045260246000fd5b7f4e487b7100000000000000000000000000000000000000000000000000000000600052601160045260246000fd5b600061138382610f55565b915061138e83610f55565b9250827fffffffffffffffffffffffffffffffffffffffffffffffffffffffffffffffff038211156113c3576113c2611349565b5b828201905092915050565b60006113d982610f55565b91507fffffffffffffffffffffffffffffffffffffffffffffffffffffffffffffffff82141561140c5761140b611349565b5b600182019050919050565b7f4f6e6c7920636c69656e74732063616e2063616e63656c206d696c6573746f6e60008201527f6573000000000000000000000000000000000000000000000000000000000000602082015250565b6000611473602283611196565b915061147e82611417565b604082019050919050565b600060208201905081810360008301526114a281611466565b9050919050565b7f4d696c6573746f6e6520696e646578206f7574206f6620626f756e6473000000600082015250565b60006114df601d83611196565b91506114ea826114a9565b602082019050919050565b6000602082019050818103600083015261150e816114d2565b9050919050565b7f4d696c6573746f6e65206973206e6f7420696e2043524541544544207374617460008201527f7573000000000000000000000000000000000000000000000000000000000000602082015250565b6000611571602283611196565b915061157c82611515565b604082019050919050565b600060208201905081810360008301526115a081611564565b9050919050565b60006115b282610f55565b91506115bd83610f55565b9250828210156115d0576115cf611349565b5b828203905092915050565b7f4f6e6c7920636c69656e74732063616e20616464206d696c6573746f6e657300600082015250565b6000611611601f83611196565b915061161c826115db565b602082019050919050565b6000602082019050818103600083015261164081611604565b9050919050565b7f50726f6a65637420686173206265656e2063616e63656c6c6564000000000000600082015250565b600061167d601a83611196565b915061168882611647565b602082019050919050565b600060208201905081810360008301526116ac81611670565b9050919050565b7f4f6e6c7920667265656c616e636572732063616e2072656c65617365206d696c60008201527f6573746f6e657300000000000000000000000000000000000000000000000000602082015250565b600061170f602783611196565b915061171a826116b3565b604082019050919050565b6000602082019050818103600083015261173e81611702565b9050919050565b7f4d696c6573746f6e65206973206e6f7420796574206475650000000000000000600082015250565b600061177b601883611196565b915061178682611745565b602082019050919050565b600060208201905081810360008301526117aa8161176e565b9050919050565b7f5468652073656e7420616d6f756e7420646f65736e2774206d6174636820746860008201527f6520746f74616c20616d6f756e74000000000000000000000000000000000000602082015250565b600061180d602e83611196565b9150611818826117b1565b604082019050919050565b6000602082019050818103600083015261183c81611800565b9050919050565b7f467265656c616e636572206164647265737320697320696e76616c6964000000600082015250565b6000611879601d83611196565b915061188482611843565b602082019050919050565b600060208201905081810360008301526118a88161186c565b9050919050565b7f50726f6a65637420494420616c72656164792065786973747300000000000000600082015250565b60006118e5601983611196565b91506118f0826118af565b602082019050919050565b60006020820190508181036000830152611914816118d8565b9050919050565b7f467265656c616e63657220616c7265616479206163636570746564207468697360008201527f2070726f6a6563742e0000000000000000000000000000000000000000000000602082015250565b6000611977602983611196565b91506119828261191b565b604082019050919050565b600060208201905081810360008301526119a68161196a565b905091905056fea264697066735822122053e34e90410ec44e35418639aced87d2472726143a92112ca569fa63b12e647864736f6c634300080b0033",
  "linkReferences": {},
  "deployedLinkReferences": {}
}