{
  "_format": "hh-sol-artifact-1",
  "contractName": "MilestoneContract",
  "sourceName": "contracts/MilestoneContract.sol",
  "abi": [
    {
      "inputs": [
        {
          "internalType": "uint256",
          "name": "_projectId",
          "type": "uint256"
        }
      ],
      "name": "acceptProject",
      "outputs": [],
      "stateMutability": "nonpayable",
      "type": "function"
    },
    {
      "inputs": [
        {
          "internalType": "uint256",
          "name": "projectId",
          "type": "uint256"
        },
        {
          "internalType": "uint256",
          "name": "amount",
          "type": "uint256"
        },
        {
          "internalType": "uint256",
          "name": "dueDate",
          "type": "uint256"
        }
      ],
      "name": "addMilestone",
      "outputs": [],
      "stateMutability": "nonpayable",
      "type": "function"
    },
    {
      "inputs": [
        {
          "internalType": "uint256",
          "name": "projectId",
          "type": "uint256"
        },
        {
          "internalType": "uint256",
          "name": "milestoneIndex",
          "type": "uint256"
        }
      ],
      "name": "cancelMilestone",
      "outputs": [],
      "stateMutability": "nonpayable",
      "type": "function"
    },
    {
      "inputs": [
        {
          "internalType": "uint256",
          "name": "projectId",
          "type": "uint256"
        }
      ],
      "name": "cancelProject",
      "outputs": [],
      "stateMutability": "nonpayable",
      "type": "function"
    },
    {
      "inputs": [
        {
          "internalType": "uint256",
          "name": "projectId",
          "type": "uint256"
        },
        {
          "internalType": "uint256",
          "name": "totalAmount",
          "type": "uint256"
        }
      ],
      "name": "createProject",
      "outputs": [],
      "stateMutability": "payable",
      "type": "function"
    },
    {
      "inputs": [
        {
          "internalType": "uint256",
          "name": "",
          "type": "uint256"
        }
      ],
      "name": "projects",
      "outputs": [
        {
          "internalType": "address",
          "name": "client",
          "type": "address"
        },
        {
          "internalType": "address",
          "name": "freelancer",
          "type": "address"
        },
        {
          "internalType": "uint256",
          "name": "totalAmount",
          "type": "uint256"
        },
        {
          "internalType": "bool",
          "name": "isCancelled",
          "type": "bool"
        },
        {
          "internalType": "bool",
          "name": "isDisputed",
          "type": "bool"
        },
        {
          "internalType": "uint256",
          "name": "disputedAmount",
          "type": "uint256"
        }
      ],
      "stateMutability": "view",
      "type": "function"
    },
    {
      "inputs": [
        {
          "internalType": "uint256",
          "name": "projectId",
          "type": "uint256"
        },
        {
          "internalType": "uint256",
          "name": "milestoneIndex",
          "type": "uint256"
        }
      ],
      "name": "releaseMilestone",
      "outputs": [],
      "stateMutability": "nonpayable",
      "type": "function"
    }
  ],
  "bytecode": "0x608060405234801561001057600080fd5b50611888806100206000396000f3fe6080604052600436106100705760003560e01c806342967a621161004e57806342967a62146100fc578063d279830c14610125578063dbaf09101461014e578063fd1d5ea91461017757610070565b806302da667b14610075578063107046bd1461009157806324941147146100d3575b600080fd5b61008f600480360381019061008a9190610f1b565b6101a0565b005b34801561009d57600080fd5b506100b860048036038101906100b39190610f5b565b610320565b6040516100ca96959493929190610ff3565b60405180910390f35b3480156100df57600080fd5b506100fa60048036038101906100f59190610f5b565b6103b6565b005b34801561010857600080fd5b50610123600480360381019061011e9190610f1b565b6106fe565b005b34801561013157600080fd5b5061014c60048036038101906101479190611054565b6109be565b005b34801561015a57600080fd5b5061017560048036038101906101709190610f1b565b610b65565b005b34801561018357600080fd5b5061019e60048036038101906101999190610f5b565b610df0565b005b8034146101e2576040517f08c379a00000000000000000000000000000000000000000000000000000000081526004016101d99061112a565b60405180910390fd5b60008060008481526020019081526020016000209050600073ffffffffffffffffffffffffffffffffffffffff168160000160009054906101000a900473ffffffffffffffffffffffffffffffffffffffff1673ffffffffffffffffffffffffffffffffffffffff161461028b576040517f08c379a000000000000000000000000000000000000000000000000000000000815260040161028290611196565b60405180910390fd5b338160000160006101000a81548173ffffffffffffffffffffffffffffffffffffffff021916908373ffffffffffffffffffffffffffffffffffffffff16021790555060008160010160006101000a81548173ffffffffffffffffffffffffffffffffffffffff021916908373ffffffffffffffffffffffffffffffffffffffff160217905550818160020181905550505050565b60006020528060005260406000206000915090508060000160009054906101000a900473ffffffffffffffffffffffffffffffffffffffff16908060010160009054906101000a900473ffffffffffffffffffffffffffffffffffffffff16908060020154908060040160009054906101000a900460ff16908060040160019054906101000a900460ff16908060050154905086565b600080600083815260200190815260200160002090503373ffffffffffffffffffffffffffffffffffffffff168160000160009054906101000a900473ffffffffffffffffffffffffffffffffffffffff1673ffffffffffffffffffffffffffffffffffffffff161461045e576040517f08c379a000000000000000000000000000000000000000000000000000000000815260040161045590611202565b60405180910390fd5b8060040160009054906101000a900460ff16156104b0576040517f08c379a00000000000000000000000000000000000000000000000000000000081526004016104a79061126e565b60405180910390fd5b8060040160019054906101000a900460ff1615610502576040517f08c379a00000000000000000000000000000000000000000000000000000000081526004016104f9906112da565b60405180910390fd5b600073ffffffffffffffffffffffffffffffffffffffff168160010160009054906101000a900473ffffffffffffffffffffffffffffffffffffffff1673ffffffffffffffffffffffffffffffffffffffff1614156105cf578060000160009054906101000a900473ffffffffffffffffffffffffffffffffffffffff1673ffffffffffffffffffffffffffffffffffffffff166108fc82600201549081150290604051600060405180830381858888f193505050501580156105c9573d6000803e3d6000fd5b506106fa565b6000805b826003018054905081101561068c57600060028111156105f6576105f56112fa565b5b83600301828154811061060c5761060b611329565b5b906000526020600020906003020160020160009054906101000a900460ff16600281111561063d5761063c6112fa565b5b14156106795782600301818154811061065957610658611329565b5b906000526020600020906003020160000154826106769190611387565b91505b8080610684906113dd565b9150506105d3565b508160000160009054906101000a900473ffffffffffffffffffffffffffffffffffffffff1673ffffffffffffffffffffffffffffffffffffffff166108fc829081150290604051600060405180830381858888f193505050501580156106f7573d6000803e3d6000fd5b50505b5050565b600080600084815260200190815260200160002090503373ffffffffffffffffffffffffffffffffffffffff168160000160009054906101000a900473ffffffffffffffffffffffffffffffffffffffff1673ffffffffffffffffffffffffffffffffffffffff16146107a6576040517f08c379a000000000000000000000000000000000000000000000000000000000815260040161079d90611498565b60405180910390fd5b806003018054905082106107ef576040517f08c379a00000000000000000000000000000000000000000000000000000000081526004016107e690611504565b60405180910390fd5b600081600301838154811061080757610806611329565b5b906000526020600020906003020190506000600281111561082b5761082a6112fa565b5b8160020160009054906101000a900460ff16600281111561084f5761084e6112fa565b5b1461088f576040517f08c379a000000000000000000000000000000000000000000000000000000000815260040161088690611596565b60405180910390fd5b60008160010154426108a191906115b6565b9050610e10811161094d578260000160009054906101000a900473ffffffffffffffffffffffffffffffffffffffff1673ffffffffffffffffffffffffffffffffffffffff166108fc83600001549081150290604051600060405180830381858888f1935050505015801561091a573d6000803e3d6000fd5b5060028260020160006101000a81548160ff02191690836002811115610943576109426112fa565b5b02179055506109b7565b60028260020160006101000a81548160ff02191690836002811115610975576109746112fa565b5b021790555060018360040160016101000a81548160ff02191690831515021790555081600001548360050160008282546109af9190611387565b925050819055505b5050505050565b600080600085815260200190815260200160002090503373ffffffffffffffffffffffffffffffffffffffff168160000160009054906101000a900473ffffffffffffffffffffffffffffffffffffffff1673ffffffffffffffffffffffffffffffffffffffff1614610a66576040517f08c379a0000000000000000000000000000000000000000000000000000000008152600401610a5d90611636565b60405180910390fd5b8060040160009054906101000a900460ff1615610ab8576040517f08c379a0000000000000000000000000000000000000000000000000000000008152600401610aaf906116a2565b60405180910390fd5b6000604051806060016040528085815260200184815260200160006002811115610ae557610ae46112fa565b5b815250905081600301819080600181540180825580915050600190039060005260206000209060030201600090919091909150600082015181600001556020820151816001015560408201518160020160006101000a81548160ff02191690836002811115610b5757610b566112fa565b5b021790555050505050505050565b600080600084815260200190815260200160002090503373ffffffffffffffffffffffffffffffffffffffff168160010160009054906101000a900473ffffffffffffffffffffffffffffffffffffffff1673ffffffffffffffffffffffffffffffffffffffff1614610c0d576040517f08c379a0000000000000000000000000000000000000000000000000000000008152600401610c0490611734565b60405180910390fd5b80600301805490508210610c56576040517f08c379a0000000000000000000000000000000000000000000000000000000008152600401610c4d90611504565b60405180910390fd5b6000816003018381548110610c6e57610c6d611329565b5b9060005260206000209060030201905060006002811115610c9257610c916112fa565b5b8160020160009054906101000a900460ff166002811115610cb657610cb56112fa565b5b14610cf6576040517f08c379a0000000000000000000000000000000000000000000000000000000008152600401610ced90611596565b60405180910390fd5b6000816001015442610d0891906115b6565b905060008111610d4d576040517f08c379a0000000000000000000000000000000000000000000000000000000008152600401610d44906117a0565b60405180910390fd5b8260010160009054906101000a900473ffffffffffffffffffffffffffffffffffffffff1673ffffffffffffffffffffffffffffffffffffffff166108fc83600001549081150290604051600060405180830381858888f19350505050158015610dbb573d6000803e3d6000fd5b5060018260020160006101000a81548160ff02191690836002811115610de457610de36112fa565b5b02179055505050505050565b60008060008381526020019081526020016000209050600073ffffffffffffffffffffffffffffffffffffffff168160010160009054906101000a900473ffffffffffffffffffffffffffffffffffffffff1673ffffffffffffffffffffffffffffffffffffffff1614610e99576040517f08c379a0000000000000000000000000000000000000000000000000000000008152600401610e9090611832565b60405180910390fd5b338160010160006101000a81548173ffffffffffffffffffffffffffffffffffffffff021916908373ffffffffffffffffffffffffffffffffffffffff1602179055505050565b600080fd5b6000819050919050565b610ef881610ee5565b8114610f0357600080fd5b50565b600081359050610f1581610eef565b92915050565b60008060408385031215610f3257610f31610ee0565b5b6000610f4085828601610f06565b9250506020610f5185828601610f06565b9150509250929050565b600060208284031215610f7157610f70610ee0565b5b6000610f7f84828501610f06565b91505092915050565b600073ffffffffffffffffffffffffffffffffffffffff82169050919050565b6000610fb382610f88565b9050919050565b610fc381610fa8565b82525050565b610fd281610ee5565b82525050565b60008115159050919050565b610fed81610fd8565b82525050565b600060c0820190506110086000830189610fba565b6110156020830188610fba565b6110226040830187610fc9565b61102f6060830186610fe4565b61103c6080830185610fe4565b61104960a0830184610fc9565b979650505050505050565b60008060006060848603121561106d5761106c610ee0565b5b600061107b86828701610f06565b935050602061108c86828701610f06565b925050604061109d86828701610f06565b9150509250925092565b600082825260208201905092915050565b7f5468652073656e7420616d6f756e7420646f65736e2774206d6174636820746860008201527f6520746f74616c20616d6f756e74000000000000000000000000000000000000602082015250565b6000611114602e836110a7565b915061111f826110b8565b604082019050919050565b6000602082019050818103600083015261114381611107565b9050919050565b7f50726f6a65637420494420616c72656164792065786973747300000000000000600082015250565b60006111806019836110a7565b915061118b8261114a565b602082019050919050565b600060208201905081810360008301526111af81611173565b9050919050565b7f4f6e6c7920636c69656e74732063616e2063616e63656c2070726f6a65637473600082015250565b60006111ec6020836110a7565b91506111f7826111b6565b602082019050919050565b6000602082019050818103600083015261121b816111df565b9050919050565b7f50726f6a65637420697320616c72656164792063616e63656c6c656400000000600082015250565b6000611258601c836110a7565b915061126382611222565b602082019050919050565b600060208201905081810360008301526112878161124b565b9050919050565b7f506c6561736520636f6e746163742064697370757465207465616d0000000000600082015250565b60006112c4601b836110a7565b91506112cf8261128e565b602082019050919050565b600060208201905081810360008301526112f3816112b7565b9050919050565b7f4e487b7100000000000000000000000000000000000000000000000000000000600052602160045260246000fd5b7f4e487b7100000000000000000000000000000000000000000000000000000000600052603260045260246000fd5b7f4e487b7100000000000000000000000000000000000000000000000000000000600052601160045260246000fd5b600061139282610ee5565b915061139d83610ee5565b9250827fffffffffffffffffffffffffffffffffffffffffffffffffffffffffffffffff038211156113d2576113d1611358565b5b828201905092915050565b60006113e882610ee5565b91507fffffffffffffffffffffffffffffffffffffffffffffffffffffffffffffffff82141561141b5761141a611358565b5b600182019050919050565b7f4f6e6c7920636c69656e74732063616e2063616e63656c206d696c6573746f6e60008201527f6573000000000000000000000000000000000000000000000000000000000000602082015250565b60006114826022836110a7565b915061148d82611426565b604082019050919050565b600060208201905081810360008301526114b181611475565b9050919050565b7f4d696c6573746f6e6520696e646578206f7574206f6620626f756e6473000000600082015250565b60006114ee601d836110a7565b91506114f9826114b8565b602082019050919050565b6000602082019050818103600083015261151d816114e1565b9050919050565b7f4d696c6573746f6e65206973206e6f7420696e2043524541544544207374617460008201527f7573000000000000000000000000000000000000000000000000000000000000602082015250565b60006115806022836110a7565b915061158b82611524565b604082019050919050565b600060208201905081810360008301526115af81611573565b9050919050565b60006115c182610ee5565b91506115cc83610ee5565b9250828210156115df576115de611358565b5b828203905092915050565b7f4f6e6c7920636c69656e74732063616e20616464206d696c6573746f6e657300600082015250565b6000611620601f836110a7565b915061162b826115ea565b602082019050919050565b6000602082019050818103600083015261164f81611613565b9050919050565b7f50726f6a65637420686173206265656e2063616e63656c6c6564000000000000600082015250565b600061168c601a836110a7565b915061169782611656565b602082019050919050565b600060208201905081810360008301526116bb8161167f565b9050919050565b7f4f6e6c7920667265656c616e636572732063616e2072656c65617365206d696c60008201527f6573746f6e657300000000000000000000000000000000000000000000000000602082015250565b600061171e6027836110a7565b9150611729826116c2565b604082019050919050565b6000602082019050818103600083015261174d81611711565b9050919050565b7f4d696c6573746f6e65206973206e6f7420796574206475650000000000000000600082015250565b600061178a6018836110a7565b915061179582611754565b602082019050919050565b600060208201905081810360008301526117b98161177d565b9050919050565b7f467265656c616e63657220616c7265616479206163636570746564207468697360008201527f2070726f6a6563742e0000000000000000000000000000000000000000000000602082015250565b600061181c6029836110a7565b9150611827826117c0565b604082019050919050565b6000602082019050818103600083015261184b8161180f565b905091905056fea264697066735822122055a7b8b5eaff86f2ed6eb582520541971bab140174364d90575c07a634b7b4f264736f6c634300080b0033",
  "linkReferences": {},
  "deployedLinkReferences": {}
}