{
  "_format": "hh-sol-artifact-1",
  "contractName": "JobContract",
  "sourceName": "contracts/JobContract.sol",
  "abi": [
    {
      "anonymous": false,
      "inputs": [
        {
          "indexed": false,
          "internalType": "uint8",
          "name": "version",
          "type": "uint8"
        }
      ],
      "name": "Initialized",
      "type": "event"
    },
    {
      "anonymous": false,
      "inputs": [
        {
          "indexed": true,
          "internalType": "address",
          "name": "previousOwner",
          "type": "address"
        },
        {
          "indexed": true,
          "internalType": "address",
          "name": "newOwner",
          "type": "address"
        }
      ],
      "name": "OwnershipTransferred",
      "type": "event"
    },
    {
      "inputs": [],
      "name": "JOB_ID",
      "outputs": [
        {
          "internalType": "uint256",
          "name": "",
          "type": "uint256"
        }
      ],
      "stateMutability": "view",
      "type": "function"
    },
    {
      "inputs": [],
      "name": "_candJobID",
      "outputs": [
        {
          "internalType": "uint256",
          "name": "_value",
          "type": "uint256"
        }
      ],
      "stateMutability": "view",
      "type": "function"
    },
    {
      "inputs": [],
      "name": "_registrationID",
      "outputs": [
        {
          "internalType": "uint256",
          "name": "_value",
          "type": "uint256"
        }
      ],
      "stateMutability": "view",
      "type": "function"
    },
    {
      "inputs": [
        {
          "internalType": "string",
          "name": "_companyName",
          "type": "string"
        },
        {
          "internalType": "string",
          "name": "_position",
          "type": "string"
        },
        {
          "internalType": "string",
          "name": "_description",
          "type": "string"
        },
        {
          "internalType": "string",
          "name": "_experience",
          "type": "string"
        },
        {
          "internalType": "string",
          "name": "_location",
          "type": "string"
        },
        {
          "internalType": "string",
          "name": "_salary",
          "type": "string"
        }
      ],
      "name": "addJob",
      "outputs": [],
      "stateMutability": "nonpayable",
      "type": "function"
    },
    {
      "inputs": [],
      "name": "allJobs",
      "outputs": [
        {
          "components": [
            {
              "internalType": "uint256",
              "name": "jobId",
              "type": "uint256"
            },
            {
              "internalType": "string",
              "name": "companyName",
              "type": "string"
            },
            {
              "internalType": "string",
              "name": "position",
              "type": "string"
            },
            {
              "internalType": "string",
              "name": "description",
              "type": "string"
            },
            {
              "internalType": "string",
              "name": "experience",
              "type": "string"
            },
            {
              "internalType": "string",
              "name": "location",
              "type": "string"
            },
            {
              "internalType": "string",
              "name": "salary",
              "type": "string"
            },
            {
              "internalType": "uint256",
              "name": "applicationCount",
              "type": "uint256"
            },
            {
              "internalType": "address",
              "name": "employer",
              "type": "address"
            },
            {
              "internalType": "string",
              "name": "status",
              "type": "string"
            },
            {
              "internalType": "address",
              "name": "employee",
              "type": "address"
            }
          ],
          "internalType": "struct JobContract.Job[]",
          "name": "",
          "type": "tuple[]"
        }
      ],
      "stateMutability": "view",
      "type": "function"
    },
    {
      "inputs": [
        {
          "internalType": "uint256",
          "name": "jobId",
          "type": "uint256"
        },
        {
          "internalType": "string",
          "name": "_name",
          "type": "string"
        },
        {
          "internalType": "string",
          "name": "_experience",
          "type": "string"
        },
        {
          "internalType": "string",
          "name": "_location",
          "type": "string"
        },
        {
          "internalType": "string",
          "name": "_cv",
          "type": "string"
        }
      ],
      "name": "applyForJob",
      "outputs": [],
      "stateMutability": "nonpayable",
      "type": "function"
    },
    {
      "inputs": [
        {
          "internalType": "address",
          "name": "",
          "type": "address"
        },
        {
          "internalType": "uint256",
          "name": "",
          "type": "uint256"
        }
      ],
      "name": "candidates",
      "outputs": [
        {
          "internalType": "address",
          "name": "",
          "type": "address"
        }
      ],
      "stateMutability": "view",
      "type": "function"
    },
    {
      "inputs": [],
      "name": "checkRegistration",
      "outputs": [
        {
          "internalType": "bool",
          "name": "",
          "type": "bool"
        }
      ],
      "stateMutability": "view",
      "type": "function"
    },
    {
      "inputs": [],
      "name": "getAllProfile",
      "outputs": [
        {
          "components": [
            {
              "internalType": "uint256",
              "name": "registrationID",
              "type": "uint256"
            },
            {
              "internalType": "string",
              "name": "name",
              "type": "string"
            },
            {
              "internalType": "string",
              "name": "typeOfAccount",
              "type": "string"
            },
            {
              "internalType": "string",
              "name": "myAddress",
              "type": "string"
            },
            {
              "internalType": "address",
              "name": "user",
              "type": "address"
            }
          ],
          "internalType": "struct JobContract.Register[]",
          "name": "",
          "type": "tuple[]"
        }
      ],
      "stateMutability": "view",
      "type": "function"
    },
    {
      "inputs": [
        {
          "internalType": "uint256",
          "name": "_jobid",
          "type": "uint256"
        }
      ],
      "name": "getJobById",
      "outputs": [
        {
          "components": [
            {
              "internalType": "uint256",
              "name": "jobId",
              "type": "uint256"
            },
            {
              "internalType": "string",
              "name": "companyName",
              "type": "string"
            },
            {
              "internalType": "string",
              "name": "position",
              "type": "string"
            },
            {
              "internalType": "string",
              "name": "description",
              "type": "string"
            },
            {
              "internalType": "string",
              "name": "experience",
              "type": "string"
            },
            {
              "internalType": "string",
              "name": "location",
              "type": "string"
            },
            {
              "internalType": "string",
              "name": "salary",
              "type": "string"
            },
            {
              "internalType": "uint256",
              "name": "applicationCount",
              "type": "uint256"
            },
            {
              "internalType": "address",
              "name": "employer",
              "type": "address"
            },
            {
              "internalType": "string",
              "name": "status",
              "type": "string"
            },
            {
              "internalType": "address",
              "name": "employee",
              "type": "address"
            }
          ],
          "internalType": "struct JobContract.Job",
          "name": "",
          "type": "tuple"
        }
      ],
      "stateMutability": "view",
      "type": "function"
    },
    {
      "inputs": [
        {
          "internalType": "uint256",
          "name": "_jobId",
          "type": "uint256"
        }
      ],
      "name": "getMyCandidates",
      "outputs": [
        {
          "components": [
            {
              "internalType": "uint256",
              "name": "candJobID",
              "type": "uint256"
            },
            {
              "internalType": "uint256",
              "name": "registrationID",
              "type": "uint256"
            },
            {
              "internalType": "uint256",
              "name": "jobId",
              "type": "uint256"
            },
            {
              "internalType": "string",
              "name": "name",
              "type": "string"
            },
            {
              "internalType": "string",
              "name": "experience",
              "type": "string"
            },
            {
              "internalType": "string",
              "name": "location",
              "type": "string"
            },
            {
              "internalType": "string",
              "name": "cv",
              "type": "string"
            },
            {
              "internalType": "address",
              "name": "candidateAddress",
              "type": "address"
            },
            {
              "internalType": "string",
              "name": "status",
              "type": "string"
            }
          ],
          "internalType": "struct JobContract.Candidate[]",
          "name": "",
          "type": "tuple[]"
        }
      ],
      "stateMutability": "view",
      "type": "function"
    },
    {
      "inputs": [],
      "name": "getMyPostedJobs",
      "outputs": [
        {
          "components": [
            {
              "internalType": "uint256",
              "name": "jobId",
              "type": "uint256"
            },
            {
              "internalType": "string",
              "name": "companyName",
              "type": "string"
            },
            {
              "internalType": "string",
              "name": "position",
              "type": "string"
            },
            {
              "internalType": "string",
              "name": "description",
              "type": "string"
            },
            {
              "internalType": "string",
              "name": "experience",
              "type": "string"
            },
            {
              "internalType": "string",
              "name": "location",
              "type": "string"
            },
            {
              "internalType": "string",
              "name": "salary",
              "type": "string"
            },
            {
              "internalType": "uint256",
              "name": "applicationCount",
              "type": "uint256"
            },
            {
              "internalType": "address",
              "name": "employer",
              "type": "address"
            },
            {
              "internalType": "string",
              "name": "status",
              "type": "string"
            },
            {
              "internalType": "address",
              "name": "employee",
              "type": "address"
            }
          ],
          "internalType": "struct JobContract.Job[]",
          "name": "",
          "type": "tuple[]"
        }
      ],
      "stateMutability": "view",
      "type": "function"
    },
    {
      "inputs": [],
      "name": "getMyProfile",
      "outputs": [
        {
          "components": [
            {
              "internalType": "uint256",
              "name": "registrationID",
              "type": "uint256"
            },
            {
              "internalType": "string",
              "name": "name",
              "type": "string"
            },
            {
              "internalType": "string",
              "name": "typeOfAccount",
              "type": "string"
            },
            {
              "internalType": "string",
              "name": "myAddress",
              "type": "string"
            },
            {
              "internalType": "address",
              "name": "user",
              "type": "address"
            }
          ],
          "internalType": "struct JobContract.Register",
          "name": "",
          "type": "tuple"
        }
      ],
      "stateMutability": "view",
      "type": "function"
    },
    {
      "inputs": [
        {
          "internalType": "address",
          "name": "user",
          "type": "address"
        }
      ],
      "name": "getProfile",
      "outputs": [
        {
          "components": [
            {
              "internalType": "uint256",
              "name": "registrationID",
              "type": "uint256"
            },
            {
              "internalType": "string",
              "name": "name",
              "type": "string"
            },
            {
              "internalType": "string",
              "name": "typeOfAccount",
              "type": "string"
            },
            {
              "internalType": "string",
              "name": "myAddress",
              "type": "string"
            },
            {
              "internalType": "address",
              "name": "user",
              "type": "address"
            }
          ],
          "internalType": "struct JobContract.Register",
          "name": "",
          "type": "tuple"
        }
      ],
      "stateMutability": "view",
      "type": "function"
    },
    {
      "inputs": [],
      "name": "initialize",
      "outputs": [],
      "stateMutability": "nonpayable",
      "type": "function"
    },
    {
      "inputs": [
        {
          "internalType": "uint256",
          "name": "",
          "type": "uint256"
        }
      ],
      "name": "jobData",
      "outputs": [
        {
          "internalType": "uint256",
          "name": "jobId",
          "type": "uint256"
        },
        {
          "internalType": "string",
          "name": "companyName",
          "type": "string"
        },
        {
          "internalType": "string",
          "name": "position",
          "type": "string"
        },
        {
          "internalType": "string",
          "name": "description",
          "type": "string"
        },
        {
          "internalType": "string",
          "name": "experience",
          "type": "string"
        },
        {
          "internalType": "string",
          "name": "location",
          "type": "string"
        },
        {
          "internalType": "string",
          "name": "salary",
          "type": "string"
        },
        {
          "internalType": "uint256",
          "name": "applicationCount",
          "type": "uint256"
        },
        {
          "internalType": "address",
          "name": "employer",
          "type": "address"
        },
        {
          "internalType": "string",
          "name": "status",
          "type": "string"
        },
        {
          "internalType": "address",
          "name": "employee",
          "type": "address"
        }
      ],
      "stateMutability": "view",
      "type": "function"
    },
    {
      "inputs": [],
      "name": "myAppliedJobs",
      "outputs": [
        {
          "components": [
            {
              "internalType": "uint256",
              "name": "jobId",
              "type": "uint256"
            },
            {
              "internalType": "string",
              "name": "companyName",
              "type": "string"
            },
            {
              "internalType": "string",
              "name": "position",
              "type": "string"
            },
            {
              "internalType": "string",
              "name": "description",
              "type": "string"
            },
            {
              "internalType": "string",
              "name": "experience",
              "type": "string"
            },
            {
              "internalType": "string",
              "name": "location",
              "type": "string"
            },
            {
              "internalType": "string",
              "name": "salary",
              "type": "string"
            },
            {
              "internalType": "uint256",
              "name": "applicationCount",
              "type": "uint256"
            },
            {
              "internalType": "address",
              "name": "employer",
              "type": "address"
            },
            {
              "internalType": "string",
              "name": "status",
              "type": "string"
            },
            {
              "internalType": "address",
              "name": "employee",
              "type": "address"
            }
          ],
          "internalType": "struct JobContract.Job[]",
          "name": "",
          "type": "tuple[]"
        }
      ],
      "stateMutability": "view",
      "type": "function"
    },
    {
      "inputs": [],
      "name": "owner",
      "outputs": [
        {
          "internalType": "address",
          "name": "",
          "type": "address"
        }
      ],
      "stateMutability": "view",
      "type": "function"
    },
    {
      "inputs": [
        {
          "internalType": "address",
          "name": "",
          "type": "address"
        }
      ],
      "name": "registerProfile",
      "outputs": [
        {
          "internalType": "uint256",
          "name": "registrationID",
          "type": "uint256"
        },
        {
          "internalType": "string",
          "name": "name",
          "type": "string"
        },
        {
          "internalType": "string",
          "name": "typeOfAccount",
          "type": "string"
        },
        {
          "internalType": "string",
          "name": "myAddress",
          "type": "string"
        },
        {
          "internalType": "address",
          "name": "user",
          "type": "address"
        }
      ],
      "stateMutability": "view",
      "type": "function"
    },
    {
      "inputs": [
        {
          "internalType": "string",
          "name": "_name",
          "type": "string"
        },
        {
          "internalType": "string",
          "name": "_typeOfAccount",
          "type": "string"
        },
        {
          "internalType": "string",
          "name": "_myAddress",
          "type": "string"
        }
      ],
      "name": "registerProfiles",
      "outputs": [],
      "stateMutability": "nonpayable",
      "type": "function"
    },
    {
      "inputs": [],
      "name": "renounceOwnership",
      "outputs": [],
      "stateMutability": "nonpayable",
      "type": "function"
    },
    {
      "inputs": [
        {
          "internalType": "uint256",
          "name": "_jobId",
          "type": "uint256"
        },
        {
          "internalType": "address",
          "name": "_candAddress",
          "type": "address"
        }
      ],
      "name": "selectCandidate",
      "outputs": [],
      "stateMutability": "nonpayable",
      "type": "function"
    },
    {
      "inputs": [
        {
          "internalType": "address",
          "name": "",
          "type": "address"
        },
        {
          "internalType": "uint256",
          "name": "",
          "type": "uint256"
        }
      ],
      "name": "totalCandidates",
      "outputs": [
        {
          "internalType": "uint256",
          "name": "candJobID",
          "type": "uint256"
        },
        {
          "internalType": "uint256",
          "name": "registrationID",
          "type": "uint256"
        },
        {
          "internalType": "uint256",
          "name": "jobId",
          "type": "uint256"
        },
        {
          "internalType": "string",
          "name": "name",
          "type": "string"
        },
        {
          "internalType": "string",
          "name": "experience",
          "type": "string"
        },
        {
          "internalType": "string",
          "name": "location",
          "type": "string"
        },
        {
          "internalType": "string",
          "name": "cv",
          "type": "string"
        },
        {
          "internalType": "address",
          "name": "candidateAddress",
          "type": "address"
        },
        {
          "internalType": "string",
          "name": "status",
          "type": "string"
        }
      ],
      "stateMutability": "view",
      "type": "function"
    },
    {
      "inputs": [
        {
          "internalType": "address",
          "name": "newOwner",
          "type": "address"
        }
      ],
      "name": "transferOwnership",
      "outputs": [],
      "stateMutability": "nonpayable",
      "type": "function"
    }
  ],
  "bytecode": "0x608060405234801561001057600080fd5b50615bff80620000216000396000f3fe608060405234801561001057600080fd5b50600436106101585760003560e01c80638807f271116100c3578063d5f9d0541161007c578063d5f9d054146103c7578063d968d7c2146103e5578063e04aebe814610401578063e38b00bc14610439578063f2fde38b14610455578063fd1b21001461047157610158565b80638807f271146102ef5780638b62b97a1461031f5780638da5cb5b1461033d578063a487ae7b1461035b578063b61f87b014610379578063c8d1b6aa146103a957610158565b806361e072c31161011557806361e072c31461023d578063643905e31461025b57806365ca645c1461027757806369d7428f146102ab578063715018a6146102db5780638129fc1c146102e557610158565b80630f53a4701461015d57806321527e501461018d5780633901d42d146101ab5780633ccddba0146101c9578063430264fc146101e557806348955b0914610203575b600080fd5b610177600480360381019061017291906145b7565b61048f565b6040516101849190614729565b60405180910390f35b6101956106fe565b6040516101a29190614729565b60405180910390f35b6101b361096b565b6040516101c09190614891565b60405180910390f35b6101e360048036038101906101de9190614a14565b610be0565b005b6101ed610f94565b6040516101fa9190614b0e565b60405180910390f35b61021d60048036038101906102189190614b29565b610fa0565b6040516102349b9a99989796959493929190614baf565b60405180910390f35b6102456113f2565b6040516102529190614b0e565b60405180910390f35b61027560048036038101906102709190614c8b565b6113f8565b005b610291600480360381019061028c91906145b7565b61165b565b6040516102a2959493929190614d32565b60405180910390f35b6102c560048036038101906102c09190614b29565b611849565b6040516102d29190614eb3565b60405180910390f35b6102e3611d44565b005b6102ed611d58565b005b61030960048036038101906103049190614ed5565b611e9e565b6040516103169190614f15565b60405180910390f35b610327611eec565b604051610334919061510b565b60405180910390f35b610345612500565b6040516103529190614f15565b60405180910390f35b61036361252a565b604051610370919061510b565b60405180910390f35b610393600480360381019061038e9190614b29565b612b68565b6040516103a091906152d0565b60405180910390f35b6103b1613111565b6040516103be919061510b565b60405180910390f35b6103cf61362f565b6040516103dc9190614b0e565b60405180910390f35b6103ff60048036038101906103fa91906152f2565b61363b565b005b61041b60048036038101906104169190614ed5565b613920565b60405161043099989796959493929190615332565b60405180910390f35b610453600480360381019061044e91906153e2565b613c43565b005b61046f600480360381019061046a91906145b7565b614047565b005b6104796140cb565b6040516104869190615532565b60405180910390f35b610497614375565b606b60008373ffffffffffffffffffffffffffffffffffffffff1673ffffffffffffffffffffffffffffffffffffffff1681526020019081526020016000206040518060a0016040529081600082015481526020016001820180546104fb9061557c565b80601f01602080910402602001604051908101604052809291908181526020018280546105279061557c565b80156105745780601f1061054957610100808354040283529160200191610574565b820191906000526020600020905b81548152906001019060200180831161055757829003601f168201915b5050505050815260200160028201805461058d9061557c565b80601f01602080910402602001604051908101604052809291908181526020018280546105b99061557c565b80156106065780601f106105db57610100808354040283529160200191610606565b820191906000526020600020905b8154815290600101906020018083116105e957829003601f168201915b5050505050815260200160038201805461061f9061557c565b80601f016020809104026020016040519081016040528092919081815260200182805461064b9061557c565b80156106985780601f1061066d57610100808354040283529160200191610698565b820191906000526020600020905b81548152906001019060200180831161067b57829003601f168201915b505050505081526020016004820160009054906101000a900473ffffffffffffffffffffffffffffffffffffffff1673ffffffffffffffffffffffffffffffffffffffff1673ffffffffffffffffffffffffffffffffffffffff16815250509050919050565b610706614375565b606b60003373ffffffffffffffffffffffffffffffffffffffff1673ffffffffffffffffffffffffffffffffffffffff1681526020019081526020016000206040518060a00160405290816000820154815260200160018201805461076a9061557c565b80601f01602080910402602001604051908101604052809291908181526020018280546107969061557c565b80156107e35780601f106107b8576101008083540402835291602001916107e3565b820191906000526020600020905b8154815290600101906020018083116107c657829003601f168201915b505050505081526020016002820180546107fc9061557c565b80601f01602080910402602001604051908101604052809291908181526020018280546108289061557c565b80156108755780601f1061084a57610100808354040283529160200191610875565b820191906000526020600020905b81548152906001019060200180831161085857829003601f168201915b5050505050815260200160038201805461088e9061557c565b80601f01602080910402602001604051908101604052809291908181526020018280546108ba9061557c565b80156109075780601f106108dc57610100808354040283529160200191610907565b820191906000526020600020905b8154815290600101906020018083116108ea57829003601f168201915b505050505081526020016004820160009054906101000a900473ffffffffffffffffffffffffffffffffffffffff1673ffffffffffffffffffffffffffffffffffffffff1673ffffffffffffffffffffffffffffffffffffffff1681525050905090565b6060606a805480602002602001604051908101604052809291908181526020016000905b82821015610bd757838290600052602060002090600502016040518060a0016040529081600082015481526020016001820180546109cc9061557c565b80601f01602080910402602001604051908101604052809291908181526020018280546109f89061557c565b8015610a455780601f10610a1a57610100808354040283529160200191610a45565b820191906000526020600020905b815481529060010190602001808311610a2857829003601f168201915b50505050508152602001600282018054610a5e9061557c565b80601f0160208091040260200160405190810160405280929190818152602001828054610a8a9061557c565b8015610ad75780601f10610aac57610100808354040283529160200191610ad7565b820191906000526020600020905b815481529060010190602001808311610aba57829003601f168201915b50505050508152602001600382018054610af09061557c565b80601f0160208091040260200160405190810160405280929190818152602001828054610b1c9061557c565b8015610b695780601f10610b3e57610100808354040283529160200191610b69565b820191906000526020600020905b815481529060010190602001808311610b4c57829003601f168201915b505050505081526020016004820160009054906101000a900473ffffffffffffffffffffffffffffffffffffffff1673ffffffffffffffffffffffffffffffffffffffff1673ffffffffffffffffffffffffffffffffffffffff16815250508152602001906001019061098f565b50505050905090565b6000604051806101200160405280610bf86069614128565b8152602001606b60003373ffffffffffffffffffffffffffffffffffffffff1673ffffffffffffffffffffffffffffffffffffffff168152602001908152602001600020600001548152602001606e60008981526020019081526020016000206000015481526020018681526020018581526020018481526020018381526020013373ffffffffffffffffffffffffffffffffffffffff1681526020016040518060400160405280600781526020017f6170706c69656400000000000000000000000000000000000000000000000000815250815250905080606d60003373ffffffffffffffffffffffffffffffffffffffff1673ffffffffffffffffffffffffffffffffffffffff1681526020019081526020016000206000606e60008a81526020019081526020016000206000015481526020019081526020016000206000820151816000015560208201518160010155604082015181600201556060820151816003019080519060200190610d719291906143ba565b506080820151816004019080519060200190610d8e9291906143ba565b5060a0820151816005019080519060200190610dab9291906143ba565b5060c0820151816006019080519060200190610dc89291906143ba565b5060e08201518160070160006101000a81548173ffffffffffffffffffffffffffffffffffffffff021916908373ffffffffffffffffffffffffffffffffffffffff160217905550610100820151816008019080519060200190610e2d9291906143ba565b50905050606c8190806001815401808255809150506001900390600052602060002090600902016000909190919091506000820151816000015560208201518160010155604082015181600201556060820151816003019080519060200190610e979291906143ba565b506080820151816004019080519060200190610eb49291906143ba565b5060a0820151816005019080519060200190610ed19291906143ba565b5060c0820151816006019080519060200190610eee9291906143ba565b5060e08201518160070160006101000a81548173ffffffffffffffffffffffffffffffffffffffff021916908373ffffffffffffffffffffffffffffffffffffffff160217905550610100820151816008019080519060200190610f539291906143ba565b505050606e60008781526020019081526020016000206007016000815480929190610f7d906155dd565b9190505550610f8c6069614136565b505050505050565b60698060000154905081565b606e602052806000526040600020600091509050806000015490806001018054610fc99061557c565b80601f0160208091040260200160405190810160405280929190818152602001828054610ff59061557c565b80156110425780601f1061101757610100808354040283529160200191611042565b820191906000526020600020905b81548152906001019060200180831161102557829003601f168201915b5050505050908060020180546110579061557c565b80601f01602080910402602001604051908101604052809291908181526020018280546110839061557c565b80156110d05780601f106110a5576101008083540402835291602001916110d0565b820191906000526020600020905b8154815290600101906020018083116110b357829003601f168201915b5050505050908060030180546110e59061557c565b80601f01602080910402602001604051908101604052809291908181526020018280546111119061557c565b801561115e5780601f106111335761010080835404028352916020019161115e565b820191906000526020600020905b81548152906001019060200180831161114157829003601f168201915b5050505050908060040180546111739061557c565b80601f016020809104026020016040519081016040528092919081815260200182805461119f9061557c565b80156111ec5780601f106111c1576101008083540402835291602001916111ec565b820191906000526020600020905b8154815290600101906020018083116111cf57829003601f168201915b5050505050908060050180546112019061557c565b80601f016020809104026020016040519081016040528092919081815260200182805461122d9061557c565b801561127a5780601f1061124f5761010080835404028352916020019161127a565b820191906000526020600020905b81548152906001019060200180831161125d57829003601f168201915b50505050509080600601805461128f9061557c565b80601f01602080910402602001604051908101604052809291908181526020018280546112bb9061557c565b80156113085780601f106112dd57610100808354040283529160200191611308565b820191906000526020600020905b8154815290600101906020018083116112eb57829003601f168201915b5050505050908060070154908060080160009054906101000a900473ffffffffffffffffffffffffffffffffffffffff16908060090180546113499061557c565b80601f01602080910402602001604051908101604052809291908181526020018280546113759061557c565b80156113c25780601f10611397576101008083540402835291602001916113c2565b820191906000526020600020905b8154815290600101906020018083116113a557829003601f168201915b50505050509080600a0160009054906101000a900473ffffffffffffffffffffffffffffffffffffffff1690508b565b60655481565b6114006140cb565b15611440576040517f08c379a000000000000000000000000000000000000000000000000000000000815260040161143790615672565b60405180910390fd5b61144a6068614136565b60006040518060a001604052806114616068614128565b81526020018581526020018481526020018381526020013373ffffffffffffffffffffffffffffffffffffffff16815250905080606b60003373ffffffffffffffffffffffffffffffffffffffff1673ffffffffffffffffffffffffffffffffffffffff1681526020019081526020016000206000820151816000015560208201518160010190805190602001906114fa9291906143ba565b5060408201518160020190805190602001906115179291906143ba565b5060608201518160030190805190602001906115349291906143ba565b5060808201518160040160006101000a81548173ffffffffffffffffffffffffffffffffffffffff021916908373ffffffffffffffffffffffffffffffffffffffff160217905550905050606a8190806001815401808255809150506001900390600052602060002090600502016000909190919091506000820151816000015560208201518160010190805190602001906115d19291906143ba565b5060408201518160020190805190602001906115ee9291906143ba565b50606082015181600301908051906020019061160b9291906143ba565b5060808201518160040160006101000a81548173ffffffffffffffffffffffffffffffffffffffff021916908373ffffffffffffffffffffffffffffffffffffffff160217905550505050505050565b606b6020528060005260406000206000915090508060000154908060010180546116849061557c565b80601f01602080910402602001604051908101604052809291908181526020018280546116b09061557c565b80156116fd5780601f106116d2576101008083540402835291602001916116fd565b820191906000526020600020905b8154815290600101906020018083116116e057829003601f168201915b5050505050908060020180546117129061557c565b80601f016020809104026020016040519081016040528092919081815260200182805461173e9061557c565b801561178b5780601f106117605761010080835404028352916020019161178b565b820191906000526020600020905b81548152906001019060200180831161176e57829003601f168201915b5050505050908060030180546117a09061557c565b80601f01602080910402602001604051908101604052809291908181526020018280546117cc9061557c565b80156118195780601f106117ee57610100808354040283529160200191611819565b820191906000526020600020905b8154815290600101906020018083116117fc57829003601f168201915b5050505050908060040160009054906101000a900473ffffffffffffffffffffffffffffffffffffffff16905085565b611851614440565b6066828154811061186557611864615692565b5b90600052602060002090600b020160405180610160016040529081600082015481526020016001820180546118999061557c565b80601f01602080910402602001604051908101604052809291908181526020018280546118c59061557c565b80156119125780601f106118e757610100808354040283529160200191611912565b820191906000526020600020905b8154815290600101906020018083116118f557829003601f168201915b5050505050815260200160028201805461192b9061557c565b80601f01602080910402602001604051908101604052809291908181526020018280546119579061557c565b80156119a45780601f10611979576101008083540402835291602001916119a4565b820191906000526020600020905b81548152906001019060200180831161198757829003601f168201915b505050505081526020016003820180546119bd9061557c565b80601f01602080910402602001604051908101604052809291908181526020018280546119e99061557c565b8015611a365780601f10611a0b57610100808354040283529160200191611a36565b820191906000526020600020905b815481529060010190602001808311611a1957829003601f168201915b50505050508152602001600482018054611a4f9061557c565b80601f0160208091040260200160405190810160405280929190818152602001828054611a7b9061557c565b8015611ac85780601f10611a9d57610100808354040283529160200191611ac8565b820191906000526020600020905b815481529060010190602001808311611aab57829003601f168201915b50505050508152602001600582018054611ae19061557c565b80601f0160208091040260200160405190810160405280929190818152602001828054611b0d9061557c565b8015611b5a5780601f10611b2f57610100808354040283529160200191611b5a565b820191906000526020600020905b815481529060010190602001808311611b3d57829003601f168201915b50505050508152602001600682018054611b739061557c565b80601f0160208091040260200160405190810160405280929190818152602001828054611b9f9061557c565b8015611bec5780601f10611bc157610100808354040283529160200191611bec565b820191906000526020600020905b815481529060010190602001808311611bcf57829003601f168201915b50505050508152602001600782015481526020016008820160009054906101000a900473ffffffffffffffffffffffffffffffffffffffff1673ffffffffffffffffffffffffffffffffffffffff1673ffffffffffffffffffffffffffffffffffffffff168152602001600982018054611c659061557c565b80601f0160208091040260200160405190810160405280929190818152602001828054611c919061557c565b8015611cde5780601f10611cb357610100808354040283529160200191611cde565b820191906000526020600020905b815481529060010190602001808311611cc157829003601f168201915b50505050508152602001600a820160009054906101000a900473ffffffffffffffffffffffffffffffffffffffff1673ffffffffffffffffffffffffffffffffffffffff1673ffffffffffffffffffffffffffffffffffffffff16815250509050919050565b611d4c61414c565b611d5660006141ca565b565b60008060019054906101000a900460ff16159050808015611d895750600160008054906101000a900460ff1660ff16105b80611db65750611d9830614290565b158015611db55750600160008054906101000a900460ff1660ff16145b5b611df5576040517f08c379a0000000000000000000000000000000000000000000000000000000008152600401611dec90615733565b60405180910390fd5b60016000806101000a81548160ff021916908360ff1602179055508015611e32576001600060016101000a81548160ff0219169083151502179055505b611e3a6142b3565b60016065819055508015611e9b5760008060016101000a81548160ff0219169083151502179055507f7f26b83ff96e1f2b6a682f133852f6798a09c465da95921460cefb38474024986001604051611e9291906157a5565b60405180910390a15b50565b60676020528160005260406000208181548110611eba57600080fd5b906000526020600020016000915091509054906101000a900473ffffffffffffffffffffffffffffffffffffffff1681565b606060006001606554611eff91906157c0565b90506000808267ffffffffffffffff811115611f1e57611f1d6148e9565b5b604051908082528060200260200182016040528015611f5757816020015b611f44614440565b815260200190600190039081611f3c5790505b5090506000600190505b8381116124f6573373ffffffffffffffffffffffffffffffffffffffff16606e600083815260200190815260200160002060080160009054906101000a900473ffffffffffffffffffffffffffffffffffffffff1673ffffffffffffffffffffffffffffffffffffffff1614156124e3576000606e600083815260200190815260200160002090508060405180610160016040529081600082015481526020016001820180546120109061557c565b80601f016020809104026020016040519081016040528092919081815260200182805461203c9061557c565b80156120895780601f1061205e57610100808354040283529160200191612089565b820191906000526020600020905b81548152906001019060200180831161206c57829003601f168201915b505050505081526020016002820180546120a29061557c565b80601f01602080910402602001604051908101604052809291908181526020018280546120ce9061557c565b801561211b5780601f106120f05761010080835404028352916020019161211b565b820191906000526020600020905b8154815290600101906020018083116120fe57829003601f168201915b505050505081526020016003820180546121349061557c565b80601f01602080910402602001604051908101604052809291908181526020018280546121609061557c565b80156121ad5780601f10612182576101008083540402835291602001916121ad565b820191906000526020600020905b81548152906001019060200180831161219057829003601f168201915b505050505081526020016004820180546121c69061557c565b80601f01602080910402602001604051908101604052809291908181526020018280546121f29061557c565b801561223f5780601f106122145761010080835404028352916020019161223f565b820191906000526020600020905b81548152906001019060200180831161222257829003601f168201915b505050505081526020016005820180546122589061557c565b80601f01602080910402602001604051908101604052809291908181526020018280546122849061557c565b80156122d15780601f106122a6576101008083540402835291602001916122d1565b820191906000526020600020905b8154815290600101906020018083116122b457829003601f168201915b505050505081526020016006820180546122ea9061557c565b80601f01602080910402602001604051908101604052809291908181526020018280546123169061557c565b80156123635780601f1061233857610100808354040283529160200191612363565b820191906000526020600020905b81548152906001019060200180831161234657829003601f168201915b50505050508152602001600782015481526020016008820160009054906101000a900473ffffffffffffffffffffffffffffffffffffffff1673ffffffffffffffffffffffffffffffffffffffff1673ffffffffffffffffffffffffffffffffffffffff1681526020016009820180546123dc9061557c565b80601f01602080910402602001604051908101604052809291908181526020018280546124089061557c565b80156124555780601f1061242a57610100808354040283529160200191612455565b820191906000526020600020905b81548152906001019060200180831161243857829003601f168201915b50505050508152602001600a820160009054906101000a900473ffffffffffffffffffffffffffffffffffffffff1673ffffffffffffffffffffffffffffffffffffffff1673ffffffffffffffffffffffffffffffffffffffff16815250508385815181106124c7576124c6615692565b5b60200260200101819052506001846124df91906157f4565b9350505b80806124ee906155dd565b915050611f61565b5080935050505090565b6000603360009054906101000a900473ffffffffffffffffffffffffffffffffffffffff16905090565b60606000606b60003373ffffffffffffffffffffffffffffffffffffffff1673ffffffffffffffffffffffffffffffffffffffff16815260200190815260200160002060000154905060008060655467ffffffffffffffff811115612592576125916148e9565b5b6040519080825280602002602001820160405280156125cb57816020015b6125b8614440565b8152602001906001900390816125b05790505b50905060005b6125db6069614128565b811015612b5e5783606c82815481106125f7576125f6615692565b5b9060005260206000209060090201600101541415612b4b576000606c828154811061262557612624615692565b5b90600052602060002090600902016002015490506000606e600083815260200190815260200160002090508060405180610160016040529081600082015481526020016001820180546126779061557c565b80601f01602080910402602001604051908101604052809291908181526020018280546126a39061557c565b80156126f05780601f106126c5576101008083540402835291602001916126f0565b820191906000526020600020905b8154815290600101906020018083116126d357829003601f168201915b505050505081526020016002820180546127099061557c565b80601f01602080910402602001604051908101604052809291908181526020018280546127359061557c565b80156127825780601f1061275757610100808354040283529160200191612782565b820191906000526020600020905b81548152906001019060200180831161276557829003601f168201915b5050505050815260200160038201805461279b9061557c565b80601f01602080910402602001604051908101604052809291908181526020018280546127c79061557c565b80156128145780601f106127e957610100808354040283529160200191612814565b820191906000526020600020905b8154815290600101906020018083116127f757829003601f168201915b5050505050815260200160048201805461282d9061557c565b80601f01602080910402602001604051908101604052809291908181526020018280546128599061557c565b80156128a65780601f1061287b576101008083540402835291602001916128a6565b820191906000526020600020905b81548152906001019060200180831161288957829003601f168201915b505050505081526020016005820180546128bf9061557c565b80601f01602080910402602001604051908101604052809291908181526020018280546128eb9061557c565b80156129385780601f1061290d57610100808354040283529160200191612938565b820191906000526020600020905b81548152906001019060200180831161291b57829003601f168201915b505050505081526020016006820180546129519061557c565b80601f016020809104026020016040519081016040528092919081815260200182805461297d9061557c565b80156129ca5780601f1061299f576101008083540402835291602001916129ca565b820191906000526020600020905b8154815290600101906020018083116129ad57829003601f168201915b50505050508152602001600782015481526020016008820160009054906101000a900473ffffffffffffffffffffffffffffffffffffffff1673ffffffffffffffffffffffffffffffffffffffff1673ffffffffffffffffffffffffffffffffffffffff168152602001600982018054612a439061557c565b80601f0160208091040260200160405190810160405280929190818152602001828054612a6f9061557c565b8015612abc5780601f10612a9157610100808354040283529160200191612abc565b820191906000526020600020905b815481529060010190602001808311612a9f57829003601f168201915b50505050508152602001600a820160009054906101000a900473ffffffffffffffffffffffffffffffffffffffff1673ffffffffffffffffffffffffffffffffffffffff1673ffffffffffffffffffffffffffffffffffffffff1681525050848681518110612b2e57612b2d615692565b5b6020026020010181905250600185612b4691906157f4565b945050505b8080612b56906155dd565b9150506125d1565b5080935050505090565b60603373ffffffffffffffffffffffffffffffffffffffff16606e600084815260200190815260200160002060080160009054906101000a900473ffffffffffffffffffffffffffffffffffffffff1673ffffffffffffffffffffffffffffffffffffffff1614612c0e576040517f08c379a0000000000000000000000000000000000000000000000000000000008152600401612c0590615896565b60405180910390fd5b6000606e6000848152602001908152602001600020600701549050600080612c366069614128565b905060008367ffffffffffffffff811115612c5457612c536148e9565b5b604051908082528060200260200182016040528015612c8d57816020015b612c7a6144c6565b815260200190600190039081612c725790505b50905060005b828110156131045786606c8281548110612cb057612caf615692565b5b906000526020600020906009020160020154148015612d3c5750604051602001612cd99061590d565b60405160208183030381529060405280519060200120606c8281548110612d0357612d02615692565b5b9060005260206000209060090201600801604051602001612d2491906159b6565b60405160208183030381529060405280519060200120145b156130f1576000606c8281548110612d5757612d56615692565b5b906000526020600020906009020190508060405180610120016040529081600082015481526020016001820154815260200160028201548152602001600382018054612da29061557c565b80601f0160208091040260200160405190810160405280929190818152602001828054612dce9061557c565b8015612e1b5780601f10612df057610100808354040283529160200191612e1b565b820191906000526020600020905b815481529060010190602001808311612dfe57829003601f168201915b50505050508152602001600482018054612e349061557c565b80601f0160208091040260200160405190810160405280929190818152602001828054612e609061557c565b8015612ead5780601f10612e8257610100808354040283529160200191612ead565b820191906000526020600020905b815481529060010190602001808311612e9057829003601f168201915b50505050508152602001600582018054612ec69061557c565b80601f0160208091040260200160405190810160405280929190818152602001828054612ef29061557c565b8015612f3f5780601f10612f1457610100808354040283529160200191612f3f565b820191906000526020600020905b815481529060010190602001808311612f2257829003601f168201915b50505050508152602001600682018054612f589061557c565b80601f0160208091040260200160405190810160405280929190818152602001828054612f849061557c565b8015612fd15780601f10612fa657610100808354040283529160200191612fd1565b820191906000526020600020905b815481529060010190602001808311612fb457829003601f168201915b505050505081526020016007820160009054906101000a900473ffffffffffffffffffffffffffffffffffffffff1673ffffffffffffffffffffffffffffffffffffffff1673ffffffffffffffffffffffffffffffffffffffff1681526020016008820180546130409061557c565b80601f016020809104026020016040519081016040528092919081815260200182805461306c9061557c565b80156130b95780601f1061308e576101008083540402835291602001916130b9565b820191906000526020600020905b81548152906001019060200180831161309c57829003601f168201915b5050505050815250508386815181106130d5576130d4615692565b5b60200260200101819052506001856130ed91906157f4565b9450505b80806130fc906155dd565b915050612c93565b5080945050505050919050565b60606066805480602002602001604051908101604052809291908181526020016000905b8282101561362657838290600052602060002090600b020160405180610160016040529081600082015481526020016001820180546131739061557c565b80601f016020809104026020016040519081016040528092919081815260200182805461319f9061557c565b80156131ec5780601f106131c1576101008083540402835291602001916131ec565b820191906000526020600020905b8154815290600101906020018083116131cf57829003601f168201915b505050505081526020016002820180546132059061557c565b80601f01602080910402602001604051908101604052809291908181526020018280546132319061557c565b801561327e5780601f106132535761010080835404028352916020019161327e565b820191906000526020600020905b81548152906001019060200180831161326157829003601f168201915b505050505081526020016003820180546132979061557c565b80601f01602080910402602001604051908101604052809291908181526020018280546132c39061557c565b80156133105780601f106132e557610100808354040283529160200191613310565b820191906000526020600020905b8154815290600101906020018083116132f357829003601f168201915b505050505081526020016004820180546133299061557c565b80601f01602080910402602001604051908101604052809291908181526020018280546133559061557c565b80156133a25780601f10613377576101008083540402835291602001916133a2565b820191906000526020600020905b81548152906001019060200180831161338557829003601f168201915b505050505081526020016005820180546133bb9061557c565b80601f01602080910402602001604051908101604052809291908181526020018280546133e79061557c565b80156134345780601f1061340957610100808354040283529160200191613434565b820191906000526020600020905b81548152906001019060200180831161341757829003601f168201915b5050505050815260200160068201805461344d9061557c565b80601f01602080910402602001604051908101604052809291908181526020018280546134799061557c565b80156134c65780601f1061349b576101008083540402835291602001916134c6565b820191906000526020600020905b8154815290600101906020018083116134a957829003601f168201915b50505050508152602001600782015481526020016008820160009054906101000a900473ffffffffffffffffffffffffffffffffffffffff1673ffffffffffffffffffffffffffffffffffffffff1673ffffffffffffffffffffffffffffffffffffffff16815260200160098201805461353f9061557c565b80601f016020809104026020016040519081016040528092919081815260200182805461356b9061557c565b80156135b85780601f1061358d576101008083540402835291602001916135b8565b820191906000526020600020905b81548152906001019060200180831161359b57829003601f168201915b50505050508152602001600a820160009054906101000a900473ffffffffffffffffffffffffffffffffffffffff1673ffffffffffffffffffffffffffffffffffffffff1673ffffffffffffffffffffffffffffffffffffffff168152505081526020019060010190613135565b50505050905090565b60688060000154905081565b3373ffffffffffffffffffffffffffffffffffffffff16606e600084815260200190815260200160002060080160009054906101000a900473ffffffffffffffffffffffffffffffffffffffff1673ffffffffffffffffffffffffffffffffffffffff16146136df576040517f08c379a00000000000000000000000000000000000000000000000000000000081526004016136d690615a19565b60405180910390fd5b6040518060400160405280600881526020017f73656c6563746564000000000000000000000000000000000000000000000000815250606d60008373ffffffffffffffffffffffffffffffffffffffff1673ffffffffffffffffffffffffffffffffffffffff1681526020019081526020016000206000848152602001908152602001600020600801908051906020019061377b9291906143ba565b506040518060400160405280600681526020017f636c6f736564000000000000000000000000000000000000000000000000000081525060666001846137c191906157c0565b815481106137d2576137d1615692565b5b90600052602060002090600b020160090190805190602001906137f69291906143ba565b506040518060400160405280600681526020017f636c6f7365640000000000000000000000000000000000000000000000000000815250606e600084815260200190815260200160002060090190805190602001906138569291906143ba565b5080606660018461386791906157c0565b8154811061387857613877615692565b5b90600052602060002090600b0201600a0160006101000a81548173ffffffffffffffffffffffffffffffffffffffff021916908373ffffffffffffffffffffffffffffffffffffffff16021790555080606e6000848152602001908152602001600020600a0160006101000a81548173ffffffffffffffffffffffffffffffffffffffff021916908373ffffffffffffffffffffffffffffffffffffffff1602179055505050565b606d602052816000526040600020602052806000526040600020600091509150508060000154908060010154908060020154908060030180546139629061557c565b80601f016020809104026020016040519081016040528092919081815260200182805461398e9061557c565b80156139db5780601f106139b0576101008083540402835291602001916139db565b820191906000526020600020905b8154815290600101906020018083116139be57829003601f168201915b5050505050908060040180546139f09061557c565b80601f0160208091040260200160405190810160405280929190818152602001828054613a1c9061557c565b8015613a695780601f10613a3e57610100808354040283529160200191613a69565b820191906000526020600020905b815481529060010190602001808311613a4c57829003601f168201915b505050505090806005018054613a7e9061557c565b80601f0160208091040260200160405190810160405280929190818152602001828054613aaa9061557c565b8015613af75780601f10613acc57610100808354040283529160200191613af7565b820191906000526020600020905b815481529060010190602001808311613ada57829003601f168201915b505050505090806006018054613b0c9061557c565b80601f0160208091040260200160405190810160405280929190818152602001828054613b389061557c565b8015613b855780601f10613b5a57610100808354040283529160200191613b85565b820191906000526020600020905b815481529060010190602001808311613b6857829003601f168201915b5050505050908060070160009054906101000a900473ffffffffffffffffffffffffffffffffffffffff1690806008018054613bc09061557c565b80601f0160208091040260200160405190810160405280929190818152602001828054613bec9061557c565b8015613c395780601f10613c0e57610100808354040283529160200191613c39565b820191906000526020600020905b815481529060010190602001808311613c1c57829003601f168201915b5050505050905089565b6000604051806101600160405280606554815260200188815260200187815260200186815260200185815260200184815260200183815260200160008152602001613c8c61430c565b73ffffffffffffffffffffffffffffffffffffffff1681526020016040518060400160405280600481526020017f6f70656e000000000000000000000000000000000000000000000000000000008152508152602001600073ffffffffffffffffffffffffffffffffffffffff16815250905060668190806001815401808255809150506001900390600052602060002090600b0201600090919091909150600082015181600001556020820151816001019080519060200190613d519291906143ba565b506040820151816002019080519060200190613d6e9291906143ba565b506060820151816003019080519060200190613d8b9291906143ba565b506080820151816004019080519060200190613da89291906143ba565b5060a0820151816005019080519060200190613dc59291906143ba565b5060c0820151816006019080519060200190613de29291906143ba565b5060e082015181600701556101008201518160080160006101000a81548173ffffffffffffffffffffffffffffffffffffffff021916908373ffffffffffffffffffffffffffffffffffffffff160217905550610120820151816009019080519060200190613e529291906143ba565b5061014082015181600a0160006101000a81548173ffffffffffffffffffffffffffffffffffffffff021916908373ffffffffffffffffffffffffffffffffffffffff160217905550505080606e60006065548152602001908152602001600020600082015181600001556020820151816001019080519060200190613ed99291906143ba565b506040820151816002019080519060200190613ef69291906143ba565b506060820151816003019080519060200190613f139291906143ba565b506080820151816004019080519060200190613f309291906143ba565b5060a0820151816005019080519060200190613f4d9291906143ba565b5060c0820151816006019080519060200190613f6a9291906143ba565b5060e082015181600701556101008201518160080160006101000a81548173ffffffffffffffffffffffffffffffffffffffff021916908373ffffffffffffffffffffffffffffffffffffffff160217905550610120820151816009019080519060200190613fda9291906143ba565b5061014082015181600a0160006101000a81548173ffffffffffffffffffffffffffffffffffffffff021916908373ffffffffffffffffffffffffffffffffffffffff16021790555090505060656000815480929190614039906155dd565b919050555050505050505050565b61404f61414c565b600073ffffffffffffffffffffffffffffffffffffffff168173ffffffffffffffffffffffffffffffffffffffff1614156140bf576040517f08c379a00000000000000000000000000000000000000000000000000000000081526004016140b690615aab565b60405180910390fd5b6140c8816141ca565b50565b600080606b60003373ffffffffffffffffffffffffffffffffffffffff1673ffffffffffffffffffffffffffffffffffffffff1681526020019081526020016000206000015414156141205760009050614125565b600190505b90565b600081600001549050919050565b6001816000016000828254019250508190555050565b61415461430c565b73ffffffffffffffffffffffffffffffffffffffff16614172612500565b73ffffffffffffffffffffffffffffffffffffffff16146141c8576040517f08c379a00000000000000000000000000000000000000000000000000000000081526004016141bf90615b17565b60405180910390fd5b565b6000603360009054906101000a900473ffffffffffffffffffffffffffffffffffffffff16905081603360006101000a81548173ffffffffffffffffffffffffffffffffffffffff021916908373ffffffffffffffffffffffffffffffffffffffff1602179055508173ffffffffffffffffffffffffffffffffffffffff168173ffffffffffffffffffffffffffffffffffffffff167f8be0079c531659141344cd1fd0a4f28419497f9722a3daafe3b4186f6b6457e060405160405180910390a35050565b6000808273ffffffffffffffffffffffffffffffffffffffff163b119050919050565b600060019054906101000a900460ff16614302576040517f08c379a00000000000000000000000000000000000000000000000000000000081526004016142f990615ba9565b60405180910390fd5b61430a614314565b565b600033905090565b600060019054906101000a900460ff16614363576040517f08c379a000000000000000000000000000000000000000000000000000000000815260040161435a90615ba9565b60405180910390fd5b61437361436e61430c565b6141ca565b565b6040518060a0016040528060008152602001606081526020016060815260200160608152602001600073ffffffffffffffffffffffffffffffffffffffff1681525090565b8280546143c69061557c565b90600052602060002090601f0160209004810192826143e8576000855561442f565b82601f1061440157805160ff191683800117855561442f565b8280016001018555821561442f579182015b8281111561442e578251825591602001919060010190614413565b5b50905061443c9190614528565b5090565b6040518061016001604052806000815260200160608152602001606081526020016060815260200160608152602001606081526020016060815260200160008152602001600073ffffffffffffffffffffffffffffffffffffffff16815260200160608152602001600073ffffffffffffffffffffffffffffffffffffffff1681525090565b60405180610120016040528060008152602001600081526020016000815260200160608152602001606081526020016060815260200160608152602001600073ffffffffffffffffffffffffffffffffffffffff168152602001606081525090565b5b80821115614541576000816000905550600101614529565b5090565b6000604051905090565b600080fd5b600080fd5b600073ffffffffffffffffffffffffffffffffffffffff82169050919050565b600061458482614559565b9050919050565b61459481614579565b811461459f57600080fd5b50565b6000813590506145b18161458b565b92915050565b6000602082840312156145cd576145cc61454f565b5b60006145db848285016145a2565b91505092915050565b6000819050919050565b6145f7816145e4565b82525050565b600081519050919050565b600082825260208201905092915050565b60005b8381101561463757808201518184015260208101905061461c565b83811115614646576000848401525b50505050565b6000601f19601f8301169050919050565b6000614668826145fd565b6146728185614608565b9350614682818560208601614619565b61468b8161464c565b840191505092915050565b61469f81614579565b82525050565b600060a0830160008301516146bd60008601826145ee565b50602083015184820360208601526146d5828261465d565b915050604083015184820360408601526146ef828261465d565b91505060608301518482036060860152614709828261465d565b915050608083015161471e6080860182614696565b508091505092915050565b6000602082019050818103600083015261474381846146a5565b905092915050565b600081519050919050565b600082825260208201905092915050565b6000819050602082019050919050565b600060a08301600083015161478f60008601826145ee565b50602083015184820360208601526147a7828261465d565b915050604083015184820360408601526147c1828261465d565b915050606083015184820360608601526147db828261465d565b91505060808301516147f06080860182614696565b508091505092915050565b60006148078383614777565b905092915050565b6000602082019050919050565b60006148278261474b565b6148318185614756565b93508360208202850161484385614767565b8060005b8581101561487f578484038952815161486085826147fb565b945061486b8361480f565b925060208a01995050600181019050614847565b50829750879550505050505092915050565b600060208201905081810360008301526148ab818461481c565b905092915050565b6148bc816145e4565b81146148c757600080fd5b50565b6000813590506148d9816148b3565b92915050565b600080fd5b600080fd5b7f4e487b7100000000000000000000000000000000000000000000000000000000600052604160045260246000fd5b6149218261464c565b810181811067ffffffffffffffff821117156149405761493f6148e9565b5b80604052505050565b6000614953614545565b905061495f8282614918565b919050565b600067ffffffffffffffff82111561497f5761497e6148e9565b5b6149888261464c565b9050602081019050919050565b82818337600083830152505050565b60006149b76149b284614964565b614949565b9050828152602081018484840111156149d3576149d26148e4565b5b6149de848285614995565b509392505050565b600082601f8301126149fb576149fa6148df565b5b8135614a0b8482602086016149a4565b91505092915050565b600080600080600060a08688031215614a3057614a2f61454f565b5b6000614a3e888289016148ca565b955050602086013567ffffffffffffffff811115614a5f57614a5e614554565b5b614a6b888289016149e6565b945050604086013567ffffffffffffffff811115614a8c57614a8b614554565b5b614a98888289016149e6565b935050606086013567ffffffffffffffff811115614ab957614ab8614554565b5b614ac5888289016149e6565b925050608086013567ffffffffffffffff811115614ae657614ae5614554565b5b614af2888289016149e6565b9150509295509295909350565b614b08816145e4565b82525050565b6000602082019050614b236000830184614aff565b92915050565b600060208284031215614b3f57614b3e61454f565b5b6000614b4d848285016148ca565b91505092915050565b600082825260208201905092915050565b6000614b72826145fd565b614b7c8185614b56565b9350614b8c818560208601614619565b614b958161464c565b840191505092915050565b614ba981614579565b82525050565b600061016082019050614bc5600083018e614aff565b8181036020830152614bd7818d614b67565b90508181036040830152614beb818c614b67565b90508181036060830152614bff818b614b67565b90508181036080830152614c13818a614b67565b905081810360a0830152614c278189614b67565b905081810360c0830152614c3b8188614b67565b9050614c4a60e0830187614aff565b614c58610100830186614ba0565b818103610120830152614c6b8185614b67565b9050614c7b610140830184614ba0565b9c9b505050505050505050505050565b600080600060608486031215614ca457614ca361454f565b5b600084013567ffffffffffffffff811115614cc257614cc1614554565b5b614cce868287016149e6565b935050602084013567ffffffffffffffff811115614cef57614cee614554565b5b614cfb868287016149e6565b925050604084013567ffffffffffffffff811115614d1c57614d1b614554565b5b614d28868287016149e6565b9150509250925092565b600060a082019050614d476000830188614aff565b8181036020830152614d598187614b67565b90508181036040830152614d6d8186614b67565b90508181036060830152614d818185614b67565b9050614d906080830184614ba0565b9695505050505050565b600061016083016000830151614db360008601826145ee565b5060208301518482036020860152614dcb828261465d565b91505060408301518482036040860152614de5828261465d565b91505060608301518482036060860152614dff828261465d565b91505060808301518482036080860152614e19828261465d565b91505060a083015184820360a0860152614e33828261465d565b91505060c083015184820360c0860152614e4d828261465d565b91505060e0830151614e6260e08601826145ee565b50610100830151614e77610100860182614696565b50610120830151848203610120860152614e91828261465d565b915050610140830151614ea8610140860182614696565b508091505092915050565b60006020820190508181036000830152614ecd8184614d9a565b905092915050565b60008060408385031215614eec57614eeb61454f565b5b6000614efa858286016145a2565b9250506020614f0b858286016148ca565b9150509250929050565b6000602082019050614f2a6000830184614ba0565b92915050565b600081519050919050565b600082825260208201905092915050565b6000819050602082019050919050565b600061016083016000830151614f7560008601826145ee565b5060208301518482036020860152614f8d828261465d565b91505060408301518482036040860152614fa7828261465d565b91505060608301518482036060860152614fc1828261465d565b91505060808301518482036080860152614fdb828261465d565b91505060a083015184820360a0860152614ff5828261465d565b91505060c083015184820360c086015261500f828261465d565b91505060e083015161502460e08601826145ee565b50610100830151615039610100860182614696565b50610120830151848203610120860152615053828261465d565b91505061014083015161506a610140860182614696565b508091505092915050565b60006150818383614f5c565b905092915050565b6000602082019050919050565b60006150a182614f30565b6150ab8185614f3b565b9350836020820285016150bd85614f4c565b8060005b858110156150f957848403895281516150da8582615075565b94506150e583615089565b925060208a019950506001810190506150c1565b50829750879550505050505092915050565b600060208201905081810360008301526151258184615096565b905092915050565b600081519050919050565b600082825260208201905092915050565b6000819050602082019050919050565b60006101208301600083015161517260008601826145ee565b50602083015161518560208601826145ee565b50604083015161519860408601826145ee565b50606083015184820360608601526151b0828261465d565b915050608083015184820360808601526151ca828261465d565b91505060a083015184820360a08601526151e4828261465d565b91505060c083015184820360c08601526151fe828261465d565b91505060e083015161521360e0860182614696565b5061010083015184820361010086015261522d828261465d565b9150508091505092915050565b60006152468383615159565b905092915050565b6000602082019050919050565b60006152668261512d565b6152708185615138565b93508360208202850161528285615149565b8060005b858110156152be578484038952815161529f858261523a565b94506152aa8361524e565b925060208a01995050600181019050615286565b50829750879550505050505092915050565b600060208201905081810360008301526152ea818461525b565b905092915050565b600080604083850312156153095761530861454f565b5b6000615317858286016148ca565b9250506020615328858286016145a2565b9150509250929050565b600061012082019050615348600083018c614aff565b615355602083018b614aff565b615362604083018a614aff565b81810360608301526153748189614b67565b905081810360808301526153888188614b67565b905081810360a083015261539c8187614b67565b905081810360c08301526153b08186614b67565b90506153bf60e0830185614ba0565b8181036101008301526153d28184614b67565b90509a9950505050505050505050565b60008060008060008060c087890312156153ff576153fe61454f565b5b600087013567ffffffffffffffff81111561541d5761541c614554565b5b61542989828a016149e6565b965050602087013567ffffffffffffffff81111561544a57615449614554565b5b61545689828a016149e6565b955050604087013567ffffffffffffffff81111561547757615476614554565b5b61548389828a016149e6565b945050606087013567ffffffffffffffff8111156154a4576154a3614554565b5b6154b089828a016149e6565b935050608087013567ffffffffffffffff8111156154d1576154d0614554565b5b6154dd89828a016149e6565b92505060a087013567ffffffffffffffff8111156154fe576154fd614554565b5b61550a89828a016149e6565b9150509295509295509295565b60008115159050919050565b61552c81615517565b82525050565b60006020820190506155476000830184615523565b92915050565b7f4e487b7100000000000000000000000000000000000000000000000000000000600052602260045260246000fd5b6000600282049050600182168061559457607f821691505b602082108114156155a8576155a761554d565b5b50919050565b7f4e487b7100000000000000000000000000000000000000000000000000000000600052601160045260246000fd5b60006155e8826145e4565b91507fffffffffffffffffffffffffffffffffffffffffffffffffffffffffffffffff82141561561b5761561a6155ae565b5b600182019050919050565b7f596f752061726520616c726561647920726567697374657265642e0000000000600082015250565b600061565c601b83614b56565b915061566782615626565b602082019050919050565b6000602082019050818103600083015261568b8161564f565b9050919050565b7f4e487b7100000000000000000000000000000000000000000000000000000000600052603260045260246000fd5b7f496e697469616c697a61626c653a20636f6e747261637420697320616c72656160008201527f647920696e697469616c697a6564000000000000000000000000000000000000602082015250565b600061571d602e83614b56565b9150615728826156c1565b604082019050919050565b6000602082019050818103600083015261574c81615710565b9050919050565b6000819050919050565b600060ff82169050919050565b6000819050919050565b600061578f61578a61578584615753565b61576a565b61575d565b9050919050565b61579f81615774565b82525050565b60006020820190506157ba6000830184615796565b92915050565b60006157cb826145e4565b91506157d6836145e4565b9250828210156157e9576157e86155ae565b5b828203905092915050565b60006157ff826145e4565b915061580a836145e4565b9250827fffffffffffffffffffffffffffffffffffffffffffffffffffffffffffffffff0382111561583f5761583e6155ae565b5b828201905092915050565b7f4163636573732044656e6965642021214f776e65722069732000000000000000600082015250565b6000615880601983614b56565b915061588b8261584a565b602082019050919050565b600060208201905081810360008301526158af81615873565b9050919050565b600081905092915050565b7f6170706c69656400000000000000000000000000000000000000000000000000600082015250565b60006158f76007836158b6565b9150615902826158c1565b600782019050919050565b6000615918826158ea565b9150819050919050565b60008190508160005260206000209050919050565b600081546159448161557c565b61594e81866158b6565b94506001821660008114615969576001811461597a576159ad565b60ff198316865281860193506159ad565b61598385615922565b60005b838110156159a557815481890152600182019150602081019050615986565b838801955050505b50505092915050565b60006159c28284615937565b915081905092915050565b7f4163636573732044656e69656420212100000000000000000000000000000000600082015250565b6000615a03601083614b56565b9150615a0e826159cd565b602082019050919050565b60006020820190508181036000830152615a32816159f6565b9050919050565b7f4f776e61626c653a206e6577206f776e657220697320746865207a65726f206160008201527f6464726573730000000000000000000000000000000000000000000000000000602082015250565b6000615a95602683614b56565b9150615aa082615a39565b604082019050919050565b60006020820190508181036000830152615ac481615a88565b9050919050565b7f4f776e61626c653a2063616c6c6572206973206e6f7420746865206f776e6572600082015250565b6000615b01602083614b56565b9150615b0c82615acb565b602082019050919050565b60006020820190508181036000830152615b3081615af4565b9050919050565b7f496e697469616c697a61626c653a20636f6e7472616374206973206e6f74206960008201527f6e697469616c697a696e67000000000000000000000000000000000000000000602082015250565b6000615b93602b83614b56565b9150615b9e82615b37565b604082019050919050565b60006020820190508181036000830152615bc281615b86565b905091905056fea2646970667358221220d8b07c103dde679e4af2bfbb591239804278ef3d8b714e3f5124f6956b1d432664736f6c634300080b0033",
  "linkReferences": {},
  "deployedLinkReferences": {}
}