{
  "_format": "hh-sol-artifact-1",
  "contractName": "JobContract",
  "sourceName": "contracts/JobContract.sol",
  "abi": [
    {
      "anonymous": false,
      "inputs": [
        {
          "indexed": false,
          "internalType": "uint8",
          "name": "version",
          "type": "uint8"
        }
      ],
      "name": "Initialized",
      "type": "event"
    },
    {
      "anonymous": false,
      "inputs": [
        {
          "indexed": true,
          "internalType": "address",
          "name": "previousOwner",
          "type": "address"
        },
        {
          "indexed": true,
          "internalType": "address",
          "name": "newOwner",
          "type": "address"
        }
      ],
      "name": "OwnershipTransferred",
      "type": "event"
    },
    {
      "inputs": [],
      "name": "_candJobID",
      "outputs": [
        {
          "internalType": "uint256",
          "name": "_value",
          "type": "uint256"
        }
      ],
      "stateMutability": "view",
      "type": "function"
    },
    {
      "inputs": [
        {
          "internalType": "string",
          "name": "_companyName",
          "type": "string"
        },
        {
          "internalType": "string",
          "name": "_position",
          "type": "string"
        },
        {
          "internalType": "string",
          "name": "_description",
          "type": "string"
        },
        {
          "internalType": "string",
          "name": "_experience",
          "type": "string"
        },
        {
          "internalType": "string",
          "name": "_location",
          "type": "string"
        },
        {
          "internalType": "string",
          "name": "_salary",
          "type": "string"
        }
      ],
      "name": "addJob",
      "outputs": [],
      "stateMutability": "nonpayable",
      "type": "function"
    },
    {
      "inputs": [],
      "name": "allJobs",
      "outputs": [
        {
          "components": [
            {
              "internalType": "uint256",
              "name": "jobId",
              "type": "uint256"
            },
            {
              "internalType": "string",
              "name": "companyName",
              "type": "string"
            },
            {
              "internalType": "string",
              "name": "position",
              "type": "string"
            },
            {
              "internalType": "string",
              "name": "description",
              "type": "string"
            },
            {
              "internalType": "string",
              "name": "experience",
              "type": "string"
            },
            {
              "internalType": "string",
              "name": "location",
              "type": "string"
            },
            {
              "internalType": "string",
              "name": "salary",
              "type": "string"
            },
            {
              "internalType": "uint256",
              "name": "applicationCount",
              "type": "uint256"
            },
            {
              "internalType": "address",
              "name": "employer",
              "type": "address"
            },
            {
              "internalType": "string",
              "name": "status",
              "type": "string"
            },
            {
              "internalType": "address",
              "name": "employee",
              "type": "address"
            }
          ],
          "internalType": "struct JobContract.Job[]",
          "name": "",
          "type": "tuple[]"
        }
      ],
      "stateMutability": "view",
      "type": "function"
    },
    {
      "inputs": [
        {
          "internalType": "uint256",
          "name": "jobId",
          "type": "uint256"
        },
        {
          "internalType": "string",
          "name": "_experience",
          "type": "string"
        },
        {
          "internalType": "uint256",
          "name": "_fee",
          "type": "uint256"
        },
        {
          "internalType": "uint256",
          "name": "_estimatedCompletionTime",
          "type": "uint256"
        },
        {
          "internalType": "string",
          "name": "_location",
          "type": "string"
        },
        {
          "internalType": "string",
          "name": "_cv",
          "type": "string"
        }
      ],
      "name": "applyForJob",
      "outputs": [],
      "stateMutability": "nonpayable",
      "type": "function"
    },
    {
      "inputs": [],
      "name": "checkRegistration",
      "outputs": [
        {
          "internalType": "bool",
          "name": "",
          "type": "bool"
        }
      ],
      "stateMutability": "view",
      "type": "function"
    },
    {
      "inputs": [],
      "name": "getAllProfile",
      "outputs": [
        {
          "components": [
            {
              "internalType": "uint256",
              "name": "registrationID",
              "type": "uint256"
            },
            {
              "internalType": "string",
              "name": "name",
              "type": "string"
            },
            {
              "internalType": "string",
              "name": "typeOfAccount",
              "type": "string"
            },
            {
              "internalType": "string",
              "name": "myAddress",
              "type": "string"
            },
            {
              "internalType": "address",
              "name": "user",
              "type": "address"
            }
          ],
          "internalType": "struct JobContract.Register[]",
          "name": "",
          "type": "tuple[]"
        }
      ],
      "stateMutability": "view",
      "type": "function"
    },
    {
      "inputs": [
        {
          "internalType": "uint256",
          "name": "_jobid",
          "type": "uint256"
        }
      ],
      "name": "getJobById",
      "outputs": [
        {
          "components": [
            {
              "internalType": "uint256",
              "name": "jobId",
              "type": "uint256"
            },
            {
              "internalType": "string",
              "name": "companyName",
              "type": "string"
            },
            {
              "internalType": "string",
              "name": "position",
              "type": "string"
            },
            {
              "internalType": "string",
              "name": "description",
              "type": "string"
            },
            {
              "internalType": "string",
              "name": "experience",
              "type": "string"
            },
            {
              "internalType": "string",
              "name": "location",
              "type": "string"
            },
            {
              "internalType": "string",
              "name": "salary",
              "type": "string"
            },
            {
              "internalType": "uint256",
              "name": "applicationCount",
              "type": "uint256"
            },
            {
              "internalType": "address",
              "name": "employer",
              "type": "address"
            },
            {
              "internalType": "string",
              "name": "status",
              "type": "string"
            },
            {
              "internalType": "address",
              "name": "employee",
              "type": "address"
            }
          ],
          "internalType": "struct JobContract.Job",
          "name": "",
          "type": "tuple"
        }
      ],
      "stateMutability": "view",
      "type": "function"
    },
    {
      "inputs": [
        {
          "internalType": "uint256",
          "name": "_jobId",
          "type": "uint256"
        }
      ],
      "name": "getMyCandidates",
      "outputs": [
        {
          "components": [
            {
              "internalType": "address",
              "name": "freelancer",
              "type": "address"
            },
            {
              "internalType": "string",
              "name": "name",
              "type": "string"
            },
            {
              "internalType": "uint256",
              "name": "jobId",
              "type": "uint256"
            },
            {
              "internalType": "string",
              "name": "location",
              "type": "string"
            },
            {
              "internalType": "string",
              "name": "cv",
              "type": "string"
            },
            {
              "internalType": "uint256",
              "name": "fee",
              "type": "uint256"
            },
            {
              "internalType": "uint256",
              "name": "estimatedCompletionTime",
              "type": "uint256"
            },
            {
              "internalType": "string",
              "name": "experience",
              "type": "string"
            }
          ],
          "internalType": "struct JobContract.Bid[]",
          "name": "",
          "type": "tuple[]"
        }
      ],
      "stateMutability": "view",
      "type": "function"
    },
    {
      "inputs": [],
      "name": "getMyPostedJobs",
      "outputs": [
        {
          "components": [
            {
              "internalType": "uint256",
              "name": "jobId",
              "type": "uint256"
            },
            {
              "internalType": "string",
              "name": "companyName",
              "type": "string"
            },
            {
              "internalType": "string",
              "name": "position",
              "type": "string"
            },
            {
              "internalType": "string",
              "name": "description",
              "type": "string"
            },
            {
              "internalType": "string",
              "name": "experience",
              "type": "string"
            },
            {
              "internalType": "string",
              "name": "location",
              "type": "string"
            },
            {
              "internalType": "string",
              "name": "salary",
              "type": "string"
            },
            {
              "internalType": "uint256",
              "name": "applicationCount",
              "type": "uint256"
            },
            {
              "internalType": "address",
              "name": "employer",
              "type": "address"
            },
            {
              "internalType": "string",
              "name": "status",
              "type": "string"
            },
            {
              "internalType": "address",
              "name": "employee",
              "type": "address"
            }
          ],
          "internalType": "struct JobContract.Job[]",
          "name": "",
          "type": "tuple[]"
        }
      ],
      "stateMutability": "view",
      "type": "function"
    },
    {
      "inputs": [],
      "name": "getMyProfile",
      "outputs": [
        {
          "components": [
            {
              "internalType": "uint256",
              "name": "registrationID",
              "type": "uint256"
            },
            {
              "internalType": "string",
              "name": "name",
              "type": "string"
            },
            {
              "internalType": "string",
              "name": "typeOfAccount",
              "type": "string"
            },
            {
              "internalType": "string",
              "name": "myAddress",
              "type": "string"
            },
            {
              "internalType": "address",
              "name": "user",
              "type": "address"
            }
          ],
          "internalType": "struct JobContract.Register",
          "name": "",
          "type": "tuple"
        }
      ],
      "stateMutability": "view",
      "type": "function"
    },
    {
      "inputs": [
        {
          "internalType": "address",
          "name": "user",
          "type": "address"
        }
      ],
      "name": "getProfile",
      "outputs": [
        {
          "components": [
            {
              "internalType": "uint256",
              "name": "registrationID",
              "type": "uint256"
            },
            {
              "internalType": "string",
              "name": "name",
              "type": "string"
            },
            {
              "internalType": "string",
              "name": "typeOfAccount",
              "type": "string"
            },
            {
              "internalType": "string",
              "name": "myAddress",
              "type": "string"
            },
            {
              "internalType": "address",
              "name": "user",
              "type": "address"
            }
          ],
          "internalType": "struct JobContract.Register",
          "name": "",
          "type": "tuple"
        }
      ],
      "stateMutability": "view",
      "type": "function"
    },
    {
      "inputs": [],
      "name": "initialize",
      "outputs": [],
      "stateMutability": "nonpayable",
      "type": "function"
    },
    {
      "inputs": [],
      "name": "myAppliedJobs",
      "outputs": [
        {
          "components": [
            {
              "internalType": "uint256",
              "name": "jobId",
              "type": "uint256"
            },
            {
              "internalType": "string",
              "name": "companyName",
              "type": "string"
            },
            {
              "internalType": "string",
              "name": "position",
              "type": "string"
            },
            {
              "internalType": "string",
              "name": "description",
              "type": "string"
            },
            {
              "internalType": "string",
              "name": "experience",
              "type": "string"
            },
            {
              "internalType": "string",
              "name": "location",
              "type": "string"
            },
            {
              "internalType": "string",
              "name": "salary",
              "type": "string"
            },
            {
              "internalType": "uint256",
              "name": "applicationCount",
              "type": "uint256"
            },
            {
              "internalType": "address",
              "name": "employer",
              "type": "address"
            },
            {
              "internalType": "string",
              "name": "status",
              "type": "string"
            },
            {
              "internalType": "address",
              "name": "employee",
              "type": "address"
            }
          ],
          "internalType": "struct JobContract.Job[]",
          "name": "",
          "type": "tuple[]"
        }
      ],
      "stateMutability": "view",
      "type": "function"
    },
    {
      "inputs": [],
      "name": "owner",
      "outputs": [
        {
          "internalType": "address",
          "name": "",
          "type": "address"
        }
      ],
      "stateMutability": "view",
      "type": "function"
    },
    {
      "inputs": [
        {
          "internalType": "string",
          "name": "_name",
          "type": "string"
        },
        {
          "internalType": "string",
          "name": "_typeOfAccount",
          "type": "string"
        },
        {
          "internalType": "string",
          "name": "_myAddress",
          "type": "string"
        }
      ],
      "name": "registerProfiles",
      "outputs": [],
      "stateMutability": "nonpayable",
      "type": "function"
    },
    {
      "inputs": [],
      "name": "renounceOwnership",
      "outputs": [],
      "stateMutability": "nonpayable",
      "type": "function"
    },
    {
      "inputs": [
        {
          "internalType": "uint256",
          "name": "_jobId",
          "type": "uint256"
        },
        {
          "internalType": "address",
          "name": "_candAddress",
          "type": "address"
        }
      ],
      "name": "selectCandidate",
      "outputs": [],
      "stateMutability": "nonpayable",
      "type": "function"
    },
    {
      "inputs": [
        {
          "internalType": "address",
          "name": "newOwner",
          "type": "address"
        }
      ],
      "name": "transferOwnership",
      "outputs": [],
      "stateMutability": "nonpayable",
      "type": "function"
    }
  ],
  "bytecode": "0x608060405234801561001057600080fd5b50614c96806100206000396000f3fe608060405234801561001057600080fd5b50600436106101165760003560e01c80638b62b97a116100a2578063c8d1b6aa11610071578063c8d1b6aa146102ab578063d968d7c2146102c9578063e38b00bc146102e5578063f2fde38b14610301578063fd1b21001461031d57610116565b80638b62b97a146102215780638da5cb5b1461023f578063a487ae7b1461025d578063b61f87b01461027b57610116565b8063430264fc116100e9578063430264fc146101a3578063643905e3146101c157806369d7428f146101dd578063715018a61461020d5780638129fc1c1461021757610116565b80630f53a4701461011b57806321527e501461014b5780633901d42d1461016957806340b495ff14610187575b600080fd5b6101356004803603810190610130919061398c565b61033b565b6040516101429190613afe565b60405180910390f35b6101536105aa565b6040516101609190613afe565b60405180910390f35b610171610817565b60405161017e9190613c66565b60405180910390f35b6101a1600480360381019061019c9190613de9565b610a8c565b005b6101ab610e9e565b6040516101b89190613ed9565b60405180910390f35b6101db60048036038101906101d69190613ef4565b610eaa565b005b6101f760048036038101906101f29190613f9b565b61110d565b60405161020491906140e1565b60405180910390f35b610215611608565b005b61021f61161c565b005b610229611762565b60405161023691906142de565b60405180910390f35b610247611d76565b604051610254919061430f565b60405180910390f35b610265611da0565b60405161027291906142de565b60405180910390f35b61029560048036038101906102909190613f9b565b6123e4565b6040516102a291906144b1565b60405180910390f35b6102b3612872565b6040516102c091906142de565b60405180910390f35b6102e360048036038101906102de91906144d3565b612d90565b005b6102ff60048036038101906102fa9190614513565b612fd8565b005b61031b6004803603810190610316919061398c565b613423565b005b6103256134a7565b6040516103329190614663565b60405180910390f35b610343613751565b606b60008373ffffffffffffffffffffffffffffffffffffffff1673ffffffffffffffffffffffffffffffffffffffff1681526020019081526020016000206040518060a0016040529081600082015481526020016001820180546103a7906146ad565b80601f01602080910402602001604051908101604052809291908181526020018280546103d3906146ad565b80156104205780601f106103f557610100808354040283529160200191610420565b820191906000526020600020905b81548152906001019060200180831161040357829003601f168201915b50505050508152602001600282018054610439906146ad565b80601f0160208091040260200160405190810160405280929190818152602001828054610465906146ad565b80156104b25780601f10610487576101008083540402835291602001916104b2565b820191906000526020600020905b81548152906001019060200180831161049557829003601f168201915b505050505081526020016003820180546104cb906146ad565b80601f01602080910402602001604051908101604052809291908181526020018280546104f7906146ad565b80156105445780601f1061051957610100808354040283529160200191610544565b820191906000526020600020905b81548152906001019060200180831161052757829003601f168201915b505050505081526020016004820160009054906101000a900473ffffffffffffffffffffffffffffffffffffffff1673ffffffffffffffffffffffffffffffffffffffff1673ffffffffffffffffffffffffffffffffffffffff16815250509050919050565b6105b2613751565b606b60003373ffffffffffffffffffffffffffffffffffffffff1673ffffffffffffffffffffffffffffffffffffffff1681526020019081526020016000206040518060a001604052908160008201548152602001600182018054610616906146ad565b80601f0160208091040260200160405190810160405280929190818152602001828054610642906146ad565b801561068f5780601f106106645761010080835404028352916020019161068f565b820191906000526020600020905b81548152906001019060200180831161067257829003601f168201915b505050505081526020016002820180546106a8906146ad565b80601f01602080910402602001604051908101604052809291908181526020018280546106d4906146ad565b80156107215780601f106106f657610100808354040283529160200191610721565b820191906000526020600020905b81548152906001019060200180831161070457829003601f168201915b5050505050815260200160038201805461073a906146ad565b80601f0160208091040260200160405190810160405280929190818152602001828054610766906146ad565b80156107b35780601f10610788576101008083540402835291602001916107b3565b820191906000526020600020905b81548152906001019060200180831161079657829003601f168201915b505050505081526020016004820160009054906101000a900473ffffffffffffffffffffffffffffffffffffffff1673ffffffffffffffffffffffffffffffffffffffff1673ffffffffffffffffffffffffffffffffffffffff1681525050905090565b6060606a805480602002602001604051908101604052809291908181526020016000905b82821015610a8357838290600052602060002090600502016040518060a001604052908160008201548152602001600182018054610878906146ad565b80601f01602080910402602001604051908101604052809291908181526020018280546108a4906146ad565b80156108f15780601f106108c6576101008083540402835291602001916108f1565b820191906000526020600020905b8154815290600101906020018083116108d457829003601f168201915b5050505050815260200160028201805461090a906146ad565b80601f0160208091040260200160405190810160405280929190818152602001828054610936906146ad565b80156109835780601f1061095857610100808354040283529160200191610983565b820191906000526020600020905b81548152906001019060200180831161096657829003601f168201915b5050505050815260200160038201805461099c906146ad565b80601f01602080910402602001604051908101604052809291908181526020018280546109c8906146ad565b8015610a155780601f106109ea57610100808354040283529160200191610a15565b820191906000526020600020905b8154815290600101906020018083116109f857829003601f168201915b505050505081526020016004820160009054906101000a900473ffffffffffffffffffffffffffffffffffffffff1673ffffffffffffffffffffffffffffffffffffffff1673ffffffffffffffffffffffffffffffffffffffff16815250508152602001906001019061083b565b50505050905090565b610a946134a7565b610ad3576040517f08c379a0000000000000000000000000000000000000000000000000000000008152600401610aca9061473c565b60405180910390fd5b6000606b60003373ffffffffffffffffffffffffffffffffffffffff1673ffffffffffffffffffffffffffffffffffffffff1681526020019081526020016000206001018054610b22906146ad565b80601f0160208091040260200160405190810160405280929190818152602001828054610b4e906146ad565b8015610b9b5780601f10610b7057610100808354040283529160200191610b9b565b820191906000526020600020905b815481529060010190602001808311610b7e57829003601f168201915b5050505050905060006040518061010001604052803373ffffffffffffffffffffffffffffffffffffffff168152602001838152602001606e60008b8152602001908152602001600020600001548152602001858152602001848152602001878152602001868152602001888152509050606f60003373ffffffffffffffffffffffffffffffffffffffff1673ffffffffffffffffffffffffffffffffffffffff16815260200190815260200160002081908060018154018082558091505060019003906000526020600020906008020160009091909190915060008201518160000160006101000a81548173ffffffffffffffffffffffffffffffffffffffff021916908373ffffffffffffffffffffffffffffffffffffffff1602179055506020820151816001019080519060200190610cd8929190613796565b50604082015181600201556060820151816003019080519060200190610cff929190613796565b506080820151816004019080519060200190610d1c929190613796565b5060a0820151816005015560c0820151816006015560e0820151816007019080519060200190610d4d929190613796565b5050506070600089815260200190815260200160002081908060018154018082558091505060019003906000526020600020906008020160009091909190915060008201518160000160006101000a81548173ffffffffffffffffffffffffffffffffffffffff021916908373ffffffffffffffffffffffffffffffffffffffff1602179055506020820151816001019080519060200190610df0929190613796565b50604082015181600201556060820151816003019080519060200190610e17929190613796565b506080820151816004019080519060200190610e34929190613796565b5060a0820151816005015560c0820151816006015560e0820151816007019080519060200190610e65929190613796565b505050606e60008981526020019081526020016000206007016000815480929190610e8f9061478b565b91905055505050505050505050565b60698060000154905081565b610eb26134a7565b15610ef2576040517f08c379a0000000000000000000000000000000000000000000000000000000008152600401610ee990614820565b60405180910390fd5b610efc6068613504565b60006040518060a00160405280610f13606861351a565b81526020018581526020018481526020018381526020013373ffffffffffffffffffffffffffffffffffffffff16815250905080606b60003373ffffffffffffffffffffffffffffffffffffffff1673ffffffffffffffffffffffffffffffffffffffff168152602001908152602001600020600082015181600001556020820151816001019080519060200190610fac929190613796565b506040820151816002019080519060200190610fc9929190613796565b506060820151816003019080519060200190610fe6929190613796565b5060808201518160040160006101000a81548173ffffffffffffffffffffffffffffffffffffffff021916908373ffffffffffffffffffffffffffffffffffffffff160217905550905050606a819080600181540180825580915050600190039060005260206000209060050201600090919091909150600082015181600001556020820151816001019080519060200190611083929190613796565b5060408201518160020190805190602001906110a0929190613796565b5060608201518160030190805190602001906110bd929190613796565b5060808201518160040160006101000a81548173ffffffffffffffffffffffffffffffffffffffff021916908373ffffffffffffffffffffffffffffffffffffffff160217905550505050505050565b61111561381c565b6066828154811061112957611128614840565b5b90600052602060002090600b0201604051806101600160405290816000820154815260200160018201805461115d906146ad565b80601f0160208091040260200160405190810160405280929190818152602001828054611189906146ad565b80156111d65780601f106111ab576101008083540402835291602001916111d6565b820191906000526020600020905b8154815290600101906020018083116111b957829003601f168201915b505050505081526020016002820180546111ef906146ad565b80601f016020809104026020016040519081016040528092919081815260200182805461121b906146ad565b80156112685780601f1061123d57610100808354040283529160200191611268565b820191906000526020600020905b81548152906001019060200180831161124b57829003601f168201915b50505050508152602001600382018054611281906146ad565b80601f01602080910402602001604051908101604052809291908181526020018280546112ad906146ad565b80156112fa5780601f106112cf576101008083540402835291602001916112fa565b820191906000526020600020905b8154815290600101906020018083116112dd57829003601f168201915b50505050508152602001600482018054611313906146ad565b80601f016020809104026020016040519081016040528092919081815260200182805461133f906146ad565b801561138c5780601f106113615761010080835404028352916020019161138c565b820191906000526020600020905b81548152906001019060200180831161136f57829003601f168201915b505050505081526020016005820180546113a5906146ad565b80601f01602080910402602001604051908101604052809291908181526020018280546113d1906146ad565b801561141e5780601f106113f35761010080835404028352916020019161141e565b820191906000526020600020905b81548152906001019060200180831161140157829003601f168201915b50505050508152602001600682018054611437906146ad565b80601f0160208091040260200160405190810160405280929190818152602001828054611463906146ad565b80156114b05780601f10611485576101008083540402835291602001916114b0565b820191906000526020600020905b81548152906001019060200180831161149357829003601f168201915b50505050508152602001600782015481526020016008820160009054906101000a900473ffffffffffffffffffffffffffffffffffffffff1673ffffffffffffffffffffffffffffffffffffffff1673ffffffffffffffffffffffffffffffffffffffff168152602001600982018054611529906146ad565b80601f0160208091040260200160405190810160405280929190818152602001828054611555906146ad565b80156115a25780601f10611577576101008083540402835291602001916115a2565b820191906000526020600020905b81548152906001019060200180831161158557829003601f168201915b50505050508152602001600a820160009054906101000a900473ffffffffffffffffffffffffffffffffffffffff1673ffffffffffffffffffffffffffffffffffffffff1673ffffffffffffffffffffffffffffffffffffffff16815250509050919050565b611610613528565b61161a60006135a6565b565b60008060019054906101000a900460ff1615905080801561164d5750600160008054906101000a900460ff1660ff16105b8061167a575061165c3061366c565b1580156116795750600160008054906101000a900460ff1660ff16145b5b6116b9576040517f08c379a00000000000000000000000000000000000000000000000000000000081526004016116b0906148e1565b60405180910390fd5b60016000806101000a81548160ff021916908360ff16021790555080156116f6576001600060016101000a81548160ff0219169083151502179055505b6116fe61368f565b6001606581905550801561175f5760008060016101000a81548160ff0219169083151502179055507f7f26b83ff96e1f2b6a682f133852f6798a09c465da95921460cefb384740249860016040516117569190614953565b60405180910390a15b50565b606060006001606554611775919061496e565b90506000808267ffffffffffffffff81111561179457611793613cbe565b5b6040519080825280602002602001820160405280156117cd57816020015b6117ba61381c565b8152602001906001900390816117b25790505b5090506000600190505b838111611d6c573373ffffffffffffffffffffffffffffffffffffffff16606e600083815260200190815260200160002060080160009054906101000a900473ffffffffffffffffffffffffffffffffffffffff1673ffffffffffffffffffffffffffffffffffffffff161415611d59576000606e60008381526020019081526020016000209050806040518061016001604052908160008201548152602001600182018054611886906146ad565b80601f01602080910402602001604051908101604052809291908181526020018280546118b2906146ad565b80156118ff5780601f106118d4576101008083540402835291602001916118ff565b820191906000526020600020905b8154815290600101906020018083116118e257829003601f168201915b50505050508152602001600282018054611918906146ad565b80601f0160208091040260200160405190810160405280929190818152602001828054611944906146ad565b80156119915780601f1061196657610100808354040283529160200191611991565b820191906000526020600020905b81548152906001019060200180831161197457829003601f168201915b505050505081526020016003820180546119aa906146ad565b80601f01602080910402602001604051908101604052809291908181526020018280546119d6906146ad565b8015611a235780601f106119f857610100808354040283529160200191611a23565b820191906000526020600020905b815481529060010190602001808311611a0657829003601f168201915b50505050508152602001600482018054611a3c906146ad565b80601f0160208091040260200160405190810160405280929190818152602001828054611a68906146ad565b8015611ab55780601f10611a8a57610100808354040283529160200191611ab5565b820191906000526020600020905b815481529060010190602001808311611a9857829003601f168201915b50505050508152602001600582018054611ace906146ad565b80601f0160208091040260200160405190810160405280929190818152602001828054611afa906146ad565b8015611b475780601f10611b1c57610100808354040283529160200191611b47565b820191906000526020600020905b815481529060010190602001808311611b2a57829003601f168201915b50505050508152602001600682018054611b60906146ad565b80601f0160208091040260200160405190810160405280929190818152602001828054611b8c906146ad565b8015611bd95780601f10611bae57610100808354040283529160200191611bd9565b820191906000526020600020905b815481529060010190602001808311611bbc57829003601f168201915b50505050508152602001600782015481526020016008820160009054906101000a900473ffffffffffffffffffffffffffffffffffffffff1673ffffffffffffffffffffffffffffffffffffffff1673ffffffffffffffffffffffffffffffffffffffff168152602001600982018054611c52906146ad565b80601f0160208091040260200160405190810160405280929190818152602001828054611c7e906146ad565b8015611ccb5780601f10611ca057610100808354040283529160200191611ccb565b820191906000526020600020905b815481529060010190602001808311611cae57829003601f168201915b50505050508152602001600a820160009054906101000a900473ffffffffffffffffffffffffffffffffffffffff1673ffffffffffffffffffffffffffffffffffffffff1673ffffffffffffffffffffffffffffffffffffffff1681525050838581518110611d3d57611d3c614840565b5b6020026020010181905250600184611d5591906149a2565b9350505b8080611d649061478b565b9150506117d7565b5080935050505090565b6000603360009054906101000a900473ffffffffffffffffffffffffffffffffffffffff16905090565b6060600080606f60003373ffffffffffffffffffffffffffffffffffffffff1673ffffffffffffffffffffffffffffffffffffffff168152602001908152602001600020805490509050600060655467ffffffffffffffff811115611e0857611e07613cbe565b5b604051908082528060200260200182016040528015611e4157816020015b611e2e61381c565b815260200190600190039081611e265790505b50905060005b828110156123da576000606f60003373ffffffffffffffffffffffffffffffffffffffff1673ffffffffffffffffffffffffffffffffffffffff1681526020019081526020016000208281548110611ea257611ea1614840565b5b90600052602060002090600802016002015490506000606e60008381526020019081526020016000209050806040518061016001604052908160008201548152602001600182018054611ef4906146ad565b80601f0160208091040260200160405190810160405280929190818152602001828054611f20906146ad565b8015611f6d5780601f10611f4257610100808354040283529160200191611f6d565b820191906000526020600020905b815481529060010190602001808311611f5057829003601f168201915b50505050508152602001600282018054611f86906146ad565b80601f0160208091040260200160405190810160405280929190818152602001828054611fb2906146ad565b8015611fff5780601f10611fd457610100808354040283529160200191611fff565b820191906000526020600020905b815481529060010190602001808311611fe257829003601f168201915b50505050508152602001600382018054612018906146ad565b80601f0160208091040260200160405190810160405280929190818152602001828054612044906146ad565b80156120915780601f1061206657610100808354040283529160200191612091565b820191906000526020600020905b81548152906001019060200180831161207457829003601f168201915b505050505081526020016004820180546120aa906146ad565b80601f01602080910402602001604051908101604052809291908181526020018280546120d6906146ad565b80156121235780601f106120f857610100808354040283529160200191612123565b820191906000526020600020905b81548152906001019060200180831161210657829003601f168201915b5050505050815260200160058201805461213c906146ad565b80601f0160208091040260200160405190810160405280929190818152602001828054612168906146ad565b80156121b55780601f1061218a576101008083540402835291602001916121b5565b820191906000526020600020905b81548152906001019060200180831161219857829003601f168201915b505050505081526020016006820180546121ce906146ad565b80601f01602080910402602001604051908101604052809291908181526020018280546121fa906146ad565b80156122475780601f1061221c57610100808354040283529160200191612247565b820191906000526020600020905b81548152906001019060200180831161222a57829003601f168201915b50505050508152602001600782015481526020016008820160009054906101000a900473ffffffffffffffffffffffffffffffffffffffff1673ffffffffffffffffffffffffffffffffffffffff1673ffffffffffffffffffffffffffffffffffffffff1681526020016009820180546122c0906146ad565b80601f01602080910402602001604051908101604052809291908181526020018280546122ec906146ad565b80156123395780601f1061230e57610100808354040283529160200191612339565b820191906000526020600020905b81548152906001019060200180831161231c57829003601f168201915b50505050508152602001600a820160009054906101000a900473ffffffffffffffffffffffffffffffffffffffff1673ffffffffffffffffffffffffffffffffffffffff1673ffffffffffffffffffffffffffffffffffffffff16815250508487815181106123ab576123aa614840565b5b60200260200101819052506001866123c391906149a2565b9550505080806123d29061478b565b915050611e47565b5080935050505090565b60603373ffffffffffffffffffffffffffffffffffffffff16606e600084815260200190815260200160002060080160009054906101000a900473ffffffffffffffffffffffffffffffffffffffff1673ffffffffffffffffffffffffffffffffffffffff161461248a576040517f08c379a000000000000000000000000000000000000000000000000000000000815260040161248190614a44565b60405180910390fd5b6000606e60008481526020019081526020016000206007015490506000806070600086815260200190815260200160002080549050905060008367ffffffffffffffff8111156124dd576124dc613cbe565b5b60405190808252806020026020018201604052801561251657816020015b6125036138a2565b8152602001906001900390816124fb5790505b50905060005b8281101561286557600060706000898152602001908152602001600020828154811061254b5761254a614840565b5b9060005260206000209060080201905080604051806101000160405290816000820160009054906101000a900473ffffffffffffffffffffffffffffffffffffffff1673ffffffffffffffffffffffffffffffffffffffff1673ffffffffffffffffffffffffffffffffffffffff1681526020016001820180546125ce906146ad565b80601f01602080910402602001604051908101604052809291908181526020018280546125fa906146ad565b80156126475780601f1061261c57610100808354040283529160200191612647565b820191906000526020600020905b81548152906001019060200180831161262a57829003601f168201915b505050505081526020016002820154815260200160038201805461266a906146ad565b80601f0160208091040260200160405190810160405280929190818152602001828054612696906146ad565b80156126e35780601f106126b8576101008083540402835291602001916126e3565b820191906000526020600020905b8154815290600101906020018083116126c657829003601f168201915b505050505081526020016004820180546126fc906146ad565b80601f0160208091040260200160405190810160405280929190818152602001828054612728906146ad565b80156127755780601f1061274a57610100808354040283529160200191612775565b820191906000526020600020905b81548152906001019060200180831161275857829003601f168201915b5050505050815260200160058201548152602001600682015481526020016007820180546127a2906146ad565b80601f01602080910402602001604051908101604052809291908181526020018280546127ce906146ad565b801561281b5780601f106127f05761010080835404028352916020019161281b565b820191906000526020600020905b8154815290600101906020018083116127fe57829003601f168201915b50505050508152505083868151811061283757612836614840565b5b602002602001018190525060018561284f91906149a2565b945050808061285d9061478b565b91505061251c565b5080945050505050919050565b60606066805480602002602001604051908101604052809291908181526020016000905b82821015612d8757838290600052602060002090600b020160405180610160016040529081600082015481526020016001820180546128d4906146ad565b80601f0160208091040260200160405190810160405280929190818152602001828054612900906146ad565b801561294d5780601f106129225761010080835404028352916020019161294d565b820191906000526020600020905b81548152906001019060200180831161293057829003601f168201915b50505050508152602001600282018054612966906146ad565b80601f0160208091040260200160405190810160405280929190818152602001828054612992906146ad565b80156129df5780601f106129b4576101008083540402835291602001916129df565b820191906000526020600020905b8154815290600101906020018083116129c257829003601f168201915b505050505081526020016003820180546129f8906146ad565b80601f0160208091040260200160405190810160405280929190818152602001828054612a24906146ad565b8015612a715780601f10612a4657610100808354040283529160200191612a71565b820191906000526020600020905b815481529060010190602001808311612a5457829003601f168201915b50505050508152602001600482018054612a8a906146ad565b80601f0160208091040260200160405190810160405280929190818152602001828054612ab6906146ad565b8015612b035780601f10612ad857610100808354040283529160200191612b03565b820191906000526020600020905b815481529060010190602001808311612ae657829003601f168201915b50505050508152602001600582018054612b1c906146ad565b80601f0160208091040260200160405190810160405280929190818152602001828054612b48906146ad565b8015612b955780601f10612b6a57610100808354040283529160200191612b95565b820191906000526020600020905b815481529060010190602001808311612b7857829003601f168201915b50505050508152602001600682018054612bae906146ad565b80601f0160208091040260200160405190810160405280929190818152602001828054612bda906146ad565b8015612c275780601f10612bfc57610100808354040283529160200191612c27565b820191906000526020600020905b815481529060010190602001808311612c0a57829003601f168201915b50505050508152602001600782015481526020016008820160009054906101000a900473ffffffffffffffffffffffffffffffffffffffff1673ffffffffffffffffffffffffffffffffffffffff1673ffffffffffffffffffffffffffffffffffffffff168152602001600982018054612ca0906146ad565b80601f0160208091040260200160405190810160405280929190818152602001828054612ccc906146ad565b8015612d195780601f10612cee57610100808354040283529160200191612d19565b820191906000526020600020905b815481529060010190602001808311612cfc57829003601f168201915b50505050508152602001600a820160009054906101000a900473ffffffffffffffffffffffffffffffffffffffff1673ffffffffffffffffffffffffffffffffffffffff1673ffffffffffffffffffffffffffffffffffffffff168152505081526020019060010190612896565b50505050905090565b3373ffffffffffffffffffffffffffffffffffffffff16606e600084815260200190815260200160002060080160009054906101000a900473ffffffffffffffffffffffffffffffffffffffff1673ffffffffffffffffffffffffffffffffffffffff1614612e34576040517f08c379a0000000000000000000000000000000000000000000000000000000008152600401612e2b90614ab0565b60405180910390fd5b6040518060400160405280600681526020017f636c6f73656400000000000000000000000000000000000000000000000000008152506066600184612e79919061496e565b81548110612e8a57612e89614840565b5b90600052602060002090600b02016009019080519060200190612eae929190613796565b506040518060400160405280600681526020017f636c6f7365640000000000000000000000000000000000000000000000000000815250606e60008481526020019081526020016000206009019080519060200190612f0e929190613796565b50806066600184612f1f919061496e565b81548110612f3057612f2f614840565b5b90600052602060002090600b0201600a0160006101000a81548173ffffffffffffffffffffffffffffffffffffffff021916908373ffffffffffffffffffffffffffffffffffffffff16021790555080606e6000848152602001908152602001600020600a0160006101000a81548173ffffffffffffffffffffffffffffffffffffffff021916908373ffffffffffffffffffffffffffffffffffffffff1602179055505050565b612fe06134a7565b61301f576040517f08c379a00000000000000000000000000000000000000000000000000000000081526004016130169061473c565b60405180910390fd5b60006040518061016001604052806065548152602001888152602001878152602001868152602001858152602001848152602001838152602001600081526020016130686136e8565b73ffffffffffffffffffffffffffffffffffffffff1681526020016040518060400160405280600481526020017f6f70656e000000000000000000000000000000000000000000000000000000008152508152602001600073ffffffffffffffffffffffffffffffffffffffff16815250905060668190806001815401808255809150506001900390600052602060002090600b020160009091909190915060008201518160000155602082015181600101908051906020019061312d929190613796565b50604082015181600201908051906020019061314a929190613796565b506060820151816003019080519060200190613167929190613796565b506080820151816004019080519060200190613184929190613796565b5060a08201518160050190805190602001906131a1929190613796565b5060c08201518160060190805190602001906131be929190613796565b5060e082015181600701556101008201518160080160006101000a81548173ffffffffffffffffffffffffffffffffffffffff021916908373ffffffffffffffffffffffffffffffffffffffff16021790555061012082015181600901908051906020019061322e929190613796565b5061014082015181600a0160006101000a81548173ffffffffffffffffffffffffffffffffffffffff021916908373ffffffffffffffffffffffffffffffffffffffff160217905550505080606e600060655481526020019081526020016000206000820151816000015560208201518160010190805190602001906132b5929190613796565b5060408201518160020190805190602001906132d2929190613796565b5060608201518160030190805190602001906132ef929190613796565b50608082015181600401908051906020019061330c929190613796565b5060a0820151816005019080519060200190613329929190613796565b5060c0820151816006019080519060200190613346929190613796565b5060e082015181600701556101008201518160080160006101000a81548173ffffffffffffffffffffffffffffffffffffffff021916908373ffffffffffffffffffffffffffffffffffffffff1602179055506101208201518160090190805190602001906133b6929190613796565b5061014082015181600a0160006101000a81548173ffffffffffffffffffffffffffffffffffffffff021916908373ffffffffffffffffffffffffffffffffffffffff160217905550905050606560008154809291906134159061478b565b919050555050505050505050565b61342b613528565b600073ffffffffffffffffffffffffffffffffffffffff168173ffffffffffffffffffffffffffffffffffffffff16141561349b576040517f08c379a000000000000000000000000000000000000000000000000000000000815260040161349290614b42565b60405180910390fd5b6134a4816135a6565b50565b600080606b60003373ffffffffffffffffffffffffffffffffffffffff1673ffffffffffffffffffffffffffffffffffffffff1681526020019081526020016000206000015414156134fc5760009050613501565b600190505b90565b6001816000016000828254019250508190555050565b600081600001549050919050565b6135306136e8565b73ffffffffffffffffffffffffffffffffffffffff1661354e611d76565b73ffffffffffffffffffffffffffffffffffffffff16146135a4576040517f08c379a000000000000000000000000000000000000000000000000000000000815260040161359b90614bae565b60405180910390fd5b565b6000603360009054906101000a900473ffffffffffffffffffffffffffffffffffffffff16905081603360006101000a81548173ffffffffffffffffffffffffffffffffffffffff021916908373ffffffffffffffffffffffffffffffffffffffff1602179055508173ffffffffffffffffffffffffffffffffffffffff168173ffffffffffffffffffffffffffffffffffffffff167f8be0079c531659141344cd1fd0a4f28419497f9722a3daafe3b4186f6b6457e060405160405180910390a35050565b6000808273ffffffffffffffffffffffffffffffffffffffff163b119050919050565b600060019054906101000a900460ff166136de576040517f08c379a00000000000000000000000000000000000000000000000000000000081526004016136d590614c40565b60405180910390fd5b6136e66136f0565b565b600033905090565b600060019054906101000a900460ff1661373f576040517f08c379a000000000000000000000000000000000000000000000000000000000815260040161373690614c40565b60405180910390fd5b61374f61374a6136e8565b6135a6565b565b6040518060a0016040528060008152602001606081526020016060815260200160608152602001600073ffffffffffffffffffffffffffffffffffffffff1681525090565b8280546137a2906146ad565b90600052602060002090601f0160209004810192826137c4576000855561380b565b82601f106137dd57805160ff191683800117855561380b565b8280016001018555821561380b579182015b8281111561380a5782518255916020019190600101906137ef565b5b50905061381891906138fd565b5090565b6040518061016001604052806000815260200160608152602001606081526020016060815260200160608152602001606081526020016060815260200160008152602001600073ffffffffffffffffffffffffffffffffffffffff16815260200160608152602001600073ffffffffffffffffffffffffffffffffffffffff1681525090565b604051806101000160405280600073ffffffffffffffffffffffffffffffffffffffff168152602001606081526020016000815260200160608152602001606081526020016000815260200160008152602001606081525090565b5b808211156139165760008160009055506001016138fe565b5090565b6000604051905090565b600080fd5b600080fd5b600073ffffffffffffffffffffffffffffffffffffffff82169050919050565b60006139598261392e565b9050919050565b6139698161394e565b811461397457600080fd5b50565b60008135905061398681613960565b92915050565b6000602082840312156139a2576139a1613924565b5b60006139b084828501613977565b91505092915050565b6000819050919050565b6139cc816139b9565b82525050565b600081519050919050565b600082825260208201905092915050565b60005b83811015613a0c5780820151818401526020810190506139f1565b83811115613a1b576000848401525b50505050565b6000601f19601f8301169050919050565b6000613a3d826139d2565b613a4781856139dd565b9350613a578185602086016139ee565b613a6081613a21565b840191505092915050565b613a748161394e565b82525050565b600060a083016000830151613a9260008601826139c3565b5060208301518482036020860152613aaa8282613a32565b91505060408301518482036040860152613ac48282613a32565b91505060608301518482036060860152613ade8282613a32565b9150506080830151613af36080860182613a6b565b508091505092915050565b60006020820190508181036000830152613b188184613a7a565b905092915050565b600081519050919050565b600082825260208201905092915050565b6000819050602082019050919050565b600060a083016000830151613b6460008601826139c3565b5060208301518482036020860152613b7c8282613a32565b91505060408301518482036040860152613b968282613a32565b91505060608301518482036060860152613bb08282613a32565b9150506080830151613bc56080860182613a6b565b508091505092915050565b6000613bdc8383613b4c565b905092915050565b6000602082019050919050565b6000613bfc82613b20565b613c068185613b2b565b935083602082028501613c1885613b3c565b8060005b85811015613c545784840389528151613c358582613bd0565b9450613c4083613be4565b925060208a01995050600181019050613c1c565b50829750879550505050505092915050565b60006020820190508181036000830152613c808184613bf1565b905092915050565b613c91816139b9565b8114613c9c57600080fd5b50565b600081359050613cae81613c88565b92915050565b600080fd5b600080fd5b7f4e487b7100000000000000000000000000000000000000000000000000000000600052604160045260246000fd5b613cf682613a21565b810181811067ffffffffffffffff82111715613d1557613d14613cbe565b5b80604052505050565b6000613d2861391a565b9050613d348282613ced565b919050565b600067ffffffffffffffff821115613d5457613d53613cbe565b5b613d5d82613a21565b9050602081019050919050565b82818337600083830152505050565b6000613d8c613d8784613d39565b613d1e565b905082815260208101848484011115613da857613da7613cb9565b5b613db3848285613d6a565b509392505050565b600082601f830112613dd057613dcf613cb4565b5b8135613de0848260208601613d79565b91505092915050565b60008060008060008060c08789031215613e0657613e05613924565b5b6000613e1489828a01613c9f565b965050602087013567ffffffffffffffff811115613e3557613e34613929565b5b613e4189828a01613dbb565b9550506040613e5289828a01613c9f565b9450506060613e6389828a01613c9f565b935050608087013567ffffffffffffffff811115613e8457613e83613929565b5b613e9089828a01613dbb565b92505060a087013567ffffffffffffffff811115613eb157613eb0613929565b5b613ebd89828a01613dbb565b9150509295509295509295565b613ed3816139b9565b82525050565b6000602082019050613eee6000830184613eca565b92915050565b600080600060608486031215613f0d57613f0c613924565b5b600084013567ffffffffffffffff811115613f2b57613f2a613929565b5b613f3786828701613dbb565b935050602084013567ffffffffffffffff811115613f5857613f57613929565b5b613f6486828701613dbb565b925050604084013567ffffffffffffffff811115613f8557613f84613929565b5b613f9186828701613dbb565b9150509250925092565b600060208284031215613fb157613fb0613924565b5b6000613fbf84828501613c9f565b91505092915050565b600061016083016000830151613fe160008601826139c3565b5060208301518482036020860152613ff98282613a32565b915050604083015184820360408601526140138282613a32565b9150506060830151848203606086015261402d8282613a32565b915050608083015184820360808601526140478282613a32565b91505060a083015184820360a08601526140618282613a32565b91505060c083015184820360c086015261407b8282613a32565b91505060e083015161409060e08601826139c3565b506101008301516140a5610100860182613a6b565b506101208301518482036101208601526140bf8282613a32565b9150506101408301516140d6610140860182613a6b565b508091505092915050565b600060208201905081810360008301526140fb8184613fc8565b905092915050565b600081519050919050565b600082825260208201905092915050565b6000819050602082019050919050565b60006101608301600083015161414860008601826139c3565b50602083015184820360208601526141608282613a32565b9150506040830151848203604086015261417a8282613a32565b915050606083015184820360608601526141948282613a32565b915050608083015184820360808601526141ae8282613a32565b91505060a083015184820360a08601526141c88282613a32565b91505060c083015184820360c08601526141e28282613a32565b91505060e08301516141f760e08601826139c3565b5061010083015161420c610100860182613a6b565b506101208301518482036101208601526142268282613a32565b91505061014083015161423d610140860182613a6b565b508091505092915050565b6000614254838361412f565b905092915050565b6000602082019050919050565b600061427482614103565b61427e818561410e565b9350836020820285016142908561411f565b8060005b858110156142cc57848403895281516142ad8582614248565b94506142b88361425c565b925060208a01995050600181019050614294565b50829750879550505050505092915050565b600060208201905081810360008301526142f88184614269565b905092915050565b6143098161394e565b82525050565b60006020820190506143246000830184614300565b92915050565b600081519050919050565b600082825260208201905092915050565b6000819050602082019050919050565b60006101008301600083015161436f6000860182613a6b565b50602083015184820360208601526143878282613a32565b915050604083015161439c60408601826139c3565b50606083015184820360608601526143b48282613a32565b915050608083015184820360808601526143ce8282613a32565b91505060a08301516143e360a08601826139c3565b5060c08301516143f660c08601826139c3565b5060e083015184820360e086015261440e8282613a32565b9150508091505092915050565b60006144278383614356565b905092915050565b6000602082019050919050565b60006144478261432a565b6144518185614335565b93508360208202850161446385614346565b8060005b8581101561449f5784840389528151614480858261441b565b945061448b8361442f565b925060208a01995050600181019050614467565b50829750879550505050505092915050565b600060208201905081810360008301526144cb818461443c565b905092915050565b600080604083850312156144ea576144e9613924565b5b60006144f885828601613c9f565b925050602061450985828601613977565b9150509250929050565b60008060008060008060c087890312156145305761452f613924565b5b600087013567ffffffffffffffff81111561454e5761454d613929565b5b61455a89828a01613dbb565b965050602087013567ffffffffffffffff81111561457b5761457a613929565b5b61458789828a01613dbb565b955050604087013567ffffffffffffffff8111156145a8576145a7613929565b5b6145b489828a01613dbb565b945050606087013567ffffffffffffffff8111156145d5576145d4613929565b5b6145e189828a01613dbb565b935050608087013567ffffffffffffffff81111561460257614601613929565b5b61460e89828a01613dbb565b92505060a087013567ffffffffffffffff81111561462f5761462e613929565b5b61463b89828a01613dbb565b9150509295509295509295565b60008115159050919050565b61465d81614648565b82525050565b60006020820190506146786000830184614654565b92915050565b7f4e487b7100000000000000000000000000000000000000000000000000000000600052602260045260246000fd5b600060028204905060018216806146c557607f821691505b602082108114156146d9576146d861467e565b5b50919050565b600082825260208201905092915050565b7f596f7520617265206e6f7420726567697374657265642e000000000000000000600082015250565b60006147266017836146df565b9150614731826146f0565b602082019050919050565b6000602082019050818103600083015261475581614719565b9050919050565b7f4e487b7100000000000000000000000000000000000000000000000000000000600052601160045260246000fd5b6000614796826139b9565b91507fffffffffffffffffffffffffffffffffffffffffffffffffffffffffffffffff8214156147c9576147c861475c565b5b600182019050919050565b7f596f752061726520616c726561647920726567697374657265642e0000000000600082015250565b600061480a601b836146df565b9150614815826147d4565b602082019050919050565b60006020820190508181036000830152614839816147fd565b9050919050565b7f4e487b7100000000000000000000000000000000000000000000000000000000600052603260045260246000fd5b7f496e697469616c697a61626c653a20636f6e747261637420697320616c72656160008201527f647920696e697469616c697a6564000000000000000000000000000000000000602082015250565b60006148cb602e836146df565b91506148d68261486f565b604082019050919050565b600060208201905081810360008301526148fa816148be565b9050919050565b6000819050919050565b600060ff82169050919050565b6000819050919050565b600061493d61493861493384614901565b614918565b61490b565b9050919050565b61494d81614922565b82525050565b60006020820190506149686000830184614944565b92915050565b6000614979826139b9565b9150614984836139b9565b9250828210156149975761499661475c565b5b828203905092915050565b60006149ad826139b9565b91506149b8836139b9565b9250827fffffffffffffffffffffffffffffffffffffffffffffffffffffffffffffffff038211156149ed576149ec61475c565b5b828201905092915050565b7f4163636573732044656e6965642021214f776e65722069732000000000000000600082015250565b6000614a2e6019836146df565b9150614a39826149f8565b602082019050919050565b60006020820190508181036000830152614a5d81614a21565b9050919050565b7f4163636573732044656e69656420212100000000000000000000000000000000600082015250565b6000614a9a6010836146df565b9150614aa582614a64565b602082019050919050565b60006020820190508181036000830152614ac981614a8d565b9050919050565b7f4f776e61626c653a206e6577206f776e657220697320746865207a65726f206160008201527f6464726573730000000000000000000000000000000000000000000000000000602082015250565b6000614b2c6026836146df565b9150614b3782614ad0565b604082019050919050565b60006020820190508181036000830152614b5b81614b1f565b9050919050565b7f4f776e61626c653a2063616c6c6572206973206e6f7420746865206f776e6572600082015250565b6000614b986020836146df565b9150614ba382614b62565b602082019050919050565b60006020820190508181036000830152614bc781614b8b565b9050919050565b7f496e697469616c697a61626c653a20636f6e7472616374206973206e6f74206960008201527f6e697469616c697a696e67000000000000000000000000000000000000000000602082015250565b6000614c2a602b836146df565b9150614c3582614bce565b604082019050919050565b60006020820190508181036000830152614c5981614c1d565b905091905056fea2646970667358221220c47207ae6ddd7b9e1412456bbc827fb38e83642df9fe05aa7494c7080503eb0e64736f6c634300080b0033",
  "linkReferences": {},
  "deployedLinkReferences": {}
}