{
  "_format": "hh-sol-artifact-1",
  "contractName": "CandidateContract",
  "sourceName": "contracts/CandidateContract.sol",
  "abi": [
    {
      "anonymous": false,
      "inputs": [
        {
          "indexed": false,
          "internalType": "uint8",
          "name": "version",
          "type": "uint8"
        }
      ],
      "name": "Initialized",
      "type": "event"
    },
    {
      "inputs": [],
      "name": "CANDIDATE_ID",
      "outputs": [
        {
          "internalType": "uint256",
          "name": "",
          "type": "uint256"
        }
      ],
      "stateMutability": "view",
      "type": "function"
    },
    {
      "inputs": [
        {
          "internalType": "address",
          "name": "",
          "type": "address"
        }
      ],
      "name": "addressToId",
      "outputs": [
        {
          "internalType": "uint256",
          "name": "",
          "type": "uint256"
        }
      ],
      "stateMutability": "view",
      "type": "function"
    },
    {
      "inputs": [
        {
          "components": [
            {
              "internalType": "uint256",
              "name": "id",
              "type": "uint256"
            },
            {
              "internalType": "string",
              "name": "fname",
              "type": "string"
            },
            {
              "internalType": "string",
              "name": "lname",
              "type": "string"
            },
            {
              "internalType": "uint256",
              "name": "dob",
              "type": "uint256"
            },
            {
              "internalType": "string",
              "name": "country",
              "type": "string"
            },
            {
              "internalType": "string",
              "name": "primaryRole",
              "type": "string"
            },
            {
              "internalType": "string",
              "name": "yoe",
              "type": "string"
            },
            {
              "internalType": "string",
              "name": "bio",
              "type": "string"
            },
            {
              "internalType": "string",
              "name": "profileImageIPFSURL",
              "type": "string"
            },
            {
              "internalType": "string[]",
              "name": "experiences",
              "type": "string[]"
            },
            {
              "internalType": "string[]",
              "name": "skills",
              "type": "string[]"
            },
            {
              "internalType": "string",
              "name": "pronouns",
              "type": "string"
            },
            {
              "internalType": "string",
              "name": "resumeIPFSURL",
              "type": "string"
            },
            {
              "internalType": "address",
              "name": "ownerAddress",
              "type": "address"
            },
            {
              "components": [
                {
                  "internalType": "string",
                  "name": "website",
                  "type": "string"
                },
                {
                  "internalType": "string",
                  "name": "linkedin",
                  "type": "string"
                },
                {
                  "internalType": "string",
                  "name": "github",
                  "type": "string"
                },
                {
                  "internalType": "string",
                  "name": "twitter",
                  "type": "string"
                }
              ],
              "internalType": "struct CandidateContract.Links",
              "name": "links",
              "type": "tuple"
            }
          ],
          "internalType": "struct CandidateContract.Candidate",
          "name": "_updatedCandidate",
          "type": "tuple"
        }
      ],
      "name": "editRegisteredCandidate",
      "outputs": [
        {
          "internalType": "uint256",
          "name": "",
          "type": "uint256"
        }
      ],
      "stateMutability": "nonpayable",
      "type": "function"
    },
    {
      "inputs": [
        {
          "internalType": "address",
          "name": "_candidateAddress",
          "type": "address"
        }
      ],
      "name": "getCandidateByAddress",
      "outputs": [
        {
          "components": [
            {
              "internalType": "uint256",
              "name": "id",
              "type": "uint256"
            },
            {
              "internalType": "string",
              "name": "fname",
              "type": "string"
            },
            {
              "internalType": "string",
              "name": "lname",
              "type": "string"
            },
            {
              "internalType": "uint256",
              "name": "dob",
              "type": "uint256"
            },
            {
              "internalType": "string",
              "name": "country",
              "type": "string"
            },
            {
              "internalType": "string",
              "name": "primaryRole",
              "type": "string"
            },
            {
              "internalType": "string",
              "name": "yoe",
              "type": "string"
            },
            {
              "internalType": "string",
              "name": "bio",
              "type": "string"
            },
            {
              "internalType": "string",
              "name": "profileImageIPFSURL",
              "type": "string"
            },
            {
              "internalType": "string[]",
              "name": "experiences",
              "type": "string[]"
            },
            {
              "internalType": "string[]",
              "name": "skills",
              "type": "string[]"
            },
            {
              "internalType": "string",
              "name": "pronouns",
              "type": "string"
            },
            {
              "internalType": "string",
              "name": "resumeIPFSURL",
              "type": "string"
            },
            {
              "internalType": "address",
              "name": "ownerAddress",
              "type": "address"
            },
            {
              "components": [
                {
                  "internalType": "string",
                  "name": "website",
                  "type": "string"
                },
                {
                  "internalType": "string",
                  "name": "linkedin",
                  "type": "string"
                },
                {
                  "internalType": "string",
                  "name": "github",
                  "type": "string"
                },
                {
                  "internalType": "string",
                  "name": "twitter",
                  "type": "string"
                }
              ],
              "internalType": "struct CandidateContract.Links",
              "name": "links",
              "type": "tuple"
            }
          ],
          "internalType": "struct CandidateContract.Candidate",
          "name": "",
          "type": "tuple"
        }
      ],
      "stateMutability": "view",
      "type": "function"
    },
    {
      "inputs": [
        {
          "internalType": "uint256",
          "name": "_id",
          "type": "uint256"
        }
      ],
      "name": "getCandidateById",
      "outputs": [
        {
          "components": [
            {
              "internalType": "uint256",
              "name": "id",
              "type": "uint256"
            },
            {
              "internalType": "string",
              "name": "fname",
              "type": "string"
            },
            {
              "internalType": "string",
              "name": "lname",
              "type": "string"
            },
            {
              "internalType": "uint256",
              "name": "dob",
              "type": "uint256"
            },
            {
              "internalType": "string",
              "name": "country",
              "type": "string"
            },
            {
              "internalType": "string",
              "name": "primaryRole",
              "type": "string"
            },
            {
              "internalType": "string",
              "name": "yoe",
              "type": "string"
            },
            {
              "internalType": "string",
              "name": "bio",
              "type": "string"
            },
            {
              "internalType": "string",
              "name": "profileImageIPFSURL",
              "type": "string"
            },
            {
              "internalType": "string[]",
              "name": "experiences",
              "type": "string[]"
            },
            {
              "internalType": "string[]",
              "name": "skills",
              "type": "string[]"
            },
            {
              "internalType": "string",
              "name": "pronouns",
              "type": "string"
            },
            {
              "internalType": "string",
              "name": "resumeIPFSURL",
              "type": "string"
            },
            {
              "internalType": "address",
              "name": "ownerAddress",
              "type": "address"
            },
            {
              "components": [
                {
                  "internalType": "string",
                  "name": "website",
                  "type": "string"
                },
                {
                  "internalType": "string",
                  "name": "linkedin",
                  "type": "string"
                },
                {
                  "internalType": "string",
                  "name": "github",
                  "type": "string"
                },
                {
                  "internalType": "string",
                  "name": "twitter",
                  "type": "string"
                }
              ],
              "internalType": "struct CandidateContract.Links",
              "name": "links",
              "type": "tuple"
            }
          ],
          "internalType": "struct CandidateContract.Candidate",
          "name": "",
          "type": "tuple"
        }
      ],
      "stateMutability": "view",
      "type": "function"
    },
    {
      "inputs": [],
      "name": "initialize",
      "outputs": [],
      "stateMutability": "nonpayable",
      "type": "function"
    },
    {
      "inputs": [
        {
          "components": [
            {
              "internalType": "uint256",
              "name": "id",
              "type": "uint256"
            },
            {
              "internalType": "string",
              "name": "fname",
              "type": "string"
            },
            {
              "internalType": "string",
              "name": "lname",
              "type": "string"
            },
            {
              "internalType": "uint256",
              "name": "dob",
              "type": "uint256"
            },
            {
              "internalType": "string",
              "name": "country",
              "type": "string"
            },
            {
              "internalType": "string",
              "name": "primaryRole",
              "type": "string"
            },
            {
              "internalType": "string",
              "name": "yoe",
              "type": "string"
            },
            {
              "internalType": "string",
              "name": "bio",
              "type": "string"
            },
            {
              "internalType": "string",
              "name": "profileImageIPFSURL",
              "type": "string"
            },
            {
              "internalType": "string[]",
              "name": "experiences",
              "type": "string[]"
            },
            {
              "internalType": "string[]",
              "name": "skills",
              "type": "string[]"
            },
            {
              "internalType": "string",
              "name": "pronouns",
              "type": "string"
            },
            {
              "internalType": "string",
              "name": "resumeIPFSURL",
              "type": "string"
            },
            {
              "internalType": "address",
              "name": "ownerAddress",
              "type": "address"
            },
            {
              "components": [
                {
                  "internalType": "string",
                  "name": "website",
                  "type": "string"
                },
                {
                  "internalType": "string",
                  "name": "linkedin",
                  "type": "string"
                },
                {
                  "internalType": "string",
                  "name": "github",
                  "type": "string"
                },
                {
                  "internalType": "string",
                  "name": "twitter",
                  "type": "string"
                }
              ],
              "internalType": "struct CandidateContract.Links",
              "name": "links",
              "type": "tuple"
            }
          ],
          "internalType": "struct CandidateContract.Candidate",
          "name": "_newCandidate",
          "type": "tuple"
        }
      ],
      "name": "registerCandidate",
      "outputs": [
        {
          "internalType": "uint256",
          "name": "",
          "type": "uint256"
        }
      ],
      "stateMutability": "nonpayable",
      "type": "function"
    },
    {
      "inputs": [],
      "name": "totalCandidates",
      "outputs": [
        {
          "internalType": "uint256",
          "name": "",
          "type": "uint256"
        }
      ],
      "stateMutability": "view",
      "type": "function"
    }
  ],
  "bytecode": "0x608060405234801561001057600080fd5b50613074806100206000396000f3fe608060405234801561001057600080fd5b50600436106100885760003560e01c8063a3a9ac651161005b578063a3a9ac6514610115578063ad25e82914610133578063cb0e0d7d14610163578063f0dc74931461019357610088565b80633866965c1461008d5780638129fc1c146100ab57806393f5db28146100b557806395f85022146100e5575b600080fd5b6100956101c3565b6040516100a291906120ea565b60405180910390f35b6100b36101d0565b005b6100cf60048036038101906100ca9190612775565b61030e565b6040516100dc91906120ea565b60405180910390f35b6100ff60048036038101906100fa91906127be565b6106db565b60405161010c9190612b5b565b60405180910390f35b61011d6110be565b60405161012a91906120ea565b60405180910390f35b61014d60048036038101906101489190612b7d565b6110c4565b60405161015a9190612b5b565b60405180910390f35b61017d60048036038101906101789190612b7d565b611b30565b60405161018a91906120ea565b60405180910390f35b6101ad60048036038101906101a89190612775565b611b48565b6040516101ba91906120ea565b60405180910390f35b6000603480549050905090565b60008060019054906101000a900460ff161590508080156102015750600160008054906101000a900460ff1660ff16105b8061022e575061021030611e85565b15801561022d5750600160008054906101000a900460ff1660ff16145b5b61026d576040517f08c379a000000000000000000000000000000000000000000000000000000000815260040161026490612c2d565b60405180910390fd5b60016000806101000a81548160ff021916908360ff16021790555080156102aa576001600060016101000a81548160ff0219169083151502179055505b6000603381905550801561030b5760008060016101000a81548160ff0219169083151502179055507f7f26b83ff96e1f2b6a682f133852f6798a09c465da95921460cefb384740249860016040516103029190612c9f565b60405180910390a15b50565b6000806035600061031d611ea8565b73ffffffffffffffffffffffffffffffffffffffff1673ffffffffffffffffffffffffffffffffffffffff1681526020019081526020016000205414610398576040517f08c379a000000000000000000000000000000000000000000000000000000000815260040161038f90612d2c565b60405180910390fd5b816101a0015173ffffffffffffffffffffffffffffffffffffffff166103bc611ea8565b73ffffffffffffffffffffffffffffffffffffffff1614610412576040517f08c379a000000000000000000000000000000000000000000000000000000000815260040161040990612dbe565b60405180910390fd5b6033600081548092919061042590612e0d565b91905055506033548260000181815250506034829080600181540180825580915050600190039060005260206000209060120201600090919091909150600082015181600001556020820151816001019080519060200190610488929190611eb0565b5060408201518160020190805190602001906104a5929190611eb0565b506060820151816003015560808201518160040190805190602001906104cc929190611eb0565b5060a08201518160050190805190602001906104e9929190611eb0565b5060c0820151816006019080519060200190610506929190611eb0565b5060e0820151816007019080519060200190610523929190611eb0565b50610100820151816008019080519060200190610541929190611eb0565b5061012082015181600901908051906020019061055f929190611f36565b5061014082015181600a01908051906020019061057d929190611f36565b5061016082015181600b01908051906020019061059b929190611eb0565b5061018082015181600c0190805190602001906105b9929190611eb0565b506101a082015181600d0160006101000a81548173ffffffffffffffffffffffffffffffffffffffff021916908373ffffffffffffffffffffffffffffffffffffffff1602179055506101c082015181600e016000820151816000019080519060200190610628929190611eb0565b506020820151816001019080519060200190610645929190611eb0565b506040820151816002019080519060200190610662929190611eb0565b50606082015181600301908051906020019061067f929190611eb0565b505050505060335460356000610693611ea8565b73ffffffffffffffffffffffffffffffffffffffff1673ffffffffffffffffffffffffffffffffffffffff168152602001908152602001600020819055506033549050919050565b6106e3611f96565b60346001836106f29190612e56565b8154811061070357610702612e8a565b5b9060005260206000209060120201604051806101e00160405290816000820154815260200160018201805461073790612ee8565b80601f016020809104026020016040519081016040528092919081815260200182805461076390612ee8565b80156107b05780601f10610785576101008083540402835291602001916107b0565b820191906000526020600020905b81548152906001019060200180831161079357829003601f168201915b505050505081526020016002820180546107c990612ee8565b80601f01602080910402602001604051908101604052809291908181526020018280546107f590612ee8565b80156108425780601f1061081757610100808354040283529160200191610842565b820191906000526020600020905b81548152906001019060200180831161082557829003601f168201915b505050505081526020016003820154815260200160048201805461086590612ee8565b80601f016020809104026020016040519081016040528092919081815260200182805461089190612ee8565b80156108de5780601f106108b3576101008083540402835291602001916108de565b820191906000526020600020905b8154815290600101906020018083116108c157829003601f168201915b505050505081526020016005820180546108f790612ee8565b80601f016020809104026020016040519081016040528092919081815260200182805461092390612ee8565b80156109705780601f1061094557610100808354040283529160200191610970565b820191906000526020600020905b81548152906001019060200180831161095357829003601f168201915b5050505050815260200160068201805461098990612ee8565b80601f01602080910402602001604051908101604052809291908181526020018280546109b590612ee8565b8015610a025780601f106109d757610100808354040283529160200191610a02565b820191906000526020600020905b8154815290600101906020018083116109e557829003601f168201915b50505050508152602001600782018054610a1b90612ee8565b80601f0160208091040260200160405190810160405280929190818152602001828054610a4790612ee8565b8015610a945780601f10610a6957610100808354040283529160200191610a94565b820191906000526020600020905b815481529060010190602001808311610a7757829003601f168201915b50505050508152602001600882018054610aad90612ee8565b80601f0160208091040260200160405190810160405280929190818152602001828054610ad990612ee8565b8015610b265780601f10610afb57610100808354040283529160200191610b26565b820191906000526020600020905b815481529060010190602001808311610b0957829003601f168201915b5050505050815260200160098201805480602002602001604051908101604052809291908181526020016000905b82821015610c00578382906000526020600020018054610b7390612ee8565b80601f0160208091040260200160405190810160405280929190818152602001828054610b9f90612ee8565b8015610bec5780601f10610bc157610100808354040283529160200191610bec565b820191906000526020600020905b815481529060010190602001808311610bcf57829003601f168201915b505050505081526020019060010190610b54565b505050508152602001600a8201805480602002602001604051908101604052809291908181526020016000905b82821015610cd9578382906000526020600020018054610c4c90612ee8565b80601f0160208091040260200160405190810160405280929190818152602001828054610c7890612ee8565b8015610cc55780601f10610c9a57610100808354040283529160200191610cc5565b820191906000526020600020905b815481529060010190602001808311610ca857829003601f168201915b505050505081526020019060010190610c2d565b505050508152602001600b82018054610cf190612ee8565b80601f0160208091040260200160405190810160405280929190818152602001828054610d1d90612ee8565b8015610d6a5780601f10610d3f57610100808354040283529160200191610d6a565b820191906000526020600020905b815481529060010190602001808311610d4d57829003601f168201915b50505050508152602001600c82018054610d8390612ee8565b80601f0160208091040260200160405190810160405280929190818152602001828054610daf90612ee8565b8015610dfc5780601f10610dd157610100808354040283529160200191610dfc565b820191906000526020600020905b815481529060010190602001808311610ddf57829003601f168201915b50505050508152602001600d820160009054906101000a900473ffffffffffffffffffffffffffffffffffffffff1673ffffffffffffffffffffffffffffffffffffffff1673ffffffffffffffffffffffffffffffffffffffff168152602001600e8201604051806080016040529081600082018054610e7b90612ee8565b80601f0160208091040260200160405190810160405280929190818152602001828054610ea790612ee8565b8015610ef45780601f10610ec957610100808354040283529160200191610ef4565b820191906000526020600020905b815481529060010190602001808311610ed757829003601f168201915b50505050508152602001600182018054610f0d90612ee8565b80601f0160208091040260200160405190810160405280929190818152602001828054610f3990612ee8565b8015610f865780601f10610f5b57610100808354040283529160200191610f86565b820191906000526020600020905b815481529060010190602001808311610f6957829003601f168201915b50505050508152602001600282018054610f9f90612ee8565b80601f0160208091040260200160405190810160405280929190818152602001828054610fcb90612ee8565b80156110185780601f10610fed57610100808354040283529160200191611018565b820191906000526020600020905b815481529060010190602001808311610ffb57829003601f168201915b5050505050815260200160038201805461103190612ee8565b80601f016020809104026020016040519081016040528092919081815260200182805461105d90612ee8565b80156110aa5780601f1061107f576101008083540402835291602001916110aa565b820191906000526020600020905b81548152906001019060200180831161108d57829003601f168201915b505050505081525050815250509050919050565b60335481565b6110cc611f96565b6000603560008473ffffffffffffffffffffffffffffffffffffffff1673ffffffffffffffffffffffffffffffffffffffff1681526020019081526020016000205490506000811415611154576040517f08c379a000000000000000000000000000000000000000000000000000000000815260040161114b90612f8c565b60405180910390fd5b60346001826111639190612e56565b8154811061117457611173612e8a565b5b9060005260206000209060120201604051806101e0016040529081600082015481526020016001820180546111a890612ee8565b80601f01602080910402602001604051908101604052809291908181526020018280546111d490612ee8565b80156112215780601f106111f657610100808354040283529160200191611221565b820191906000526020600020905b81548152906001019060200180831161120457829003601f168201915b5050505050815260200160028201805461123a90612ee8565b80601f016020809104026020016040519081016040528092919081815260200182805461126690612ee8565b80156112b35780601f10611288576101008083540402835291602001916112b3565b820191906000526020600020905b81548152906001019060200180831161129657829003601f168201915b50505050508152602001600382015481526020016004820180546112d690612ee8565b80601f016020809104026020016040519081016040528092919081815260200182805461130290612ee8565b801561134f5780601f106113245761010080835404028352916020019161134f565b820191906000526020600020905b81548152906001019060200180831161133257829003601f168201915b5050505050815260200160058201805461136890612ee8565b80601f016020809104026020016040519081016040528092919081815260200182805461139490612ee8565b80156113e15780601f106113b6576101008083540402835291602001916113e1565b820191906000526020600020905b8154815290600101906020018083116113c457829003601f168201915b505050505081526020016006820180546113fa90612ee8565b80601f016020809104026020016040519081016040528092919081815260200182805461142690612ee8565b80156114735780601f1061144857610100808354040283529160200191611473565b820191906000526020600020905b81548152906001019060200180831161145657829003601f168201915b5050505050815260200160078201805461148c90612ee8565b80601f01602080910402602001604051908101604052809291908181526020018280546114b890612ee8565b80156115055780601f106114da57610100808354040283529160200191611505565b820191906000526020600020905b8154815290600101906020018083116114e857829003601f168201915b5050505050815260200160088201805461151e90612ee8565b80601f016020809104026020016040519081016040528092919081815260200182805461154a90612ee8565b80156115975780601f1061156c57610100808354040283529160200191611597565b820191906000526020600020905b81548152906001019060200180831161157a57829003601f168201915b5050505050815260200160098201805480602002602001604051908101604052809291908181526020016000905b828210156116715783829060005260206000200180546115e490612ee8565b80601f016020809104026020016040519081016040528092919081815260200182805461161090612ee8565b801561165d5780601f106116325761010080835404028352916020019161165d565b820191906000526020600020905b81548152906001019060200180831161164057829003601f168201915b5050505050815260200190600101906115c5565b505050508152602001600a8201805480602002602001604051908101604052809291908181526020016000905b8282101561174a5783829060005260206000200180546116bd90612ee8565b80601f01602080910402602001604051908101604052809291908181526020018280546116e990612ee8565b80156117365780601f1061170b57610100808354040283529160200191611736565b820191906000526020600020905b81548152906001019060200180831161171957829003601f168201915b50505050508152602001906001019061169e565b505050508152602001600b8201805461176290612ee8565b80601f016020809104026020016040519081016040528092919081815260200182805461178e90612ee8565b80156117db5780601f106117b0576101008083540402835291602001916117db565b820191906000526020600020905b8154815290600101906020018083116117be57829003601f168201915b50505050508152602001600c820180546117f490612ee8565b80601f016020809104026020016040519081016040528092919081815260200182805461182090612ee8565b801561186d5780601f106118425761010080835404028352916020019161186d565b820191906000526020600020905b81548152906001019060200180831161185057829003601f168201915b50505050508152602001600d820160009054906101000a900473ffffffffffffffffffffffffffffffffffffffff1673ffffffffffffffffffffffffffffffffffffffff1673ffffffffffffffffffffffffffffffffffffffff168152602001600e82016040518060800160405290816000820180546118ec90612ee8565b80601f016020809104026020016040519081016040528092919081815260200182805461191890612ee8565b80156119655780601f1061193a57610100808354040283529160200191611965565b820191906000526020600020905b81548152906001019060200180831161194857829003601f168201915b5050505050815260200160018201805461197e90612ee8565b80601f01602080910402602001604051908101604052809291908181526020018280546119aa90612ee8565b80156119f75780601f106119cc576101008083540402835291602001916119f7565b820191906000526020600020905b8154815290600101906020018083116119da57829003601f168201915b50505050508152602001600282018054611a1090612ee8565b80601f0160208091040260200160405190810160405280929190818152602001828054611a3c90612ee8565b8015611a895780601f10611a5e57610100808354040283529160200191611a89565b820191906000526020600020905b815481529060010190602001808311611a6c57829003601f168201915b50505050508152602001600382018054611aa290612ee8565b80601f0160208091040260200160405190810160405280929190818152602001828054611ace90612ee8565b8015611b1b5780601f10611af057610100808354040283529160200191611b1b565b820191906000526020600020905b815481529060010190602001808311611afe57829003601f168201915b50505050508152505081525050915050919050565b60356020528060005260406000206000915090505481565b6000808260000151905060008114158015611ba857508060356000611b6b611ea8565b73ffffffffffffffffffffffffffffffffffffffff1673ffffffffffffffffffffffffffffffffffffffff16815260200190815260200160002054145b8015611beb5750826101a0015173ffffffffffffffffffffffffffffffffffffffff16611bd3611ea8565b73ffffffffffffffffffffffffffffffffffffffff16145b611c2a576040517f08c379a0000000000000000000000000000000000000000000000000000000008152600401611c219061301e565b60405180910390fd5b826034600183611c3a9190612e56565b81548110611c4b57611c4a612e8a565b5b9060005260206000209060120201600082015181600001556020820151816001019080519060200190611c7f929190611eb0565b506040820151816002019080519060200190611c9c929190611eb0565b50606082015181600301556080820151816004019080519060200190611cc3929190611eb0565b5060a0820151816005019080519060200190611ce0929190611eb0565b5060c0820151816006019080519060200190611cfd929190611eb0565b5060e0820151816007019080519060200190611d1a929190611eb0565b50610100820151816008019080519060200190611d38929190611eb0565b50610120820151816009019080519060200190611d56929190611f36565b5061014082015181600a019080519060200190611d74929190611f36565b5061016082015181600b019080519060200190611d92929190611eb0565b5061018082015181600c019080519060200190611db0929190611eb0565b506101a082015181600d0160006101000a81548173ffffffffffffffffffffffffffffffffffffffff021916908373ffffffffffffffffffffffffffffffffffffffff1602179055506101c082015181600e016000820151816000019080519060200190611e1f929190611eb0565b506020820151816001019080519060200190611e3c929190611eb0565b506040820151816002019080519060200190611e59929190611eb0565b506060820151816003019080519060200190611e76929190611eb0565b50505090505080915050919050565b6000808273ffffffffffffffffffffffffffffffffffffffff163b119050919050565b600033905090565b828054611ebc90612ee8565b90600052602060002090601f016020900481019282611ede5760008555611f25565b82601f10611ef757805160ff1916838001178555611f25565b82800160010185558215611f25579182015b82811115611f24578251825591602001919060010190611f09565b5b509050611f329190612028565b5090565b828054828255906000526020600020908101928215611f85579160200282015b82811115611f84578251829080519060200190611f74929190611eb0565b5091602001919060010190611f56565b5b509050611f929190612045565b5090565b604051806101e0016040528060008152602001606081526020016060815260200160008152602001606081526020016060815260200160608152602001606081526020016060815260200160608152602001606081526020016060815260200160608152602001600073ffffffffffffffffffffffffffffffffffffffff168152602001612022612069565b81525090565b5b80821115612041576000816000905550600101612029565b5090565b5b80821115612065576000818161205c9190612091565b50600101612046565b5090565b6040518060800160405280606081526020016060815260200160608152602001606081525090565b50805461209d90612ee8565b6000825580601f106120af57506120ce565b601f0160209004906000526020600020908101906120cd9190612028565b5b50565b6000819050919050565b6120e4816120d1565b82525050565b60006020820190506120ff60008301846120db565b92915050565b6000604051905090565b600080fd5b600080fd5b600080fd5b6000601f19601f8301169050919050565b7f4e487b7100000000000000000000000000000000000000000000000000000000600052604160045260246000fd5b6121678261211e565b810181811067ffffffffffffffff821117156121865761218561212f565b5b80604052505050565b6000612199612105565b90506121a5828261215e565b919050565b600080fd5b6121b8816120d1565b81146121c357600080fd5b50565b6000813590506121d5816121af565b92915050565b600080fd5b600080fd5b600067ffffffffffffffff821115612200576121ff61212f565b5b6122098261211e565b9050602081019050919050565b82818337600083830152505050565b6000612238612233846121e5565b61218f565b905082815260208101848484011115612254576122536121e0565b5b61225f848285612216565b509392505050565b600082601f83011261227c5761227b6121db565b5b813561228c848260208601612225565b91505092915050565b600067ffffffffffffffff8211156122b0576122af61212f565b5b602082029050602081019050919050565b600080fd5b60006122d96122d484612295565b61218f565b905080838252602082019050602084028301858111156122fc576122fb6122c1565b5b835b8181101561234357803567ffffffffffffffff811115612321576123206121db565b5b80860161232e8982612267565b855260208501945050506020810190506122fe565b5050509392505050565b600082601f830112612362576123616121db565b5b81356123728482602086016122c6565b91505092915050565b600073ffffffffffffffffffffffffffffffffffffffff82169050919050565b60006123a68261237b565b9050919050565b6123b68161239b565b81146123c157600080fd5b50565b6000813590506123d3816123ad565b92915050565b6000608082840312156123ef576123ee612119565b5b6123f9608061218f565b9050600082013567ffffffffffffffff811115612419576124186121aa565b5b61242584828501612267565b600083015250602082013567ffffffffffffffff811115612449576124486121aa565b5b61245584828501612267565b602083015250604082013567ffffffffffffffff811115612479576124786121aa565b5b61248584828501612267565b604083015250606082013567ffffffffffffffff8111156124a9576124a86121aa565b5b6124b584828501612267565b60608301525092915050565b60006101e082840312156124d8576124d7612119565b5b6124e36101e061218f565b905060006124f3848285016121c6565b600083015250602082013567ffffffffffffffff811115612517576125166121aa565b5b61252384828501612267565b602083015250604082013567ffffffffffffffff811115612547576125466121aa565b5b61255384828501612267565b6040830152506060612567848285016121c6565b606083015250608082013567ffffffffffffffff81111561258b5761258a6121aa565b5b61259784828501612267565b60808301525060a082013567ffffffffffffffff8111156125bb576125ba6121aa565b5b6125c784828501612267565b60a08301525060c082013567ffffffffffffffff8111156125eb576125ea6121aa565b5b6125f784828501612267565b60c08301525060e082013567ffffffffffffffff81111561261b5761261a6121aa565b5b61262784828501612267565b60e08301525061010082013567ffffffffffffffff81111561264c5761264b6121aa565b5b61265884828501612267565b6101008301525061012082013567ffffffffffffffff81111561267e5761267d6121aa565b5b61268a8482850161234d565b6101208301525061014082013567ffffffffffffffff8111156126b0576126af6121aa565b5b6126bc8482850161234d565b6101408301525061016082013567ffffffffffffffff8111156126e2576126e16121aa565b5b6126ee84828501612267565b6101608301525061018082013567ffffffffffffffff811115612714576127136121aa565b5b61272084828501612267565b610180830152506101a0612736848285016123c4565b6101a0830152506101c082013567ffffffffffffffff81111561275c5761275b6121aa565b5b612768848285016123d9565b6101c08301525092915050565b60006020828403121561278b5761278a61210f565b5b600082013567ffffffffffffffff8111156127a9576127a8612114565b5b6127b5848285016124c1565b91505092915050565b6000602082840312156127d4576127d361210f565b5b60006127e2848285016121c6565b91505092915050565b6127f4816120d1565b82525050565b600081519050919050565b600082825260208201905092915050565b60005b83811015612834578082015181840152602081019050612819565b83811115612843576000848401525b50505050565b6000612854826127fa565b61285e8185612805565b935061286e818560208601612816565b6128778161211e565b840191505092915050565b600081519050919050565b600082825260208201905092915050565b6000819050602082019050919050565b60006128ba8383612849565b905092915050565b6000602082019050919050565b60006128da82612882565b6128e4818561288d565b9350836020820285016128f68561289e565b8060005b85811015612932578484038952815161291385826128ae565b945061291e836128c2565b925060208a019950506001810190506128fa565b50829750879550505050505092915050565b61294d8161239b565b82525050565b600060808301600083015184820360008601526129708282612849565b9150506020830151848203602086015261298a8282612849565b915050604083015184820360408601526129a48282612849565b915050606083015184820360608601526129be8282612849565b9150508091505092915050565b60006101e0830160008301516129e460008601826127eb565b50602083015184820360208601526129fc8282612849565b91505060408301518482036040860152612a168282612849565b9150506060830151612a2b60608601826127eb565b5060808301518482036080860152612a438282612849565b91505060a083015184820360a0860152612a5d8282612849565b91505060c083015184820360c0860152612a778282612849565b91505060e083015184820360e0860152612a918282612849565b915050610100830151848203610100860152612aad8282612849565b915050610120830151848203610120860152612ac982826128cf565b915050610140830151848203610140860152612ae582826128cf565b915050610160830151848203610160860152612b018282612849565b915050610180830151848203610180860152612b1d8282612849565b9150506101a0830151612b346101a0860182612944565b506101c08301518482036101c0860152612b4e8282612953565b9150508091505092915050565b60006020820190508181036000830152612b7581846129cb565b905092915050565b600060208284031215612b9357612b9261210f565b5b6000612ba1848285016123c4565b91505092915050565b600082825260208201905092915050565b7f496e697469616c697a61626c653a20636f6e747261637420697320616c72656160008201527f647920696e697469616c697a6564000000000000000000000000000000000000602082015250565b6000612c17602e83612baa565b9150612c2282612bbb565b604082019050919050565b60006020820190508181036000830152612c4681612c0a565b9050919050565b6000819050919050565b600060ff82169050919050565b6000819050919050565b6000612c89612c84612c7f84612c4d565b612c64565b612c57565b9050919050565b612c9981612c6e565b82525050565b6000602082019050612cb46000830184612c90565b92915050565b7f43616e6469646174652069732072656769737465726564207573696e6720746860008201527f697320616464726573732e000000000000000000000000000000000000000000602082015250565b6000612d16602b83612baa565b9150612d2182612cba565b604082019050919050565b60006020820190508181036000830152612d4581612d09565b9050919050565b7f4f776e657241646472657373206e6f74206d61746368696e67206d73672e736560008201527f6e6465722e000000000000000000000000000000000000000000000000000000602082015250565b6000612da8602583612baa565b9150612db382612d4c565b604082019050919050565b60006020820190508181036000830152612dd781612d9b565b9050919050565b7f4e487b7100000000000000000000000000000000000000000000000000000000600052601160045260246000fd5b6000612e18826120d1565b91507fffffffffffffffffffffffffffffffffffffffffffffffffffffffffffffffff821415612e4b57612e4a612dde565b5b600182019050919050565b6000612e61826120d1565b9150612e6c836120d1565b925082821015612e7f57612e7e612dde565b5b828203905092915050565b7f4e487b7100000000000000000000000000000000000000000000000000000000600052603260045260246000fd5b7f4e487b7100000000000000000000000000000000000000000000000000000000600052602260045260246000fd5b60006002820490506001821680612f0057607f821691505b60208210811415612f1457612f13612eb9565b5b50919050565b7f43616e646964617465206e6f742072656769737465726564207573696e67207460008201527f68697320616464726573732e0000000000000000000000000000000000000000602082015250565b6000612f76602c83612baa565b9150612f8182612f1a565b604082019050919050565b60006020820190508181036000830152612fa581612f69565b9050919050565b7f596f7520617265206e6f74206f776e6572206f6620746869732063616e64696460008201527f61746520616464726573732e0000000000000000000000000000000000000000602082015250565b6000613008602c83612baa565b915061301382612fac565b604082019050919050565b6000602082019050818103600083015261303781612ffb565b905091905056fea2646970667358221220258315baa5050c45fdc3c4883303d52a18eb1c2697f2b4ed014828ae9989f0ea64736f6c634300080b0033",
  "linkReferences": {},
  "deployedLinkReferences": {}
}