{
  "_format": "hh-sol-artifact-1",
  "contractName": "FeedbackContract",
  "sourceName": "contracts/FeedbackContract.sol",
  "abi": [
    {
      "anonymous": false,
      "inputs": [
        {
          "indexed": false,
          "internalType": "uint8",
          "name": "version",
          "type": "uint8"
        }
      ],
      "name": "Initialized",
      "type": "event"
    },
    {
      "anonymous": false,
      "inputs": [
        {
          "indexed": true,
          "internalType": "address",
          "name": "reviewer",
          "type": "address"
        },
        {
          "indexed": true,
          "internalType": "address",
          "name": "reviewed",
          "type": "address"
        },
        {
          "indexed": false,
          "internalType": "uint256",
          "name": "rating",
          "type": "uint256"
        },
        {
          "indexed": false,
          "internalType": "string",
          "name": "comments",
          "type": "string"
        }
      ],
      "name": "NewFeedback",
      "type": "event"
    },
    {
      "anonymous": false,
      "inputs": [
        {
          "indexed": true,
          "internalType": "address",
          "name": "previousOwner",
          "type": "address"
        },
        {
          "indexed": true,
          "internalType": "address",
          "name": "newOwner",
          "type": "address"
        }
      ],
      "name": "OwnershipTransferred",
      "type": "event"
    },
    {
      "inputs": [
        {
          "internalType": "address",
          "name": "_reviewed",
          "type": "address"
        },
        {
          "internalType": "uint256",
          "name": "_rating",
          "type": "uint256"
        },
        {
          "internalType": "string",
          "name": "_comments",
          "type": "string"
        }
      ],
      "name": "addFeedback",
      "outputs": [],
      "stateMutability": "nonpayable",
      "type": "function"
    },
    {
      "inputs": [],
      "name": "getAllMyGivenFeedbacks",
      "outputs": [
        {
          "components": [
            {
              "internalType": "address",
              "name": "reviewer",
              "type": "address"
            },
            {
              "internalType": "address",
              "name": "reviewed",
              "type": "address"
            },
            {
              "internalType": "uint256",
              "name": "rating",
              "type": "uint256"
            },
            {
              "internalType": "string",
              "name": "comments",
              "type": "string"
            }
          ],
          "internalType": "struct FeedbackContract.Feedback[]",
          "name": "",
          "type": "tuple[]"
        }
      ],
      "stateMutability": "view",
      "type": "function"
    },
    {
      "inputs": [],
      "name": "getFeedbackCount",
      "outputs": [
        {
          "internalType": "uint256",
          "name": "",
          "type": "uint256"
        }
      ],
      "stateMutability": "view",
      "type": "function"
    },
    {
      "inputs": [
        {
          "internalType": "address",
          "name": "_user",
          "type": "address"
        }
      ],
      "name": "getUserFeedbacks",
      "outputs": [
        {
          "components": [
            {
              "internalType": "address",
              "name": "reviewer",
              "type": "address"
            },
            {
              "internalType": "address",
              "name": "reviewed",
              "type": "address"
            },
            {
              "internalType": "uint256",
              "name": "rating",
              "type": "uint256"
            },
            {
              "internalType": "string",
              "name": "comments",
              "type": "string"
            }
          ],
          "internalType": "struct FeedbackContract.Feedback[]",
          "name": "",
          "type": "tuple[]"
        }
      ],
      "stateMutability": "view",
      "type": "function"
    },
    {
      "inputs": [],
      "name": "initialize",
      "outputs": [],
      "stateMutability": "nonpayable",
      "type": "function"
    },
    {
      "inputs": [],
      "name": "owner",
      "outputs": [
        {
          "internalType": "address",
          "name": "",
          "type": "address"
        }
      ],
      "stateMutability": "view",
      "type": "function"
    },
    {
      "inputs": [],
      "name": "renounceOwnership",
      "outputs": [],
      "stateMutability": "nonpayable",
      "type": "function"
    },
    {
      "inputs": [
        {
          "internalType": "address",
          "name": "newOwner",
          "type": "address"
        }
      ],
      "name": "transferOwnership",
      "outputs": [],
      "stateMutability": "nonpayable",
      "type": "function"
    }
  ],
  "bytecode": "0x608060405234801561001057600080fd5b506117b1806100206000396000f3fe608060405234801561001057600080fd5b50600436106100885760003560e01c806388f42eb71161005b57806388f42eb7146100ef5780638da5cb5b1461010b578063bbe7f91614610129578063f2fde38b1461014757610088565b806338c5c86b1461008d578063623bb59a146100ab578063715018a6146100db5780638129fc1c146100e5575b600080fd5b610095610163565b6040516100a29190610e62565b60405180910390f35b6100c560048036038101906100c09190610eef565b610170565b6040516100d291906110f8565b60405180910390f35b6100e3610406565b005b6100ed61041a565b005b6101096004803603810190610104919061127b565b610560565b005b6101136107e7565b60405161012091906112f9565b60405180910390f35b610131610811565b60405161013e91906110f8565b60405180910390f35b610161600480360381019061015c9190610eef565b610aa5565b005b6000606580549050905090565b6060600060658054905090506000808267ffffffffffffffff81111561019957610198611150565b5b6040519080825280602002602001820160405280156101d257816020015b6101bf610d52565b8152602001906001900390816101b75790505b5090506000600190505b8381116103fa578573ffffffffffffffffffffffffffffffffffffffff166067600083815260200190815260200160002060010160009054906101000a900473ffffffffffffffffffffffffffffffffffffffff1673ffffffffffffffffffffffffffffffffffffffff1614156103e7576000606760008381526020019081526020016000209050806040518060800160405290816000820160009054906101000a900473ffffffffffffffffffffffffffffffffffffffff1673ffffffffffffffffffffffffffffffffffffffff1673ffffffffffffffffffffffffffffffffffffffff1681526020016001820160009054906101000a900473ffffffffffffffffffffffffffffffffffffffff1673ffffffffffffffffffffffffffffffffffffffff1673ffffffffffffffffffffffffffffffffffffffff1681526020016002820154815260200160038201805461033690611343565b80601f016020809104026020016040519081016040528092919081815260200182805461036290611343565b80156103af5780601f10610384576101008083540402835291602001916103af565b820191906000526020600020905b81548152906001019060200180831161039257829003601f168201915b5050505050815250508385815181106103cb576103ca611375565b5b60200260200101819052506001846103e391906113d3565b9350505b80806103f290611429565b9150506101dc565b50809350505050919050565b61040e610b29565b6104186000610ba7565b565b60008060019054906101000a900460ff1615905080801561044b5750600160008054906101000a900460ff1660ff16105b80610478575061045a30610c6d565b1580156104775750600160008054906101000a900460ff1660ff16145b5b6104b7576040517f08c379a00000000000000000000000000000000000000000000000000000000081526004016104ae906114f5565b60405180910390fd5b60016000806101000a81548160ff021916908360ff16021790555080156104f4576001600060016101000a81548160ff0219169083151502179055505b6104fc610c90565b6001606681905550801561055d5760008060016101000a81548160ff0219169083151502179055507f7f26b83ff96e1f2b6a682f133852f6798a09c465da95921460cefb384740249860016040516105549190611567565b60405180910390a15b50565b600060405180608001604052803373ffffffffffffffffffffffffffffffffffffffff1681526020018573ffffffffffffffffffffffffffffffffffffffff168152602001848152602001838152509050606581908060018154018082558091505060019003906000526020600020906004020160009091909190915060008201518160000160006101000a81548173ffffffffffffffffffffffffffffffffffffffff021916908373ffffffffffffffffffffffffffffffffffffffff16021790555060208201518160010160006101000a81548173ffffffffffffffffffffffffffffffffffffffff021916908373ffffffffffffffffffffffffffffffffffffffff160217905550604082015181600201556060820151816003019080519060200190610691929190610da6565b5050508060676000606654815260200190815260200160002060008201518160000160006101000a81548173ffffffffffffffffffffffffffffffffffffffff021916908373ffffffffffffffffffffffffffffffffffffffff16021790555060208201518160010160006101000a81548173ffffffffffffffffffffffffffffffffffffffff021916908373ffffffffffffffffffffffffffffffffffffffff16021790555060408201518160020155606082015181600301908051906020019061075e929190610da6565b509050506066600081548092919061077590611429565b91905055508373ffffffffffffffffffffffffffffffffffffffff163373ffffffffffffffffffffffffffffffffffffffff167f83b0764b41c979a17c04d801f097dd7c4910133522867559d5afbdd611cd6dd385856040516107d99291906115bb565b60405180910390a350505050565b6000603360009054906101000a900473ffffffffffffffffffffffffffffffffffffffff16905090565b6060600060658054905090506000808267ffffffffffffffff81111561083a57610839611150565b5b60405190808252806020026020018201604052801561087357816020015b610860610d52565b8152602001906001900390816108585790505b5090506000600190505b838111610a9b573373ffffffffffffffffffffffffffffffffffffffff166067600083815260200190815260200160002060000160009054906101000a900473ffffffffffffffffffffffffffffffffffffffff1673ffffffffffffffffffffffffffffffffffffffff161415610a88576000606760008381526020019081526020016000209050806040518060800160405290816000820160009054906101000a900473ffffffffffffffffffffffffffffffffffffffff1673ffffffffffffffffffffffffffffffffffffffff1673ffffffffffffffffffffffffffffffffffffffff1681526020016001820160009054906101000a900473ffffffffffffffffffffffffffffffffffffffff1673ffffffffffffffffffffffffffffffffffffffff1673ffffffffffffffffffffffffffffffffffffffff168152602001600282015481526020016003820180546109d790611343565b80601f0160208091040260200160405190810160405280929190818152602001828054610a0390611343565b8015610a505780601f10610a2557610100808354040283529160200191610a50565b820191906000526020600020905b815481529060010190602001808311610a3357829003601f168201915b505050505081525050838581518110610a6c57610a6b611375565b5b6020026020010181905250600184610a8491906113d3565b9350505b8080610a9390611429565b91505061087d565b5080935050505090565b610aad610b29565b600073ffffffffffffffffffffffffffffffffffffffff168173ffffffffffffffffffffffffffffffffffffffff161415610b1d576040517f08c379a0000000000000000000000000000000000000000000000000000000008152600401610b149061165d565b60405180910390fd5b610b2681610ba7565b50565b610b31610ce9565b73ffffffffffffffffffffffffffffffffffffffff16610b4f6107e7565b73ffffffffffffffffffffffffffffffffffffffff1614610ba5576040517f08c379a0000000000000000000000000000000000000000000000000000000008152600401610b9c906116c9565b60405180910390fd5b565b6000603360009054906101000a900473ffffffffffffffffffffffffffffffffffffffff16905081603360006101000a81548173ffffffffffffffffffffffffffffffffffffffff021916908373ffffffffffffffffffffffffffffffffffffffff1602179055508173ffffffffffffffffffffffffffffffffffffffff168173ffffffffffffffffffffffffffffffffffffffff167f8be0079c531659141344cd1fd0a4f28419497f9722a3daafe3b4186f6b6457e060405160405180910390a35050565b6000808273ffffffffffffffffffffffffffffffffffffffff163b119050919050565b600060019054906101000a900460ff16610cdf576040517f08c379a0000000000000000000000000000000000000000000000000000000008152600401610cd69061175b565b60405180910390fd5b610ce7610cf1565b565b600033905090565b600060019054906101000a900460ff16610d40576040517f08c379a0000000000000000000000000000000000000000000000000000000008152600401610d379061175b565b60405180910390fd5b610d50610d4b610ce9565b610ba7565b565b6040518060800160405280600073ffffffffffffffffffffffffffffffffffffffff168152602001600073ffffffffffffffffffffffffffffffffffffffff16815260200160008152602001606081525090565b828054610db290611343565b90600052602060002090601f016020900481019282610dd45760008555610e1b565b82601f10610ded57805160ff1916838001178555610e1b565b82800160010185558215610e1b579182015b82811115610e1a578251825591602001919060010190610dff565b5b509050610e289190610e2c565b5090565b5b80821115610e45576000816000905550600101610e2d565b5090565b6000819050919050565b610e5c81610e49565b82525050565b6000602082019050610e776000830184610e53565b92915050565b6000604051905090565b600080fd5b600080fd5b600073ffffffffffffffffffffffffffffffffffffffff82169050919050565b6000610ebc82610e91565b9050919050565b610ecc81610eb1565b8114610ed757600080fd5b50565b600081359050610ee981610ec3565b92915050565b600060208284031215610f0557610f04610e87565b5b6000610f1384828501610eda565b91505092915050565b600081519050919050565b600082825260208201905092915050565b6000819050602082019050919050565b610f5181610eb1565b82525050565b610f6081610e49565b82525050565b600081519050919050565b600082825260208201905092915050565b60005b83811015610fa0578082015181840152602081019050610f85565b83811115610faf576000848401525b50505050565b6000601f19601f8301169050919050565b6000610fd182610f66565b610fdb8185610f71565b9350610feb818560208601610f82565b610ff481610fb5565b840191505092915050565b60006080830160008301516110176000860182610f48565b50602083015161102a6020860182610f48565b50604083015161103d6040860182610f57565b50606083015184820360608601526110558282610fc6565b9150508091505092915050565b600061106e8383610fff565b905092915050565b6000602082019050919050565b600061108e82610f1c565b6110988185610f27565b9350836020820285016110aa85610f38565b8060005b858110156110e657848403895281516110c78582611062565b94506110d283611076565b925060208a019950506001810190506110ae565b50829750879550505050505092915050565b600060208201905081810360008301526111128184611083565b905092915050565b61112381610e49565b811461112e57600080fd5b50565b6000813590506111408161111a565b92915050565b600080fd5b600080fd5b7f4e487b7100000000000000000000000000000000000000000000000000000000600052604160045260246000fd5b61118882610fb5565b810181811067ffffffffffffffff821117156111a7576111a6611150565b5b80604052505050565b60006111ba610e7d565b90506111c6828261117f565b919050565b600067ffffffffffffffff8211156111e6576111e5611150565b5b6111ef82610fb5565b9050602081019050919050565b82818337600083830152505050565b600061121e611219846111cb565b6111b0565b90508281526020810184848401111561123a5761123961114b565b5b6112458482856111fc565b509392505050565b600082601f83011261126257611261611146565b5b813561127284826020860161120b565b91505092915050565b60008060006060848603121561129457611293610e87565b5b60006112a286828701610eda565b93505060206112b386828701611131565b925050604084013567ffffffffffffffff8111156112d4576112d3610e8c565b5b6112e08682870161124d565b9150509250925092565b6112f381610eb1565b82525050565b600060208201905061130e60008301846112ea565b92915050565b7f4e487b7100000000000000000000000000000000000000000000000000000000600052602260045260246000fd5b6000600282049050600182168061135b57607f821691505b6020821081141561136f5761136e611314565b5b50919050565b7f4e487b7100000000000000000000000000000000000000000000000000000000600052603260045260246000fd5b7f4e487b7100000000000000000000000000000000000000000000000000000000600052601160045260246000fd5b60006113de82610e49565b91506113e983610e49565b9250827fffffffffffffffffffffffffffffffffffffffffffffffffffffffffffffffff0382111561141e5761141d6113a4565b5b828201905092915050565b600061143482610e49565b91507fffffffffffffffffffffffffffffffffffffffffffffffffffffffffffffffff821415611467576114666113a4565b5b600182019050919050565b600082825260208201905092915050565b7f496e697469616c697a61626c653a20636f6e747261637420697320616c72656160008201527f647920696e697469616c697a6564000000000000000000000000000000000000602082015250565b60006114df602e83611472565b91506114ea82611483565b604082019050919050565b6000602082019050818103600083015261150e816114d2565b9050919050565b6000819050919050565b600060ff82169050919050565b6000819050919050565b600061155161154c61154784611515565b61152c565b61151f565b9050919050565b61156181611536565b82525050565b600060208201905061157c6000830184611558565b92915050565b600061158d82610f66565b6115978185611472565b93506115a7818560208601610f82565b6115b081610fb5565b840191505092915050565b60006040820190506115d06000830185610e53565b81810360208301526115e28184611582565b90509392505050565b7f4f776e61626c653a206e6577206f776e657220697320746865207a65726f206160008201527f6464726573730000000000000000000000000000000000000000000000000000602082015250565b6000611647602683611472565b9150611652826115eb565b604082019050919050565b600060208201905081810360008301526116768161163a565b9050919050565b7f4f776e61626c653a2063616c6c6572206973206e6f7420746865206f776e6572600082015250565b60006116b3602083611472565b91506116be8261167d565b602082019050919050565b600060208201905081810360008301526116e2816116a6565b9050919050565b7f496e697469616c697a61626c653a20636f6e7472616374206973206e6f74206960008201527f6e697469616c697a696e67000000000000000000000000000000000000000000602082015250565b6000611745602b83611472565b9150611750826116e9565b604082019050919050565b6000602082019050818103600083015261177481611738565b905091905056fea264697066735822122053e24facb1657c18c38421952bfecac5df3c82edd1c53a2116bd4c20ee2915b764736f6c634300080b0033",
  "linkReferences": {},
  "deployedLinkReferences": {}
}