{
  "_format": "hh-sol-artifact-1",
  "contractName": "JobContract_backup",
  "sourceName": "contracts/JobContract_backup.sol",
  "abi": [
    {
      "anonymous": false,
      "inputs": [
        {
          "indexed": false,
          "internalType": "uint8",
          "name": "version",
          "type": "uint8"
        }
      ],
      "name": "Initialized",
      "type": "event"
    },
    {
      "anonymous": false,
      "inputs": [
        {
          "indexed": true,
          "internalType": "address",
          "name": "previousOwner",
          "type": "address"
        },
        {
          "indexed": true,
          "internalType": "address",
          "name": "newOwner",
          "type": "address"
        }
      ],
      "name": "OwnershipTransferred",
      "type": "event"
    },
    {
      "inputs": [],
      "name": "JOB_ID",
      "outputs": [
        {
          "internalType": "uint256",
          "name": "",
          "type": "uint256"
        }
      ],
      "stateMutability": "view",
      "type": "function"
    },
    {
      "inputs": [],
      "name": "_candJobID",
      "outputs": [
        {
          "internalType": "uint256",
          "name": "_value",
          "type": "uint256"
        }
      ],
      "stateMutability": "view",
      "type": "function"
    },
    {
      "inputs": [],
      "name": "_registrationID",
      "outputs": [
        {
          "internalType": "uint256",
          "name": "_value",
          "type": "uint256"
        }
      ],
      "stateMutability": "view",
      "type": "function"
    },
    {
      "inputs": [
        {
          "internalType": "string",
          "name": "_companyName",
          "type": "string"
        },
        {
          "internalType": "string",
          "name": "_position",
          "type": "string"
        },
        {
          "internalType": "string",
          "name": "_description",
          "type": "string"
        },
        {
          "internalType": "string",
          "name": "_experience",
          "type": "string"
        },
        {
          "internalType": "string",
          "name": "_location",
          "type": "string"
        },
        {
          "internalType": "string",
          "name": "_salary",
          "type": "string"
        }
      ],
      "name": "addJob",
      "outputs": [],
      "stateMutability": "nonpayable",
      "type": "function"
    },
    {
      "inputs": [],
      "name": "allJobs",
      "outputs": [
        {
          "components": [
            {
              "internalType": "uint256",
              "name": "jobId",
              "type": "uint256"
            },
            {
              "internalType": "string",
              "name": "companyName",
              "type": "string"
            },
            {
              "internalType": "string",
              "name": "position",
              "type": "string"
            },
            {
              "internalType": "string",
              "name": "description",
              "type": "string"
            },
            {
              "internalType": "string",
              "name": "experience",
              "type": "string"
            },
            {
              "internalType": "string",
              "name": "location",
              "type": "string"
            },
            {
              "internalType": "string",
              "name": "salary",
              "type": "string"
            },
            {
              "internalType": "uint256",
              "name": "applicationCount",
              "type": "uint256"
            },
            {
              "internalType": "address",
              "name": "employer",
              "type": "address"
            }
          ],
          "internalType": "struct JobContract_backup.Job[]",
          "name": "",
          "type": "tuple[]"
        }
      ],
      "stateMutability": "view",
      "type": "function"
    },
    {
      "inputs": [
        {
          "internalType": "uint256",
          "name": "jobId",
          "type": "uint256"
        },
        {
          "internalType": "string",
          "name": "_name",
          "type": "string"
        },
        {
          "internalType": "string",
          "name": "_experience",
          "type": "string"
        },
        {
          "internalType": "string",
          "name": "_location",
          "type": "string"
        },
        {
          "internalType": "string",
          "name": "_cv",
          "type": "string"
        }
      ],
      "name": "applyForJob",
      "outputs": [],
      "stateMutability": "nonpayable",
      "type": "function"
    },
    {
      "inputs": [],
      "name": "candidateContract",
      "outputs": [
        {
          "internalType": "contract CandidateContract",
          "name": "",
          "type": "address"
        }
      ],
      "stateMutability": "view",
      "type": "function"
    },
    {
      "inputs": [
        {
          "internalType": "address",
          "name": "",
          "type": "address"
        },
        {
          "internalType": "uint256",
          "name": "",
          "type": "uint256"
        }
      ],
      "name": "candidates",
      "outputs": [
        {
          "internalType": "address",
          "name": "",
          "type": "address"
        }
      ],
      "stateMutability": "view",
      "type": "function"
    },
    {
      "inputs": [],
      "name": "checkRegistration",
      "outputs": [
        {
          "internalType": "bool",
          "name": "",
          "type": "bool"
        }
      ],
      "stateMutability": "view",
      "type": "function"
    },
    {
      "inputs": [
        {
          "internalType": "uint256",
          "name": "_jobId",
          "type": "uint256"
        }
      ],
      "name": "deleteJob",
      "outputs": [],
      "stateMutability": "nonpayable",
      "type": "function"
    },
    {
      "inputs": [],
      "name": "getAllProfile",
      "outputs": [
        {
          "components": [
            {
              "internalType": "uint256",
              "name": "registrationID",
              "type": "uint256"
            },
            {
              "internalType": "string",
              "name": "name",
              "type": "string"
            },
            {
              "internalType": "string",
              "name": "typeOfAccount",
              "type": "string"
            },
            {
              "internalType": "string",
              "name": "myAddress",
              "type": "string"
            },
            {
              "internalType": "address",
              "name": "user",
              "type": "address"
            }
          ],
          "internalType": "struct JobContract_backup.Register[]",
          "name": "",
          "type": "tuple[]"
        }
      ],
      "stateMutability": "view",
      "type": "function"
    },
    {
      "inputs": [
        {
          "internalType": "uint256",
          "name": "_jobid",
          "type": "uint256"
        }
      ],
      "name": "getAppliedCandidatesByJobId",
      "outputs": [
        {
          "internalType": "address[]",
          "name": "",
          "type": "address[]"
        }
      ],
      "stateMutability": "view",
      "type": "function"
    },
    {
      "inputs": [
        {
          "internalType": "uint256",
          "name": "_jobid",
          "type": "uint256"
        }
      ],
      "name": "getJobById",
      "outputs": [
        {
          "components": [
            {
              "internalType": "uint256",
              "name": "jobId",
              "type": "uint256"
            },
            {
              "internalType": "string",
              "name": "companyName",
              "type": "string"
            },
            {
              "internalType": "string",
              "name": "position",
              "type": "string"
            },
            {
              "internalType": "string",
              "name": "description",
              "type": "string"
            },
            {
              "internalType": "string",
              "name": "experience",
              "type": "string"
            },
            {
              "internalType": "string",
              "name": "location",
              "type": "string"
            },
            {
              "internalType": "string",
              "name": "salary",
              "type": "string"
            },
            {
              "internalType": "uint256",
              "name": "applicationCount",
              "type": "uint256"
            },
            {
              "internalType": "address",
              "name": "employer",
              "type": "address"
            }
          ],
          "internalType": "struct JobContract_backup.Job",
          "name": "",
          "type": "tuple"
        }
      ],
      "stateMutability": "view",
      "type": "function"
    },
    {
      "inputs": [
        {
          "internalType": "uint256",
          "name": "_jobId",
          "type": "uint256"
        }
      ],
      "name": "getMyCandidates",
      "outputs": [
        {
          "components": [
            {
              "internalType": "uint256",
              "name": "candJobID",
              "type": "uint256"
            },
            {
              "internalType": "uint256",
              "name": "registrationID",
              "type": "uint256"
            },
            {
              "internalType": "uint256",
              "name": "jobId",
              "type": "uint256"
            },
            {
              "internalType": "string",
              "name": "name",
              "type": "string"
            },
            {
              "internalType": "string",
              "name": "experience",
              "type": "string"
            },
            {
              "internalType": "string",
              "name": "location",
              "type": "string"
            },
            {
              "internalType": "string",
              "name": "cv",
              "type": "string"
            },
            {
              "internalType": "address",
              "name": "candidateAddress",
              "type": "address"
            },
            {
              "internalType": "string",
              "name": "status",
              "type": "string"
            }
          ],
          "internalType": "struct JobContract_backup.Candidate[]",
          "name": "",
          "type": "tuple[]"
        }
      ],
      "stateMutability": "view",
      "type": "function"
    },
    {
      "inputs": [],
      "name": "getMyPostedJobs",
      "outputs": [
        {
          "components": [
            {
              "internalType": "uint256",
              "name": "jobId",
              "type": "uint256"
            },
            {
              "internalType": "string",
              "name": "companyName",
              "type": "string"
            },
            {
              "internalType": "string",
              "name": "position",
              "type": "string"
            },
            {
              "internalType": "string",
              "name": "description",
              "type": "string"
            },
            {
              "internalType": "string",
              "name": "experience",
              "type": "string"
            },
            {
              "internalType": "string",
              "name": "location",
              "type": "string"
            },
            {
              "internalType": "string",
              "name": "salary",
              "type": "string"
            },
            {
              "internalType": "uint256",
              "name": "applicationCount",
              "type": "uint256"
            },
            {
              "internalType": "address",
              "name": "employer",
              "type": "address"
            }
          ],
          "internalType": "struct JobContract_backup.Job[]",
          "name": "",
          "type": "tuple[]"
        }
      ],
      "stateMutability": "view",
      "type": "function"
    },
    {
      "inputs": [],
      "name": "getMyProfile",
      "outputs": [
        {
          "components": [
            {
              "internalType": "uint256",
              "name": "registrationID",
              "type": "uint256"
            },
            {
              "internalType": "string",
              "name": "name",
              "type": "string"
            },
            {
              "internalType": "string",
              "name": "typeOfAccount",
              "type": "string"
            },
            {
              "internalType": "string",
              "name": "myAddress",
              "type": "string"
            },
            {
              "internalType": "address",
              "name": "user",
              "type": "address"
            }
          ],
          "internalType": "struct JobContract_backup.Register",
          "name": "",
          "type": "tuple"
        }
      ],
      "stateMutability": "view",
      "type": "function"
    },
    {
      "inputs": [
        {
          "internalType": "address",
          "name": "_candidateContractAddress",
          "type": "address"
        }
      ],
      "name": "initialize",
      "outputs": [],
      "stateMutability": "nonpayable",
      "type": "function"
    },
    {
      "inputs": [
        {
          "internalType": "uint256",
          "name": "",
          "type": "uint256"
        }
      ],
      "name": "jobData",
      "outputs": [
        {
          "internalType": "uint256",
          "name": "jobId",
          "type": "uint256"
        },
        {
          "internalType": "string",
          "name": "companyName",
          "type": "string"
        },
        {
          "internalType": "string",
          "name": "position",
          "type": "string"
        },
        {
          "internalType": "string",
          "name": "description",
          "type": "string"
        },
        {
          "internalType": "string",
          "name": "experience",
          "type": "string"
        },
        {
          "internalType": "string",
          "name": "location",
          "type": "string"
        },
        {
          "internalType": "string",
          "name": "salary",
          "type": "string"
        },
        {
          "internalType": "uint256",
          "name": "applicationCount",
          "type": "uint256"
        },
        {
          "internalType": "address",
          "name": "employer",
          "type": "address"
        }
      ],
      "stateMutability": "view",
      "type": "function"
    },
    {
      "inputs": [],
      "name": "owner",
      "outputs": [
        {
          "internalType": "address",
          "name": "",
          "type": "address"
        }
      ],
      "stateMutability": "view",
      "type": "function"
    },
    {
      "inputs": [
        {
          "internalType": "address",
          "name": "",
          "type": "address"
        }
      ],
      "name": "registerProfile",
      "outputs": [
        {
          "internalType": "uint256",
          "name": "registrationID",
          "type": "uint256"
        },
        {
          "internalType": "string",
          "name": "name",
          "type": "string"
        },
        {
          "internalType": "string",
          "name": "typeOfAccount",
          "type": "string"
        },
        {
          "internalType": "string",
          "name": "myAddress",
          "type": "string"
        },
        {
          "internalType": "address",
          "name": "user",
          "type": "address"
        }
      ],
      "stateMutability": "view",
      "type": "function"
    },
    {
      "inputs": [
        {
          "internalType": "string",
          "name": "_name",
          "type": "string"
        },
        {
          "internalType": "string",
          "name": "_typeOfAccount",
          "type": "string"
        },
        {
          "internalType": "string",
          "name": "_myAddress",
          "type": "string"
        }
      ],
      "name": "registerProfiles",
      "outputs": [],
      "stateMutability": "nonpayable",
      "type": "function"
    },
    {
      "inputs": [],
      "name": "renounceOwnership",
      "outputs": [],
      "stateMutability": "nonpayable",
      "type": "function"
    },
    {
      "inputs": [
        {
          "internalType": "uint256",
          "name": "_jobId",
          "type": "uint256"
        },
        {
          "internalType": "uint256",
          "name": "_registrationId",
          "type": "uint256"
        }
      ],
      "name": "selectCandidate",
      "outputs": [],
      "stateMutability": "nonpayable",
      "type": "function"
    },
    {
      "inputs": [
        {
          "internalType": "uint256",
          "name": "",
          "type": "uint256"
        },
        {
          "internalType": "uint256",
          "name": "",
          "type": "uint256"
        }
      ],
      "name": "totalCandidates",
      "outputs": [
        {
          "internalType": "uint256",
          "name": "candJobID",
          "type": "uint256"
        },
        {
          "internalType": "uint256",
          "name": "registrationID",
          "type": "uint256"
        },
        {
          "internalType": "uint256",
          "name": "jobId",
          "type": "uint256"
        },
        {
          "internalType": "string",
          "name": "name",
          "type": "string"
        },
        {
          "internalType": "string",
          "name": "experience",
          "type": "string"
        },
        {
          "internalType": "string",
          "name": "location",
          "type": "string"
        },
        {
          "internalType": "string",
          "name": "cv",
          "type": "string"
        },
        {
          "internalType": "address",
          "name": "candidateAddress",
          "type": "address"
        },
        {
          "internalType": "string",
          "name": "status",
          "type": "string"
        }
      ],
      "stateMutability": "view",
      "type": "function"
    },
    {
      "inputs": [],
      "name": "totalJobs",
      "outputs": [
        {
          "internalType": "uint256",
          "name": "",
          "type": "uint256"
        }
      ],
      "stateMutability": "view",
      "type": "function"
    },
    {
      "inputs": [
        {
          "internalType": "address",
          "name": "newOwner",
          "type": "address"
        }
      ],
      "name": "transferOwnership",
      "outputs": [],
      "stateMutability": "nonpayable",
      "type": "function"
    },
    {
      "inputs": [
        {
          "internalType": "address",
          "name": "_to",
          "type": "address"
        }
      ],
      "name": "withdrawFunds",
      "outputs": [],
      "stateMutability": "nonpayable",
      "type": "function"
    }
  ],
  "bytecode": "0x608060405234801561001057600080fd5b506156bd80620000216000396000f3fe608060405234801561001057600080fd5b50600436106101a95760003560e01c806369d7428f116100f9578063b61f87b011610097578063d5f9d05411610071578063d5f9d054146104d2578063e38b00bc146104f0578063f2fde38b1461050c578063fd1b210014610528576101a9565b8063b61f87b014610468578063c4d66de814610498578063c8d1b6aa146104b4576101a9565b80638807f271116100d35780638807f271146103de5780638b62b97a1461040e5780638da5cb5b1461042c578063b4a3a1621461044a576101a9565b806369d7428f14610388578063715018a6146103b85780638341fd24146103c2576101a9565b806348955b09116101665780636358bb8c116101405780636358bb8c14610300578063643905e31461031c57806365ca645c1461033857806368742da61461036c576101a9565b806348955b091461027257806351da4f1d146102aa57806361e072c3146102e2576101a9565b80631041756d146101ae5780631ace87b3146101de57806321527e50146101fc5780633901d42d1461021a5780633ccddba014610238578063430264fc14610254575b600080fd5b6101c860048036038101906101c39190613e82565b610546565b6040516101d59190613f9f565b60405180910390f35b6101e6610712565b6040516101f39190613fd0565b60405180910390f35b61020461071f565b6040516102119190614117565b60405180910390f35b61022261098c565b60405161022f919061427f565b60405180910390f35b610252600480360381019061024d91906143d6565b610c01565b005b61025c610fcb565b6040516102699190613fd0565b60405180910390f35b61028c60048036038101906102879190613e82565b610fd7565b6040516102a19998979695949392919061451a565b60405180910390f35b6102c460048036038101906102bf91906145d1565b611375565b6040516102d999989796959493929190614611565b60405180910390f35b6102ea611698565b6040516102f79190613fd0565b60405180910390f35b61031a60048036038101906103159190613e82565b61169e565b005b610336600480360381019061033191906146c1565b611a76565b005b610352600480360381019061034d9190614794565b611cd9565b6040516103639594939291906147c1565b60405180910390f35b61038660048036038101906103819190614794565b611ec7565b005b6103a2600480360381019061039d9190613e82565b611f19565b6040516103af9190614911565b60405180910390f35b6103c061232c565b005b6103dc60048036038101906103d791906145d1565b612340565b005b6103f860048036038101906103f39190614933565b612459565b6040516104059190614973565b60405180910390f35b6104166124a7565b6040516104239190614b38565b60405180910390f35b6104346129ee565b6040516104419190614973565b60405180910390f35b610452612a18565b60405161045f9190614bb9565b60405180910390f35b610482600480360381019061047d9190613e82565b612a3e565b60405161048f9190614d77565b60405180910390f35b6104b260048036038101906104ad9190614794565b612fe7565b005b6104bc61316f565b6040516104c99190614b38565b60405180910390f35b6104da6135a5565b6040516104e79190613fd0565b60405180910390f35b61050a60048036038101906105059190614d99565b6135b1565b005b61052660048036038101906105219190614794565b613891565b005b610530613915565b60405161053d9190614ee9565b60405180910390f35b6060610550613972565b73ffffffffffffffffffffffffffffffffffffffff166066838154811061057a57610579614f04565b5b906000526020600020906009020160080160009054906101000a900473ffffffffffffffffffffffffffffffffffffffff1673ffffffffffffffffffffffffffffffffffffffff1614610602576040517f08c379a00000000000000000000000000000000000000000000000000000000081526004016105f990614fa5565b60405180910390fd5b606760006066848154811061061a57610619614f04565b5b906000526020600020906009020160080160009054906101000a900473ffffffffffffffffffffffffffffffffffffffff1673ffffffffffffffffffffffffffffffffffffffff1673ffffffffffffffffffffffffffffffffffffffff16815260200190815260200160002080548060200260200160405190810160405280929190818152602001828054801561070657602002820191906000526020600020905b8160009054906101000a900473ffffffffffffffffffffffffffffffffffffffff1673ffffffffffffffffffffffffffffffffffffffff16815260200190600101908083116106bc575b50505050509050919050565b6000606680549050905090565b610727613bbf565b606c60003373ffffffffffffffffffffffffffffffffffffffff1673ffffffffffffffffffffffffffffffffffffffff1681526020019081526020016000206040518060a00160405290816000820154815260200160018201805461078b90614ff4565b80601f01602080910402602001604051908101604052809291908181526020018280546107b790614ff4565b80156108045780601f106107d957610100808354040283529160200191610804565b820191906000526020600020905b8154815290600101906020018083116107e757829003601f168201915b5050505050815260200160028201805461081d90614ff4565b80601f016020809104026020016040519081016040528092919081815260200182805461084990614ff4565b80156108965780601f1061086b57610100808354040283529160200191610896565b820191906000526020600020905b81548152906001019060200180831161087957829003601f168201915b505050505081526020016003820180546108af90614ff4565b80601f01602080910402602001604051908101604052809291908181526020018280546108db90614ff4565b80156109285780601f106108fd57610100808354040283529160200191610928565b820191906000526020600020905b81548152906001019060200180831161090b57829003601f168201915b505050505081526020016004820160009054906101000a900473ffffffffffffffffffffffffffffffffffffffff1673ffffffffffffffffffffffffffffffffffffffff1673ffffffffffffffffffffffffffffffffffffffff1681525050905090565b6060606b805480602002602001604051908101604052809291908181526020016000905b82821015610bf857838290600052602060002090600502016040518060a0016040529081600082015481526020016001820180546109ed90614ff4565b80601f0160208091040260200160405190810160405280929190818152602001828054610a1990614ff4565b8015610a665780601f10610a3b57610100808354040283529160200191610a66565b820191906000526020600020905b815481529060010190602001808311610a4957829003601f168201915b50505050508152602001600282018054610a7f90614ff4565b80601f0160208091040260200160405190810160405280929190818152602001828054610aab90614ff4565b8015610af85780601f10610acd57610100808354040283529160200191610af8565b820191906000526020600020905b815481529060010190602001808311610adb57829003601f168201915b50505050508152602001600382018054610b1190614ff4565b80601f0160208091040260200160405190810160405280929190818152602001828054610b3d90614ff4565b8015610b8a5780601f10610b5f57610100808354040283529160200191610b8a565b820191906000526020600020905b815481529060010190602001808311610b6d57829003601f168201915b505050505081526020016004820160009054906101000a900473ffffffffffffffffffffffffffffffffffffffff1673ffffffffffffffffffffffffffffffffffffffff1673ffffffffffffffffffffffffffffffffffffffff1681525050815260200190600101906109b0565b50505050905090565b6000604051806101200160405280610c19606a61397a565b8152602001606c60003373ffffffffffffffffffffffffffffffffffffffff1673ffffffffffffffffffffffffffffffffffffffff168152602001908152602001600020600001548152602001606f60008981526020019081526020016000206000015481526020018681526020018581526020018481526020018381526020013373ffffffffffffffffffffffffffffffffffffffff1681526020016040518060400160405280600781526020017f6170706c69656400000000000000000000000000000000000000000000000000815250815250905080606e6000606c60003373ffffffffffffffffffffffffffffffffffffffff1673ffffffffffffffffffffffffffffffffffffffff1681526020019081526020016000206000015481526020019081526020016000206000606f60008a81526020019081526020016000206000015481526020019081526020016000206000820151816000015560208201518160010155604082015181600201556060820151816003019080519060200190610da8929190613c04565b506080820151816004019080519060200190610dc5929190613c04565b5060a0820151816005019080519060200190610de2929190613c04565b5060c0820151816006019080519060200190610dff929190613c04565b5060e08201518160070160006101000a81548173ffffffffffffffffffffffffffffffffffffffff021916908373ffffffffffffffffffffffffffffffffffffffff160217905550610100820151816008019080519060200190610e64929190613c04565b50905050606d8190806001815401808255809150506001900390600052602060002090600902016000909190919091506000820151816000015560208201518160010155604082015181600201556060820151816003019080519060200190610ece929190613c04565b506080820151816004019080519060200190610eeb929190613c04565b5060a0820151816005019080519060200190610f08929190613c04565b5060c0820151816006019080519060200190610f25929190613c04565b5060e08201518160070160006101000a81548173ffffffffffffffffffffffffffffffffffffffff021916908373ffffffffffffffffffffffffffffffffffffffff160217905550610100820151816008019080519060200190610f8a929190613c04565b505050606f60008781526020019081526020016000206007016000815480929190610fb490615055565b9190505550610fc3606a613988565b505050505050565b606a8060000154905081565b606f60205280600052604060002060009150905080600001549080600101805461100090614ff4565b80601f016020809104026020016040519081016040528092919081815260200182805461102c90614ff4565b80156110795780601f1061104e57610100808354040283529160200191611079565b820191906000526020600020905b81548152906001019060200180831161105c57829003601f168201915b50505050509080600201805461108e90614ff4565b80601f01602080910402602001604051908101604052809291908181526020018280546110ba90614ff4565b80156111075780601f106110dc57610100808354040283529160200191611107565b820191906000526020600020905b8154815290600101906020018083116110ea57829003601f168201915b50505050509080600301805461111c90614ff4565b80601f016020809104026020016040519081016040528092919081815260200182805461114890614ff4565b80156111955780601f1061116a57610100808354040283529160200191611195565b820191906000526020600020905b81548152906001019060200180831161117857829003601f168201915b5050505050908060040180546111aa90614ff4565b80601f01602080910402602001604051908101604052809291908181526020018280546111d690614ff4565b80156112235780601f106111f857610100808354040283529160200191611223565b820191906000526020600020905b81548152906001019060200180831161120657829003601f168201915b50505050509080600501805461123890614ff4565b80601f016020809104026020016040519081016040528092919081815260200182805461126490614ff4565b80156112b15780601f10611286576101008083540402835291602001916112b1565b820191906000526020600020905b81548152906001019060200180831161129457829003601f168201915b5050505050908060060180546112c690614ff4565b80601f01602080910402602001604051908101604052809291908181526020018280546112f290614ff4565b801561133f5780601f106113145761010080835404028352916020019161133f565b820191906000526020600020905b81548152906001019060200180831161132257829003601f168201915b5050505050908060070154908060080160009054906101000a900473ffffffffffffffffffffffffffffffffffffffff16905089565b606e602052816000526040600020602052806000526040600020600091509150508060000154908060010154908060020154908060030180546113b790614ff4565b80601f01602080910402602001604051908101604052809291908181526020018280546113e390614ff4565b80156114305780601f1061140557610100808354040283529160200191611430565b820191906000526020600020905b81548152906001019060200180831161141357829003601f168201915b50505050509080600401805461144590614ff4565b80601f016020809104026020016040519081016040528092919081815260200182805461147190614ff4565b80156114be5780601f10611493576101008083540402835291602001916114be565b820191906000526020600020905b8154815290600101906020018083116114a157829003601f168201915b5050505050908060050180546114d390614ff4565b80601f01602080910402602001604051908101604052809291908181526020018280546114ff90614ff4565b801561154c5780601f106115215761010080835404028352916020019161154c565b820191906000526020600020905b81548152906001019060200180831161152f57829003601f168201915b50505050509080600601805461156190614ff4565b80601f016020809104026020016040519081016040528092919081815260200182805461158d90614ff4565b80156115da5780601f106115af576101008083540402835291602001916115da565b820191906000526020600020905b8154815290600101906020018083116115bd57829003601f168201915b5050505050908060070160009054906101000a900473ffffffffffffffffffffffffffffffffffffffff169080600801805461161590614ff4565b80601f016020809104026020016040519081016040528092919081815260200182805461164190614ff4565b801561168e5780601f106116635761010080835404028352916020019161168e565b820191906000526020600020905b81548152906001019060200180831161167157829003601f168201915b5050505050905089565b60655481565b606681815481106116b2576116b1614f04565b5b906000526020600020906009020160080160009054906101000a900473ffffffffffffffffffffffffffffffffffffffff1673ffffffffffffffffffffffffffffffffffffffff16611702613972565b73ffffffffffffffffffffffffffffffffffffffff16148061175d57506117276129ee565b73ffffffffffffffffffffffffffffffffffffffff16611745613972565b73ffffffffffffffffffffffffffffffffffffffff16145b61179c576040517f08c379a000000000000000000000000000000000000000000000000000000000815260040161179390615110565b60405180910390fd5b60668054905081106117ad57611a73565b60008190505b60016066805490506117c59190615130565b8110156119975760666001826117db9190615164565b815481106117ec576117eb614f04565b5b90600052602060002090600902016066828154811061180e5761180d614f04565b5b906000526020600020906009020160008201548160000155600182018160010190805461183a90614ff4565b611845929190613c8a565b50600282018160020190805461185a90614ff4565b611865929190613c8a565b50600382018160030190805461187a90614ff4565b611885929190613c8a565b50600482018160040190805461189a90614ff4565b6118a5929190613c8a565b5060058201816005019080546118ba90614ff4565b6118c5929190613c8a565b5060068201816006019080546118da90614ff4565b6118e5929190613c8a565b50600782015481600701556008820160009054906101000a900473ffffffffffffffffffffffffffffffffffffffff168160080160006101000a81548173ffffffffffffffffffffffffffffffffffffffff021916908373ffffffffffffffffffffffffffffffffffffffff160217905550905050806066828154811061196f5761196e614f04565b5b906000526020600020906009020160000181905550808061198f90615055565b9150506117b3565b5060668054806119aa576119a96151ba565b5b60019003818190600052602060002090600902016000808201600090556001820160006119d79190613d17565b6002820160006119e79190613d17565b6003820160006119f79190613d17565b600482016000611a079190613d17565b600582016000611a179190613d17565b600682016000611a279190613d17565b60078201600090556008820160006101000a81549073ffffffffffffffffffffffffffffffffffffffff02191690555050905560656000815480929190611a6d906151e9565b91905055505b50565b611a7e613915565b15611abe576040517f08c379a0000000000000000000000000000000000000000000000000000000008152600401611ab59061525f565b60405180910390fd5b611ac86069613988565b60006040518060a00160405280611adf606961397a565b81526020018581526020018481526020018381526020013373ffffffffffffffffffffffffffffffffffffffff16815250905080606c60003373ffffffffffffffffffffffffffffffffffffffff1673ffffffffffffffffffffffffffffffffffffffff168152602001908152602001600020600082015181600001556020820151816001019080519060200190611b78929190613c04565b506040820151816002019080519060200190611b95929190613c04565b506060820151816003019080519060200190611bb2929190613c04565b5060808201518160040160006101000a81548173ffffffffffffffffffffffffffffffffffffffff021916908373ffffffffffffffffffffffffffffffffffffffff160217905550905050606b819080600181540180825580915050600190039060005260206000209060050201600090919091909150600082015181600001556020820151816001019080519060200190611c4f929190613c04565b506040820151816002019080519060200190611c6c929190613c04565b506060820151816003019080519060200190611c89929190613c04565b5060808201518160040160006101000a81548173ffffffffffffffffffffffffffffffffffffffff021916908373ffffffffffffffffffffffffffffffffffffffff160217905550505050505050565b606c602052806000526040600020600091509050806000015490806001018054611d0290614ff4565b80601f0160208091040260200160405190810160405280929190818152602001828054611d2e90614ff4565b8015611d7b5780601f10611d5057610100808354040283529160200191611d7b565b820191906000526020600020905b815481529060010190602001808311611d5e57829003601f168201915b505050505090806002018054611d9090614ff4565b80601f0160208091040260200160405190810160405280929190818152602001828054611dbc90614ff4565b8015611e095780601f10611dde57610100808354040283529160200191611e09565b820191906000526020600020905b815481529060010190602001808311611dec57829003601f168201915b505050505090806003018054611e1e90614ff4565b80601f0160208091040260200160405190810160405280929190818152602001828054611e4a90614ff4565b8015611e975780601f10611e6c57610100808354040283529160200191611e97565b820191906000526020600020905b815481529060010190602001808311611e7a57829003601f168201915b5050505050908060040160009054906101000a900473ffffffffffffffffffffffffffffffffffffffff16905085565b611ecf61399e565b8073ffffffffffffffffffffffffffffffffffffffff166108fc479081150290604051600060405180830381858888f19350505050158015611f15573d6000803e3d6000fd5b5050565b611f21613d57565b60668281548110611f3557611f34614f04565b5b90600052602060002090600902016040518061012001604052908160008201548152602001600182018054611f6990614ff4565b80601f0160208091040260200160405190810160405280929190818152602001828054611f9590614ff4565b8015611fe25780601f10611fb757610100808354040283529160200191611fe2565b820191906000526020600020905b815481529060010190602001808311611fc557829003601f168201915b50505050508152602001600282018054611ffb90614ff4565b80601f016020809104026020016040519081016040528092919081815260200182805461202790614ff4565b80156120745780601f1061204957610100808354040283529160200191612074565b820191906000526020600020905b81548152906001019060200180831161205757829003601f168201915b5050505050815260200160038201805461208d90614ff4565b80601f01602080910402602001604051908101604052809291908181526020018280546120b990614ff4565b80156121065780601f106120db57610100808354040283529160200191612106565b820191906000526020600020905b8154815290600101906020018083116120e957829003601f168201915b5050505050815260200160048201805461211f90614ff4565b80601f016020809104026020016040519081016040528092919081815260200182805461214b90614ff4565b80156121985780601f1061216d57610100808354040283529160200191612198565b820191906000526020600020905b81548152906001019060200180831161217b57829003601f168201915b505050505081526020016005820180546121b190614ff4565b80601f01602080910402602001604051908101604052809291908181526020018280546121dd90614ff4565b801561222a5780601f106121ff5761010080835404028352916020019161222a565b820191906000526020600020905b81548152906001019060200180831161220d57829003601f168201915b5050505050815260200160068201805461224390614ff4565b80601f016020809104026020016040519081016040528092919081815260200182805461226f90614ff4565b80156122bc5780601f10612291576101008083540402835291602001916122bc565b820191906000526020600020905b81548152906001019060200180831161229f57829003601f168201915b50505050508152602001600782015481526020016008820160009054906101000a900473ffffffffffffffffffffffffffffffffffffffff1673ffffffffffffffffffffffffffffffffffffffff1673ffffffffffffffffffffffffffffffffffffffff16815250509050919050565b61233461399e565b61233e6000613a1c565b565b3373ffffffffffffffffffffffffffffffffffffffff16606f600084815260200190815260200160002060080160009054906101000a900473ffffffffffffffffffffffffffffffffffffffff1673ffffffffffffffffffffffffffffffffffffffff16146123e4576040517f08c379a00000000000000000000000000000000000000000000000000000000081526004016123db906152cb565b60405180910390fd5b6040518060400160405280600881526020017f73656c6563746564000000000000000000000000000000000000000000000000815250606e600083815260200190815260200160002060008481526020019081526020016000206008019080519060200190612454929190613c04565b505050565b6067602052816000526040600020818154811061247557600080fd5b906000526020600020016000915091509054906101000a900473ffffffffffffffffffffffffffffffffffffffff1681565b6060600060016065546124ba9190615130565b90506000808267ffffffffffffffff8111156124d9576124d86142ab565b5b60405190808252806020026020018201604052801561251257816020015b6124ff613d57565b8152602001906001900390816124f75790505b50905060005b838110156129e4573373ffffffffffffffffffffffffffffffffffffffff166066828154811061254b5761254a614f04565b5b906000526020600020906009020160080160009054906101000a900473ffffffffffffffffffffffffffffffffffffffff1673ffffffffffffffffffffffffffffffffffffffff1614156129d1576000606682815481106125af576125ae614f04565b5b906000526020600020906009020190508060405180610120016040529081600082015481526020016001820180546125e690614ff4565b80601f016020809104026020016040519081016040528092919081815260200182805461261290614ff4565b801561265f5780601f106126345761010080835404028352916020019161265f565b820191906000526020600020905b81548152906001019060200180831161264257829003601f168201915b5050505050815260200160028201805461267890614ff4565b80601f01602080910402602001604051908101604052809291908181526020018280546126a490614ff4565b80156126f15780601f106126c6576101008083540402835291602001916126f1565b820191906000526020600020905b8154815290600101906020018083116126d457829003601f168201915b5050505050815260200160038201805461270a90614ff4565b80601f016020809104026020016040519081016040528092919081815260200182805461273690614ff4565b80156127835780601f1061275857610100808354040283529160200191612783565b820191906000526020600020905b81548152906001019060200180831161276657829003601f168201915b5050505050815260200160048201805461279c90614ff4565b80601f01602080910402602001604051908101604052809291908181526020018280546127c890614ff4565b80156128155780601f106127ea57610100808354040283529160200191612815565b820191906000526020600020905b8154815290600101906020018083116127f857829003601f168201915b5050505050815260200160058201805461282e90614ff4565b80601f016020809104026020016040519081016040528092919081815260200182805461285a90614ff4565b80156128a75780601f1061287c576101008083540402835291602001916128a7565b820191906000526020600020905b81548152906001019060200180831161288a57829003601f168201915b505050505081526020016006820180546128c090614ff4565b80601f01602080910402602001604051908101604052809291908181526020018280546128ec90614ff4565b80156129395780601f1061290e57610100808354040283529160200191612939565b820191906000526020600020905b81548152906001019060200180831161291c57829003601f168201915b50505050508152602001600782015481526020016008820160009054906101000a900473ffffffffffffffffffffffffffffffffffffffff1673ffffffffffffffffffffffffffffffffffffffff1673ffffffffffffffffffffffffffffffffffffffff16815250508385815181106129b5576129b4614f04565b5b60200260200101819052506001846129cd9190615164565b9350505b80806129dc90615055565b915050612518565b5080935050505090565b6000603360009054906101000a900473ffffffffffffffffffffffffffffffffffffffff16905090565b606860009054906101000a900473ffffffffffffffffffffffffffffffffffffffff1681565b60603373ffffffffffffffffffffffffffffffffffffffff16606f600084815260200190815260200160002060080160009054906101000a900473ffffffffffffffffffffffffffffffffffffffff1673ffffffffffffffffffffffffffffffffffffffff1614612ae4576040517f08c379a0000000000000000000000000000000000000000000000000000000008152600401612adb906152cb565b60405180910390fd5b6000606f6000848152602001908152602001600020600701549050600080612b0c606a61397a565b905060008367ffffffffffffffff811115612b2a57612b296142ab565b5b604051908082528060200260200182016040528015612b6357816020015b612b50613db9565b815260200190600190039081612b485790505b50905060005b82811015612fda5786606d8281548110612b8657612b85614f04565b5b906000526020600020906009020160020154148015612c125750604051602001612baf90615342565b60405160208183030381529060405280519060200120606d8281548110612bd957612bd8614f04565b5b9060005260206000209060090201600801604051602001612bfa91906153eb565b60405160208183030381529060405280519060200120145b15612fc7576000606d8281548110612c2d57612c2c614f04565b5b906000526020600020906009020190508060405180610120016040529081600082015481526020016001820154815260200160028201548152602001600382018054612c7890614ff4565b80601f0160208091040260200160405190810160405280929190818152602001828054612ca490614ff4565b8015612cf15780601f10612cc657610100808354040283529160200191612cf1565b820191906000526020600020905b815481529060010190602001808311612cd457829003601f168201915b50505050508152602001600482018054612d0a90614ff4565b80601f0160208091040260200160405190810160405280929190818152602001828054612d3690614ff4565b8015612d835780601f10612d5857610100808354040283529160200191612d83565b820191906000526020600020905b815481529060010190602001808311612d6657829003601f168201915b50505050508152602001600582018054612d9c90614ff4565b80601f0160208091040260200160405190810160405280929190818152602001828054612dc890614ff4565b8015612e155780601f10612dea57610100808354040283529160200191612e15565b820191906000526020600020905b815481529060010190602001808311612df857829003601f168201915b50505050508152602001600682018054612e2e90614ff4565b80601f0160208091040260200160405190810160405280929190818152602001828054612e5a90614ff4565b8015612ea75780601f10612e7c57610100808354040283529160200191612ea7565b820191906000526020600020905b815481529060010190602001808311612e8a57829003601f168201915b505050505081526020016007820160009054906101000a900473ffffffffffffffffffffffffffffffffffffffff1673ffffffffffffffffffffffffffffffffffffffff1673ffffffffffffffffffffffffffffffffffffffff168152602001600882018054612f1690614ff4565b80601f0160208091040260200160405190810160405280929190818152602001828054612f4290614ff4565b8015612f8f5780601f10612f6457610100808354040283529160200191612f8f565b820191906000526020600020905b815481529060010190602001808311612f7257829003601f168201915b505050505081525050838681518110612fab57612faa614f04565b5b6020026020010181905250600185612fc39190615164565b9450505b8080612fd290615055565b915050612b69565b5080945050505050919050565b60008060019054906101000a900460ff161590508080156130185750600160008054906101000a900460ff1660ff16105b80613045575061302730613ae2565b1580156130445750600160008054906101000a900460ff1660ff16145b5b613084576040517f08c379a000000000000000000000000000000000000000000000000000000000815260040161307b90615474565b60405180910390fd5b60016000806101000a81548160ff021916908360ff16021790555080156130c1576001600060016101000a81548160ff0219169083151502179055505b81606860006101000a81548173ffffffffffffffffffffffffffffffffffffffff021916908373ffffffffffffffffffffffffffffffffffffffff16021790555061310a613b05565b6001606581905550801561316b5760008060016101000a81548160ff0219169083151502179055507f7f26b83ff96e1f2b6a682f133852f6798a09c465da95921460cefb3847402498600160405161316291906154dc565b60405180910390a15b5050565b60606066805480602002602001604051908101604052809291908181526020016000905b8282101561359c578382906000526020600020906009020160405180610120016040529081600082015481526020016001820180546131d190614ff4565b80601f01602080910402602001604051908101604052809291908181526020018280546131fd90614ff4565b801561324a5780601f1061321f5761010080835404028352916020019161324a565b820191906000526020600020905b81548152906001019060200180831161322d57829003601f168201915b5050505050815260200160028201805461326390614ff4565b80601f016020809104026020016040519081016040528092919081815260200182805461328f90614ff4565b80156132dc5780601f106132b1576101008083540402835291602001916132dc565b820191906000526020600020905b8154815290600101906020018083116132bf57829003601f168201915b505050505081526020016003820180546132f590614ff4565b80601f016020809104026020016040519081016040528092919081815260200182805461332190614ff4565b801561336e5780601f106133435761010080835404028352916020019161336e565b820191906000526020600020905b81548152906001019060200180831161335157829003601f168201915b5050505050815260200160048201805461338790614ff4565b80601f01602080910402602001604051908101604052809291908181526020018280546133b390614ff4565b80156134005780601f106133d557610100808354040283529160200191613400565b820191906000526020600020905b8154815290600101906020018083116133e357829003601f168201915b5050505050815260200160058201805461341990614ff4565b80601f016020809104026020016040519081016040528092919081815260200182805461344590614ff4565b80156134925780601f1061346757610100808354040283529160200191613492565b820191906000526020600020905b81548152906001019060200180831161347557829003601f168201915b505050505081526020016006820180546134ab90614ff4565b80601f01602080910402602001604051908101604052809291908181526020018280546134d790614ff4565b80156135245780601f106134f957610100808354040283529160200191613524565b820191906000526020600020905b81548152906001019060200180831161350757829003601f168201915b50505050508152602001600782015481526020016008820160009054906101000a900473ffffffffffffffffffffffffffffffffffffffff1673ffffffffffffffffffffffffffffffffffffffff1673ffffffffffffffffffffffffffffffffffffffff168152505081526020019060010190613193565b50505050905090565b60698060000154905081565b60006040518061012001604052806065548152602001888152602001878152602001868152602001858152602001848152602001838152602001600081526020016135fa613972565b73ffffffffffffffffffffffffffffffffffffffff1681525090506066819080600181540180825580915050600190039060005260206000209060090201600090919091909150600082015181600001556020820151816001019080519060200190613667929190613c04565b506040820151816002019080519060200190613684929190613c04565b5060608201518160030190805190602001906136a1929190613c04565b5060808201518160040190805190602001906136be929190613c04565b5060a08201518160050190805190602001906136db929190613c04565b5060c08201518160060190805190602001906136f8929190613c04565b5060e082015181600701556101008201518160080160006101000a81548173ffffffffffffffffffffffffffffffffffffffff021916908373ffffffffffffffffffffffffffffffffffffffff160217905550505080606f60006065548152602001908152602001600020600082015181600001556020820151816001019080519060200190613789929190613c04565b5060408201518160020190805190602001906137a6929190613c04565b5060608201518160030190805190602001906137c3929190613c04565b5060808201518160040190805190602001906137e0929190613c04565b5060a08201518160050190805190602001906137fd929190613c04565b5060c082015181600601908051906020019061381a929190613c04565b5060e082015181600701556101008201518160080160006101000a81548173ffffffffffffffffffffffffffffffffffffffff021916908373ffffffffffffffffffffffffffffffffffffffff1602179055509050506065600081548092919061388390615055565b919050555050505050505050565b61389961399e565b600073ffffffffffffffffffffffffffffffffffffffff168173ffffffffffffffffffffffffffffffffffffffff161415613909576040517f08c379a000000000000000000000000000000000000000000000000000000000815260040161390090615569565b60405180910390fd5b61391281613a1c565b50565b600080606c60003373ffffffffffffffffffffffffffffffffffffffff1673ffffffffffffffffffffffffffffffffffffffff16815260200190815260200160002060000154141561396a576000905061396f565b600190505b90565b600033905090565b600081600001549050919050565b6001816000016000828254019250508190555050565b6139a6613972565b73ffffffffffffffffffffffffffffffffffffffff166139c46129ee565b73ffffffffffffffffffffffffffffffffffffffff1614613a1a576040517f08c379a0000000000000000000000000000000000000000000000000000000008152600401613a11906155d5565b60405180910390fd5b565b6000603360009054906101000a900473ffffffffffffffffffffffffffffffffffffffff16905081603360006101000a81548173ffffffffffffffffffffffffffffffffffffffff021916908373ffffffffffffffffffffffffffffffffffffffff1602179055508173ffffffffffffffffffffffffffffffffffffffff168173ffffffffffffffffffffffffffffffffffffffff167f8be0079c531659141344cd1fd0a4f28419497f9722a3daafe3b4186f6b6457e060405160405180910390a35050565b6000808273ffffffffffffffffffffffffffffffffffffffff163b119050919050565b600060019054906101000a900460ff16613b54576040517f08c379a0000000000000000000000000000000000000000000000000000000008152600401613b4b90615667565b60405180910390fd5b613b5c613b5e565b565b600060019054906101000a900460ff16613bad576040517f08c379a0000000000000000000000000000000000000000000000000000000008152600401613ba490615667565b60405180910390fd5b613bbd613bb8613972565b613a1c565b565b6040518060a0016040528060008152602001606081526020016060815260200160608152602001600073ffffffffffffffffffffffffffffffffffffffff1681525090565b828054613c1090614ff4565b90600052602060002090601f016020900481019282613c325760008555613c79565b82601f10613c4b57805160ff1916838001178555613c79565b82800160010185558215613c79579182015b82811115613c78578251825591602001919060010190613c5d565b5b509050613c869190613e1b565b5090565b828054613c9690614ff4565b90600052602060002090601f016020900481019282613cb85760008555613d06565b82601f10613cc95780548555613d06565b82800160010185558215613d0657600052602060002091601f016020900482015b82811115613d05578254825591600101919060010190613cea565b5b509050613d139190613e1b565b5090565b508054613d2390614ff4565b6000825580601f10613d355750613d54565b601f016020900490600052602060002090810190613d539190613e1b565b5b50565b6040518061012001604052806000815260200160608152602001606081526020016060815260200160608152602001606081526020016060815260200160008152602001600073ffffffffffffffffffffffffffffffffffffffff1681525090565b60405180610120016040528060008152602001600081526020016000815260200160608152602001606081526020016060815260200160608152602001600073ffffffffffffffffffffffffffffffffffffffff168152602001606081525090565b5b80821115613e34576000816000905550600101613e1c565b5090565b6000604051905090565b600080fd5b600080fd5b6000819050919050565b613e5f81613e4c565b8114613e6a57600080fd5b50565b600081359050613e7c81613e56565b92915050565b600060208284031215613e9857613e97613e42565b5b6000613ea684828501613e6d565b91505092915050565b600081519050919050565b600082825260208201905092915050565b6000819050602082019050919050565b600073ffffffffffffffffffffffffffffffffffffffff82169050919050565b6000613f0682613edb565b9050919050565b613f1681613efb565b82525050565b6000613f288383613f0d565b60208301905092915050565b6000602082019050919050565b6000613f4c82613eaf565b613f568185613eba565b9350613f6183613ecb565b8060005b83811015613f92578151613f798882613f1c565b9750613f8483613f34565b925050600181019050613f65565b5085935050505092915050565b60006020820190508181036000830152613fb98184613f41565b905092915050565b613fca81613e4c565b82525050565b6000602082019050613fe56000830184613fc1565b92915050565b613ff481613e4c565b82525050565b600081519050919050565b600082825260208201905092915050565b60005b83811015614034578082015181840152602081019050614019565b83811115614043576000848401525b50505050565b6000601f19601f8301169050919050565b600061406582613ffa565b61406f8185614005565b935061407f818560208601614016565b61408881614049565b840191505092915050565b600060a0830160008301516140ab6000860182613feb565b50602083015184820360208601526140c3828261405a565b915050604083015184820360408601526140dd828261405a565b915050606083015184820360608601526140f7828261405a565b915050608083015161410c6080860182613f0d565b508091505092915050565b600060208201905081810360008301526141318184614093565b905092915050565b600081519050919050565b600082825260208201905092915050565b6000819050602082019050919050565b600060a08301600083015161417d6000860182613feb565b5060208301518482036020860152614195828261405a565b915050604083015184820360408601526141af828261405a565b915050606083015184820360608601526141c9828261405a565b91505060808301516141de6080860182613f0d565b508091505092915050565b60006141f58383614165565b905092915050565b6000602082019050919050565b600061421582614139565b61421f8185614144565b93508360208202850161423185614155565b8060005b8581101561426d578484038952815161424e85826141e9565b9450614259836141fd565b925060208a01995050600181019050614235565b50829750879550505050505092915050565b60006020820190508181036000830152614299818461420a565b905092915050565b600080fd5b600080fd5b7f4e487b7100000000000000000000000000000000000000000000000000000000600052604160045260246000fd5b6142e382614049565b810181811067ffffffffffffffff82111715614302576143016142ab565b5b80604052505050565b6000614315613e38565b905061432182826142da565b919050565b600067ffffffffffffffff821115614341576143406142ab565b5b61434a82614049565b9050602081019050919050565b82818337600083830152505050565b600061437961437484614326565b61430b565b905082815260208101848484011115614395576143946142a6565b5b6143a0848285614357565b509392505050565b600082601f8301126143bd576143bc6142a1565b5b81356143cd848260208601614366565b91505092915050565b600080600080600060a086880312156143f2576143f1613e42565b5b600061440088828901613e6d565b955050602086013567ffffffffffffffff81111561442157614420613e47565b5b61442d888289016143a8565b945050604086013567ffffffffffffffff81111561444e5761444d613e47565b5b61445a888289016143a8565b935050606086013567ffffffffffffffff81111561447b5761447a613e47565b5b614487888289016143a8565b925050608086013567ffffffffffffffff8111156144a8576144a7613e47565b5b6144b4888289016143a8565b9150509295509295909350565b600082825260208201905092915050565b60006144dd82613ffa565b6144e781856144c1565b93506144f7818560208601614016565b61450081614049565b840191505092915050565b61451481613efb565b82525050565b600061012082019050614530600083018c613fc1565b8181036020830152614542818b6144d2565b90508181036040830152614556818a6144d2565b9050818103606083015261456a81896144d2565b9050818103608083015261457e81886144d2565b905081810360a083015261459281876144d2565b905081810360c08301526145a681866144d2565b90506145b560e0830185613fc1565b6145c361010083018461450b565b9a9950505050505050505050565b600080604083850312156145e8576145e7613e42565b5b60006145f685828601613e6d565b925050602061460785828601613e6d565b9150509250929050565b600061012082019050614627600083018c613fc1565b614634602083018b613fc1565b614641604083018a613fc1565b818103606083015261465381896144d2565b9050818103608083015261466781886144d2565b905081810360a083015261467b81876144d2565b905081810360c083015261468f81866144d2565b905061469e60e083018561450b565b8181036101008301526146b181846144d2565b90509a9950505050505050505050565b6000806000606084860312156146da576146d9613e42565b5b600084013567ffffffffffffffff8111156146f8576146f7613e47565b5b614704868287016143a8565b935050602084013567ffffffffffffffff81111561472557614724613e47565b5b614731868287016143a8565b925050604084013567ffffffffffffffff81111561475257614751613e47565b5b61475e868287016143a8565b9150509250925092565b61477181613efb565b811461477c57600080fd5b50565b60008135905061478e81614768565b92915050565b6000602082840312156147aa576147a9613e42565b5b60006147b88482850161477f565b91505092915050565b600060a0820190506147d66000830188613fc1565b81810360208301526147e881876144d2565b905081810360408301526147fc81866144d2565b9050818103606083015261481081856144d2565b905061481f608083018461450b565b9695505050505050565b6000610120830160008301516148426000860182613feb565b506020830151848203602086015261485a828261405a565b91505060408301518482036040860152614874828261405a565b9150506060830151848203606086015261488e828261405a565b915050608083015184820360808601526148a8828261405a565b91505060a083015184820360a08601526148c2828261405a565b91505060c083015184820360c08601526148dc828261405a565b91505060e08301516148f160e0860182613feb565b50610100830151614906610100860182613f0d565b508091505092915050565b6000602082019050818103600083015261492b8184614829565b905092915050565b6000806040838503121561494a57614949613e42565b5b60006149588582860161477f565b925050602061496985828601613e6d565b9150509250929050565b6000602082019050614988600083018461450b565b92915050565b600081519050919050565b600082825260208201905092915050565b6000819050602082019050919050565b6000610120830160008301516149d36000860182613feb565b50602083015184820360208601526149eb828261405a565b91505060408301518482036040860152614a05828261405a565b91505060608301518482036060860152614a1f828261405a565b91505060808301518482036080860152614a39828261405a565b91505060a083015184820360a0860152614a53828261405a565b91505060c083015184820360c0860152614a6d828261405a565b91505060e0830151614a8260e0860182613feb565b50610100830151614a97610100860182613f0d565b508091505092915050565b6000614aae83836149ba565b905092915050565b6000602082019050919050565b6000614ace8261498e565b614ad88185614999565b935083602082028501614aea856149aa565b8060005b85811015614b265784840389528151614b078582614aa2565b9450614b1283614ab6565b925060208a01995050600181019050614aee565b50829750879550505050505092915050565b60006020820190508181036000830152614b528184614ac3565b905092915050565b6000819050919050565b6000614b7f614b7a614b7584613edb565b614b5a565b613edb565b9050919050565b6000614b9182614b64565b9050919050565b6000614ba382614b86565b9050919050565b614bb381614b98565b82525050565b6000602082019050614bce6000830184614baa565b92915050565b600081519050919050565b600082825260208201905092915050565b6000819050602082019050919050565b600061012083016000830151614c196000860182613feb565b506020830151614c2c6020860182613feb565b506040830151614c3f6040860182613feb565b5060608301518482036060860152614c57828261405a565b91505060808301518482036080860152614c71828261405a565b91505060a083015184820360a0860152614c8b828261405a565b91505060c083015184820360c0860152614ca5828261405a565b91505060e0830151614cba60e0860182613f0d565b50610100830151848203610100860152614cd4828261405a565b9150508091505092915050565b6000614ced8383614c00565b905092915050565b6000602082019050919050565b6000614d0d82614bd4565b614d178185614bdf565b935083602082028501614d2985614bf0565b8060005b85811015614d655784840389528151614d468582614ce1565b9450614d5183614cf5565b925060208a01995050600181019050614d2d565b50829750879550505050505092915050565b60006020820190508181036000830152614d918184614d02565b905092915050565b60008060008060008060c08789031215614db657614db5613e42565b5b600087013567ffffffffffffffff811115614dd457614dd3613e47565b5b614de089828a016143a8565b965050602087013567ffffffffffffffff811115614e0157614e00613e47565b5b614e0d89828a016143a8565b955050604087013567ffffffffffffffff811115614e2e57614e2d613e47565b5b614e3a89828a016143a8565b945050606087013567ffffffffffffffff811115614e5b57614e5a613e47565b5b614e6789828a016143a8565b935050608087013567ffffffffffffffff811115614e8857614e87613e47565b5b614e9489828a016143a8565b92505060a087013567ffffffffffffffff811115614eb557614eb4613e47565b5b614ec189828a016143a8565b9150509295509295509295565b60008115159050919050565b614ee381614ece565b82525050565b6000602082019050614efe6000830184614eda565b92915050565b7f4e487b7100000000000000000000000000000000000000000000000000000000600052603260045260246000fd5b7f596f7520617265206e6f7420656d706c6f796572206f662074686973206a6f6260008201527f2e00000000000000000000000000000000000000000000000000000000000000602082015250565b6000614f8f6021836144c1565b9150614f9a82614f33565b604082019050919050565b60006020820190508181036000830152614fbe81614f82565b9050919050565b7f4e487b7100000000000000000000000000000000000000000000000000000000600052602260045260246000fd5b6000600282049050600182168061500c57607f821691505b602082108114156150205761501f614fc5565b5b50919050565b7f4e487b7100000000000000000000000000000000000000000000000000000000600052601160045260246000fd5b600061506082613e4c565b91507fffffffffffffffffffffffffffffffffffffffffffffffffffffffffffffffff82141561509357615092615026565b5b600182019050919050565b7f596f7520617265206e65697468657220656d706c6f796572206f66207468697360008201527f206a6f62206e6f72206f776e65722e0000000000000000000000000000000000602082015250565b60006150fa602f836144c1565b91506151058261509e565b604082019050919050565b60006020820190508181036000830152615129816150ed565b9050919050565b600061513b82613e4c565b915061514683613e4c565b92508282101561515957615158615026565b5b828203905092915050565b600061516f82613e4c565b915061517a83613e4c565b9250827fffffffffffffffffffffffffffffffffffffffffffffffffffffffffffffffff038211156151af576151ae615026565b5b828201905092915050565b7f4e487b7100000000000000000000000000000000000000000000000000000000600052603160045260246000fd5b60006151f482613e4c565b9150600082141561520857615207615026565b5b600182039050919050565b7f596f752061726520616c726561647920726567697374657265642e0000000000600082015250565b6000615249601b836144c1565b915061525482615213565b602082019050919050565b600060208201905081810360008301526152788161523c565b9050919050565b7f4163636573732044656e69656420212100000000000000000000000000000000600082015250565b60006152b56010836144c1565b91506152c08261527f565b602082019050919050565b600060208201905081810360008301526152e4816152a8565b9050919050565b600081905092915050565b7f6170706c69656400000000000000000000000000000000000000000000000000600082015250565b600061532c6007836152eb565b9150615337826152f6565b600782019050919050565b600061534d8261531f565b9150819050919050565b60008190508160005260206000209050919050565b6000815461537981614ff4565b61538381866152eb565b9450600182166000811461539e57600181146153af576153e2565b60ff198316865281860193506153e2565b6153b885615357565b60005b838110156153da578154818901526001820191506020810190506153bb565b838801955050505b50505092915050565b60006153f7828461536c565b915081905092915050565b7f496e697469616c697a61626c653a20636f6e747261637420697320616c72656160008201527f647920696e697469616c697a6564000000000000000000000000000000000000602082015250565b600061545e602e836144c1565b915061546982615402565b604082019050919050565b6000602082019050818103600083015261548d81615451565b9050919050565b6000819050919050565b600060ff82169050919050565b60006154c66154c16154bc84615494565b614b5a565b61549e565b9050919050565b6154d6816154ab565b82525050565b60006020820190506154f160008301846154cd565b92915050565b7f4f776e61626c653a206e6577206f776e657220697320746865207a65726f206160008201527f6464726573730000000000000000000000000000000000000000000000000000602082015250565b60006155536026836144c1565b915061555e826154f7565b604082019050919050565b6000602082019050818103600083015261558281615546565b9050919050565b7f4f776e61626c653a2063616c6c6572206973206e6f7420746865206f776e6572600082015250565b60006155bf6020836144c1565b91506155ca82615589565b602082019050919050565b600060208201905081810360008301526155ee816155b2565b9050919050565b7f496e697469616c697a61626c653a20636f6e7472616374206973206e6f74206960008201527f6e697469616c697a696e67000000000000000000000000000000000000000000602082015250565b6000615651602b836144c1565b915061565c826155f5565b604082019050919050565b6000602082019050818103600083015261568081615644565b905091905056fea26469706673582212203bbc4cf7fa965fae09a6ef8fbfae6ca489a0761387e34b8cb8a914d261370c9164736f6c634300080b0033",
  "linkReferences": {},
  "deployedLinkReferences": {}
}